:020000040800F2
:1000000058970020E901000859270008370C00081C
:1000100055270008F1090008732E000800000000B1
:10002000000000000000000000000000F92A0008A5
:10003000F509000800000000E12700080D2C000869
:10004000030200080302000803020008030200087C
:10005000030200080302000803020008F90900086F
:10006000030200080302000803020008030200085C
:10007000030200080302000803020008030200084C
:10008000030200080302000803020008030200083C
:10009000030200080302000803020008030200082C
:1000A000030200080302000803020008030200081C
:1000B000030200080302000803020008030200080C
:1000C00003020008030200080302000803020008FC
:1000D00003020008712C0008030200080302000854
:1000E00003020008030200080302000803020008DC
:1000F00003020008030200080302000803020008CC
:1001000003020008030200080302000803020008BB
:1001100003020008030200080302000803020008AB
:10012000030200080302000803020008030200089B
:1001300000F002F800F048F80AA090E8000C8244B1
:100140008344AAF10107DA4501D100F03DF8AFF28E
:10015000090EBAE80F0013F0010F18BFFB1A43F0A5
:1001600001031847BCA20000DCA20000103A24BF23
:1001700078C878C1FAD8520724BF30C830C144BF0C
:1001800004680C607047000000230024002500264E
:10019000103A28BF78C1FBD8520728BF30C148BFEA
:1001A0000B607047642900F0B180752900F0AE80C3
:1001B000782900F0E780732900F08F8300207047D2
:1001C0001FB51FBD10B510BD00F0DFFB1146FFF7D6
:1001D000F7FF04F033FE00F0FDFB03B4FFF7F2FF7E
:1001E00003BC02F04FFE0000094880470948004761
:1001F000FEE7FEE7FEE7FEE7FEE7FEE7FEE7FEE7D7
:10020000FEE7FEE704480549054A064B7047000033
:10021000112C000831010008588500205897002053
:100220005887002058870020704700000FB4044909
:1002300010B503AA029800F055FB10BC5DF814FB42
:10024000080000200FB41CB5074B06AA7B44694682
:100250000090059800F017FB0020694600F026FB8F
:100260001CBC5DF814FB00005D06000070B5044680
:1002700085690068C10601D5302600E02026C00748
:1002800007D070BDD4E9012130469047206A401C58
:1002900020626D1EF6D570BD70B504468569007884
:1002A000C00707D170BDD4E9012120209047206A02
:1002B000401C20626D1EF6D570BD70B50C4605461B
:1002C000012A05D02878800600D5EA69002302E0DB
:1002D000012305E05B1C934202D2E05C0028F9D1C7
:1002E000A869E618C01AA861286A18442862284636
:1002F000FFF7BCFF04E0D5E9012114F8010B90479A
:10030000B442F8D32846FFF7C7FF70BD2DE9F0418E
:100310000646002410687529314616A510D0AFF3A3
:100320000080002802DA404213A507E031688A07FE
:1003300001D512A502E0490704D511A5012401E069
:10034000AFF3008000210A2206F1240709E0B0FB88
:10035000F2FCB0FBF2F302FB1C003030785418467C
:10036000491C0028F3D123462A463046BDE8F04117
:1003700000F02ABA000000002D0000002B00000051
:100380002000000070B504460D4621461068AFF30A
:1003900000802188090502D50F4A7A4402E00E4AFE
:1003A0007A440E32002104F1240305E000F00F0628
:1003B0000009965D5E54491C0028F7D1207800237F
:1003C000000704D5702D02D009B102231132204656
:1003D000BDE8704000F0F8B9C69900002DE9F05F63
:1003E000894604464FF0000ADFF874B1FB44C0F8B8
:1003F00020A02046E1688847002874D0252806D030
:10040000D4E901219047206A401C2062F1E70026D0
:100410005F462046E16888472028054607DB312DE6
:1004200005D2781910F8200C08B10643F1E7B0079F
:1004300001D526F00406C4F81CA00027C4F818A0B3
:100440002A2D09D0284602F016FD38B304EB8708A0
:10045000303DC8F8185019E059F8041B204604EB49
:1004600087029161E1688847012F054618D1E0694C
:10047000002820DA26F020061DE0D8F8180000EB4E
:10048000800005EB40003038C8F818002046E168CD
:100490008847054602F0EFFC0028EED1012F0AD074
:1004A0002E2D08D12046E16888477F1C0546022F83
:1004B00046F02006C4DBA069002803DA404246F07B
:1004C0000106A061F00701D026F010066C2D0BD0BC
:1004D000682D09D04C2D39D06A2D35D0742D35D0EA
:1004E0007A2D33D016E038E0E1682F462046884761
:1004F000B842054609D16C2F26D04FF48060E168E0
:10050000064320468847054604E06C2F1AD04FF476
:10051000807006430DB3A5F14100192802D820359B
:1005200046F400664A462946204626604E46FFF7B6
:1005300039FE80B101280BD0F61D26F0070000F12E
:10054000080956E74020E4E78020D8E70020D6E7F6
:1005500006F104094DE7284652E7206ABDE8F09FFE
:100560009C99000040EA010310B59B070FD1042AB3
:100570000DD310C808C9121F9C42F8D020BA19BA6E
:10058000884201D9012010BD4FF0FF3010BD1AB1D3
:10059000D30703D0521C07E0002010BD10F8013B28
:1005A00011F8014B1B1B07D110F8013B11F8014B4F
:1005B0001B1B01D1921EF1D1184610BD032A40F237
:1005C000308010F0030C00F0158011F8013BBCF1F5
:1005D000020F624498BF11F801CB00F8013B38BF0D
:1005E00011F8013BA2F1040298BF00F801CB38BF1B
:1005F00000F8013B11F0030300F06780083AC0F0F7
:10060000088051F8043B083A51F804CBA0E80810E0
:10061000F5E7121D5CBF51F8043B40F8043BAFF313
:100620000080D20724BF11F8013B11F801CB48BF6D
:1006300011F8012B24BF00F8013B00F801CB48BFA3
:1006400000F8012B7047431A28BF9A427FF6B6AFD5
:10065000032A1044114440F2268010F0030F1EBFFD
:1006600011F8013D521E00F8013D10F0030F7FF418
:10067000F6AF11F0030300F05A81083AC0F00B8086
:1006800051F8043D083A51F804CD40F8043D40F8D3
:1006900004CDFFF7F3BF121D5CBF51F8043D40F8D5
:1006A000043DAFF30080D20724BF11F8013D11F8DB
:1006B00001CD48BF11F8012C24BF00F8013D00F81E
:1006C00001CD48BF00F8012C704710B5203AC0F0AA
:1006D0000B80B1E81850203AA0E81850B1E8185043
:1006E000A0E81850BFF4F5AF5FEA027C24BFB1E880
:1006F0001850A0E8185044BF18C918C0BDE81040F1
:100700005FEA827C24BF51F8043B40F8043B08BFF9
:100710007047D20728BF31F8023B48BF11F8012BC0
:1007200028BF20F8023B48BF00F8012B70474FF06C
:1007300000020429C0F0128010F0030C00F01B80AE
:10074000CCF1040CBCF1020F18BF00F8012BA8BFBC
:1007500020F8022BA1EB0C0100F00DB85FEAC17C80
:1007600024BF00F8012B00F8012B48BF00F8012B33
:1007700070474FF0000200B5134694469646203964
:1007800022BFA0E80C50A0E80C50B1F12001BFF44A
:10079000F7AF090728BFA0E80C5048BF0CC05DF8B0
:1007A00004EB890028BF40F8042B08BF704748BFFE
:1007B00020F8022B11F0804F18BF00F8012B704772
:1007C00070477047704770472DE9F0470D469946CE
:1007D0009246044600F124080168880604D5E069C1
:1007E00021F01001216000E00120A84201DD471B3B
:1007F00000E00027A1697A1902EB0900081AA0613C
:100800002078C00602D42046FFF730FD002608E01D
:10081000D4E901211AF806009047206A401C761C92
:1008200020624E45F4DB2078C0060AD52046FFF74B
:100830001DFD06E0D4E9012130209047206A401CCC
:100840002062381EA7F10107F4DC07E0D4E901219A
:1008500018F805009047206A401C2062281EA5F168
:100860000105F3DC2046FFF717FD2078000602D5CE
:100870000220BDE8F0870120FBE7000001694A1C67
:1008800002610878704700B58FB0CDE901310021D1
:10089000059105497944CDE9031011466846FFF7F3
:1008A0009DFD0FB000BD0000E5FFFFFF0A6802F8E4
:1008B000010B0A60704710B5436913B1AFF30080B4
:1008C00001E0FFF7FAFC012010BD127800F12401CD
:1008D0000A7000224A700122EDE711684FF0FF32E2
:1008E000E9E70000074B70B50D467B44FFF7CBFFEF
:1008F0000446284600F045F810B14FF0FF3070BDB7
:10090000204670BDF7400000431A28BF9A427FF688
:10091000DCAE104410F0030F11441EBF11F8013D6E
:10092000521E00F8013D10F0030F7FF4F6AF103AAD
:10093000C0F00A8010B531E91850103A20E918507B
:10094000BFF4F9AFBDE81040530724BF31E90810E8
:1009500020E9081044BF51F8043D40F8043D12F06E
:10096000030F08BF7047D20728BF31F8023D48BFC8
:1009700011F8012C28BF20F8023D48BF00F8012CD7
:100980007047007B00F080007047754600F02CF83F
:10099000AE4605006946534620F00700854618B06C
:1009A00020B5FFF72FFCBDE820404FF000064FF0C8
:1009B00000074FF000084FF0000B21F00701AC4694
:1009C000ACE8C009ACE8C009ACE8C009ACE8C009B3
:1009D0008D46704710B50446AFF300802046BDE851
:1009E0001040FFF7FABB000000487047F484002075
:1009F00000BFFEE77047000010B50221104800F06C
:100A0000FFF8012817D10A2003F03AFD02210C4813
:100A100000F0F6F801280ED10A48007808B9012044
:100A200000E0002007490870084602784FF4804132
:100A3000054800F0FBF8022000F008F810BD0000A7
:100A40000018014000000020001401400149086026
:100A500070470000140401402DE9F04102460025D2
:100A60000026002000230024002791F803C00CF08A
:100A70000F0591F803C00CF0100CBCF1000F03D06F
:100A800091F802C04CEA050591F800C0BCF1000FD6
:100A900031D0146800202BE04FF0010C0CFA00F369
:100AA000B1F800C00CEA03069E4220D183004FF04B
:100AB0000F0C0CFA03F7BC4305FA03FC4CEA0404E0
:100AC00091F803C0BCF1280F06D14FF0010C0CFACD
:100AD00000FCC2F814C00AE091F803C0BCF1480F52
:100AE00005D14FF0010C0CFA00FCC2F810C0401CFC
:100AF0000828D1D31460B1F800C0BCF1FF0F34DD79
:100B0000546800202EE000F1080C4FF0010808FAAC
:100B10000CF3B1F800C00CEA03069E4221D1830019
:100B20004FF00F0C0CFA03F7BC4305FA03FC4CEA38
:100B3000040491F803C0BCF1280F05D100F1080CA2
:100B400008FA0CF8C2F8148091F803C0BCF1480F01
:100B500007D100F1080C4FF0010808FA0CF8C2F8B0
:100B60001080401C0828CED35460BDE8F0810000FE
:100B7000F0B50A46002300240021002500F00046BD
:100B8000B6F1004F02D11D4EF16901E01B4E7168B4
:100B9000C0F3034583B200F44016B6F5401F08D1F8
:100BA00021F07061154E766826F07066134F7E60F6
:100BB00012E000F48016B6F5801F06D1032606FA6F
:100BC00005F4A14341F0706106E0460D360103FAD9
:100BD00006F6B14341F0706122B1460D360103FAC9
:100BE00006F6314300F00046B6F1004F02D1034E45
:100BF000F16101E0014E7160F0BD000000000140B4
:100C00000246002093680B400BB1012000E0002059
:100C1000704702460020D3680B400BB1012000E072
:100C20000020704741617047016170470AB101615E
:100C300000E04161704700BFFEE721B1828B42F4C2
:100C40008062828304E0828B4FF6FF331A408283F6
:100C5000704700002DE9F04F85B005460C464FF077
:100C6000000902274FF000084FF0010B0026B246A2
:100C7000A88B4FF240010840A88302202884B5F8D1
:100C80001C90A068022801D100BF38E0A08810B9EC
:100C90004FF0010B01E04FF0020B2748854200D1D5
:100CA00000E000BF684601F0EDFDDDF800A0E0883F
:100CB000B0F5007F0AD14FEA1A2000EB8000400017
:100CC000A168B0FBF1F0401D86B20BE04FEA4B107B
:100CD000BAFBF0F000EB80004000A168B0FBF1F03F
:100CE000401D86B20A20B6FBF0F606F00108A6EB1E
:100CF0000800C0F34F074FF6FF7000EA0828022FE4
:100D000001DBFF2F02DD02274FF00008E08840EAF8
:100D1000080038432884A088A189084361880843D3
:100D20002188084340F4006040EA0909A5F81C90B6
:100D300005B0BDE8F08F0000003800402DE9F0411B
:100D400006460F46144696F8003396F801C3A3EB07
:100D50000C0303EBC303DA000CEBCC0304EBC3017D
:100D60000CEBCC034FEA430C04F5106303EB8C004F
:100D7000FFF7ABFC4FF000081AE0002512E054F832
:100D80002500396806F0B4FE44F8250005F5107218
:100D900054F82200F96806F0ABFE05F5107144F82E
:100DA00021006D1C0C2DEADB08F1010848341837CE
:100DB00096F800034045E0DCBDE8F0812DE9FF4FE7
:100DC00083B090461D464FF4107002904FF0000A19
:100DD00059E005FB0AF0039901EB800B4FF0000985
:100DE0004AE008F2023010F80960002E3BD0112EC4
:100DF00016DA701E012101FA00F0401E0190002455
:100E00000BE03146049803F0FBFD0199471A384680
:100E100006F056FE4BF82400641CAC42F1DB22E0E5
:100E2000A6F11100022101FA00F0471CB81CA0EB4A
:100E3000D701049803F0E4FD0190002410E001982C
:100E4000B0FBF7F107FB1100A0EB5700009006F094
:100E500037FE4BF82400641C0198B0FBF7F00190BA
:100E6000AC42ECDB00BF02980BEB800B0298C0F1A8
:100E70001200029009F1010998F80003400048456A
:100E8000AFDC0AF1010ABAF1040FA2DBA80007B037
:100E9000BDE8F08F2DE9FC5F0746884614462146E1
:100EA000384600F0C1F806464FF0000900200190D6
:100EB000DFF8D4A000252AE04D4508D1B078814460
:100EC000707801903078304900EB010AF61C4046FA
:100ED000019903F095FD1AF800B004F2023000F811
:100EE00015B094F80103A84205DD4046019903F0CE
:100EF00087FD1AF800B094F8010308B15A4600E0E3
:100F000000226800401C04F202310A546D1C94F85F
:100F10000003A842D0DC002515E004F20230405D59
:100F200058B1787800F00600062801D1022005E0CB
:100F30000221404603F064FD00E00620C1B204F245
:100F4000423041556D1C94F800034000A842E4DC97
:100F5000009494F80003430004F2423204F2023198
:100F6000404600F013F894F8015306E000226800B0
:100F7000401C04F202310A546D1C94F80003A8428C
:100F8000F4DCBDE8FC9F00003C8200082DE9FF4F27
:100F900085B00C4617469846DDF8489000253CE0A1
:100FA0000020049014F801ABBAF1000F06D0795D6F
:100FB0001320084100F00300001D00E00020039012
:100FC000042627E00398304000B30621059803F07B
:100FD00017FD834603209BFBF0F100FB11B10AEBE8
:100FE0004A00801F08440F4951F820000290032056
:100FF0009BFBF0F14FF400100841009006F060FDFB
:101000000190029906F074FD049000BF049849F81D
:10101000040B7610002ED5D16D1C4545C0DB09B000
:10102000BDE8F08F648100082DE9F05F0446884632
:10103000E0784FEA9019B9F1030F01D1002009E0DF
:10104000B9F1010F05D1E078C0F301108000001D57
:1010500000E020208346607800F00600062802D1D8
:101060001C4E20252AE0607800F0080010B91A4EC6
:101070001E2523E0A078C0F3810A204603F086FDF8
:10108000B9F1030F01D0012100E0002120FA01F79E
:1010900007B9C027114E1B25382F08D2104EBAF1C0
:1010A000020F01D10C2000E00820054605E0602F6A
:1010B00003D3BAF1010F00D01E2500BF88F80053FA
:1010C000AB4501DD284600E0584688F8010330466C
:1010D000BDE8F09F44810008478100085081000866
:1010E0005C8100082DE9F04705460E463AE00024F1
:1010F00034E004F1120055F82070C4F1110055F8E5
:1011000020801A4850F82410404606F0F1FC814631
:101110001648203850F82410384606F0E9FC82467C
:10112000494606F0BBFD04F1120145F821000F48C5
:10113000203850F82410404606F0DAFC81460B486F
:1011400050F82410384606F0D3FC8246494606F093
:1011500037FBC4F1110145F82100641C082CC8DBE1
:10116000761E4835002EC2DCBDE8F08734980008B2
:10117000002248300CE0012106E050F8213083F0D5
:10118000004340F82130891C1229F6DB921C903074
:10119000202AF0DB704700002DE9F04F87B00446AD
:1011A0002568A768D4F81090D4F818B0206A059084
:1011B0004FF07C51584606F09BFC2946019006F002
:1011C000FFFA04905946284606F068FD0546394660
:1011D000484606F0F5FA6249019006F089FC029053
:1011E0003946059806F0ECFA5E49019006F080FC5D
:1011F00003904846059906F051FD5B49019006F0C1
:1012000077FC83463946059806F048FD494601902B
:1012100006F0D6FA81464FF07C51484606F068FC4D
:101220002946019006F030FD07462946484606F05B
:10123000C7FA2061DDE9031006F030FD5946019040
:1012400006F0BEFA05900299049806F027FD019079
:10125000039906F0B5FA05460299049806F0B0FA2B
:101260005946019006F01AFD81466668D4F80C8054
:10127000D4F814A0E06906903C49404606F038FCDA
:1012800080463146504606F09BFA3949019006F0F7
:101290002FFC04905046069906F000FD3549019058
:1012A00006F026FC02903046069906F089FA32498B
:1012B000019006F01DFC03905146304606F0EEFC0E
:1012C0000090069906F0EAFC2849019006F010FC0F
:1012D00006464146049806F0E1FC0190039906F0A9
:1012E000DDFC82464146029806F0D8FC0190049944
:1012F00006F0D4FC06904146029806F061FA01908F
:10130000039906F0CBFC80464846069906F0C6FCD9
:1013100020603146384606F053FA60604146284660
:1013200006F0BCFCA0605146059806F049FAE06062
:101330005146059806F0B2FC60614146284606F029
:101340003FFAA0613146384606F0A8FCE061484605
:10135000069906F035FA206207B0BDE8F08F00006C
:10136000B28F703F7D1B443FD4D0313ED7B35D3F39
:101370005C1C7C3F441DAF3EBB8D243F2DE9FC47E8
:1013800007460C4616469946002531E0C5EBC501D7
:1013900006EB81018988606800EB010841F67C500A
:1013A0002044CDE90005C5EBC50006EB8003C5EB85
:1013B000C50000EB451043F61C72224481182246FA
:1013C00041F60800384400F099F8C5EBC50106EB7A
:1013D000810205EBC50304F67C3101EB032041F6E5
:1013E0007C5163182146CDF8008000F077F96D1C20
:1013F0004D45CBDB41F608003844C07800F01000C2
:1014000060B141F608003B18324643F61C702118C3
:10141000273104F67C3000F064FD0DE041F6080051
:101420003844C07800F0E000602805D14FF4107116
:1014300004F67C3000F0F6FD00255AE04FF01F0A5C
:1014400041F6080038444078C0F3C00041F6080176
:1014500039444978C1F30011084400EB400041F6DB
:10146000080139448978C1F381010844022801D177
:10147000012100E00021307B08B1022000E00020C3
:1014800000FA01F8B07B98B1A8F1010A737B3168CA
:10149000CA1805EBC50304F67C3101EB032108EB08
:1014A000C80301EBC30041F61C61214400F0ACFF0E
:1014B00005EBC50204F67C3101EB02205146FFF733
:1014C00011FEF27A05EBC50307EBC31105EBC50C62
:1014D00004F67C3303EB0C20434600F0A5FC05EB3F
:1014E000C50204F67C3101EB0220FFF741FE6D1CC2
:1014F0001C364D45A2DBBDE8FC8700002DE9FF4FFF
:101500008FB0064691461C46A07B08B1012000E042
:101510000020617B09B9012100E000210844C0EBF3
:10152000C0006A4901EB8007607E00F10108E07E9F
:101530000390707800F0080070B12189644A505C13
:1015400081088DF838108DF8391000F003018DF8FE
:101550003A108DF83B1042E096F803C00CF0100CE6
:10156000BCF1000F07D0DDF874C0BCF1000F02D051
:101570004FF0010C01E04FF0000C6346B4F808C0D6
:101580004CFA03F103EB430C4FEA8C001FE00122FD
:10159000032518E091FBF2FC00EB050BDFF834E1CA
:1015A0001EF80BB09CFBFBFE0BFB1ECC0DF1380BA9
:1015B0000BF805C000EB050CDFF818B11BF80CC0E8
:1015C00002FB0CF26D1E002DE4DA891A001D0029C1
:1015D000DDDA07446FF00F0CCDF80CC000BF0398A4
:1015E0003B460EAACDE9009004A8109900F08AFDB0
:1015F000A07B70B3C8F10300002526E0617B29447D
:1016000004AA525C617D81401144CAB2617B2944C5
:1016100004AB5A54617B2944491C04AA525CA17D45
:1016200081401144CAB2617B2944491C5A54617BF0
:101630002944891C04AA525CE17D81401144CAB24C
:10164000617B2944891C5A54ED1CA17BA942D5DC3D
:1016500013E0FFE7207E80B100250CE005F10B00D0
:1016600004A9085C1C49495D0844C1B205F10B009E
:1016700004AA11546D1C0A2DF0DBA07AD638F1783B
:1016800001F0E001602901D1022100E00021A0EB7E
:10169000010ACAF12C014FF08A4000F09BFC029035
:1016A00000250BE004A8405D00FA08F1029800F064
:1016B00091FC01461C9840F825106D1C607BA17BB5
:1016C0000844A842EEDC13B0BDE8F08FE0850008C6
:1016D00034860008448600085C8600082DE9FF4F28
:1016E0008FB00746984600200E900D901198C08844
:1016F0000C901198D0F8009010994868C11700EB31
:101700005171CA101099096856187178307801EB38
:101710000020B17801EB0020F17801EB0020109956
:10172000097901F0070100FA01F41098007900F03E
:101730000700A0F10805361D39E111980F300D9909
:10174000405C0A900D99481C0D9011981230405C35
:101750000990E3490A9831F91000E24901EB400091
:101760000890E1490A98085C0790079800287AD009
:1017700000BF19F8010B00EBD0714FEA610A0C9819
:10178000504501DD504600E00C980B9058F8040BD2
:101790000E9000BF052005900598C0F1200024FAA6
:1017A00000F0089931F910B010E0059884400598D0
:1017B00005440BF0070005900598C0F1200024FABD
:1017C00000F0A0EBEB01089830F911B0BBF1000F6D
:1017D000EBDB4FEA2B20844005EB2B250020069005
:1017E00050E00BF00F00049004980F282AD10798BE
:1017F000C0F1200024FA00F00499084404900798EE
:1018000084400798054404E016F8010BA8400443FF
:10181000083D002DF8DA002C02DA4FF0FF3100E02D
:101820000121084606F04CF90390049800F018FCDA
:1018300001900E9906F05CF90290039906F058F9B0
:1018400038600CE004991031E20F102303FB1212F0
:10185000A64951F822000E9906F04AF9386004981A
:1018600010B1012001E02BE000208440049808B171
:10187000012000E0002005440698401C06903F1D12
:101880004FEA2B1B06980228ABDB04E016F8010B8D
:10189000A8400443083D002DF8DA0B98401E0B9039
:1018A00000287FF477AF0C98A0EB0A000C9000287A
:1018B0007CDD0998401E09900028BFF65AAF75E0FC
:1018C00000BF19F8010B00EBD0714FEA610A0C98C8
:1018D000504501DD504600E00C980B9058F8040B81
:1018E0000E9000BF052005900598C0F1200024FA55
:1018F00000F0089931F910B010E00598844005987F
:1019000005440BF0070005900598C0F1200024FA6B
:1019100000F0A0EBEB01089830F911B0BBF1000F1B
:10192000EBDB4FEA2B20844005EB2B2500200690B3
:1019300021E00BF00F00049004991031E20F102306
:1019400003FB1211694A52F821000E9906F0D0F8F3
:101950003860049808B1012000E000208440049819
:1019600008B1012000E0002005440698401C0690C4
:101970003F1D4FEA2B1B06980228DADB04E016F81D
:10198000010BA8400443083D002DF8DA0B98401ED7
:101990000B900028A6D10C98A0EB0A000C90002810
:1019A00004DD0998401E099000288ADA00BF0C98CF
:1019B00000283FF7C2AE0C98C0F1010A00BF119A8F
:1019C000927E0AB14A4A00E04A4A114601EB14727B
:1019D000107800F0080242B9220100F00303C3F1BD
:1019E0002003DA4002EBE002885C00F0070294403A
:1019F00000F007021544109A1268B21A1823C3EBBC
:101A0000C20253191C9A934200DD61E0AAF101025F
:101A1000B2F1000A0CD119F8012B02EBD2734FEA94
:101A2000630ABAF1000F00D152E058F8042B0E926D
:101A300000F080024AB1002C03DA0E9A82F00042D4
:101A400000E00E9A3A6064006D1C00F040024AB15A
:101A5000002C03DA0E9A82F0004200E00E9A7A60BF
:101A600064006D1CAAF10102B2F1000A0CD119F850
:101A7000012B02EBD2734FEA630ABAF1000F00D1D7
:101A800026E058F8042B0E9200F020024AB1002CF8
:101A900003DA0E9A82F0004200E00E9ABA60640007
:101AA0006D1C00F010024AB1002C03DA0E9A82F08D
:101AB000004200E00E9AFA6064006D1C04E016F823
:101AC000012BAA401443083D002DF8DA103776E7C1
:101AD00000BF10991C98486013B0BDE8F08F00005B
:101AE0007A97000866860008BA970008987E000872
:101AF0006A9700084E9700082DE9F04706460F4602
:101B000015461C460F49384605F0F2FF81464FF056
:101B10007C51284605F0ECFF8246314606F0B4F8C9
:101B200080462946304605F04BFE606049464046F7
:101B300005F046FE20604946404606F0AFF8A0603A
:101B4000BDE8F087D7B35D3F2DE9F04F87B005467C
:101B50000E461746696A286B05F032FE8146E96831
:101B6000A86905F02DFE8246286880F0004804AB85
:101B70004A4651464046FFF7BFFFE968A86906F0AC
:101B80008DF88046696A286B06F088F8814601ABBB
:101B900042464946E86BFFF7AFFF029880F00040ED
:101BA0000290002461E057F82480324A52F8241051
:101BB00001AA52F8240005F09BFF8246E21C2D4B3F
:101BC00053F8221004AA52F8240005F091FF83462E
:101BD000514605F0F5FD8146E21C264B53F82210D4
:101BE00001AA52F8240005F083FF8246214A52F8E8
:101BF000241004AA52F8240005F07AFF83465146C7
:101C000006F04CF847F82400C4F10500194A52F8D0
:101C10002010484605F06CFF8246C4F10200154AC8
:101C200052F82010404605F063FF8346514606F007
:101C300035F846F82400C4F102000E4A52F820108C
:101C4000484605F055FF8246C4F10500094A52F89E
:101C50002010404605F04CFF8346514605F0B0FD8C
:101C6000C4F1050146F82100641C032C9BDB07B07E
:101C7000BDE8F08F9C9800082DE9F04F95B005461F
:101C80000F46164698464FF00009C4E0286880F0D9
:101C900000400C90686C0390002440E0A200921C6D
:101CA00055F82210A200521C55F8220005F0F6FF4C
:101CB0006100C1F1080103AA42F82100A200921CB0
:101CC00055F82210A200521C55F8220005F078FDAC
:101CD0006100491C0CAA42F82100A200D21C55F850
:101CE0002210A200121D55F8220005F0D7FF610056
:101CF000C1F1070103AA42F82100A200121D55F804
:101D00002210A200D21C55F8220005F059FD80F0E7
:101D100000416000801C0CAA42F82010641C042CB6
:101D2000BCDB0CA8FFF738FA03A8FFF735FA0498D4
:101D300080F000400490069880F0004006900898DB
:101D400080F0004008900A9880F000400A9000243B
:101D50005BE057F824A0334A52F8241003AA52F843
:101D6000240005F0C5FE04F109022E4B029053F841
:101D700022100CAA52F8240005F0BAFE0190029934
:101D800005F01EFD834604F10902264B53F822108C
:101D900003AA52F8240005F0ABFE224A029052F842
:101DA00024100CAA52F8240005F0A2FE019002991A
:101DB00005F074FF47F8240004F1090056F82010DC
:101DC000584605F095FE029056F82410504605F04E
:101DD0008FFE0190029905F061FF45F8240056F846
:101DE0002410584605F084FE029004F1090056F8CC
:101DF0002010504605F07CFE0190029905F0E0FCB1
:101E0000C4F1110145F82100641C092CA1DB09F182
:101E1000010948352437C145FFF638AF15B0BDE894
:101E2000F08F0000549800082DE9F04106460F4657
:101E300015461C466CB12346134A39463046FFF717
:101E40001BFF04EBC40006EBC00604EBC40007EB69
:101E50008007022D06D1C4F120023946304600F039
:101E600015F80FE0C4F12003032D01D1012000E09B
:101E7000002000EBC000044901EBC00239463046A7
:101E8000FFF7FAFEBDE8F081B498000870B592B093
:101E900004460D46164620E0482221466846FEF7D5
:101EA00014FC182229462046FEF70FFC05F1180203
:101EB00004F118016846FFF747FE05F1180204F126
:101EC000300101A8FFF740FE05F11802294602A8DB
:101ED000FFF73AFE761E24354834002EDCDC12B0C3
:101EE00070BD2DE9F04786B080460E4614469946EF
:101EF000607BA17B00EB010AA07B08B1032000E01E
:101F00000120074603AB524608F51060216800F037
:101F10008FFB607BA8B1DDE90301884201DA0498F8
:101F200000E003980599884201DA059806E0DDE9AA
:101F30000301884201DA049800E0039805900490B8
:101F40000390002516E099F8013003F008030BB167
:101F5000032300E000231A46AAEB07035819C11B0C
:101F600003AB53F825308B4201DB134600E0735C72
:101F700033546D1CBD42E6DB2420005D00F00100FF
:101F800003A9CDE900104B4631464046226800F0D7
:101F9000E3FA06B0BDE8F0872DE9F04105460E46AC
:101FA00017469846002410E055F82400414605F0F5
:101FB0009FFD04F5107145F8210055F824003946BD
:101FC00005F096FD45F82400641CB442ECDBBDE846
:101FD000F08100002DE9F04106460C4600BF782C48
:101FE00001DA204600E078200546AA104FF0804133
:101FF00041FA02F005F064FD804605F00300084A4E
:1020000052F82010404605F073FD0746314605F0B2
:102010006FFD0646601B041EE1DC3046BDE8F08122
:10202000D08500082DE9F04705460E46002405F549
:10203000106710E055F8248057F824904946404630
:1020400005F0BEFB45F824004946404605F026FE53
:1020500047F82400641CB442ECDBBDE8F0870000C4
:102060002DE9FC5F04464FF48077812C06DA04F1F9
:102070001000214951F82000BDE8FC9FB4F5806FA5
:1020800001DA1027E400600000F0400524F03F0171
:10209000481905F015FD804604F03F01481B05F086
:1020A0000FFD8146414605F0F9FB0646384605F02E
:1020B00007FD12490190304605F01AFD10490090C5
:1020C00005F07EFB8346314605F012FD82464FF057
:1020D0007E5105F075FB81466219102000EBA210BD
:1020E000054A52F82010484605F002FD8046019945
:1020F00005F0FEFCC0E70000987E0008398E633EC4
:10210000ABAAAA3F2DE9FF4F83B004460F4699467C
:10211000DDF844A0002544E019F805600AF0080045
:1021200028B1324639462046FEF748FA34E0059891
:1021300010F805B0BBF1000F08D131462046FEF77C
:10214000F6FA31463846FEF7F2FA24E0BAF1000F0B
:1021500004DA012000FA0BF0401E01E04FF0FF30DE
:1021600002904FF0000813E05946109802F048FC26
:102170000190DDE90101884202D14FF0FF3000E01B
:10218000019807F80800019804F8080008F1010810
:10219000B045E9DB00BF00BF374434446D1C4FEA53
:1021A0004A0A042D03DA19F805000028B4D10020EA
:1021B000A0706070207007B0BDE8F08F2DE9F84F77
:1021C00083460C4615464FF0000A002000906878C0
:1021D000C0F3C0006978C1F30011084400EB40006F
:1021E000A978C1F3810147180FB1012000E0002058
:1021F0003F1AE87800F0C000C02801D1012000E0BB
:1022000002208046687800F0080068B14FEA48086C
:102210000921584602F0F4FB064608F1070158462A
:1022200002F0EEFB824606E008F10801584602F093
:10223000E7FB20FA08F600BFE87800F0C000C028ED
:1022400001D14FEA0A1A0C21584602F0D9FBA080AE
:10225000A1880098084400900921584602F0D0FB5C
:10226000E080E088B0F5907F03DD4FF0FF30BDE8FF
:10227000F88F0821584602F0C3FBA072687800F07E
:10228000080008B1042000E009200146584602F089
:10229000B7FB2081C7EBC70000EB07105749084484
:1022A0002060162060730020A0730121584602F0C0
:1022B000A7FB00284FD00221584602F0A1FBE07294
:1022C000E07A10B94FF0FF30D1E70121584602F013
:1022D00097FB20730720A074FF21E174E07A0228A5
:1022E00022D140F60F700AEA000A207B60B908206C
:1022F000A07407EB8700424901EBC000206000207A
:1023000060732720A0730FE007EB87003D4901EBC6
:10231000C0002060687800F0080008B1082000E0E4
:10232000062060731E20A0730A21584602F068FB45
:1023300081464FEA49190321584602F061FB607556
:102340000321584602F05CFBA0750321584602F0B9
:1023500057FBE07513E00020E07220730F21584610
:1023600002F04EFB81460421584602F049FBA0745E
:102370000321584602F044FBE074FF212175C9F3A4
:102380008720E073C9F34411217409F01F016174BF
:10239000687800F0080020B10121584602F030FBB7
:1023A00006E02089B0F5FA7F01DB012000E0002083
:1023B00020760121584602F023FB60760121584621
:1023C00002F01EFBA076CAF30330E0764FEA0A1A49
:1023D0001C34A8F10100B0F100087FF42DAFDBF848
:1023E000080000EBC601DBF804200098104481428D
:1023F00002DA4FF0FF303AE7304638E798820008BB
:1024000050830008908400082DE9F04781460F466C
:1024100090464E463C4616E04FF0000A0DE0002084
:1024200056F8200001C456F8250001C4680056F88B
:10243000200001C40AF1010A361DAA45EFDB08F1AC
:10244000030806EBC50698F80050002DE4D1E01B08
:102450008010820039464846FEF737F9BDE8F0871C
:102460002DE9F04704460E4617461D46D6E90121E0
:10247000881AC11700EB51714FEAE1084FF4C050C0
:102480000059A84201DD284602E04FF4C05000592F
:1024900081464FF4C0500059A84201DD284602E0B1
:1024A0004FF4C050005902464FF4C0500059401B31
:1024B000002804DD4FF4C0500059401B00E000200C
:1024C00041F60C032344C11807F10C00FEF776F81F
:1024D000D6F804A04FEAEA720AEB5272336803EBB3
:1024E000E20107F10C0202EB09004246FEF766F832
:1024F00009EB080207F10C01384601F011FF4FF417
:10250000C0500059A84202DB0120BDE8F08700203E
:10251000FBE72DE9F04106460D466868C01DC70877
:10252000A868C7EBD004B4F5007F04DBA4F2FF1069
:10253000074440F2FF14002C08DD05F10C00C1191E
:10254000224641F60C003044FEF77DF84FF4C050AF
:102550008451BDE8F08100002DE9FF5F82468B4683
:1025600015461E46707800F0080008B1072000E00C
:1025700040200390002452E01BF804700320B4FBB9
:10258000F0F100FB11410E9850F82100A0423ADA18
:102590000398874237D2F07800F0200008B1224833
:1025A00001E04FF07E500290707800F0080040B1DA
:1025B00078001E4951F820907800401C51F8208086
:1025C00010E04FF07E59781C40080F9A00FA02F193
:1025D0004846FFF7FFFC804607F0010010B1C146F6
:1025E0004FF07E584046029905F082FA0190484625
:1025F000029905F07DFA0090295D02465046019B44
:10260000FFF7CAFC07E0F07800F0200018B1295D60
:102610005046FFF707FD285D0AEB800A641C285D21
:102620000028A9D1BDE8FF9FF304B53FDC9700085F
:102630002DE9F0470646884691461D464FF0FF308B
:10264000A86068602860002421E0002715E056F8A3
:102650002700002105F0E4F906D1791C56F8210085
:10266000002105F0DDF907D0032094FBF0F100FB19
:10267000114045F8204004E0BF1C18F80400B8429F
:10268000E5DC00BF18F8040006EB8006641C4C452E
:10269000DBDBBDE8F087000070B586B006460C466F
:1026A00015460121042000F0CDF84FF40070ADF87C
:1026B000140003208DF8160018208DF8170005A9C6
:1026C0002248FEF7C9F94FF48060ADF814000320EA
:1026D0008DF8160048208DF8170005A91B48FEF755
:1026E000BBF90121880300F0ADF801960020ADF898
:1026F00010000C20ADF80E000020ADF80C00ADF875
:102700000A00ADF8080001A9114800F041FB0121C1
:102710000F4800F0E1FA012240F225510C4800F088
:1027200011FB012240F22441094800F00BFB252057
:102730008DF8000001208DF803008DF801408DF820
:102740000250684600F00AF806B070BD000801406B
:102750000038014000BFFEE77047000070B500215F
:1027600000230F22C47804B3154C246804F4E064F9
:10277000C4F5E064210AC1F10403CA40447804FAB4
:1027800003F184781440214309010E4C0678A155C9
:10279000047804F01F050124AC4005786D11AD00EC
:1027A00005F1E025C5F8004109E0047804F01F05B3
:1027B0000124AC40044D0678761145F8264070BDE2
:1027C0000CED00E000E400E080E100E0024901439C
:1027D000024A1160704700000000FA050CED00E0AD
:1027E0007047000029B1064A52690243044B5A61FE
:1027F00004E0034A52698243014B5A61704700006A
:102800000010024029B1064AD2690243044BDA6142
:1028100004E0034AD2698243014BDA617047000049
:102820000010024029B1064A12690243044B1A61A2
:1028300004E0034A12698243014B1A6170470000A9
:102840000010024029B1064A92690243044B9A6182
:1028500004E0034A92698243014B9A617047000089
:102860000010024029B1064AD2680243044BDA60E4
:1028700004E0034AD2688243014BDA6070470000EB
:102880000010024030B500210022002400232D4D0D
:102890006D6805F00C0121B1042905D0082923D168
:1028A00005E0294D056022E0274D05601FE0254D1C
:1028B0006D6805F47012234D6D6805F480340225AF
:1028C00005EB92421CB9214D554305600BE01D4DAF
:1028D0006D6805F400351DB11C4D5543056002E0DF
:1028E000194D5543056002E0174D056000BF00BF5C
:1028F000144D6D6805F0F0010909154D6B5C056814
:10290000DD4045600F4D6D6805F4E061090A104D2A
:102910006B5C4568DD4085600A4D6D6805F460516B
:10292000C90A0B4D6B5C4568DD40C560054D6D689F
:1029300005F44041890B074D6B5CC568B5FBF3F5A9
:10294000056130BD0010024000127A0000093D0010
:10295000580000206800002001498863704700008B
:10296000008001400149086070470000A00030422B
:1029700000210A4B02685A6242689A621A46D16A7A
:1029800021F0F701D0E902231A4303691A4343698E
:102990001A431143014AD162704700000080014090
:1029A00000200649086048608860C8604862886204
:1029B000C862034888630020C863704700800140F4
:1029C000FF07C00001480069C0B2704700800140A5
:1029D00001460020034A526B0A400AB1012000E080
:1029E000002070470080014008B50146002000909B
:1029F0000248084400900098006808BD1480014017
:102A000000210A4A516847F6FF629143027D8368BC
:102A10001A4343681A43C3681A4303681A43036995
:102A20001A431143014A5160704700000080014081
:102A30000148006870470000808001400021094B78
:102A400002689A601A46D1686FF30A01D0E901233F
:102A50001A43C3681A4303691A431143014AD160F8
:102A600070470000008001400549096821F003011A
:102A7000034A116011460968014311607047000064
:102A80000080014010B504461148844208D101215C
:102A90008014FFF7E7FE0021A014FFF7E3FE16E025
:102AA0000C48844208D101210014FFF7BBFE00212D
:102AB0002014FFF7B7FE0AE00748844207D101213E
:102AC000C013FFF7AFFE0021E013FFF7ABFE10BD10
:102AD0000030014000380040003C00400246002029
:102AE00013890B400BB1012000E000207047014624
:102AF0008889704781817047704710B500F002F8EF
:102B000010BD00000CB50020019000903348006813
:102B100040F480303149086000BF3048006800F45C
:102B2000003000900198401C0190009818B901985D
:102B3000B0F5A06FF1D12948006800F4003010B161
:102B40000120009001E0002000900098012843D16E
:102B50002348006840F010002149086008460068DA
:102B600020F0030008600846006840F0020008609A
:102B70001A48406819494860084640684860084655
:102B8000406840F4806048600846406820F47C104B
:102B900048600846406840F4E8104860084600680D
:102BA00040F08070086000BF0C48006800F00070C2
:102BB0000028F9D00948406820F003000749486020
:102BC0000846406840F00200486000BF0348406883
:102BD00000F00C000828F9D10CBD000000100240E4
:102BE00000200240042808D14FF0E021096941F09B
:102BF00004014FF0E022116107E04FF0E021096984
:102C000021F004014FF0E02211617047704700008D
:102C100010B51348006840F00100114908600846EB
:102C20004068104908400E494860084600680E494F
:102C300008400B4908600846006820F480200860BE
:102C40000846406820F4FE0048604FF41F0088608A
:102C5000FFF753FF4FF000600449086010BD00000B
:102C6000001002400000FFF8FFFFF6FE08ED00E054
:102C700010B540F22551144800F03AF8012813D15C
:102C80001248007880280CDA0F4800F0EDF8C1B245
:102C90000E4802780078401C0C4B18700C48815488
:102CA00002E001200B49087040F22441064800F080
:102CB0001FF8012807D1044800880348001D008838
:102CC00001200449087010BD0038014004000020B4
:102CD0006C0000200500002021B1828942F40052DE
:102CE000828104E082894DF6FF731A408281704729
:102CF00070B50246002400230025002040F66A1625
:102D0000B14200D100BFC1F3421501F01F030126FB
:102D100006FA03F3012D02D19689334006E0022D15
:102D200002D1168A334001E0968A33400C12012604
:102D300006FA04F41688344013B10CB1012000E007
:102D4000002070BDF0B503460024002600250020B9
:102D500040F66A17B94200D100BF1846C1F34214C9
:102D600001F01F06012707FA06F5012C01D10C30EE
:102D700004E0022C01D1103000E014301AB10768D1
:102D80002F43076002E00768AF430760F0BD000013
:102D90002DE9F04786B005460E460024A24600BF46
:102DA000A1460027B08900B100BF2F462C8A4CF6FF
:102DB000FF700440F08804432C82AC894EF6F31077
:102DC0000440B08831890843718908430443AC81C9
:102DD000AC8A4FF6FF400440B0890443AC8201A89E
:102DE000FFF750FD1F48874202D1DDF810A001E037
:102DF000DDF80CA0A88900F4004040B10AEBCA003D
:102E000000EB0A1031684900B0FBF1F807E00AEB6B
:102E1000CA0000EB0A1031688900B0FBF1F86420A9
:102E2000B8FBF0F004012009642101FB1089A88996
:102E300000F4004040B1322000EBC900B0FBF1F0DB
:102E400000F00700044308E0322000EB0910642181
:102E5000B0FBF1F000F00F0004432C8106B0BDE898
:102E6000F08700000038014001468888C0F3080060
:102E7000704700BFFEE730380A2801D201207047B2
:102E80000020704700BF704710B50446204601F08F
:102E9000F7FA10BD08B50020009003E000BF0098CD
:102EA000401C009000982828F8DB08BD00B5A3B0AE
:102EB0000D48006810B10D48006808B923B000BD86
:102EC0000B4880690A494969CDE9001008488368C0
:102ED00008A1026803A8FDF7B5F903A8034909682A
:102EE000884700BFEAE700000C0000201000002027
:102EF000841B00205B6D70335D2070726F6772659C
:102F000073732062797465733D256C7520667261F8
:102F10006D65733D256C752073723D256C7520635E
:102F2000683D256C750D0A0070B5A8B000252E48C7
:102F3000006810B12D48006808B928B070BD2C4851
:102F4000006800B1F9E701202949086029A0274954
:102F50000968884700241EE0344951F824003449A8
:102F600004F09CFA38B9314850F82410304A31A0A6
:102F700000F016F90EE004F08BFA06462B4850F8E4
:102F8000242033462EA16846FDF75CF968461749B0
:102F900009688847641C0C2CDED335A013490968E6
:102FA0008847012414E02249204604F077FA00B152
:102FB0000DE01F4800F054FC40B11D4A214639A0E5
:102FC00000F0EEF86D1C082D00D304E000BF641C77
:102FD000B4F5006FE7D300BF1DB935A003490968F8
:102FE000884700BFA9E700000C0000201000002067
:102FF000140000205B66735D206D6F756E74206633
:1030000061696C65643A2070726F62696E672063F3
:103010006F6D6D6F6E20706172746974696F6E2070
:103020007374617274730D0A00000000887D0008DB
:10303000A01B002063616E64696461746500000018
:103040005B66735D2063616E64696461746520739F
:103050006563743D256C75207265616420666169E5
:103060006C6564206572723D25730D0A00000000D6
:103070005B66735D207363616E6E696E6720736556
:1030800063746F727320312E2E3230343720666FA6
:103090007220414135352F4641542F6578464154C1
:1030A0000D0A00007363616E2D68697400000000F2
:1030B0005B66735D207363616E2D686974206E6F4B
:1030C0006E6520696E206669727374203230343800
:1030D00020736563746F72730D0A000030B5AFB072
:1030E0002148006810B12148006808B92FB030BDF0
:1030F0001F49002004F0D2F960B104F0C9F9044678
:1031000022461CA107A8FDF79DF807A817490968E2
:103110008847EBE7204800F0E1F904461E48001F0D
:1031200000F0DCF90546124890F8C2011049897890
:10313000CDE90454CDE902100D4840780C490978D6
:10314000CDE900100A4890F8FE3190F8FF211349AC
:1031500007A8FDF777F807A8044909688847FFF72B
:10316000E3FE00BFC2E700000C00002010000020BA
:10317000A01D00205B66735D20736563746F723001
:103180002072656164206661696C65642065727295
:103190003D25730D0A0000006A1F002048A10008A9
:1031A0002DE9F043C9B005460E4614462DA72F4819
:1031B000006810B12E48006810B949B0BDE8F0832E
:1031C000204600F013FB28B1204600F02FFB08B189
:1031D00028A70EE0204600F009FB28B1204600F0A9
:1031E00013FB08B124A704E0204600F0FFFA00B169
:1031F00023A704F5E57000F071F9804604F5E3704B
:1032000000F06CF9814694F8C201A17ACDE90F98DB
:10321000CDE90D10617A207AE279A379CDE90932FE
:10322000CDE90B0161792279E078A378CDE9053009
:10323000CDE907216178227894F8FE0194F8FF31F6
:10324000CDE90073CDE90321029033462A460F49A8
:1032500012A8FCF7F7FF12A805490968884700BFC4
:10326000ABE700006E6F6E65000000000C000020F0
:1032700010000020666174006578666174000000CB
:103280006D62722F626F6F7400000000B8A00008BA
:10329000F0B58BB005460F4605B137B92AA000F04E
:1032A00007FB4FF0FF300BB0F0BD2CA106A803F0D8
:1032B00005FA06462EB12AA000F0FAFA6FF00100D6
:1032C000F1E739E0694606A803F098FA06462EB100
:1032D00028A000F0EDFA6FF00200E4E79DF8090085
:1032E00000B92AE09DF8080000F0100020BB26A1DC
:1032F0000DF1090000F06EF8F0B1002404E00DF1CA
:103300000900005D2855641C0DF10900005D10B135
:10331000781EA042F3D8002028550DF10900005D69
:1033200028B11BA000F0C4FA6FF00300BBE71EA099
:1033300000F0BEFA0020B6E7C4E700BF1EA000F010
:10334000B7FA6FF00400AEE7696E76616C696420CD
:103350007061746820627566666572002F000000F7
:1033600070665F6F70656E646972206661696C6516
:103370006400000070665F72656164646972206653
:1033800061696C65640000002E6D70330000000000
:103390006D70332066696C656E616D6520746F6F4A
:1033A000206C6F6E670000006D70332066696C657D
:1033B00020666F756E6400006E6F206D703320663E
:1033C000696C6520666F756E640000000048704788
:1033D000841B0020F0B506460F460023002100E0C4
:1033E0005B1CF05C0028FBD100E0491C785C0028E5
:1033F000FBD18B4200D2F0BD002216E0581A1044D7
:10340000345CBD5C412C04DB5A2C02DC04F120004E
:10341000C4B2412D04DB5A2D02DC05F12000C5B2F7
:10342000AC4201D00020E6E7521C8A42E6D30120DC
:10343000E1E7000030B589B000F03EFE30B117A0E2
:1034400000F036FA4FF0FF3009B030BD03F01EFF38
:1034500038B104F01DF8054600F02AFA6FF00100BB
:10346000F2E7144803F04EF8044664B1FFF736FE65
:10347000224611A101A8FCF7E5FE01A800F018FA08
:103480006FF00200E0E7114803F036F800F0A6F90B
:103490000FA000F00DFA0020D6E70000626F617205
:1034A0006420617564696F20696E69742066616962
:1034B0006C656400EC00002070665F6D6F756E7463
:1034C000206661696C656420256400007801002035
:1034D0006F6B000000487047180100200146087813
:1034E0004A7840EA02208A7840EA0240CA7840EAF4
:1034F0000260704710B504460FA12046FFF76AFF2F
:1035000018B1204600F040F810BD0DA12046FFF78D
:1035100061FF20B90CA12046FFF75CFF28B10CA089
:1035200000F0C6F96FF01400EEE710A000F0C0F94B
:103530006FF01500E8E700002E6D7033000000000A
:103540002E6D7034000000002E6D3461000000000C
:103550006D70342F6D346120737570706F727420CC
:1035600064697361626C656400000000756E737558
:1035700070706F727465642066696C65206578741C
:10358000656E73696F6E00002DE9F04389B0814666
:10359000002002900024002700F020F9484603F0A4
:1035A0005DF830B15EA000F083F9601E09B0BDE89F
:1035B000F0835F4802F0A0FF99E027BBB4F5006FED
:1035C00021D2C4F580584FF48066464500D946465E
:1035D000C6B15849081902AA314603F099F828B132
:1035E00055A000F065F96FF00100DFE7029808B917
:1035F000012707E0029804445348006802990844F0
:103600005149086000BF04B972E0182103A8FDF712
:10361000B0F84D484068401C4B49486003A84B4BEC
:10362000224644490090424802F0DAFD0546002D4A
:1036300045DD0598012808D00598022805D044A04A
:1036400000F036F96FF00200B0E7069800F036FEA1
:1036500029463E48059A00F07BFD28B143A000F0C2
:1036600027F96FF00300A1E70398002802DD039813
:10367000A04205D942A000F01BF96FF0040095E7C5
:1036800031488068401C3049886008460069401C09
:10369000086106984861059888610846007A00F03C
:1036A0003F00012801D1FFF701FC0398221A214BAA
:1036B000C1181846FCF7C7FF0398241A17E00398AF
:1036C000002811DD0398A0420ED81F48C068401C96
:1036D0001D49C8600398221A164BC1181846FCF7FA
:1036E000B2FF0398241A02E007B101E000BF64E7CB
:1036F00000BF1548006828B927A000F0D9F86FF07E
:10370000050053E71048806828B928A000F0D0F8D9
:103710006FF006004AE72CA000F0CAF8002045E749
:1037200070665F6F70656E206661696C656400002D
:1037300078010020A01F002070665F726561642020
:103740006661696C65640000841B0020A02F002066
:10375000756E737570706F72746564206368616EE6
:103760006E656C20636F756E7400000070636D2071
:103770006F7574707574206661696C656400000013
:103780006D7033206672616D652073697A6520699A
:103790006E76616C696400006D70332066696C65DB
:1037A00020697320656D7074790000006E6F20765B
:1037B000616C6964206D7033206672616D65206490
:1037C00065636F64656400006D703320706C6179AF
:1037D0006261636B20646F6E6500000010B51C2190
:1037E0000148FCF7C6FF10BD841B0020014691F87C
:1037F000FE01552805D191F8FF01AA2801D1012029
:1038000070470020FCE7000010B50446082204A120
:10381000E01CFCF7A7FE08B9012010BD0020FCE762
:1038200045584641542020200000000010B50446B1
:10383000032208A104F13600FCF794FE30B1052202
:1038400005A104F15200FCF78DFE08B9012010BD5E
:103850000020FCE74641540046415433320000004A
:1038600010B504462046FFF7C1FF08B9002010BD7F
:103870002046FFF7DBFF18B92046FFF7C5FF08B168
:103880000120F4E794F8C20120B904F5E370FFF7D2
:1038900025FE08B10120EAE70020E8E7024A1060AF
:1038A000024A1160704700000C0000201000002048
:1038B0000146002003E00A5C054B1A54401C0A5CD8
:1038C0000AB15F28F7D30022014B1A547047000059
:1038D0001801002010B51E48002101604160816080
:1038E000C16001201A4948604FF4FA50886000F026
:1038F0000BFC20B14FF0FF301549C86010BD01220C
:103900004FF4FA51134800F0A5F920B16FF001000F
:103910000F49C860F2E74FF4FA500D49086000F013
:10392000CFFB20B16FF002000949C860E6E7012231
:103930004FF4FA51074800F00BFC20B16FF0030080
:103940000349C860DAE700200149C86000BFD5E735
:1039500020800020A04100200048704720800020E7
:1039600010B504462CB14FF400510648FDF75AF942
:1039700004E04FF400510348FDF756F900F01AF83F
:1039800010BD000000100140024602EB8200400022
:10399000642390FBF3F1B1F5004F02DB47F6FF70B3
:1039A000704711F5004F01DA0148F9E708B2F7E76F
:1039B0000080FFFF08B56946002000F07FFF18B9BE
:1039C0009DF800009D4988616946012000F076FF5E
:1039D00018B99DF800009949C8616946022000F0B5
:1039E0006DFF18B99DF800009449086269460320EC
:1039F00000F064FF18B99DF80000904948626946DC
:103A0000042000F05BFF18B99DF800008B49886224
:103A10006946052000F052FF18B99DF8000087495B
:103A2000C8626946062000F049FF18B99DF80000F9
:103A3000824908636946072000F040FF18B99DF8E5
:103A400000007E4948636946082000F037FF18B936
:103A50009DF80000794988636946092000F02EFF2F
:103A600018B99DF800007549C86369460A2000F03E
:103A700025FF18B99DF800007049086469460B20BD
:103A800000F01CFF18B99DF800006C4948646946B5
:103A90000C2000F013FF18B99DF8000067498864F6
:103AA00069460D2000F00AFF18B99DF8000063492F
:103AB000C86569460E2000F001FF18B99DF80000A6
:103AC0005E49086669460F2000F0F8FE18B99DF8B7
:103AD00000005A4948666946102000F0EFFE18B908
:103AE0009DF80000554988666946112000F0E6FE01
:103AF00018B99DF800005149C8666946122000F0C7
:103B0000DDFE18B99DF800004C490867694613208E
:103B100000F0D4FE18B99DF800004849486769468E
:103B2000142000F0CBFE18B99DF8000043498867C7
:103B30006946162000F0C2FE18B99DF800003F4902
:103B4000C8676946252000F0B9FE20B99DF800003D
:103B50003A49C1F880006946312000F0AFFE18B93B
:103B60009DF80000354908656946322000F0A6FE40
:103B700018B99DF800003149C8646946332000F047
:103B80009DFE18B99DF800002C494865694634200F
:103B900000F094FE18B99DF8000028498865694630
:103BA000372000F08BFE20B99DF800002349C1F8B2
:103BB00084006946442000F081FE20B99DF8000091
:103BC0001E49C1F888001E4800881C49C1F88C00B5
:103BD0001B4814300088C1F890001948183000883C
:103BE000C1F894001648001F0088C1F898001548D5
:103BF0000068C1F89C0014480068C1F8A000134890
:103C00008068C1F8A4000F48001D0068C1F8A80032
:103C10000D48001D0068C1F8AC000C48C068C1F830
:103C2000B0000B484068C1F8B4004FF40051074899
:103C3000FCF7EFFF0149C1F8B80008BD3080002053
:103C4000083C004008080140080C014000100140F9
:103C5000001002402DE9F04705460F46164605B113
:103C60003FB96FF0040000F023FB4FF0FF30BDE8D8
:103C7000F087012E08D0022E06D06FF0050000F06C
:103C800017FB6FF00100F2E71048C660002418E04F
:103C900000F0EEFA814600F0EBFA8046012E02D1E8
:103CA00025F8149007E0600025F81090012000EB43
:103CB000440025F8108005484068401C03494860CE
:103CC000641CBC42E4D30020D1E700003080002017
:103CD00010B5002400F0C0FD08B1601E10BD3F21EA
:103CE000002000F013FE04430A20FFF7CDF88021E6
:103CF000002000F00BFE04430220FFF7C5F830213E
:103D0000012000F003FE04430021022000F0FEFD2C
:103D100004431021032000F0F9FD04432421162060
:103D200000F0F4FD04431021042000F0EFFD0443F3
:103D30000021052000F0EAFD044300210B2000F0E3
:103D4000E5FD044300210C2000F0E0FD04431F21A9
:103D5000102000F0DBFD04437F21112000F0D6FD90
:103D600004430F21062000F0D1FD0443FF2107206A
:103D700000F0CCFD04430421082000F0C7FD0443FB
:103D80000C21092000F0C2FD04434C210A2000F060
:103D9000BDFD04430821442000F0B8FD0443002188
:103DA000312000F0B3FD0443FF21322000F0AEFDCE
:103DB00004430021332000F0A9FD044300213420F6
:103DC00000F0A4FD044302210E2000F09FFD0443F7
:103DD0000121122000F09AFD04431021132000F06D
:103DE00095FD04431A21142000F090FD04430621A0
:103DF0000D2000F08BFD04430021252000F086FDFE
:103E000004433F21012000F081FD0443FFF7D2FD70
:103E1000204663E710B5002400F01EFD08B1601EC7
:103E200010BD3021012000F071FD0443002102206B
:103E300000F06CFD04431021032000F067FD0443F3
:103E40001021042000F062FD04430021052000F051
:103E50005DFD04430021062000F058FD04431021BD
:103E6000072000F053FD04432021082000F04EFD00
:103E700004433021092000F049FD044300210A20B9
:103E800000F044FD044300210B2000F03FFD0443FB
:103E900000210C2000F03AFD04431821142000F00A
:103EA00035FD04430021152000F030FD044324219A
:103EB000162000F02BFD04438821172000F026FD7A
:103EC00004430221182000F021FD04432021192081
:103ED00000F01CFD044320211A2000F017FD0443CC
:103EE0000821372000F012FD04430021442000F097
:103EF0000DFD04438021002000F008FD04433F2114
:103F0000012000F003FD0443FFF754FD204687E73E
:103F1000004870473080002008B501211D20FEF7C1
:103F200091FC0121C803FEF76DFC01212848FCF734
:103F30001FFE03208DF80200C020ADF80000142001
:103F40008DF8030069462348FCF786FD00F012FF58
:103F500000F0FCFE0220FEF797FF4FF40050ADF892
:103F6000000010208DF8030069461B48FCF774FD23
:103F70004FF400511848FCF755FE8020ADF80000C2
:103F800018208DF8030069461348FCF765FD4FF4CF
:103F90000040ADF8000018208DF8030069460F4876
:103FA000FCF75AFD2820ADF8000018208DF803001A
:103FB00069460848FCF750FD1020ADF800000420C9
:103FC0008DF8030069460348FCF746FD08BD000074
:103FD00000023000000C01400010014000080140C8
:103FE00001464AF2F870814206D34AF6C87081420F
:103FF00002D84AF6444070474BF68030FBE7000099
:104000001FB50F48FEF73EFD4FF44070ADF80000BD
:104010000020ADF80200ADF804004FF40070ADF8D8
:1040200006004BF6803002900020ADF80C00694687
:104030000348FCF70FFE01210148FCF7FEFD1FBD00
:10404000003C004010B54BF6803000F001F810BD88
:104050001FB504461648FEF715FD4FF40070ADF885
:1040600000000020ADF80200ADF804004FF400702D
:10407000ADF806002046FFF7B3FF02900020ADF830
:104080000C0069460A48FCF7E5FD01210848FCF7E9
:10409000D4FD084884600648083000880549C1F806
:1040A0008C0003481C300088C1F890001FBD000040
:1040B000003C00403080002010B500F001F810BD39
:1040C00010B5FFF729FF012000F0E2F80A20FEF703
:1040D000DBFEFFF7B7FF0A20FEF7D6FEFFF7F8FD7D
:1040E00030B14FF0FF3000F0E3F84FF0FF3010BD7B
:1040F0001420FEF7C9FE4FF400510248FCF792FD70
:104100000020F4E70010014010B5FFF705FF022082
:1041100000F0BEF80A20FEF7B7FEFFF771FF0A2095
:10412000FEF7B2FEFFF776FE30B16FF0010000F04F
:10413000BFF84FF0FF3010BD1420FEF7A5FE4FF47E
:1041400000510248FCF76EFD0020F4E7001001402A
:104150002DE9F04705460E46174605B13EB96FF00A
:10416000020000F0A5F84FF0FF30BDE8F0872548C9
:10417000C760254800882349C1F88C0022481430C4
:104180000088C1F890004FF400512048FCF741FD31
:104190001C49C1F8B800012F13D100240DE035F9F6
:1041A0001400FFF7F1FB804635F91400FFF7ECFB34
:1041B0008146414600F092F8641CB442EFD30020DF
:1041C000D3E7022F17D1002411E0012101EB4401B4
:1041D00035F91100FFF7D8FB8046610035F9110071
:1041E000FFF7D2FB8146414600F078F8641CB442E8
:1041F000EBD30020B9E76FF0030000F059F86FF03F
:104200000100B2E730800020083C0040001001406F
:104210002DE9F04705464BF6803068434FF47A713C
:10422000B0FBF1F600241BE03020B4FBF0F100FB02
:1042300011400E4931F910904846FFF7A5FB07469B
:104240003020B4FBF0F100FB1140084931F9109027
:104250004846FFF799FB8046394600F03FF8641C5A
:10426000B442E1D30020BDE8F0870000B87D00082B
:1042700010B500BF01210548FEF730FC0028F9D039
:104280000248FEF734FC00B210BD0000003C0040C4
:1042900010B50446C4210548FCF76BFA0348C0F882
:1042A000C0404BF680300149886010BD308000204E
:1042B0000149C1F8BC0070473080002010B50446A9
:1042C0001CB105488068A04200D110BD2046FFF710
:1042D000BFFE00BFF9E700003080002070B5054642
:1042E0000C46284600F00CF8204600F009F8034878
:1042F0000068401C0149086070BD0000308000204B
:1043000010B5044600BF02210448FEF7E7FB002871
:10431000F9D0A1B20148FEF7EDFB10BD003C004012
:10432000016000234360D3008360704770B504468A
:104330000D4602234FF4FF722946204600F0A8F9EB
:1043400008B1032070BD204600F072FD4AF65521E9
:10435000884201D00220F5E7022336222946204672
:1043600000F096F940B9204600F062FD44F2461193
:10437000884201D10020E5E7022352222946204647
:1043800000F086F940B9204600F052FD44F2461193
:10439000884201D10020D5E70120D3E70146074834
:1043A0000268891E9068801E884201D800207047EC
:1043B0009378506901FB0300F9E7000054000020E6
:1043C0002DE9F05F07460D467E680B22202130461E
:1043D00000F0B9FE0020824681464FF00808D5F86B
:1043E00000B000BF4846411C01F0FF091BF8004027
:1043F000202C01DD2F2C00D122E02E2C01D0C24533
:104400000ADBB8F1080F01D12E2C00D018E04FF0D4
:10441000080A4FF00B08E5E7802C03DBA4F18000CD
:104420000E490C5C00BF612C04DB7A2C02DCA4F189
:104430002000C4B25046411C01F0FF0A3454D1E7B9
:1044400000BF0BEB09002860202C01DC012000E0FC
:104450000020F0720020BDE8F09F0000187E0008E8
:1044600010B50446214602A0FBF7E0FE10BD000097
:104470002573000010B56FF00400FEF7B3FB10BD0C
:10448000002100EBC0024FF47A735A434FF0E0234F
:104490005A6100229A611A46126942F001021A61B9
:1044A00000BF4FF0E022116901F001021AB101F4DE
:1044B0008032002AF5D04FF0E022126900224FF03E
:1044C000E0231A619A6170472DE9F04104460D46D8
:1044D000204600F0AFF8064616B13046BDE8F08140
:1044E00000BF2788F81707EB10700011A7EB00102A
:1044F000420120232846216900F0CAF808B10120B2
:1045000000E00020064606B117E095F80080B8F1FB
:10451000000F01D1032610E0E87A00F0080030B95E
:104520000B222846616800F0FBFD00B905E020463B
:1045300000F006F80646002ED3D000BF3046CDE787
:104540002DE9F04104461C4807682088401C85B2CC
:104550000DB1206910B90320BDE8F081E91705EB22
:1045600011710911A5EB011119BB2069401C2061D3
:10457000E06820B9B888A8421BDC0320ECE7E91703
:1045800005EB1171BA78521E02EA211189B9E0686F
:1045900000F07CFA0646012E01D80120DCE7B8685D
:1045A000B04201D80320D7E7E6603046FFF7F6FEB9
:1045B000206125800020CFE7540000202DE9F0473E
:1045C00004460D4603262AE0B4F800804FEAE8705E
:1045D00008EB10700011A8EB0010420120232846C0
:1045E000216900F055F808B1012000E000200646DE
:1045F00006B117E02F780FB9032613E0E87A00F030
:104600003F09E52F05D02E2F03D009F0080000B98F
:1046100008E02046FFF794FF064606B102E0206955
:104620000028D1D100BF0EB1002020613046BDE886
:10463000F087000070B505460D4806680020288008
:10464000AC68012C02D0B068A04201D8012070BD36
:104650001CB93078032800D13469EC601CB12046C5
:10466000FFF79CFE00E0306928610020EFE70000C2
:104670005400002010B502F005FF08B1002010BD65
:1046800002F004FE08B10120F9E70020F7E700007E
:104690002DE9F0410546884616461F4602F0F2FE17
:1046A00010B90220BDE8F0810C49404602F0F6FE48
:1046B00008B10120F6E7F019B0F5007F01D9032019
:1046C000F0E745B1002404E030190449085C28559E
:1046D000641CBC42F8D30020E4E70000F482002010
:1046E00030B58FB00546FFF713FC0446D4E9042328
:1046F000D4E92E10CDE90323CDE90510D4E9011248
:10470000E068CDE900120290294630482368D4F8C9
:10471000C020FBF78BFDD4E90F23D4E91101CDE9CB
:104720000723CDE90901D4E90C32A16BE06ACDE998
:10473000043206910390D4E90812A06ACDE9001270
:10474000029029462248D4E90623FBF76FFDD4E9FD
:104750001513D4E92102CDE90A13CDE90C02D4E9FD
:104760001F23D4E91301CDE90623CDE90810D4E9CC
:104770001B13D4E91D02CDE90213CDE90402D4E9EB
:104780001901CDE9000129461248D4E91723FBF7A6
:104790004DFDD4E92923D4E92B10CDE90523CDE93A
:1047A0000710D4F8B430D4E92712D4F89800CDE932
:1047B000023104920190D4F89400009029460648F2
:1047C000D4E92323FBF732FD0FB030BD8C9F0008E6
:1047D000509E0008A09D0008E49E00081FB5FEF74B
:1047E000F5FD0446D4E90323D4E90510CDE90023FF
:1047F000CDE90210024894E80E00FBF717FD1FBD3B
:104800004CA0000838B5FFF7A7F80446E068009010
:1048100002A094E80E00FBF709FD38BD5B726563EA
:104820006F72645D2073616D706C65735F7065722B
:104830005F6368616E6E656C3D256C752063683DD5
:10484000256C752073723D256C7520726573756CCF
:10485000743D25640D0A000010B5302000F024F8E6
:1048600040B930200E490870084600780D490861AB
:10487000002010BD322000F017F840B9322008495E
:10488000087008460078074908610020F1E7002019
:1048900004490861FF2048614FF0FF30E9E700005C
:1048A000180000203080002010B5044600F088FA7F
:1048B00080220021204600F03DF810BD70B505466D
:1048C0000E4600F073FA0F48007800F081FA0446B3
:1048D000284600F07DFA044300F068FA0949097897
:1048E00041F0010000F074FA04431CB9002000F00C
:1048F00009FA307000F064FA0CB1034845612046B3
:1049000070BD0000180000203080002070B5044603
:104910000D462A4621460548007800F00BF8064669
:104920000EB103484461304670BD000018000020FD
:10493000308000202DE9F04107460D46164600F074
:1049400035FA384600F044FA0446284600F040FAAA
:104950000443304600F03CFA044300F031FA2046AC
:10496000BDE8F081F7B504460D4602E00298401C10
:104970000290029800782028F8D0029800782F281A
:1049800002D10298401C02900020A060029800789A
:10499000202806DA2046FFF74DFE06460020287044
:1049A0001EE000BF02A92046FFF70AFD064606B139
:1049B00015E029462046FFF787FD064606B10EE0C2
:1049C0006068C07A00B10AE0E87A00F0100008B927
:1049D000032604E0284600F041F8A060E2E700BFAB
:1049E0003046FEBD00BF054A128802F04002002A90
:1049F000F9D0C2B2014B1B1D1A807047003801402C
:104A0000F0B502460B460026107900F00707DD19C5
:104A1000D2E9000C00EBEC01506818445060D2F869
:104A200008C0604501DD0020F0BD11F8010B4FF01A
:104A3000FF0C4CFA07FC00EA0C0404E004FA05F051
:104A4000064311F8014BA5F10800051EF6DCC5F17F
:104A5000000C24FA0CF03043E6E7000070B5044681
:104A60000948066800253078032805D104F11400B0
:104A700000F0DEF905462D0404F11A0000F0D8F923
:104A80000543284670BD00005400002038B5044698
:104A900018480568022C02D3A868A04201D801205A
:104AA00038BD2878022802D0032820D10EE0E8681B
:104AB00000EB14212006C20D02236846FFF7E8FD33
:104AC00000B114E0684600F0B3F9E9E7E86800EBEC
:104AD000D4116006C20D04236846FFF7D9FD00B16A
:104AE00005E0684600F098F920F07040D8E700BF74
:104AF0000120D5E7540000202DE9F04781460C46FF
:104B0000174607F10906D9F81000002839D000250A
:104B10000EE014F80580B8F1200F00D10AE0B8F1DA
:104B2000050F01D14FF0E50806F8018B681CC5B2EE
:104B3000082DEEDB00BF207A202811D02E2006F8A9
:104B4000010B082509E014F80580B8F1200F00D109
:104B500005E006F8018B681CC5B20B2DF3DB00BF26
:104B6000E07A387204F11C0000F056F9386004F164
:104B7000180000F05DF9B88004F1160000F058F953
:104B8000F88000203070BDE8F087000001464878CA
:104B9000C0F3C000C0EB001000EB4000074A024425
:104BA0004878C0F34100401EC0EB001010448A78E2
:104BB00000EB22100078400070470000DC80000805
:104BC00070B505460C46204600F07CF8E8B16878E0
:104BD0006178484000F0FE00B8B9A878A178484054
:104BE00000F00C0088B9A87800F0F00008B90120A6
:104BF00000E00020A17801F0F00109B9012100E0F6
:104C00000021484008B9012070BD0020FCE72DE9D3
:104C1000F04104460E46204600F01BF807462046A9
:104C2000FFF7B4FF474307EB4700C0EBC717204629
:104C300000F034F8B7FBF0F5607800F006000628C5
:104C400001D125F0030515B12846BDE8F0813046B5
:104C5000FBE70146487800F00600062801D18001F4
:104C60007047487800F00E00022801D1012200E0D0
:104C700000224FF490601041F2E70146887800F07E
:104C8000020040B1487800F00600062801D1042057
:104C900070470120FCE70020FAE700000146887811
:104CA000C0F38100064A52F820004A78012323EA23
:104CB000D202D0404A7823EA1212D0407047000056
:104CC0003881000801460878FF2819D1487800F09B
:104CD000F000F02804D0487800F0FE00E2280FD160
:104CE0004878C0F3410058B188780F22B2EB201FFA
:104CF00006D08878C0F38100032801D001207047D6
:104D00000020FCE770B50546002400F033F80026CB
:104D10000BE06006040E00F019F800F03FF808B14F
:104D200044F0010400F01CF8761C082EF1DB15B1EC
:104D300000F02AF801E000F01DF800F007F800F09C
:104D40000FF800F017F8204670BD000010B54021A4
:104D50000248FBF769FFFEF79DF810BD000C01400B
:104D600010B540210248FBF75DFFFEF793F810BD38
:104D7000000C014010B580210248FBF755FFFEF7FB
:104D800089F810BD000C014010B580210248FBF7E6
:104D900049FFFEF77FF810BD000C014010B58021DF
:104DA0000148FBF72DFF10BD000C014010B5FFF7C7
:104DB000E1FFFFF7CBFFFFF7E7FFFFF7D1FF10BDE4
:104DC00010B5FFF7E1FFFFF7C1FFFFF7D3FF10BDFD
:104DD00070B5044600250EE004F0800010B1FFF726
:104DE000C9FF01E0FFF7D0FFFFF7B0FFFFF7B8FF03
:104DF0006006040E6D1C082DEEDBFFF7BBFFFFF70E
:104E0000A5FFFFF7CBFF0646FFF7AAFF0EB900206C
:104E100070BD4FF0FF30FBE70146C8788A7842EA60
:104E200000204A7842EA00200A7842EA00207047CF
:104E3000014648780A7842EA002070471FB50027EB
:104E40004FF4A060FDF7C2FCFFF714FB0222012122
:104E50004FF4E130FDF720FC3BA0FBF7E7F942A25D
:104E600044A147A0FBF7E2F94CA0FBF7DFF9564954
:104E7000012002F09DFB54490120FEF70FFDFEF7D3
:104E8000D9FA0646FEF726FB8046424631464FA039
:104E9000FBF7CCF958A0FFF723FC2EB103E04FF449
:104EA0007A70FFF7EDFAFAE756A0FBF7BFF9012099
:104EB000FEF756FD4FF47A70FFF7AAF95FA0FFF7EF
:104EC0000FFC0120FEF74CFD0D216846FEF7E0F9CE
:104ED0000446FEF7FFFA8046424621465CA0FBF7F7
:104EE000A5F944B9694663A0FBF7A0F96846FEF747
:104EF00001FB054600E02546FEF7ECFA80464246F7
:104F0000294663A0FBF792F9FFF768FC6AA0FFF758
:104F1000E7FB6C48FBF78AF9FEF7DCFC07463946ED
:104F200069A0FBF783F9FFF76DFC6FA0FFF7D8FBD3
:104F30003A46294670A0FBF779F903E04FF47A70FE
:104F4000FFF79EFAFAE700000D0A5B617564696F6E
:104F50002D64656D6F5D20626172656D6574616C55
:104F600020626F6F740D0A0031313A34343A3434B0
:104F7000000000004A756C202036203230323600A6
:104F80005B617564696F2D64656D6F5D2062756925
:104F90006C642025732025730D0A00005B61756425
:104FA000696F2D64656D6F5D2055534152543120FA
:104FB0005041392F5041313020313135323030209D
:104FC000384E310D0A000000614400085B617564D1
:104FD000696F2D64656D6F5D20617564696F5F70C9
:104FE0006C617965725F696E69743D2564206572D4
:104FF000723D25730D0A0000617564696F2D696E3D
:10500000697400005B617564696F2D64656D6F5D27
:1050100020616D702050433133206C6F772F656EA7
:1050200061626C65642C20706C617920317320742E
:1050300065737420746F6E650D0A00007465737477
:105040002D746F6E652D656E61626C656400000085
:105050005B617564696F2D64656D6F5D2066696E57
:10506000645F6D70333D2564206572723D25730D5C
:105070000A0000005B617564696F2D64656D6F5D8A
:1050800020706C61792066696C653D25730D0A009E
:105090005B617564696F2D64656D6F5D20706C6117
:1050A000795F726573756C743D2564206572723D1D
:1050B00025730D0A00000000706C61796261636BFA
:1050C0000000000004A000085B617564696F2D6436
:1050D000656D6F5D207265636F72645F7265737575
:1050E0006C743D25640D0A007265636F72642D70E7
:1050F0006C61796261636B005B617564696F2D64DB
:10510000656D6F5D20646F6E6520706C61793D2503
:1051100064207265636F72643D25640D0A000000AF
:10512000F0B503461C460D46002000BF161EA2F136
:10513000010207D014F8017B15F801CBA7EB0C0690
:10514000301EF3D0F0BD30B5034601E003F8011B7B
:10515000141EA2F10102F9D130BD00002DE9F34F78
:10516000A7B08046002794E108EB870607AD00242E
:105170006BE004EBC400400056F82090C4F10F002F
:1051800000EBC000400056F820A004F1100000EB36
:10519000C000400056F820B0C4F11F0000EBC00072
:1051A000400056F8200006904846069902F008FB99
:1051B00005905946504602F003FB0490594650466C
:1051C00002F06CFD019004EB4400B54A52F8201047
:1051D000019802F08DFC03904846069902F05EFDAE
:1051E000019004EB4400401CAD4A52F82010019895
:1051F00002F07EFC0290DDE9041002F0E1FA286082
:10520000DDE9041002F04AFD019004EB4400801C2B
:10521000A34A52F82010019802F06AFC2862DDE9E6
:10522000020102F0CDFA2864DDE9020102F036FD48
:10523000019004EB4400801C994A52F82010019818
:1052400002F056FC2866641C2D1D082C91DB07AD6E
:105250000024D2E028680690D5F80490A86805904C
:10526000E868049028690390D5F814A0A869029012
:10527000D5F81CB05946069802F010FD0190594629
:10528000069802F09DFA06904846029902F006FD43
:1052900083464846029902F093FA814651460598A2
:1052A00002F0FCFC02905146059802F089FA059044
:1052B000DDE9031002F0F2FC8246DDE9031002F0A2
:1052C0007FFA04900499069802F0E8FC0390049990
:1052D000069802F075FA06904846059902F0DEFC41
:1052E00004904846059902F06BFA814649460698B3
:1052F00002F066FA28604946069802F0CFFC694938
:10530000009002F0F5FB28615046029902F058FA2D
:1053100082465946029802F053FA6249009002F020
:10532000E7FB02905846019902F04AFA8346DDE90C
:10533000031002F045FA5B49009002F0D9FB04909B
:105340005949584602F0D4FB5146009002F09CFCAB
:1053500082465649504602F0CBFB5946009002F077
:105360002FFA83465049584602F0C2FB514600903E
:1053700002F08AFC8246DDE9010102F08FFC069012
:10538000DDE9010102F01CFA01905946019802F092
:1053900017FA4749009002F0ABFB6860DDE90301B2
:1053A00002F00EFA4349009002F0A2FBA8605146B9
:1053B000069802F073FC4049009002F099FBE86007
:1053C0005146069802F0FCF93C49009002F090FB2F
:1053D0006861DDE9030102F061FC3949009002F0E7
:1053E00087FBA8615946019802F058FC35490090A6
:1053F00002F07EFBE861641C2035042CFFF62AAF26
:10540000002434E007A850F8240030601FAA52F8A6
:10541000241017AA52F8240002F0D2F981461FA8DE
:10542000621C50F82210484602F0CAF9B0640FAA74
:10543000631C52F8231052F8240002F0C1F9C6F898
:1054400090001FAA52F8241017AA631C52F82300D8
:1054500002F0B6F981461FA8621C50F82210484697
:1054600002F0AEF9C6F8D800641C06F59076072C59
:10547000C8DB0E98306007AAD16F1E9802F0A0F921
:10548000B0641698C6F8900007A8C06FC6F8D80098
:105490007F1C28988742FFF667AE29B0BDE8F08FE1
:1054A00044990008F304353FAFAF4B3E15EFC33EC0
:1054B000F781023FD48B0A3FBDF1193FD764663FA5
:1054C000753DA73FCF0624402DE9FF4F81B0074629
:1054D0000D46914600265EE03846FFF7F3FB0028B4
:1054E00057D03846D9F80010FFF791FB8046384670
:1054F000FFF7C3FB00EB080A042423E03919384600
:10550000FFF75EFBE0B13846FFF7B7FBA4EB000BFB
:105510003819FFF7B2FB584400903119009808443D
:10552000001DA84206DC3A19009811183846FFF70A
:1055300047FB00B905E0A246D846C9F800B000BF55
:1055400000BF641CB8F1000F08D1B4F5106F05DA84
:10555000022000FB0461281F8142CFDBB8F1000F5D
:1055600009D006EB0A00A84205DCA91B42463846D2
:1055700000F019F810B946B9AA4506D10498C0F848
:1055800000A0304605B0BDE8F08F0020C9F800004B
:1055900000BF761C7F1C281FB0429DDC00210498B0
:1055A00001602846EEE72DE9F04705460F46904694
:1055B000002400261BE028194146FFF728FB8146FE
:1055C0002819FFF75AFB48440444201DB84206DD61
:1055D000002E02DD0120BDE8F0870020FBE729193D
:1055E0002846FFF7EDFA08B90020F4E7761C0A2EEA
:1055F000E1DB0120EFE700002DE9F04105462846F8
:1056000002F0B2F806460022104B02F077F803D8F9
:1056100047F6FF70BDE8F081284602F0A5F806467F
:1056200000220B4B01F0DAFF01D80A48F2E74FF0F5
:105630007C51284602F0C4F8064602F025FA04B26E
:10564000A4EBD47004B22046E4E70000A0FFDF40E2
:10565000E0FFDFC00080FFFF0FB597B01998401E34
:1056600000EBC0008101179800EB8100159019989C
:10567000401E189901EB400014901A9800F57060D4
:105680001390FE4812901798D0F880141398C0F821
:10569000F0101598D0F880141398C0F8F4101798EB
:1056A00001681398C0F8F810159801681398C0F8AD
:1056B000FC101798D0F884141398C0F8F0111598BE
:1056C000D0F884141398C0F8F4111798416813980F
:1056D000C0F8F811159841681398C0F8FC111A9891
:1056E00000F1F4021999149800F08EFC1998410108
:1056F000149800EB410011901A9800F5FA7219996C
:10570000119800F081FC1A9AF032DDE9180100F0DE
:105710007BFC19984101189800EB410011901A98F0
:1057200000F5F8721999119800F06EFC0E20169091
:10573000FEE31698C0F11F0000EBC000410017986F
:1057400050F8211016988200139840F822101698ED
:10575000C0F11F0000EBC0004100159850F8212057
:1057600016988000401C139941F820201698C0F12B
:105770001F0000EBC0004000401C179951F820208A
:1057800016988000801C139941F820201698C0F1CB
:105790001F0000EBC0004000401C159951F820206C
:1057A00016988000C01C139941F820201698401CC0
:1057B00000EBC0004000401C179951F820101698CB
:1057C00010308200139840F822101698401C00EB0D
:1057D000C0004000401C159951F820201698103048
:1057E0008000401C139941F820201698401C00EBC3
:1057F000C0004100179850F82120169810388000FA
:10580000801C139941F820201698401C00EBC00022
:105810004100159850F82120169810388000C01CBF
:10582000139941F820201298006808901298001DE2
:1058300012901298006807901298001D1290169806
:1058400080000146139800EB8100069016988000B6
:10585000A0F57070139901EB80000590002009906D
:1058600034E00999059850F821000290089902F057
:105870003FF904900999069850F821000290079981
:1058800002F036F90390049901F09AFF0AAA0999E7
:1058900042F821000999059850F8210002900799D3
:1058A00002F026F904900999069850F82100029018
:1058B000089902F01DF90390049902F0EFF90EAA7D
:1058C000099942F821000998401C09900998042878
:1058D000C7DB1298006808901298001D1290129869
:1058E000006807901298001D1290169880004038AA
:1058F000139901EB8000069016988000A0F5607067
:10590000139901EB800005900020099048E0099967
:10591000059850F821000190089902F0E9F80390E9
:105920000999069850F821000190079902F0E0F8D3
:105930000290039901F044FF0AA90490099851F8D4
:10594000200001460390049801F03AFF0AAA099941
:1059500042F821000999069850F821000190089911
:1059600002F0C6F803900999059850F821000190BB
:10597000079902F0BDF80290039902F08FF90EA981
:105980000490099851F8200001460390049801F012
:1059900017FF0EAA099942F821000998401C0990A6
:1059A00009980428B3DB1298006808901298001D2B
:1059B00012901298006807901298001D1290169885
:1059C00081008039139800EB8100069016988000C2
:1059D000A0F55070139901EB80000590002009900C
:1059E00048E00999059850F821000190089902F0C3
:1059F0007FF803900999069850F8210001900799C3
:105A000002F076F80290039901F0DAFE0AA90490F8
:105A1000099851F8200001460390049801F0D0FE47
:105A20000AAA099942F821000999059850F821001D
:105A30000190079902F05CF803900999069850F8D4
:105A400021000190089902F053F80290039902F0A6
:105A500025F90EA90490099851F8200001460390F9
:105A6000049801F0ADFE0EAA099942F821000998A8
:105A7000401C099009980428B3DB01E0A4990008B0
:105A80001298006808901298001D129012980068F1
:105A900007901298001D129016988000C038139934
:105AA00001EB8000069016988000A0F540701399D5
:105AB00001EB800005900020099048E009990598C5
:105AC00050F821000190089902F012F8039009990A
:105AD000069850F821000190079902F009F8029009
