:020000040800F2
:1000000018DD002029020008CF200008DB160008B8
:10001000CD2000086D0C0008C92A0008000000006F
:10002000000000000000000000000000772400082D
:10003000F90D0008000000004921000839250008DA
:10004000430200084302000843020008430200087C
:10005000430200084302000843020008D5130008C9
:10006000430200084302000843020008430200085C
:10007000430200084302000843020008430200084C
:10008000430200084302000843020008430200083C
:10009000430200084302000843020008430200082C
:1000A000430200084302000843020008430200081C
:1000B000430200084302000843020008430200080C
:1000C00043020008430200084302000843020008FC
:1000D000430200088D25000843020008430200087F
:1000E00043020008430200084302000843020008DC
:1000F00043020008430200084302000843020008CC
:1001000043020008430200084302000843020008BB
:1001100043020008430200084302000843020008AB
:10012000430200084302000843020008430200089B
:1001300000F002F800F068F80AA090E8000C824491
:100140008344AAF10107DA4501D100F05DF8AFF26E
:10015000090EBAE80F0013F0010F18BFFB1A43F0A5
:10016000010318471CB500003CB500000A444FF0DD
:10017000000C10F8013B13F0070408BF10F8014B06
:100180001D1108BF10F8015B641E05D010F8016B4B
:10019000641E01F8016BF9D113F0080F1EBF10F8AF
:1001A000014BAD1C0C1B09D16D1E58BF01F801CBD2
:1001B000FAD505E014F8016B01F8016B6D1EF9D555
:1001C0009142D6D37047000000230024002500266A
:1001D000103A28BF78C1FBD8520728BF30C148BFAA
:1001E0000B607047642900F02781752900F0248195
:1001F000782900F05D81732900F0D38300207047D7
:100200001FB51FBD10B510BD00F055FC1146FFF71E
:10021000F7FF04F023FC00F073FC03B4FFF7F2FFD8
:1002200003BC02F0EEFC0000094880470948004783
:10023000FEE7FEE7FEE7FEE7FEE7FEE7FEE7FEE796
:10024000FEE7FEE704480549054A064B70470000F3
:100250003D2500083101000818BB002018DD0020F2
:1002600018BD002018BD0020704753EA020C00F0B2
:1002700069802DE9F04B4FF00006002B1FBFB3FA49
:1002800083F503FA05F424FA05F65E4012BF16431F
:10029000B2FA82F502FA05F4C5F120051EBF22FA72
:1002A00005FC44EA0C04203556EA044C4FEA144499
:1002B00018BF641C4FF000084FF00009904271EB2A
:1002C000030C39D3002919BFB1FA81F701FA07F6F7
:1002D000B0FA80F700FA07F6C7F120071EBF20FA30
:1002E00007FC46EA0C062037B6FBF4FCA7EB050733
:1002F000103F07F01F0BCBF120060CFA0BFB2CFA7A
:1003000006F644BFB3460026202FA4BF5E464FF03A
:10031000000B5BEA060C08BF4FF0010B19EB0B0951
:10032000ABFB027C48EB0608C01B06FB02CC0BFBB8
:1003300003CC71EB0C01C1E70B460246414648462F
:10034000BDE8F08B13B54FF000004FF00001AFF3A4
:100350000080BDE81C4070470FB4044910B503AAE3
:10036000029800F023FB10BC5DF814FB1C00002079
:100370000FB41CB5074B06AA7B446946009005984C
:1003800000F0E5FA0020694600F0F4FA1CBC5DF8C4
:1003900014FB0000F905000070B50446856900688B
:1003A000C10601D5302600E02026C00707D070BD69
:1003B000D4E9012130469047206A401C20626D1E1E
:1003C000F6D570BD70B5044685690078C00707D1C1
:1003D00070BDD4E9012120209047206A401C206292
:1003E0006D1EF6D570BD70B50C460546012A05D0C8
:1003F0002878800600D5EA69002302E0012305E0A1
:100400005B1C934202D2E05C0028F9D1A869E6188F
:10041000C01AA861286A184428622846FFF7BCFF62
:1004200004E0D5E9012114F8010B9047B442F8D358
:100430002846FFF7C7FF70BD2DE9F04106460024AE
:1004400010687529314616A510D0AFF3008000283A
:1004500002DA404213A507E031688A0701D512A5E8
:1004600002E0490704D511A5012401E0AFF30080A3
:1004700000210A2206F1240709E0B0FBF2FCB0FBE0
:10048000F2F302FB1C00303078541846491C002857
:10049000F3D123462A463046BDE8F04100F0F8B9D2
:1004A000000000002D0000002B00000020000000D4
:1004B00070B504460D4621461068AFF300802188D0
:1004C000090502D50F4A7A4402E00E4A7A440E32F8
:1004D000002104F1240305E000F00F060009965DF9
:1004E0005E54491C0028F7D120780023000704D56A
:1004F000702D02D009B1022311322046BDE87040B0
:1005000000F0C6B9E6A900002DE9F05F894604466F
:100510004FF0000ADFF874B1FB44C0F820A0204679
:10052000E1688847002874D0252806D0D4E9012145
:100530009047206A401C2062F1E700265F46204673
:10054000E16888472028054607DB312D05D2781958
:1005500010F8200C08B10643F1E7B00701D526F0EA
:100560000406C4F81CA00027C4F818A02A2D09D03E
:10057000284602F03FFB38B304EB8708303DC8F84B
:10058000185019E059F8041B204604EB87029161CA
:10059000E1688847012F054618D1E069002820DA74
:1005A00026F020061DE0D8F8180000EB800005EBCF
:1005B00040003038C8F818002046E16888470546F2
:1005C00002F018FB0028EED1012F0AD02E2D08D101
:1005D0002046E16888477F1C0546022F46F020062A
:1005E000C4DBA069002803DA404246F00106A0619E
:1005F000F00701D026F010066C2D0BD0682D09D025
:100600004C2D39D06A2D35D0742D35D07A2D33D07C
:1006100016E038E0E1682F4620468847B842054694
:1006200009D16C2F26D04FF48060E1680643204644
:100630008847054604E06C2F1AD04FF480700643BB
:100640000DB3A5F14100192802D8203546F4006603
:100650004A462946204626604E46FFF7C3FD80B134
:1006600001280BD0F61D26F0070000F1080956E717
:100670004020E4E78020D8E70020D6E706F104090F
:100680004DE7284652E7206ABDE8F09FBCA900006C
:1006900040EA010310B59B070FD1042A0DD310C8FF
:1006A00008C9121F9C42F8D020BA19BA884201D951
:1006B000012010BD4FF0FF3010BD1AB1D30703D099
:1006C000521C07E0002010BD10F8013B11F8014B4F
:1006D0001B1B07D110F8013B11F8014B1B1B01D16B
:1006E000921EF1D1184610BD032A40F2308010F05E
:1006F000030C00F0158011F8013BBCF1020F6244BD
:1007000098BF11F801CB00F8013B38BF11F8013B4D
:10071000A2F1040298BF00F801CB38BF00F8013BFA
:1007200011F0030300F05481083AC0F0088051F83A
:10073000043B083A51F804CBA0E80810F5E7121D75
:100740005CBF51F8043B40F8043BAFF30080D20794
:1007500024BF11F8013B11F801CB48BF11F8012B60
:1007600024BF00F8013B00F801CB48BF00F8012B83
:100770007047431A28BF9A427FF6B6AF032A104447
:10078000114440F2268010F0030F1EBF11F8013D06
:10079000521E00F8013D10F0030F7FF4F6AF11F088
:1007A000030300F05A81083AC0F00B8051F8043D71
:1007B000083A51F804CD40F8043D40F804CDFFF765
:1007C000F3BF121D5CBF51F8043D40F8043DAFF388
:1007D0000080D20724BF11F8013D11F801CD48BFB8
:1007E00011F8012C24BF00F8013D00F801CD48BFED
:1007F00000F8012C70474FF000020429C0F012806D
:1008000010F0030C00F01B80CCF1040CBCF1020FC3
:1008100018BF00F8012BA8BF20F8022BA1EB0C0198
:1008200000F00DB85FEAC17C24BF00F8012B00F88E
:10083000012B48BF00F8012B70474FF0000200B5B4
:10084000134694469646203922BFA0E80C50A0E8F3
:100850000C50B1F12001BFF4F7AF090728BFA0E8A1
:100860000C5048BF0CC05DF804EB890028BF40F86D
:10087000042B08BF704748BF20F8022B11F0804FAF
:1008800018BF00F8012B70477047704770477047DA
:100890002DE9F0470D4699469246044600F124089A
:1008A0000168880604D5E06921F01001216000E0AC
:1008B0000120A84201DD471B00E00027A1697A1949
:1008C00002EB0900081AA0612078C00602D4204675
:1008D000FFF762FD002608E0D4E901211AF80600BE
:1008E0009047206A401C761C20624E45F4DB20783D
:1008F000C0060AD52046FFF74FFD06E0D4E90121E6
:1009000030209047206A401C2062381EA7F1010762
:10091000F4DC07E0D4E9012118F805009047206ACB
:10092000401C2062281EA5F10105F3DC2046FFF7DC
:1009300049FD2078000602D50220BDE8F08701209D
:10094000FBE7000001694A1C02610878704700B5A6
:100950008FB0CDE901310021059105497944CDE9F8
:10096000031011466846FFF7CFFD0FB000BD000031
:10097000E5FFFFFF0A6802F8010B0A60704710B537
:10098000436913B1AFF3008001E0FFF72CFD0120B4
:1009900010BD127800F124010A7000224A70012271
:1009A000EDE711684FF0FF32E9E70000074B70B543
:1009B0000D467B44FFF7CBFF0446284600F077F84E
:1009C00010B14FF0FF3070BD204670BDDF3C00001D
:1009D00010B5203AC0F00B80B1E81850203AA0E8DA
:1009E0001850B1E81850A0E81850BFF4F5AF5FEA0E
:1009F000027C24BFB1E81850A0E8185044BF18C9C1
:100A000018C0BDE810405FEA827C24BF51F8043B67
:100A100040F8043B08BF7047D20728BF31F8023BBB
:100A200048BF11F8012B28BF20F8023B48BF00F84F
:100A3000012B7047431A28BF9A427FF6C9AF104472
:100A400010F0030F11441EBF11F8013D521E00F8B3
:100A5000013D10F0030F7FF4F6AF103AC0F00A80AA
:100A600010B531E91850103A20E91850BFF4F9AF29
:100A7000BDE81040530724BF31E9081020E90810F1
:100A800044BF51F8043D40F8043D12F0030F08BF85
:100A90007047D20728BF31F8023D48BF11F8012C3A
:100AA00028BF20F8023D48BF00F8012C7047007BAA
:100AB00000F080007047754600F02CF8AE46050047
:100AC0006946534620F00700854618B020B5FFF769
:100AD000B9FBBDE820404FF000064FF000074FF093
:100AE00000084FF0000B21F00701AC46ACE8C0094C
:100AF000ACE8C009ACE8C009ACE8C0098D46704755
:100B000010B50446AFF300802046BDE81040FFF763
:100B100084BB000000487047B8BA0020F0B59EE0E2
:100B2000514A436C856C1468566884FB03C786FB86
:100B300005EC84FB055486FB0353A7EB0C07234409
:100B40007F005B00C0E91173036C9468C56C84FB83
:100B500003C7D66886FB05EC84FB055486FB03536C
:100B6000A7EB0C077F0023445B000764C364C36BDF
:100B70001469056D84FB03C7566986FB05EC84FB8D
:100B8000055486FB0353A7EB0C077F0023445B004F
:100B9000C7630365836B9469456D84FB03C7D6699E
:100BA00086FB05EC84FB055486FB0353A7EB0C077F
:100BB0007F0023445B0087634365436B146A856D44
:100BC00084FB03C7566A86FB05EC84FB055486FB51
:100BD0000353A7EB0C077F0023445B004763836547
:100BE000036B946AC56D84FB03C7D66A86FB05EC6C
:100BF00084FB055486FB0353A7EB0C077F002344BB
:100C00005B000763C365C36A146B50F8605F84FBC5
:100C100003C7566B86FB05EC84FB055486FB035328
:100C2000A7EB0C077F00234440F8347C5B0040F8BE
:100C30003839946B50F83C5BD26B84FB05760368C3
:100C400082FB03C784FB034382FB0542F61B76004D
:100C50001A44520040F83C6C40F81C29491E0029F7
:100C60003FF75EAFF0BD000050AA0008FEE708B1F4
:100C7000002103E0202070474000491C0028FBDAD7
:100C80000846704708B1002103E02020704740006B
:100C9000491C0028FBDA084670470022134601E091
:100CA0008354521C8A42FBDB70470841C117B1EBE9
:100CB000E03F02D047F6FF70484000B2704700297D
:100CC000016802D041F0010102E04FF6FE721140CE
:100CD0000160704701684FF6FE721140016000210B
:100CE000016041608160C1603149314A08399042F8
:100CF00003D1486840F00F0006E02D4A14329042BC
:100D000004D1486840F0F00048607047284A283213
:100D1000904203D1486840F47060F5E7244A3C32C1
:100D2000904203D1486840F47040EDE7204A5032C9
:100D3000904203D1486840F47020E5E71C4A6432D1
:100D4000904203D1486840F47000DDE7184A7832D9
:100D5000904203D1486840F07060D5E7154A111FF2
:100D6000904203D1086840F00F0006E0114A1432A7
:100D7000904204D1086840F0F000086070470D4AC6
:100D80002832904203D1086840F47060F5E7094AC0
:100D90003C32904203D1086840F47040EDE7054AC8
:100DA00050329042EAD1086840F47020E5E7000034
:100DB0000800024008040240406880B2704730B525
:100DC000036847F6F07293430C6A8A682243D1E9BC
:100DD00004452C4322438C692243CC6922434C6A4C
:100DE00022438C6A22431A430260CA6842600A683E
:100DF00082604968C16030BD704700002DE9FE4F38
:100E00000029DDE90C572FDD4FF0FF3A002B1FDBE7
:100E1000BF4C029354F82260BE4C04EB460BBE4C10
:100E200054F8326004EBC2020096167900227C422C
:100E300014F0070404D015F8012BC4F12007BA40C0
:100E40001B1B36B1012E12D0032E72D0022E70D091
:100E50005BE10022134605E040F8223000EB8204FB
:100E6000921C63608A42F7DB0020BDE8FE8F9BF88E
:100E700000600BF1020906F00F0E4FF0000C102B72
:100E80000EDB15F8016BC4F11807BE40164315F8C8
:100E9000012BC4F11007BA403243103B10343FE03D
:100EA000E618002ED4DD002B06DD15F8017BC4F119
:100EB000180C07FA0CF73A43082B05DD15F8013B2F
:100EC000C4F11004A3401A433446771E4FF0004685
:100ED0003E41002332404FF00B0C0B3420E000BFAA
:100EE000CEF1200622FA06F739F817703E0BA41B44
:100EF000B240C7F303162EB102F00048520048EA90
:100F00000606641EC7F303272FB102F00048520003
:100F100048EA0707641E644576DBE0E80267891E3D
:100F2000002903DD0B2CAADBDAE702E0A4EB0C00BE
:100F3000E7E04FF0000C5F46CDF804C0102B12DB49
:100F400015F801CBC4F118080CFA08FC4CEA020CA5
:100F500015F8012BC4F1100802FA08F2103B42EA1E
:100F60000C021034C4E004EB0309B9F1000F4BDDAF
:100F7000002B0FDD15F801CBC4F118080CFA08FCA2
:100F80004CEA0202082B05DD15F8013BC4F1100400
:100F9000A3401A43A9F101084FF0004C4CFA08FC99
:100FA0000CEA02024FF00B0C002309F10B04CDF800
:100FB00004C09DE097F800C00CF00F09C9F1200CA7
:100FC00022FA0CFC07EB4C0CBCF802805FEA183CE0
:100FD0000BD002FA0CF2C8F3031EA4EB0C04C8F306
:100FE0000329BEF10F0F07D03AE0A4EB090402FA7F
:100FF00009F207EB48077BE0032E34D1B9F1000F6B
:1010000003D04FF0010C02E078E04FF0000C009F9D
:10101000674404EB030C7F1CBC4576DB0AE000BF91
:1010200015F801CBC4F118080CFA08FC083B4CEA8F
:1010300002020834BC42F3DB002B08DA1C44A4F1A2
:10104000010C4FF00047002347FA0CF73A40009F8D
:10105000C7F1200722FA07F7BE44009FE41BBA40FD
:10106000BEF1000F05D002F00047520047EA0E0E15
:10107000641EB9F10F0F29D1032E2AD1009F04EB72
:10108000030C7F1CBC4540DB0AE000BF15F801CB18
:10109000C4F118080CFA08FC083B4CEA02020834B8
:1010A000BC42F3DB002B08DA1C44A4F1010C4FF026
:1010B0000047002347FA0CF73A40009FC7F120078A
:1010C00022FA07F7B944009FE41BBA40B9F1000FB8
:1010D00005D002F00047520047EA0909641E019F4B
:1010E000BC4212DB40F804EB5F4640F8049B891ECB
:1010F000002904DD0B2CFFF621AF5BE705E001982A
:10110000201A02991844081AAFE65046ADE60000CE
:101110005CA4000836830008DCA400082DE9F84F21
:101120008146DDE90A54002B02DC0020BDE8F88F7F
:101130004848494E50F8220000EB060E474850F848
:10114000220000900022604210F0070404D015F83D
:10115000012BC4F1200082400020A3EB040A834647
:10116000C91E74E0BAF1100F0FDB15F8013BC4F192
:101170001806B340134315F8012BC4F11006B24012
:101180001A43AAF1100A10345DE004EB0A03002BA5
:10119000CCDDBAF1000F05DD15F8016BC4F11807BD
:1011A000BE403243BAF1080F05DD15F8016BC4F1FA
:1011B0001004A64032431C465E1E4FF000433341EC
:1011C0001A404FF0000A4FF00A0B0A343BE0009B34
:1011D000C3F1200322FA03F31EF803603309E41A73
:1011E0009A40C6F3C00323B102F000473B435200CC
:1011F000641EC6F3800CBCF1000F05D002F000475E
:10120000520047EA0C0C641EC6F340072FB102F0EF
:101210000048520048EA0707641E16F0010605D090
:1012200002F00048520048EA0606641E5C45FFF6DC
:101230007DAFC9F8003009F10403001D43F804CB69
:10124000E3E802769946884201DA0A2CBFDA88423E
:1012500088DB6BE72CA60008DCA5000834A6000894
:101260002DE9FF4F574F03F00304564D103F06463C
:1012700005EB841557F8249000201F24B4EBA30F2E
:101280001BDD9B10DC1C1F2C18DA002C00DC00245A
:10129000002700976F686FF0004E27410197AF68F5
:1012A00027410297EF682741039780CE27F000443B
:1012B000042C05DA5DF8244078E01F231F24E7E7BB
:1012C000102C0ADA55F82440002B04DAC3F1000C84
:1012D00004FA0CF46AE01C4168E0402C0BDADFF8F9
:1012E000E8C00CEB840454F8404C84FB09C4A046CD
:1012F000A3F1030C4AE064044FF0000BB4F1006F5B
:1013000002DA24014FF0040BB4F1005F02DAA4000A
:101310000BF1020BB4F1804F02DA64000BF1010B08
:10132000DFF8A8C0644504DADFF89CC00CF1C00CFB
:1013300003E0DFF894C00CF1D40CE246DCF800C006
:101340008CFB04C8DAF804C0C4448CFB04C8DAF887
:1013500008C0C4448CFB04C8DAF80CC0C4448CFB3D
:1013600004C4DAF810C0DFF86880644458F82BC071
:1013700084FB0CC4E40084FB09C4DFF854C0A0461D
:10138000ACF1200C5CF82B40A3EB040CBCF1000F7B
:101390000ADACCF1000C2EFA0CF4444501DA74465A
:1013A00004E008FA0CF401E048FA0CF42043002FA2
:1013B00000DA644210C1521E7FF477AF04B0BDE87A
:1013C000F08F00009C0000209C0100209A79825A36
:1013D000A402002010B5104C0221204600F066F94E
:1013E000012812D10A2002F005FF0221204600F058
:1013F0005DF9012809D10948017859B1002202702C
:101400004FF48041064800F063F9BDE81040022027
:1014100000F008B80122F2E70018014000000020A7
:1014200000140140014908607047000014040140A5
:1014300080EAE071A1EBE070704780EAE071A1EB17
:10144000E07070472DE9F0471E000D4604463BD082
:10145000D107C6F11F074FF001004FF0000800FA56
:1014600007F0A0F10109C24672D02068C11740FA06
:1014700007F28A4201D089EA0100B0402060FFF7FC
:10148000D7FF40EA080854F8800F4042C11740FADD
:1014900007F28A4201D089EA0100B0402060FFF7DC
:1014A000C7FF40EA08082868C11740FA07F28034ED
:1014B0008A4201D089EA0100B04001C50AF1020A5E
:1014C000BAF1120FD1DB70E0D0073DD04FF420709D
:1014D000D4F880C107594FF46070D4F88080065961
:1014E0004FF49060CCF1000C05594FF4B060C8F196
:1014F000000803594FF4D0607F4202594FF4F06066
:10150000764201594FF408606D4250F804904FF450
:101510002070C4F880C1C4F8808007514FF4607017
:101520005B4206514FF49060524205514FF4B06057
:10153000494203514FF4D06002514FF4F060015121
:10154000C9F10000C4F880080020BDE8F087FFE77B
:101550002068C11740FA07F28A4201D089EA0100E7
:10156000B0402060FFF764FF40EA080854F8800F9D
:10157000C11740FA07F28A4201D089EA0100B0405F
:101580002060FFF755FF40EA08082868C11740FAB5
:1015900007F280348A4201D089EA0100B04001C5D7
:1015A0000AF1020ABAF1120FD2DB4046CDE7000081
:1015B000F0B5CA78002502F00F03D20601D58A786B
:1015C00013430A784FF00F0E12F0FF0F4FF0010295
:1015D0001CD004680F8802FA05F63740B74211D1D3
:1015E0004FEA850C0EFA0CF724EA070703FA0CF40D
:1015F0003C43CF78282F02D0482F02D002E046612A
:1016000000E006616D1C082DE4D304600C88FF2CFB
:101610001ED944685FF0000606F1080702FA07F5D4
:101620000F882F40AF420FD14FEA860C0EFA0CF70D
:10163000BC4303FA0CF73C43CF78282F00D1456117
:10164000CF78482F00D10561761C082EE4D3446082
:10165000F0BD0000F0B5144C002801DAE36900E0A9
:101660006368420D120185B2C0F301579540C0F383
:101670000346032F05D0C2020AD50322B24093438A
:1016800007E023F07062636823F07063636002E038
:10169000AB4343F0706201B12A43002801DAE261F2
:1016A000F0BD6260F0BD0000000001400246002075
:1016B00092680A4200D00120704702460020D2689A
:1016C0000A4200D0012070474161704701617047B4
:1016D0000AB10161704741617047FEE72DE9F04FA3
:1016E00097B0002598469346894607462C46209E8B
:1016F0001BE000BFD8E9053018B17069A04200DDD9
:101700000023D6E90301A14200DD0020B169009069
:10171000CDE901410BEB84024946384600F0B2F9AD
:101720000543641C09F1240948373068A042E1DC14
:1017300013E000BFD6E90330A04200DD0023B0690A
:101740000BEB8402CDE900404946384600F0C2F870
:101750000543641C09F1240948377068A042E9DC9C
:10176000009441E0D6E90320A04200DD002203A955
:10177000484601F0ABF9E00715904FF0000A04F07D
:1017800001005746029003A80BEB072150F83700E1
:10179000019180004AEA000A41F82400FFF748FE60
:1017A00040EA050803A800EBC700159940688000CF
:1017B00080EAE1710298084401994AEA000A01EBC3
:1017C0008401C1F88000FFF733FE40EA08050020DD
:1017D00049F827007F1C092FD5DB09F12409BAF14C
:1017E000000F00D00094641CB068A042BADC002155
:1017F000202C0ADA5FF000000BEBC012401C42F80C
:1018000024101228F8DB641CF2E70DB1002003E07D
:10181000202003E06D00401C002DFBDA401EF0612B
:10182000009817B0BDE8F08F0029818B02D041F4F9
:10183000806101E021F4806181837047F0B5054645
:101840000C4602200021AA8B85B001264FF24003EE
:101850001A40AA832884AF8BA268022A27D0A088C6
:1018600000B10226684600F0ADFCE1880098B1F5B1
:10187000007F2DD07101B0FBF1F000BF00EB8000C4
:10188000A1684000B0FBF1F0401D80B20A21B0FB1E
:10189000F1F000F00101401A4FF6FF72C0F34F0063
:1018A00002EA0121821EFE2A01D302200021E288E1
:1018B000084302432A8420886188A2890843A188BA
:1018C00011430843384340F40060A88305B0F0BDDD
:1018D000000AD3E72DE9FF4FAFB005463D981E46FD
:1018E0000C464FF00009072816DAC0F1070900205E
:1018F00055F8201041FA09F145F8201005EB800158
:101900004A6842FA09F24A60216841FA09F102C4C0
:10191000801C1228ECDB243C6946284603F04AF878
:10192000281D06A903F046F805F108000CA903F0EC
:1019300041F8324615A9204601F0C8F8DFF840A169
:1019400000273D4615A850F825004FEA800840467C
:10195000FFF76EFD40EA070B319800EBC51615A89E
:1019600000EB8507C6F80080F86880001390FFF749
:101970005FFD40EA0B081398C6F88001EB465AF861
:1019800025000BEB85022D92D16880FB0110B9690F
:1019900000EB81001390FFF74BFD40EA080029900F
:1019A00013980AEB8508C6F80003C5F10502D8F8BC
:1019B0000C005BF8221080FB0110796A00EB8100BB
:1019C0001390FFF735FD01462998C5F10202014346
:1019D00029911398C6F880045BF82210D8F81800F3
:1019E0002D9A80FB01105AF82510526A81FB0221C2
:1019F0000844396B00EB81001390FFF719FD29991A
:101A0000C5F10B03084329901398C6F800065BF84C
:101A10002510D8F824005BF8232080FB0101D8F8BA
:101A20000C0080FB02200844F96B00EB810080462B
:101A3000FFF7FEFC074629986D1C0743C6F8808710
:101A4000032DFFF67FAF06214FEA0B0050F821204F
:101A5000491C921004C40929F8DB0C2150F82120FC
:101A6000491C921004C41229F8DBA4F124014B464E
:101A70003C9A3198FFF7E6FC33B03843BDE8F08F6D
:101A8000E8A700082DE9F04FB1B093460C460022BC
:101A90003C9998464430134603AD07291BDAC1F13F
:101AA000070A0821066846FA0AF6F61A031FB21A50
:101AB0001B6843FA0AF39B1B05EB8106726245F82B
:101AC000213054F8216046FA0AF644F821600838BB
:101AD000491EE7D510E04FF0000A08210668F31A06
:101AE000061F9A1A36680838F31A05EB81067262E7
:101AF00045F82130491EF1D50C9840100C90039800
:101B000040100390284602F0BBFE0CA802F0B8FE7D
:101B10003A98494E0BAD4FF0000950EA08004DD0FD
:101B200016A920463A9A00F0D1FF444908EBC800B4
:101B300001EB001000270090696A56F8040955F877
:101B4000042980FB01019210501A114402C400992B
:101B5000DDF800C051F8271080FB012116AA52F8C9
:101B600027301944C7F1110389005CF823C052F8EB
:101B7000232080FB0CC010444FEA80080BEBC710F9
:101B80000BEBC31201600846C2F80080FFF750FC5F
:101B900040EA09094046FFF74BFC7F1C40EA09096F
:101BA000092FC9DBA4F12401534658463B9AFFF79D
:101BB00049FC31B040EA0900BDE8F08FDFF88080D1
:101BC0005FF00007686A56F8042955F8041982FB8B
:101BD00000208910421AD4F800C0084401C4CCF196
:101BE00000030CEB0200D8F800C0404208F10401E9
:101BF00080FB0C8C02EB8C0251F804CB884680FBF6
:101C00000C1003EB800002900BEBC710C7F111031F
:101C100002600BEBC311029808601046FFF708FC46
:101C200040EA09090298FFF703FC7F1C40EA090912
:101C3000092FC7DBB6E700005CA60008C8A60008AD
:101C4000C802002030B500280ED00022144602E061
:101C500021F81240521C00F2C47328CB6B43D0F819
:101C6000BC576B439342F3DC30BD00002DE9FF4FBE
:101C700083B017460E4604000BD0316805F09EFD78
:101C80005FEA000808D500BF6FF0050007B0BDE8A7
:101C9000F08F6FF00400F9E7306800EB0801204690
:101CA000316005F0FDFE002806DA20460699FFF7B0
:101CB000C9FF6FF00600E9E7316808EB000B01444B
:101CC00031603A68A2EB0B013960D4F8B81719B14A
:101CD000D4F8B007F0BB59E0D4F8B017D1BB01215C
:101CE000C4F8B0173568D7F800A0A5EB0801A946DD
:101CF000A1EB00085146284600F039F905440028B8
:101D000002DA4FF0FF301AE02A7898F800108A4281
:101D100021D16A7898F801108A421CD1A97898F8E4
:101D2000022001F0FC0102F0FC02914213D198F86C
:101D300002004008C00700D06D1EA5EB0900C4F8E2
:101D4000B40700280DDA20460699FFF77BFF6FF0F5
:101D500002009BE712E0AAEB0000A0F1030AED1CD1
:101D6000C8E704F2C471584406C95143D4F8C027E7
:101D70004243D00090FBF1F0C4F8B807204603F0CE
:101D8000E4FED4F8B4170844C4F8CC071098B8B1EE
:101D90003868C4F8CC07D4F8D81709B9002804DC8F
:101DA00020460699FFF74EFF6EE7C4F8DC0735685A
:101DB000284430603868D4F8CC17401A386030E0D6
:101DC000D4F8CC173868814206DD20460699FFF723
:101DD00039FF4FF0FF3059E7D4F8D827D4F8DC07A3
:101DE000904226DB2044811A04F11C0005461C3178
:101DF000FEF7BFFCD4F8D807D4F8CC2731682844C4
:101E000004F2CC74FEF770FCE168206801442161A3
:101E100031680844306038682168A4F2CC74401AF4
:101E2000386000200290D4F8DC0700264FEAC00991
:101E300097E004F11C02104433680A461946FEF785
:101E400053FCD4F8DC17D4F8CC070144C4F8DC17F1
:101E50003168084430603868D4F8CC17401A3860CC
:101E600020460699FFF7EEFE6FF001000EE700270F
:101E70003BE04B4602AA29462046DDF80880CDE922
:101E8000006705F091FD04EBC603029A03EB87039C
:101E9000C8EBC0011144D3F8E03705445B1AA9EB45
:101EA0000108002801DB984506DA20460699FFF76D
:101EB000C9FE6FF00700E9E6914602AA29462046CE
:101EC000CDE9006703F04CFE002806DA20460699AB
:101ED000FFF7B8FE6FF00800D8E605440299C9EB99
:101EE000C0000144A8EB01097F1CD4F8BC07B8422C
:101EF000BFDC3146204604F001F8002806DA20460F
:101F00000699FFF79FFE6FF00900BFE600270EE07D
:101F10003A463146204604F04DFC002806DA2046B9
:101F20000699FFF78FFE6FF00A00AFE67F1CD4F82A
:101F3000BC07B842ECDCD4F8BC17D4F8C807484357
:101F40000699704301EB4001204605F0B9FB0028DB
:101F500006DA20460699FFF775FE6FF00B0095E64E
:101F6000761CD4F8C407B04281DC00208EE602461D
:101F700010B500200F23491E0AE0145CE44314F05E
:101F8000FF0F04D114186478B3EB141F04D0401C65
:101F90008842F2DB4FF0FF3010BD002801D004F082
:101FA000A9BB704718B1D0F8D027032A07D000206A
:101FB000086048608860C8600861486120E0D0F827
:101FC000B8270A60D0F8BC274A60D0F8C0278A60DA
:101FD0001022CA6090F8D4270A4B02EB420203EBAE
:101FE0004202D0F8D03702EB4302D0F8BC3732F9C6
:101FF000022C5A430A61D0F8D0274A6190F8D407DE
:10200000886170479A7E000803F050BD2DE9F041C9
:102010000C46064686B090460121042000F0BAF82E
:102020004FF40070ADF8100003258DF81250182001
:10203000244F8DF8130004A93846FFF7B9FA381574
:10204000ADF810008DF8125048208DF8130004A947
:102050003846FFF7ADFA0121880300F09BF8002015
:102060000C21ADF80A10ADF80600174DADF80C00C4
:10207000ADF80800ADF8040000966946284600F067
:10208000F3FA0121284600F0ADFA012240F2255171
:10209000284600F0D0FA012240F22441284600F000
:1020A000CAFA25208DF8140001208DF817008DF84C
:1020B00015408DF8168005A800F00AF806B0BDE8B6
:1020C000F08100000008014000380140FEE7704741
:1020D00070B50F23C47801780122F4B1144C246840
:1020E000457804F4E064C4F5E064240AC4F104060D
:1020F000E3408478B5401C402C4301F1E0212301EA
:1021000081F80034007800F01F018A404009800007
:1021100000F1E020C0F8002170BD01F01F008240F6
:102120004809800000F1E020C0F8802170BD000067
:102130000CED00E0024908430249086070470000C6
:102140000000FA050CED00E070470000044A002989
:10215000516901D0014300E08143516170470000A3
:1021600000100240044A0029D16901D0014300E077
:102170008143D1617047000000100240044A0029E9
:10218000116901D0014300E08143116170470000F3
:1021900000100240044A0029916901D0014300E087
:1021A000814391617047000000100240044A0029F9
:1021B000D16801D0014300E08143D1607047000045
:1021C0000010024030B51F494A6812F00C031E4A45
:1021D00003D0042B01D0082B21D002604A680F23C2
:1021E0001A4C03EA1212A35C0268DA4042604B68A0
:1021F000072505EA1323E35C22FA03F383604B68A7
:1022000005EAD323E35CDA40C2604968032303EAAA
:102210009131231F595CB2FBF1F1016130BD4A6875
:102220004B6802F470124FF0020413F4803F04EB89
:10223000924202D04B689B0301D5054B00E0024B54
:102240005A43CAE70010024000127A00200300201F
:1022500000093D0030B5C1680B4604291BDB01684D
:102260004A1C02600978541C0906C0E90041127832
:1022700041EA0242611CC0E90012247842EA0422C9
:102280004C1CC0E9004209781143416020211B1F0A
:10229000C0E9021330BD0024446007E00268551C09
:1022A0000560127845682A4312024260491EF5D241
:1022B000C3F103024168D20091404160D900C0E9F6
:1022C000021430BD03460846002A01DC1846704758
:1022D000202A05DAD340C2F1200188401843704714
:1022E000402A03DA203A41FA02F07047C8177047D3
:1022F0000149886370470000008001400149C1F82E
:10230000A00070470000304210B5094A01685162D0
:1023100041689162D16A21F0F703D0E902142143A8
:10232000D0E90440044321431943D16210BD0000A9
:102330000080014006480021016041608160C16069
:1023400041628162C162034A8263C16370470000D7
:1023500000800140FF07C00001480069C0B270471B
:1023600000800140034A01460020526B0A4200D01F
:10237000012070470080014008B5024908440090E0
:10238000006808BD1480014030B5094B5A6847F613
:10239000FF618A43017D8468C568214344682C43FA
:1023A000214304680069214301431143596030BD52
:1023B000008001400148D0F8800070470080014053
:1023C00010B5084A01689160D168CB0AD0E90114C0
:1023D0002143D0E903400443DB0221431943D16088
:1023E00010BD00000080014004490A6822F0030289
:1023F0000A600A6802430A607047000000800140DA
:10240000002A828801D00A4300E08A438280704714
:10241000114910B588420AD1841401212046FFF7E2
:10242000C5FE2046BDE810400021FFF7BFBE0B49A6
:10243000884202D10121041404E0094988420AD1EA
:102440000121C4132046FFF799FE2046BDE8104045
:102450000021FFF793BE10BD00300140003800405E
:10246000003C00400246002012890A4200D00120B0
:1024700070478181704770470CB500212648019153
:102480000091026842F4803202604FF4A063026857
:1024900002F400320092019A521C0192009A12B981
:1024A000019A9A42F3D10268920333D50121009137
:1024B0001A490A6842F010020A600A6822F0030210
:1024C0000A600A6842F002020A604168416041689D
:1024D0004160416841F480614160416821F47C11B0
:1024E0004160416841F4E8114160016841F0807148
:1024F000016001688901FCD5416821F00301416058
:10250000416841F0020141604168C1F38101022943
:10251000FAD10CBD00910CBD001002400020024019
:102520004FF0E0210428086903D020F0040008617E
:10253000704740F00400FAE7704700000F4810B5FC
:10254000016841F00101016041680D4A114041609C
:1025500001680C4A11400160016821F4802101608A
:10256000416821F4FE0141604FF41F018160FFF7D3
:1025700083FF05494FF00060086010BD0010024065
:102580000000FFF8FFFFF6FE08ED00E070B5124D09
:1025900040F22551284600F02FF8104C0126012862
:1025A0000CD12078802808D2284600F0B3F80C4AD5
:1025B00021785054491C217000E0667040F224419B
:1025C000284600F019F8012804D128880248001D87
:1025D0000088667070BD00000038014018000020BF
:1025E000300300200029818902D041F4005101E02C
:1025F00021F400518181704730B501F01F020124A0
:102600000025C1F3421304FA02F2012B0FD0022B72
:102610000FD0838A4FEA11210088134204FA01F493
:1026200000EA040001D000B10125284630BD8389AD
:10263000F0E7038AEEE710B5C1F3421301F01F047F
:102640000121A140012B07D0022B07D01430002A12
:10265000026805D00A4304E00C30F8E71030F6E7D2
:102660008A43026010BD000030B50446008A85B080
:102670000D464CF6FF710840E98801432182A1898B
:102680004EF6F3100140A8882A8910436A890A434C
:102690001043A081A08A4FF6FF410840A989014359
:1026A000A1826846FFF78EFD1948844201D1039844
:1026B00000E00298A189090400EBC00101EB0010C1
:1026C000296801D5490000E08900B0FBF1F06422DF
:1026D000B0FBF2F109010B096FF018056B4300EB39
:1026E0008300A3891D044FF0320306D503EBC0001D
:1026F000B0FBF2F000F0070005E003EB0010B0FBC8
:10270000F2F000F00F000843208105B030BD00005A
:10271000003801408088C0F3080070472DE9F05F61
:10272000154683465748CA681E46DDE90A3710F841
:10273000129000EB42004FF0000890F801A04869A9
:1027400002280AD04446EBB33068002859D0385DDF
:102750002855641C062CFADB5BE088694FF0000406
:1027600040B14946584604F003F82855641C082C2B
:10277000F7DB03244946584603F0FAFF04EB440113
:102780004E194946F075584603F0F2FF3076494637
:10279000584603F0EDFF641C7076062CEADB14E06B
:1027A0005146584603F0E4FF04EB44014E195146EC
:1027B000F075584603F0DCFF30765146584603F07A
:1027C000D7FF00E00BE07076641C0C2CE8DB85F88A
:1027D0003D8085F83C8085F83B80BDE8F09F494608
:1027E000584603F0C5FF2855641C0B2CF7DB0B245F
:1027F0005146584603F0BCFF2855641C152CF7DBE6
:10280000EBE74946584603F0B3FF2855641C062CF5
:10281000F7DB706818B90BE0385D2855641C0B2C89
:10282000FADB07E04946584603F0A2FF2855641C2E
:102830000B2CF7DBB06818B90BE0385D2855641C29
:10284000102CFADB07E05146584603F091FF28555B
:10285000641C102CF7DBF06818B90BE0385D2855C4
:10286000641C152CFADB07E05146584603F080FF44
:102870002855641C152CF7DB85F8158085F8168023
:10288000ABE7000060A600082DE9FF4F89B00023E8
:10289000DDE917871446DDF858B0C8681A465FEAC4
:1028A000C8764FF00305994602D0BBF1010F41D025
:1028B0000526B0F5C87F11DA051195FBF6FCCDF8B9
:1028C00000C095FBF6FC06FB1C550195C0F3810585
:1028D00000F00300CDE90250002566E0B0F5FA7F74
:1028E00012DAA0F5C870851095FBF6FCCDF800C093
:1028F00095FBF6FC06FB1C5500F00300CDF80C9090
:10290000CDE90150012550E0A0F5FA7090FBF5F3F8
:10291000009390FBF5F305FB1300CDF80C90CDE987
:102920000109886918B1019802900098019001236B
:1029300002253AE000F001024010B42818DA2425FC
:1029400090FBF5F6009690FBF5F605FB160C0626B7
:102950009CFBF6FCCDF804C090FBF5FC05FB1C00CD
:1029600090FBF6F506FB1500CDE9020903251CE0F6
:10297000F4280DDAB438C0F301150095C0F38105D1
:1029800000F00300CDF80C90CDE9015004250CE0D7
:10299000F43890FBF5F6009690FBF5F605FB160073
:1029A000CDF80C90CDE901090525486900260228DB
:1029B00004D1886908B1022600E00126DFF804C1CD
:1029C00005EB45050CEB850505EB8606002004ADFF
:1029D00016F800C045F820C0401C0428F8DB5FEA68
:1029E000C870EA4612D0BBF1010F0FD10020D446C7
:1029F00007EB80065CF82080C6F8048055F820803C
:102A0000401CC6F814800428F2DB3A60CB634869A6
:102A1000022804D000273E46A846002546E08869E3
:102A200058B100260099099803F0A2FEA055761C23
:102A3000062EF7DB0327012601E000273E46AB46C2
:102A400000251AE05AF82610099803F091FE07EBCA
:102A5000470101EB040888F817005AF82610099876
:102A600003F086FE88F818005AF82610099803F03B
:102A70007FFE6D1C88F819007F1C5BF82600A842B9
:102A8000E0DC761C032EDBDD84F83D9084F83C907E
:102A900084F83B900DB0BDE8F08F00BF5AF82610C7
:102AA000099803F065FEE0556D1C7F1C58F8260060
:102AB000A842F3DC761C032EAFDD84F8169084F870
:102AC0001590E7E780A60008FEE70000F0B5022AAF
:102AD00019D0474B02EBC20203EB021202F18C0445
:102AE000092601F14405483208C880CA54F804C9CF
:102AF00087FB03E780C18CFB0373761E45F804391E
:102B0000002EF1DCF0BD3A4A8368D2F83841D2F8A1
:102B1000205184FB0343846985FB045423440B60E8
:102B2000D2F83C314468C56983FB0443D2F82441A0
:102B300084FB055423444B60D2F840410368056A86
:102B400084FB0343D2F8284184FB055423448B6063
:102B5000D2F844410368D2F82C5184FB0343046A41
:102B600085FB04542344CB60D2F848414368C569CF
:102B700084FB0343D2F8304184FB055423440B61AA
:102B8000D2F84C318468D2F8345183FB0434836921
:102B900085FB035323444B61D2F83841436984FBDE
:102BA00003438B61D2F83C31046983FB0443CB615E
:102BB000D2F84041C36884FB03430B62D2F844312E
:102BC000C46883FB04434B62D2F84831046983FB39
:102BD00004438B62D2F84C21406982FB0020C8621A
:102BE000002048640864C863886348630863F0BDD4
:102BF000C8A6000830380A2801D2012070470020FA
:102C00007047704708B50020009000BF401C00903E
:102C10002828FADB08BD00000A4B10B55B680B4C96
:102C20009B1A094A1268B2FBF4F202B94822B3FBBC
:102C3000F2F20368134403600868904200D20A600D
:102C400010BD0000001000E00400002040420F0012
:102C500070B51B4E0025BAB0B06800282ED0F068C1
:102C600000282BD0174CA068002827D0400625D17B
:102C7000D4E90D010844216B49B14FF47A72A1FBEC
:102C800002236421A0FB0101FDF7EFFA054601F0E4
:102C9000A9F8BC30216D05C80395CDE90402069161
:102CA000D4E90D01A26C8DE80700074907A8236B42
:102CB000A268FDF75DFBF16807A888473AB070BDD0
:102CC000200000208C38002090B200082DE9F0434D
:102CD000314D0026A9B0A868002859D0E96800291C
:102CE00056D02868002853D1012028602BA088479F
:102CF000384F0024384957F8240002F067FE0028B6
:102D00001BD002F05DFE034657F8242033A168462D
:102D1000FDF72EFBE96868468847641C0C2CE9D354
:102D2000E9683AA088470124DFF81491E7022A49AC
:102D3000204602F04BFE18BB06E057F82410264A46
:102D400040A000F0F7F8E8E72348804600F016FDC1
:102D5000B0B1404600F030FD50B9404600F01AFDD9
:102D600030B998F8C20118B9484600F0E9FA38B10C
:102D7000194A214636A000F0DDF8761C082E02D252
:102D8000641CBC42D3D3002E02D1E96833A088472B
:102D900029B0BDE8F0830000200000205B66735D71
:102DA000206D6F756E74206661696C65643A207081
:102DB000726F62696E6720636F6D6D6F6E207061F8
:102DC00072746974696F6E207374617274730D0A22
:102DD00000000000B87C0008B00300205B66735D53
:102DE0002063616E64696461746520736563743D1A
:102DF000256C752072656164206661696C6564206C
:102E00006572723D25730D0A000000005B66735DFC
:102E1000207363616E6E696E6720736563746F7291
:102E20007320312E2E3230343720666F72204141AC
:102E300035352F4641542F65784641540D0A000020
:102E40007605002063616E6469646174650000004A
:102E50007363616E2D686974000000005B66735DCA
:102E6000207363616E2D686974206E6F6E652069D2
:102E70006E20666972737420323034382073656353
:102E8000746F72730D0A000030B51D4CAFB0A068AE
:102E9000002811D0E06800280ED01A49002002F066
:102EA00095FD58B102F08CFD024617A106A8FDF76A
:102EB0005FFAE16806A888472FB030BD1B4800F0D4
:102EC0003FFA05461948001F00F03AFA0D4991F8FB
:102ED000C2218B7805950293CDE903204A780878C2
:102EE000CDE9000291F8FE3191F8FF21104906A8C2
:102EF000FDF73EFAE16806A88847FFF7E7FEDBE743
:102F000020000020B00500205B66735D20736563C0
:102F1000746F72302072656164206661696C6564EB
:102F2000206572723D25730D0A0000007A070020AB
:102F3000A8B300082DE9F0432E4E8146C9B0B06811
:102F40008846144629A500284DD0F06800284AD0AC
:102F5000104600F013FC28B1204600F02DFC08B10B
:102F600025A50EE0204600F009FC28B1204600F01F
:102F700011FC08B121A504E0204600F0FFFB00B1E0
:102F800020A504F5E57000F0DBF9074604F5E370D1
:102F900000F0D6F994F8C211A27ACDE90E1010977C
:102FA0000D92A07909AF637A227AE17987E80F0060
:102FB000A07805AF63792279E17887E80F0060781F
:102FC000217894F8FE2194F8FF310095CDE9013283
:102FD000CDE9031043464A460D4911A8FDF7C8F94B
:102FE000F16811A8884749B0BDE8F0836E6F6E653F
:102FF00000000000200000206661740065786661B2
:10300000740000006D62722F626F6F740000000028
:1030100018B3000870B58CB00C4605000CD05CB13C
:1030200026A106A801F000FF60B125A000F0E4FB96
:103030006FF001000CB070BD26A000F0DDFB4FF07A
:10304000FF30F7E70DF10906694606A801F06AFFAF
:1030500028B125A000F0D0FB6FF00200EAE79DF850
:10306000090020B39DF80800C006EDD423A1304626
:1030700000F06AF80028E7D000226846641E01E0EC
:10308000A954521C8118497A09B1A242F8D30021EF
:103090001044A954407A28B11AA000F0ADFB6FF09B
:1030A0000300C7E71DA000F0A7FB0020C2E71FA098
:1030B00000F0A2FB6FF00400BCE700002F0000004E
:1030C00070665F6F70656E646972206661696C65B9
:1030D00064000000696E76616C69642070617468D8
:1030E000206275666665720070665F726561646411
:1030F0006972206661696C65640000002E6D703332
:10310000000000006D70332066696C656E616D654E
:1031100020746F6F206C6F6E670000006D7033203D
:1031200066696C6520666F756E6400006E6F206D59
:1031300070332066696C6520666F756E64000000F0
:10314000004870478C380020F0B500231A4600E094
:103150005B1CC45C002CFBD100E0521C8C5C002C7E
:10316000FBD1934213D300259E1A13E07319C45C5C
:103170004B5DA4F14107192F01D82034E4B2A3F12B
:103180004107192F01D82033DBB29C4201D0002027
:10319000F0BD6D1C9542E9D30120F0BD30B52C4C3B
:1031A00089B0A06818B1E16809B12AA0884700F089
:1031B000D1FE30B12FA000F01FFB4FF0FF3009B05F
:1031C00030BDA06848B1E16839B130A08847A06837
:1031D00018B1E16809B135A0884702F079FA30B139
:1031E00002F0EEFB00F008FB6FF00100E7E7A068DB
:1031F00048B1E16839B135A08847A06818B1E168E5
:1032000009B13AA088473F4801F048FD05000CD0BD
:10321000FFF73AFE2A463CA16846FDF7A9F8684642
:1032200000F0EAFA6FF00200C9E7606818B9FEF72B
:10323000EBFE606030B100F09BFA38A000F0DCFAE1
:103240000020BCE736A000F0D7FA6FF00300B6E725
:10325000200000205B696E69745D20626F6172649A
:103260005F617564696F5F696E6974207374617200
:10327000740D0A00626F61726420617564696F2069
:10328000696E6974206661696C6564005B696E696A
:10329000745D20626F6172645F617564696F5F69FC
:1032A0006E6974206F6B0D0A000000005B696E6927
:1032B000745D207364636172645F737475625F69C7
:1032C0006E69742073746172740D0A005B696E69B3
:1032D000745D207364636172645F737475625F69A7
:1032E0006E6974206F6B0D0A000000005B696E69E7
:1032F000745D2070665F6D6F756E7420737461729B
:10330000740D0A000038002070665F6D6F756E7472
:10331000206661696C656420256400006F6B0000A5
:103320006D7033206465636F64657220696E6974C3
:10333000206661696C656400004870472C38002085
:1033400082780188C07862F31F4141EA00607047CB
:1033500010B504460FA1FFF7F7FE20B12046BDE8E7
:10336000104000F03FB80DA12046FFF7EDFE20B958
:103370000CA12046FFF7E8FE28B10CA000F03CFAB3
:103380006FF0140010BD10A000F036FA6FF01500B9
:1033900010BD00002E6D7033000000002E6D7034E3
:1033A000000000002E6D3461000000006D70342FAD
:1033B0006D346120737570706F727420646973610D
:1033C000626C656400000000756E737570706F72DA
:1033D0007465642066696C6520657874656E7369D0
:1033E0006F6E00002DE9F04F4FF0000B8FB080465C
:1033F0005C46CDF834B05F46CDF804B000F0B8F9C3
:10340000A448016841F080710160A34E7460306887
:1034100040F001003060A14CB516606818B9FEF7A5
:10342000F3FD606048B3404601F0D2FC38B19CA087
:1034300000F0E2F94FF0FF300FB0BDE8F08FA24688
:103440006068FEF7AAFDFEF7DFFD6060A8B1DFF857
:103450006082984C41F650090198484524DA756815
:1034600040440DAA4FF4C06101F004FD68B192A080
:1034700000F0C2F96FF00100DEE793A000F0BCF9A4
:103480002846D9E7002FE7D00EE08A492A46443182
:10349000A1F11000FFF7C0FB0D9878B1019901442C
:1034A00001912168084420600199002956DD804877
:1034B000FEF75DFD051E0EDAF7BB01E00127F3E71D
:1034C00001990129C8DD4144012011F8011C88F847
:1034D00000100190C0E70EDD019808EB0501421BCA
:1034E0007348FDF746F90198401B0190A06810B998
:1034F000E06A2844E0621C2103A8CDF82C80FDF787
:103500009CF96068401C60607068CDF800B00A905B
:10351000734B01AA0BA9DAF80400FEF7A7FB654973
:1035200005464831A1F110000A9AFFF775FB2565A1
:10353000681C11D0A81C00E010E022D085B3019ACD
:10354000012A27DD08F101015948521EFDF711F942
:103550000198401E01901FE0002FBBD0206800287A
:103560007ED0A06800287CD000F02EFCD4E90D01AC
:103570000844E16B084420645AA000F03DF90020A3
:103580005AE703A9DAF80400FEF70CFDE068401CD6
:10359000E06069E0CDF804B0E068401CE06071E7ED
:1035A000FFE703A9DAF80400FEF7FCFC0498012801
:1035B00007D0022805D050A000F01EF96FF00200DD
:1035C0003AE70598002802DD0798002805DC51A09D
:1035D00000F012F96FF004002EE7049990FBF1F56A
:1035E000059800F04FFD70680A9029463C48049AFF
:1035F00000F0DAFC28B14DA000F0FEF86FF00300F7
:103600001AE72C490A9A4C31A1F11000FFF704FB8C
:10361000A06828B90B9BE26AA3EB08011144E162A0
:10362000401CA06020690023401C20610598606157
:103630000498A0610898E06103994FF47A7091FBB7
:10364000F0F121620B9AA2EB0801C4E90915A5FB70
:103650000001059AFCF709FE216B0844206301E094
:103660000CE011E0FFF7F4FA019A002A97DD0B99BC
:10367000414594D00E48FDF77CF803E730A000F0F8
:10368000BBF86FF00500D7E632A000F0B5F86FF098
:103690000600D1E6FCED00E0001000E02000002074
:1036A00070665F6F70656E206661696C65640000AE
:1036B000B00700208C38002070665F72656164205E
:1036C0006661696C656400006D7033206465636FCA
:1036D00064657220696E6974206661696C65640056
:1036E000002600206D703320706C61796261636B1D
:1036F00020646F6E65000000756E737570706F7278
:10370000746564206368616E6E656C20636F756EAE
:10371000740000006D7033206672616D6520696E03
:10372000666F20696E76616C6964000070636D205D
:103730006F7574707574206661696C656400000053
:103740006D70332066696C6520697320656D7074D7
:10375000790000006E6F2076616C6964206D7033B3
:10376000206672616D65206465636F646564000046
:1037700054210148FDF761B88C38002090F8FE1103
:10378000552903D190F8FF01AA2801D000207047E5
:103790000120704710B5082204A1C01CFCF778FF77
:1037A00008B1002010BD012010BD00004558464161
:1037B000542020200000000010B50446032208A178
:1037C0003630FCF765FF40B1052206A104F1520036
:1037D000FCF75EFF08B1002010BD012010BD000005
:1037E000464154004641543332000000014AC2E9C8
:1037F00002017047200000200021054A01E05354D7
:10380000491C435C0BB15F29F9D300205054704729
:103810002C380020074A10B500284FF400511046FC
:1038200002D0FDF751FF01E0FDF750FFBDE8104069
:1038300000F016B80010014000EB80004000642149
:1038400090FBF1F1B1F5004F02DB47F6FF707047D6
:1038500002488142FBDB08B2704700000080FFFF96
:1038600038B56946002000F075FE8A4C10B99DF805
:103870000000A0616946012000F06CFE10B99DF8BF
:103880000000E0616946022000F064FE10B99DF876
:10389000000020626946032000F05CFE10B99DF82C
:1038A000000060626946042000F054FE10B99DF8E3
:1038B0000000A0626946052000F04CFE10B99DF89A
:1038C0000000E0626946062000F044FE10B99DF851
:1038D000000020636946072000F03CFE10B99DF807
:1038E000000060636946082000F034FE10B99DF8BE
:1038F0000000A0636946092000F02CFE10B99DF875
:103900000000E06369460A2000F024FE10B99DF82B
:103910000000206469460B2000F01CFE10B99DF8E1
:103920000000606469460C2000F014FE10B99DF898
:103930000000A06469460D2000F00CFE10B99DF84F
:103940000000E06569460E2000F004FE10B99DF805
:103950000000206669460F2000F0FCFD10B99DF8BC
:10396000000060666946102000F0F4FD10B99DF873
:103970000000A0666946112000F0ECFD10B99DF82A
:103980000000E0666946122000F0E4FD10B99DF8E1
:10399000000020676946132000F0DCFD10B99DF897
:1039A000000060676946142000F0D4FD10B99DF84E
:1039B0000000A0676946162000F0CCFD10B99DF804
:1039C0000000E0676946252000F0C4FD18B99DF8A5
:1039D0000000C4F880006946312000F0BBFD10B93A
:1039E0009DF8000020656946322000F0B3FD10B953
:1039F0009DF80000E0646946332000F0ABFD10B98B
:103A00009DF8000060656946342000F0A3FD10B900
:103A10009DF80000A0656946372000F09BFD18B9AD
:103A20009DF80000C4F884006946442000F092FD2F
:103A300018B99DF80000C4F888001748008844F8B9
:103A40008C0F1548143000886060134818300088C7
:103A5000A0601148001F0088E060104800682061E5
:103A60000F48006860610F488168A1610B49091D1A
:103A70000968E1610A49091D09682162C16861623A
:103A800009494968A1624114FDF717FEE06200F0A0
:103A900005FB38BDE0580020083C00400808014004
:103AA000080C0140001001400010024070B500F009
:103AB00027FD10B14FF0FF3070BD3F21002000F016
:103AC0008BFD04460A2000F095FB8021002000F0C9
:103AD00083FD0443022000F08DFB3021012000F023
:103AE0007BFD04430021022000F076FD04431021F9
:103AF000032000F071FD04432421162000F06CFD2A
:103B000004431021042000F067FD04430021052038
:103B100000F062FD044300210B2000F05DFD044332
:103B200000210C2000F058FD04431F21102000F05C
:103B300053FD04437F21112000F04EFD04430F216B
:103B4000062000F049FD0443FF21072000F044FD5A
:103B500004430421082000F03FFD04430C21092008
:103B600000F03AFD04434C210A2000F035FD0443E7
:103B70000821442000F030FD04430021312000F0F2
:103B80002BFD0443BF21322000F026FD0443002119
:103B9000332000F021FD04430021342000F01CFDFF
:103BA000044301210D2000F017FD0443782000F0AC
:103BB00021FB02210E2000F00FFD04430121122001
:103BC00000F00AFD04431021132000F005FD04431A
:103BD0001A21142000F000FD044306210D2000F0FE
:103BE000FBFC04431E2000F005FB0021252000F013
:103BF000F3FC40EA04053F21012000F0EDFC40EA1F
:103C00000504FFF72DFE204670BD0000084810B5E2
:103C1000806900280AD00748FDF7CEF84FF480519C
:103C2000884200D908464042C0F30B0010BD000096
:103C3000300000201C04024070B500F067F80A4C08
:103C400005466069A8420DD8E0694FF40051401C58
:103C5000E0610648FCF7CFFD05F58065C5F30B0074
:103C60006561606070BD000030000020E038002019
:103C700070B54FF400548CB021462048FCF7BBFDD2
:103C800001210220FEF762FA1D4E00213046FDF7A9
:103C900016F83046FDF71EF81A48009017480190B4
:103CA0001020029000020025CDE903058020059038
:103CB000400006908000079008AA202082E831008A
:103CC00069463046FDF77BF80E48012202210C3888
:103CD000FEF796FB01213046FCF7F1FF0A4C01206C
:103CE000A061FFF793FFC4E90205206100F5806041
:103CF0006061C0F30B0060600CB070BDE038002064
:103D00001C0402400C3C00403000002010B5FFF7BE
:103D10007DFF06498A68904202D2CA68521CCA6076
:103D20008860CA6800EB0230086110BD30000020D6
:103D300010B5FFF7EBFF04494969814201D8002023
:103D400010BD081A10BD0000300000202DE9F0471A
:103D50001A4C0646DFF86880A0690D4618B10227A4
:103D60004FF47E6909E0304600F0A8F9284600F0DB
:103D7000A5F91CE0FFF760FF00BFFFF7D9FF48453A
:103D8000F8D2C0F57E60B842F4D3FFF755FF0D4A74
:103D9000606822F81060401CC0F30B01606922F8D3
:103DA0001150491CC1F30B01801C61606061D8F89F
:103DB0000010491CC8F80010BDE8F0873000002052
:103DC000E0580020E038002070B54FF48044251101
:103DD00000E000BFFFF7ACFFA84201D9641EF8D293
:103DE00070BD000000487047E05800202DE9F843FE
:103DF00001211D20FEF7CEF90121CE033046FEF74A
:103E0000B1F901210220FEF7A1F901212648FDF7B1
:103E100021FC03208DF80200C020ADF80000142022
:103E2000DFF888808DF8030069464046FDF7C0FB47
:103E300000F0D2FC00F0B8FC022000F0DBF9B41076
:103E40001B4FADF8004010258DF8035069463846E9
:103E5000FDF7AEFB21463846FDF736FC8020ADF875
:103E6000000018248DF8034069463846FDF7A0FB92
:103E7000ADF800608DF8034069460E48FDF798FBE9
:103E80002820ADF800008DF8034069464046FDF754
:103E90008FFBADF8005004208DF8030069464046C2
:103EA000FDF786FBBDE8F88300023000000C0140FE
:103EB00000100140000801407FB5224E0546002257
:103EC00002213046FEF79CFA00211F48FCF7F7FE5E
:103ED0001E480024846144608460C46004614461BD
:103EE0003046FEF795FA7015ADF80000ADF80440C5
:103EF000ADF80600A5F52740F838ADF80240B0F55A
:103F0000FA6F02D84AF6444001E04BF68030029046
:103F1000ADF80C4069463046FDF790FC0121304673
:103F2000FDF782FCFFF7A4FE0948064908318560C9
:103F30000988C0F88C1003491C310988C0F890101A
:103F40007FBD0000003C00401C0402403000002007
:103F5000E0580020AFF3008010B5FFF747FF0120C5
:103F600000F080F80A2000F045F94BF68030FFF7AA
:103F7000A3FF0A2000F03EF9FFF798FD28B1084999
:103F80004FF0FF30C1F8C80010BD142000F032F926
:103F90004FF400510348FDF797FB002010BD0000CF
:103FA000E0580020001001402DE9F0412A4C17464E
:103FB0000E4605001ED0EEB12848E7600088C4F820
:103FC0008C00264814300088C4F890004FF400514B
:103FD0002348FDF772FBC4F8B80000F05FF8012F2A
:103FE0000ED0022F1ED06FF00300C4F8C80040109E
:103FF000BDE8F0816FF00200C4F8C8008010F7E758
:1040000000240CE035F91400FFF716FC074635F9DB
:104010001400FFF711FC3946FFF798FE641CB44208
:10402000F0D314E0002410E005EB840135F92400FE
:10403000B1F90210084400EBD070401000B2FFF755
:10404000FBFB0146FFF782FE641CB442ECD300F098
:1040500025F80020CCE70000E0580020083C004094
:104060000010014010B50446D0210548FCF7E5FBDF
:1040700003484BF68031C0F8CC40816010BD000091
:10408000E0580020002805D003498968814201D00A
:10409000FFF712BF70470000E058002070B5054DD3
:1040A000054CE86944F8BC0FFFF742FE60606868A1
:1040B000A06070BD30000020E058002070B5074DB2
:1040C000044602212846FEF7CDF90028F9D0A1B216
:1040D0002846BDE87040FEF7CCB90000003C004027
:1040E00070B50D46064602234FF4FF7200F022F928
:1040F00008B1032070BD304600F0ABFCA0F52A41AA
:10410000553901D0022070BD02233622294630469F
:1041100000F010F944F2461420B9304600F099FC42
:10412000A0420BD0022352222946304600F002F969
:1041300030B9304600F08DFCA04201D1002070BDA6
:10414000012070BD0649801E09688A68921E82425D
:1041500001D8002070474A69897800FB0120704728
:1041600088000020F0B5456820202A460B2301E096
:1041700002F8010B5B1EFBD20023184F0E681C4691
:104180000822F05C5B1CDBB2202809D92F2807D05D
:104190002E2801D094420CD3082A01D12E2805D014
:1041A000F2180A60202814D8012013E008240B22FA
:1041B000E7E7802802D3384410F8800CA0F1610CA6
:1041C000BCF1190F01D82038C0B22855641CE4B2E4
:1041D000D7E70020E8720020F0BD0000E87C00086E
:1041E000014601A0FCF7B8B8257300006FF0040089
:1041F000FEF796B942F2283148434FF0E02148617A
:1042000000228A61086940F0010008610869C3075B
:1042100001D0C003FAD508690A618A6170472DE9A7
:10422000F0410D46064600F05BF8002809D13078D1
:1042300020230007C20D2846316900F07BF810B139
:104240000120BDE8F0812978002031B1E97A090721
:1042500010D42C460A21726803E00320F1E7491EBE
:1042600006D314F8013B12F8017BDB1BF7D001E009
:10427000002BE6D0304600F003F80028D7D0E0E766
:1042800070B50446154806682088401C05042D0CAE
:104290001AD02069C0B129071CD1401C2061E068F8
:1042A00028B1B178491E11EA151F04D012E0B08878
:1042B000A84209D90EE000F00FFA012801D8012028
:1042C00070BDB168814201D8032070BDE060FFF786
:1042D00039FF20612580002070BD0000880000208B
:1042E00010B504460C48016800202080A068012811
:1042F00002D08A68824201D8012010BD18B90A781C
:10430000032A00D10869E06010B1FFF71BFF00E04D
:1043100008692061002010BD8800002010B501F060
:1043200049FB08B1002010BD01F0D2F90028FAD0F5
:10433000012010BD2DE9F0411C4615460F460646EA
:1043400001F038FB38B10E49384601F03FFB20B18F
:104350000120BDE8F0810220FBE72819B0F5007FBD
:1043600001D90320F5E746B10020054903E02A18EA
:104370008A5C3254401CA042F9D30020E9E70000D7
:10438000B05B002030B58FB00546FFF72BFD04462B
:10439000BC300DF1180C0FC88CE80F0004F10C01B3
:1043A000D4F8B8000EC9CDE90430CDE90212D4E941
:1043B0000101CDE9000129462D482368D4F8CC201D
:1043C000FBF7CAFF04F13C000DF11C0C0FC88CE890
:1043D0000F0004F12C000DF10C0C0FC88CE80F003D
:1043E00004F1200007C88DE80700D4E90623294618
:1043F0002048FBF7B1FFD4E92123D4E915010DF1E1
:10440000280C8CE80F00D4E91332D4E91F010DF118
:10441000180C8CE80F0004F16C000DF1080C0FC8AB
:104420008CE80F00D4E91901CDE90001D4E9172384
:1044300029461148FBF790FF04F1A4000DF1140C7C
:104440000FC88CE80F00D4E927230DF1040CD4F831
:104450009800D4F8B4108CE80F00D4F894000090C1
:10446000D4E9232329460548FBF776FF0FB030BD7A
:10447000D8B000089CAF0008ECAE000830B00008CF
:1044800030B589B0FEF75CFE026B0446002562B1D0
:10449000D4E90D01084464214FF47A73A0FB0101B3
:1044A000A2FB0323FBF7E1FE054604F120000DF11A
:1044B000140C0FC88CE80F0004F110000DF1040C6F
:1044C0000FC88CE80F00E068009094E80E000A48DE
:1044D000FBF742FF04F1440002AB07C883E8270062
:1044E000D4E90F01CDE900013034044894E80E000E
:1044F000FBF732FF09B030BD78B1000808B2000800
:1045000070B5302000F01AF80A4C0B4D50B1322033
:1045100000F014F840B100202861FF2068614FF0DE
:10452000FF3070BD302000E0322020702861002074
:1045300070BD000030000020E058002010B5044697
:1045400000F073F920468022BDE81040002100F001
:1045500055B800002DE9F0410E46074600F05AF923
:104560001B4D287800F06AF90446384600F066F9D9
:10457000044300F04FF9287840F0010000F05EF9A4
:1045800050EA040506D000F050F912484761284669
:10459000BDE8F081002400F01FF900276006040E3A
:1045A00000F002F900F030F908B144F0010400F025
:1045B00007F97F1C082FF1DB00F00EF900F0F4F88A
:1045C00000F0FEF800F008F9347000F02EF9DEE794
:1045D00030000020E058002010B50A46044601468D
:1045E0000448007800F00AF8002801D002494C6124
:1045F00010BD000030000020E058002070B51546C6
:104600000C46064600F006F9304600F017F906465B
:10461000204600F013F940EA0604284600F00EF99F
:1046200040EA040500F001F9284670BDF7B50446DC
:104630000D46029801E0401C029001782029FAD032
:1046400001782F2901D1401C02900026A660029813
:104650000078202804D22046FFF742FE2E70FEBDCF
:1046600002A92046FFF77EFD0028F8D12946204602
:10467000FFF7D5FD0028F2D16168C97A0029EED193
:10468000E87AC00601D40320FEBD284600F00EF8EB
:10469000A060E5E704490A885206FCD5024AC1B287
:1046A000121D1180704700000038014070B50446AB
:1046B0000848002500680078032804D104F114009C
:1046C00000F0C7F9050404F11A0000F0C2F928430C
:1046D00070BD000088000020164908B5096802284E
:1046E00020D38A6882421DD90A78022A02D0032A7E
:1046F00018D10DE0C968022301EB10210006C20D9C
:104700006846FFF717FE68B9684600F0A2F908BDD1
:10471000C968042301EBD0114006C20D6846FFF7BB
:1047200009FE08B1012008BD684600F087F920F0B5
:10473000704008BD8800002070B5006916460D461F
:1047400002F1090468B30020295C202908D005295A
:1047500000D1E521401CC0B204F8011B0828F3D3A6
:10476000287A20280CD02E2004F8010B0820295C80
:10477000202905D0401CC0B204F8011B0B28F6D339
:10478000E87A307205F11C0000F058F9306005F14C
:10479000180000F05EF9B08005F1160000F059F93C
:1047A000F0800020207070BD10B540210348FCF758
:1047B0008DFFBDE81040FEF725BA0000000C014057
:1047C00010B540210348FCF77FFFBDE81040FEF71D
:1047D00019BA0000000C014010B580210348FCF715
:1047E00075FFBDE81040FEF70DBA0000000C014057
:1047F00010B580210348FCF767FFBDE81040FEF7C5
:1048000001BA0000000C014080210148FCF74EBFB6
:10481000000C014010B5FFF7DFFFFFF7C5FFFFF702
:10482000E7FFBDE81040FFF7CBBF10B5FFF7E0FF93
:10483000FFF7BAFFBDE81040FFF7CEBF70B50546E1
:104840000024280602D5FFF7C7FF01E0FFF7D0FFDD
:10485000FFF7AAFFFFF7B4FF6806050E641C082CDB
:10486000EFDBFFF7B9FFFFF79FFFFFF7CDFF044630
:10487000FFF7A6FF14B14FF0FF3070BD002070BDF0
:104880002DE9F04F92B040C8079698C8856870E847
:10489000042CBA46A6EB050E0695D0E90717A3EB44
:1048A0000C0803EB0C06A4EB020C2244E5195C187F
:1048B000ACEB070BDFF8E8C0A8EB01018CFB0A8723
:1048C0008CFB01C1DFF8DCA0A5EB02098AFB02C862
:1048D000DFF8D4C0CDF80C808CFB058510958AFBE1
:1048E00009588CFB0229314D331BCDF83C8085FBE8
:1048F0000328DFF8BCC0CDF804808CFB044285FBA4
:1049000006488CFB033CCDF83080DDE9065606EB0B
:10491000650303EB4706DDF80C80109DA3EB47070A
:1049200008EB0503DDF83C805D00A8EB0903DDF82A
:1049300004805C004244DDF830805300A8EB0C0298
:1049400005EB040906EB05083D440C953D1934447C
:104950000E9408EB03040EEB6B0A046052000AEBA2
:1049600041044460AC18A2EB030CA7EB0907A6EBCB
:1049700009068460A7EB0C04C460AEEB0B04046171
:1049800006EB0C0444610E9CAAEB4101A21AC0E99B
:1049900006210C9DE91A016212B0BDE8F08F0000FB
:1049A000A1EBD96E8BBE0D627E1A3A1649DD4652D6
:1049B000322E0E7EF0B5046BC26B476AA41AC6682D
:1049C00005688369381B1F1A831AF01B2D1AC01A39
:1049D000461019486D10006880FB07C780FB033044
:1049E00005EB640C7F002C1B0CEB0705ACEB0707F9
:1049F000430006EB620CB01A0F4E0CEB030E4C3664
:104A0000ACEB0303326882FB0EE2D6F804E0B66832
:104A10008EFB00E086FB03639200AE1880000E6000
:104A200026189B004E60FE18FB1A201A8E60C1E902
:104A30000330A81A4861F0BDC4020020C178827812
:104A400042EA01214278007842EA012140EA01204D
:104A500070474178007840EA012070471FB5002672
:104A60004FF4A060FDF766FBFFF7C0FB02220121B7
:104A70004FF4E130FDF7CAFA2BA0FBF76DFC32A230
:104A800034A137A0FBF768FC3CA0FBF765FC464966
:104A9000012001F005F844490120FEF7A7FE43A0DC
:104AA000FBF75AFCFEF77AFB0446FEF745FC02468C
:104AB000214645A0FBF750FC4EA0FFF763FC4FF4E6
:104AC0007A751CB12846FFF795FBFBE70120FEF73E
:104AD000A1FE0D216846FEF79DFA0446FEF72CFC68
:104AE0000246214646A0FBF737FC3CB969464DA07B
:104AF000FBF732FC6846FEF72BFC0446FEF71CFC75
:104B0000024621464EA0FBF727FCFFF7B9FC56A052
:104B1000FFF738FC3246214656A0FBF71DFC28461D
:104B2000FFF768FBFBE700000D0A5B617564696FC6
:104B30002D64656D6F5D20626172656D6574616C79
:104B400020626F6F740D0A0031303A32313A3233DD
:104B5000000000004A756C202037203230323600C9
:104B60005B617564696F2D64656D6F5D2062756949
:104B70006C642025732025730D0A00005B61756449
:104B8000696F2D64656D6F5D20555341525431201E
:104B90005041392F504131302031313532303020C1
:104BA000384E310D0A000000E14100085B61756478
:104BB000696F2D64656D6F5D20696E697420737413
:104BC0006172740D0A0000005B617564696F2D6489
:104BD000656D6F5D20617564696F5F706C6179658B
:104BE000725F696E69743D2564206572723D25733C
:104BF0000D0A0000617564696F2D696E69740000AB
:104C00005B617564696F2D64656D6F5D2066696EAB
:104C1000645F6D70333D2564206572723D25730DB0
:104C20000A0000005B617564696F2D64656D6F5DDE
:104C300020706C61792066696C653D25730D0A00F2
:104C40005B617564696F2D64656D6F5D20706C616B
:104C5000795F726573756C743D2564206572723D71
:104C600025730D0A00000000706C61796261636B4E
:104C7000000000005B617564696F2D64656D6F5D98
:104C800020646F6E6520706C61793D2564207265CB
:104C9000636F72643D25640D0A0000002DE9F04F3A
:104CA000DFF828B189B04FF0000A0446CBF800A025
:104CB000FFF734FBC00703D0022009B0BDE8F08F36
:104CC0000020804601466846FFF70AFA054601289B
:104CD00014D110234FF4DF7241466846FFF72AFBD8
:104CE000B8B99DF80400002869D002A8FFF7A6FE15
:104CF000804601466846FFF7F3F90546032D08D0C4
:104D0000002D5CD124230D2241466846FFF712FB9B
:104D100008B10120D1E70DF10900FFF79AFE18B99B
:104D20000DF11700FFF78AFE9DF80370E94647432F
:104D30004E460DF10100FFF78CFE4044E0609DF807
:104D40000000A070301DFFF784FEA080B01DFFF7AB
:104D500080FE060004D10DF11300FFF76FFE06463A
:104D600009F10100FFF775FE301AA188C01BA0EB06
:104D70001110A1784EF6FF72B0FBF1F0801CA0F686
:104D8000F871A060914200D202254FF6F771884277
:104D900002D30325257014E08DB12570032D10D0AA
:104DA000E06838442061A188E06807EB11110844ED
:104DB000606184F801A00020CBF800407DE7062068
:104DC0007BE70DF11F00FFF739FEEBE788000020BD
:104DD00030B5144991B00C68A4B1002565700DA9D7
:104DE00002460991694608A8FFF720FC002807D170
:104DF0009DF8000018B19DF80B00C00604D50320F3
:104E000011B030BD0520FBE76846FFF74FFC20627C
:104E100007A8FFF713FEC4E90650012060700020C8
:104E2000EEE700008800002010B5044610488CB062
:104E30000068C0B108A80A46606069462046FFF7CE
:104E4000F5FB00280DD19DF8000038B19DF80B004E
:104E5000C0060AD56846FFF729FCA0602046FFF788
:104E60003FFA0CB010BD0520FBE70320F9E7000076
:104E7000880000202DE9F047804629480027914608
:104E800004680D4617604CB16078C00709D0D4E9BA
:104E90000610401A85423ED905463CE00520BDE893
:104EA000F0870420FBE7A069C10514D1A178491E51
:104EB00001EA502111F0FF0601D0606A06E0D8B186
:104EC000606AFFF709FC012813D96062FFF73AF91D
:104ED00078B13044A062208BC0F30802C2F500769E
:104EE000AE4200D92E4633464046A16AFFF722FA69
:104EF00020B167700120D2E7206AE4E7A069AD1B0A
:104F00003044A061D9F800008119C9F80010B8F147
:104F1000000F00D0B044002DC5D10020BFE7000035
:104F20008800002070B5044621488CB00D4600680A
:104F300028B108A860602DB16E46032022E005204C
:104F40000CB070BD2046FFF7CBF9F9E7207820239D
:104F50000007C20D3046FFF7EDF908B1012015E05A
:104F6000307868B1F17AE52801F03F0103D02E28AE
:104F700001D0080710D52046FFF782F910B105E0EF
:104F8000032003E021690029E0D128B10022226139
:104F9000032801D00028D3D12A4669462046FFF7CE
:104FA000CBFB2046FFF76CF90328C9D10020C7E7E7
:104FB000880000202DE9F047214E224D00246FF09B
:104FC00002094FF0804742F2107A41F288384022BD
:104FD0003721002000F0B0FA01220021372000F034
:104FE000FFFA68B9286900B13846304340222921C8
:104FF00000F0A2FA00220121292000F0F1FA10B1FC
:105000004846BDE8F0870020FDF7B6F900280CDA25
:10501000286930B10020FDF7AFF9400001D501202B
:1050200000E0002068610020EBE7504600F0B6F990
:10503000641C4445CBD304A028606FF00100E0E776
:105040000080FF005000002061636D6434312069EE
:105050006E69742074696D656F75740010B586B0E3
:105060000020009002210190CDE9020104900590FA
:105070006846FDF749F94FF4001401E0FDF79AF98D
:105080002046FDF76FF90028F8D10248FDF730F906
:1050900006B010BD2A872000F0B5204CC1B0A5692C
:1050A000002D38D0E569002D35D0157B0DF1400E6F
:1050B00092F80FC0977B567B8EE8E010157A0DF1C1
:1050C000300E92F80BC0977A567A8EE8E010157978
:1050D0000DF1200E92F807C0977956798EE8E0100E
:1050E00015780DF1100E92F803C0977856788EE877
:1050F000E01092F8FE5192F8FF21666ACDE9022590
:10510000CDE900360B460246054914A8FBF730F9F5
:10511000E16914A8884741B0F0BD000050000020AC
:10512000C4B4000830B5274CC7B0A169002947D0E6
:10513000E169002944D0017F0DF1680CC57F837FB0
:10514000427F8CE82E00017E0DF1580CC57E837ED7
:10515000427E8CE82E00017D0DF1480CC57D837DDB
:10516000427D8CE82E00017C0DF1380CC57C837CDF
:10517000427C8CE82E00017B0DF1280CC57B837BE3
:10518000427B8CE82E00017A0DF1180CC57A837AE7
:10519000427A8CE82E0001790DF1080CC5798379EB
:1051A00042798CE82E00C2788178CDE900124378EC
:1051B000027805491EA8FBF7DBF8E1691EA88847BD
:1051C00047B030BD500000200CB4000804498A6983
:1051D000002A03D0C969002900D0084770470000A1
:1051E000500000201A4810B5416800292ED1012135
:1051F00041601849002000F04FF90346154A00218C
:1052000015A0FFF749FF1349012000F045F90346B7
:10521000104A012112A0FFF73FFF4FF400740D491F
:10522000204600F039F903460A4A21460EA0FFF74E
:1052300033FF24010749204600F02EF9214603469A
:10524000BDE81040034A0AA0FFF726BF10BD0000CA
:1052500050000020B059002072617730000000003B
:1052600072617731000000007261773531320000E1
:10527000726177383139320070B5244D0446DEB0A2
:10528000A869002840D0E86900283DD004F5E57001
:1052900000F08CF8064604F5E37000F087F8D5E9D5
:1052A0000B12CDE90406CDE90612207894F8C2313C
:1052B000A27861788DE80F0094F8FE3194F8FF2110
:1052C000134908A8FBF754F8E96908A8884720465D
:1052D000FFF728FFA8690FA2A0B1E86990B10F48B5
:1052E0006E69446B836C016B0DF1040C8CE85A0001
:1052F000C16A009143680A4935A8FBF739F8E969A2
:1053000035A88847FFF76EFF5EB070BD50000020E3
:1053100000B60008736563746F723000008001404E
:1053200058B5000870B50C4CA4B0A269002A11D081
:10533000E269002A0ED0D4E909652268236A8DE863
:105340006C000B46024605A104A8FBF711F8E169C1
:1053500004A8884724B070BD500000205B73645DD2
:1053600020252D3873207265743D25642065727286
:105370003D2573207374613D30782530386C58209A
:10538000636D64726573703D256C75207265737012
:10539000313D30782530386C580D0A0001B500E0F9
:1053A00000BF0098411E0091FAD208BD82780188A2
:1053B000C07862F31F4141EA006070472DE9F05F59
:1053C000064600246FF07F456FF0040B224F40F239
:1053D0002A29DFF888A04FF4007829E0DAF83400B1
:1053E0004B4610EA090F386211D01846FCF780FFCF
:1053F0001BA025E0FCF7DEFF3055641C010A315587
:10540000641C010C3155641C000E3055641CDAF824
:105410003400800201D54445ECD3DAF83400C005ED
:1054200006D5444504D34FF48070FCF761FF03E0D8
:105430006D1E01D34445D1D3444507D025B10CA0FE
:1054400038605846BDE8F09F0EA0F9E74FF4A06021
:10545000FCF74EFF0020F5E75000002000800140DF
:10546000646174612072656164206572726F72009C
:1054700073686F727420736563746F7220726561F4
:10548000640000006461746120776169742074694C
:105490006D656F75740000002DE9F34F002487B02F
:1054A00025466FF070464FF400774FF090084FF0AC
:1054B00002094FF0010A6FF0020B00BFFFF7CEFDAB
:1054C000CDF814A0CDE903958DE8C0016846FCF73E
:1054D0001BFF40221121079800F02EF80122002125
:1054E000112000F07DF808B1584604E00898FFF755
:1054F00065FF002802D0641C032CDFDB09B0BDE887
:10550000F08F000000B587B08DF8140000200090E7
:105510000190CDE9020104906846FCF735FF0320B5
:10552000FCF762FF0120FCF7E9FE0248FFF736FFB7
:1055300007B000BDFFFF0F0070B5044686B01646E9
:105540000D46C520FCF7D4FE0748002303624362E2
:1055500083624FF48060CDE903308DE870006846C7
:10556000FCF72EFF06B070BD5000002070B56FF044
:105570007F416FF001051048104C16E0426B22622B
:10558000530704D50420FCF7B3FE0DA010E012066B
:105590000BD5FCF7E1FEA0620020FCF7EDFE606297
:1055A0008020FCF7A5FE002070BD491EE6D207A0B2
:1055B0002060284670BD000000800140500000209F
:1055C000636D642074696D656F757400636D64202C
:1055D000776169742074696D656F757400000000EF
:1055E0002DE9F04715460E4680466FF07F416FF07B
:1055F00001076FF00209224A224C3DE0506B206205
:10560000430707D50420FCF773FE1FA0206038462F
:10561000BDE8F087C3070CD0FCF79EFEA062002017
:10562000FCF7AAFE60620120FCF762FEAEB919A089
:1056300010E0430613D5FCF78FFEA0620020FCF7B4
:105640009BFE60624020FCF753FE35B1A16A4145E4
:1056500003D014A020604846DAE70020D8E700060F
:105660000AD5FCF779FEA0620020FCF785FE606297
:105670008020FCF73DFEF0E7491EBFD20FA0C5E732
:105680000080014050000020636D642074696D65E6
:105690006F757400636D6420637263206661696C6A
:1056A00000000000756E6578706563746564206342
:1056B0006D6420726573706F6E736500636D642036
:1056C000776169742074696D656F757400000000FE
:1056D0002DE9F843704CE06808B170A0D8E0FCF701
:1056E00029FE0025E560A56025616561E562256309
:1056F00073A06563206001213120FCF74BFD01217F
:105700008802FCF723FD03208DF8020018268DF88F
:1057100003604FF4F850ADF8000069466B48FBF7A2
:1057200047FF0420ADF800008DF803606946684823
:10573000FBF73EFF0021B220FFF7E4FE65A0FFF774
:1057400045FD002211461046FFF7F6FEFFF70EFF5B
:105750000646014664A0FFF7E5FD6FF001083EBB79
:10576000402208214FF4D570FFF7E6FE0122002108
:105770000820FFF735FF2F1F012608B13D460BE03B
:105780000020FCF7F9FD4FF0D551B1EB005F02D0DE
:1057900057A02060F2E7266129465BA0FFF7C2FD13
:1057A000FFF708FC0546014659A0FFF7BBFD15B100
:1057B0004046BDE8F883C02202210020FFF7BCFE6E
:1057C000002211460220FFF70BFF0746014652A0B8
:1057D000FFF7A8FD6FF00205002F45D140220321FD
:1057E0000020FFF7A9FE012200210320FFF7F8FEA9
:1057F00020B129464AA0FFF795FD35E00020FCF7CF
:10580000BBFD000C0004A06014D0394644A0FFF793
:1058100089FD40220721A068FFF78EFE01220021AA
:105820000720FFF7DDFE074601463FA0FFF77AFDA0
:10583000D7B902E03EA02060DBE7606920B13946BD
:105840003EA0FFF76FFD11E0102140224801FFF755
:1058500073FE012200211020FFF7C2FE0746014619
:1058600036A0FFF75FFD0FB12846A2E735A0FFF78E
:10587000ADFC39463EA0FFF755FD00211020FFF793
:1058800041FE3DA0FFF7A2FC45A0E660206045A0D8
:10589000FFF79CFC00208CE7500000205B73645DE8
:1058A00020696E697420736B69707065642C206167
:1058B0006C72656164792072656164790D0A00001B
:1058C000696E697420737461727400000010014085
:1058D000001401405B73645D20696E697420737409
:1058E0006172740D0A000000434D44300000000056
:1058F000636D6438207061747465726E206D6973B5
:105900006D61746368000000434D4438000000007E
:1059100041434D4434310000434D44320000000007
:10592000434D443300000000434D44370000000065
:10593000696E76616C69642072636100434D443125
:10594000360000005B73645D206B65657020312D4F
:105950006269742062757320666F722066696C6577
:1059600073797374656D20746573740D0A0000009B
:1059700041434D44360000005B73645D20747261E6
:105980006E7366657220636C6F636B206469763D2D
:105990003136206275733D312D6269740D0A000045
:1059A0006F6B00005B73645D20696E6974206F6BC0
:1059B0000D0A00000148C068704700005000002038
:1059C0000148006870470000500000202DE9F34FA7
:1059D000314C0746ADB0606908B1384600E0780246
:1059E0002B90E06818B30026B0466FF070494FF472
:1059F000007A4FF0900B00BFFFF730FB0220CDE99B
:105A0000080801200A9005A905A881E8000EFCF706
:105A10007BFC402211212B98FFF78EFD01220021F3
:105A20001120FFF7DDFD38B16FF0020509E06FF0DE
:105A300005002FB0BDE8F08F2E98FFF7BFFC0500E2
:105A40001CD0761C032ED7DB206B401C2063A06982
:105A500090B1E06980B12268216A606BCDE90052A3
:105A6000CDE9021004963A460C490BA82B9BFAF795
:105A70007FFCE1690BA888472846DAE7E06A401C0A
:105A8000E0622E98B0F8FE01606317B92E98FFF718
:105A9000F3FB0020CDE7000050000020ACB500086B
:105AA000014AC2E9060170475000002010B54FF4CA
:105AB000FE611B48FBF7F1F838211A48FBF7EDF8B7
:105AC00018484FF4A4713830FBF7E7F84FF48E71A3
:105AD0001548FBF7E2F841F210211448FBF7DDF816
