:020000040800F2
:10000000409E0020E9010008170C00089F0A000824
:10001000150C0008D9070008B910000800000000FE
:10002000000000000000000000000000130E0008A7
:100030001509000800000000910C0008D50E00080A
:10004000030200080302000803020008030200087C
:10005000030200080302000803020008190900084F
:10006000030200080302000803020008030200085C
:10007000030200080302000803020008030200084C
:10008000030200080302000803020008030200083C
:10009000030200080302000803020008030200082C
:1000A000030200080302000803020008030200081C
:1000B000030200080302000803020008030200080C
:1000C00003020008030200080302000803020008FC
:1000D00003020008290F00080302000803020008B9
:1000E00003020008030200080302000803020008DC
:1000F00003020008030200080302000803020008CC
:1001000003020008030200080302000803020008BB
:1001100003020008030200080302000803020008AB
:10012000030200080302000803020008030200089B
:1001300000F002F800F048F80AA090E8000C8244B1
:100140008344AAF10107DA4501D100F03DF8AFF28E
:10015000090EBAE80F0013F0010F18BFFB1A43F0A5
:10016000010318472844000048440000103A24BF07
:1001700078C878C1FAD8520724BF30C830C144BF0C
:1001800004680C607047000000230024002500264E
:10019000103A28BF78C1FBD8520728BF30C148BFEA
:1001A0000B607047642900F09D80752900F09A80EB
:1001B000782900F0D380732900F0AA8200207047CC
:1001C0001FB51FBD10B510BD00F0D4FA1146FFF7E2
:1001D000F7FF03F005FB00F0F2FA03B4FFF7F2FFBC
:1001E00003BC00F071FF0000094880470948004740
:1001F000FEE7FEE7FEE7FEE7FEE7FEE7FEE7FEE7D7
:10020000FEE7FEE704480549054A064B7047000033
:10021000D90E000831010008407C0020409E0020DB
:10022000407E0020407E0020704700000FB404494B
:1002300010B503AA029800F06FFA10BC5DF814FB29
:100240000400002070B5044685690068C10601D528
:10025000302600E02026C00707D070BDD4E9012178
:1002600030469047206A401C20626D1EF6D570BD56
:1002700070B5044685690078C00707D170BDD4E920
:10028000012120209047206A401C20626D1EF6D577
:1002900070BD70B50C460546012A05D02878800649
:1002A00000D5EA69002302E0012305E05B1C9342CC
:1002B00002D2E05C0028F9D1A869E618C01AA8614A
:1002C000286A184428622846FFF7BCFF04E0D5E9F5
:1002D000012114F8010B9047B442F8D32846FFF7E8
:1002E000C7FF70BD2DE9F04106460024106875294E
:1002F000314616A510D0AFF30080002802DA404244
:1003000013A507E031688A0701D512A502E0490765
:1003100004D511A5012401E0AFF3008000210A22D9
:1003200006F1240709E0B0FBF2FCB0FBF2F302FB9C
:100330001C00303078541846491C0028F3D123465D
:100340002A463046BDE8F04100F077B900000000D1
:100350002D0000002B0000002000000070B50446B6
:100360000D4621461068AFF300802188090502D5AB
:100370000F4A7A4402E00E4A7A440E32002104F118
:10038000240305E000F00F060009965D5E54491C49
:100390000028F7D120780023000704D5702D02D063
:1003A00009B1022311322046BDE8704000F045B982
:1003B000C23800002DE9F05F894604464FF0000A7C
:1003C000DFF874B1FB44C0F820A02046E1688847FC
:1003D000002874D0252806D0D4E901219047206A4E
:1003E000401C2062F1E700265F462046E16888470E
:1003F0002028054607DB312D05D2781910F8200C8E
:1004000008B10643F1E7B00701D526F00406C4F8A9
:100410001CA00027C4F818A02A2D09D0284600F0F7
:100420004CFE38B304EB8708303DC8F8185019E08B
:1004300059F8041B204604EB87029161E168884764
:10044000012F054618D1E069002820DA26F02006A1
:100450001DE0D8F8180000EB800005EB40003038B4
:10046000C8F818002046E1688847054600F025FED8
:100470000028EED1012F0AD02E2D08D12046E168A8
:1004800088477F1C0546022F46F02006C4DBA06982
:10049000002803DA404246F00106A061F00701D0CF
:1004A00026F010066C2D0BD0682D09D04C2D39D0BC
:1004B0006A2D35D0742D35D07A2D33D016E038E042
:1004C000E1682F4620468847B842054609D16C2F7F
:1004D00026D04FF48060E1680643204688470546F1
:1004E00004E06C2F1AD04FF4807006430DB3A5F1D1
:1004F0004100192802D8203546F400664A462946AC
:10050000204626604E46FFF74DFE80B101280BD0F5
:10051000F61D26F0070000F1080956E74020E4E741
:100520008020D8E70020D6E706F104094DE72846E9
:1005300052E7206ABDE8F09F9838000010B5203AD5
:10054000C0F00B80B1E81850203AA0E81850B1E88C
:100550001850A0E81850BFF4F5AF5FEA027C24BF42
:10056000B1E81850A0E8185044BF18C918C0BDE839
:1005700010405FEA827C24BF51F8043B40F8043B02
:1005800008BF7047D20728BF31F8023B48BF11F8B7
:10059000012B28BF20F8023B48BF00F8012B704711
:1005A0004FF000020429C0F0128010F0030C00F09C
:1005B0001B80CCF1040CBCF1020F18BF00F8012B1A
:1005C000A8BF20F8022BA1EB0C0100F00DB85FEAE8
:1005D000C17C24BF00F8012B00F8012B48BF00F8B4
:1005E000012B70474FF0000200B513469446964623
:1005F000203922BFA0E80C50A0E80C50B1F1200136
:10060000BFF4F7AF090728BFA0E80C5048BF0CC0E3
:100610005DF804EB890028BF40F8042B08BF704741
:1006200048BF20F8022B11F0804F18BF00F8012BB3
:10063000704770477047704770472DE9F0470D4687
:1006400099469246044600F124080168880604D5BC
:10065000E06921F01001216000E00120A84201DDE5
:10066000471B00E00027A1697A1902EB0900081A6C
:10067000A0612078C00602D42046FFF7E3FD0026E3
:1006800008E0D4E901211AF806009047206A401CCE
:10069000761C20624E45F4DB2078C0060AD5204641
:1006A000FFF7D0FD06E0D4E9012130209047206A11
:1006B000401C2062381EA7F10107F4DC07E0D4E9F2
:1006C000012118F805009047206A401C2062281E6E
:1006D000A5F10105F3DC2046FFF7CAFD20780006EE
:1006E00002D50220BDE8F0870120FBE710B5436981
:1006F00013B1AFF3008001E0FFF7CBFD012010BD87
:10070000127800F124010A7000224A700122EDE7FC
:1007100011684FF0FF32E9E7074B70B50D467B4497
:1007200000F011F80446284600F020F810B14FF010
:10073000FF3070BD204670BD672F000001694A1C64
:1007400002610878704700B58FB0CDE90131002112
:10075000059105497944CDE9031011466846FFF734
:1007600029FE0FB000BD0000E5FFFFFF007B00F099
:1007700080007047754600F02BF8AE4605006946CC
:10078000534620F00700854618B020B5FFF73AFD24
:10079000BDE820404FF000064FF000074FF0000882
:1007A0004FF0000B21F00701AC46ACE8C009ACE803
:1007B000C009ACE8C009ACE8C0098D46704710B567
:1007C0000446AFF300802046BDE81040FFF705BDAA
:1007D00000487047DC7B0020FEE70029016802D05A
:1007E00041F0010102E04FF6FE72114001607047D6
:1007F00001684FF6FE721140016000210160416006
:100800008160C1603149314A0839904203D148685A
:1008100040F00F0006E02D4A1432904204D148689F
:1008200040F0F00048607047284A2832904203D1D7
:10083000486840F47060F5E7244A3C32904203D1A6
:10084000486840F47040EDE7204A5032904203D1AE
:10085000486840F47020E5E71C4A6432904203D1B6
:10086000486840F47000DDE7184A7832904203D1BE
:10087000486840F07060D5E7154A111F904203D1D7
:10088000086840F00F0006E0114A1432904204D18B
:10089000086840F0F000086070470D4A2832904226
:1008A00003D1086840F47060F5E7094A3C32904291
:1008B00003D1086840F47040EDE7054A5032904299
:1008C000EAD1086840F47020E5E700000800024023
:1008D00008040240406880B2704730B5036847F6AC
:1008E000F07293430C6A8A682243D1E904452C4391
:1008F00022438C692243CC6922434C6A22438C6A8E
:1009000022431A430260CA6842600A6882604968EA
:10091000C16030BD7047000010B5104C0221204668
:1009200000F0A6F8012812D10A2002F0C5F9022130
:10093000204600F09DF8012809D10948017859B1F5
:10094000002202704FF48041064800F0A3F8BDE891
:100950001040022000F008B80122F2E70018014020
:1009600000000020001401400149086070470000A9
:1009700014040140F0B5CA78002502F00F03D20636
:1009800001D58A7813430A784FF00F0E12F0FF0F4B
:100990004FF001021CD004680F8802FA05F63740B8
:1009A000B74211D14FEA850C0EFA0CF724EA07077B
:1009B00003FA0CF43C43CF78282F02D0482F02D002
:1009C00002E0466100E006616D1C082DE4D304607E
:1009D0000C88FF2C1ED944685FF0000606F108075A
:1009E00002FA07F50F882F40AF420FD14FEA860C6D
:1009F0000EFA0CF7BC4303FA0CF73C43CF78282FD0
:100A000000D14561CF78482F00D10561761C082EB2
:100A1000E4D34460F0BD0000F0B5144C002801DAC6
:100A2000E36900E06368420D120185B2C0F301572B
:100A30009540C0F30346032F05D0C2020AD5032216
:100A4000B240934307E023F07062636823F0706361
:100A5000636002E0AB4343F0706201B12A430028B7
:100A600001DAE261F0BD6260F0BD0000000001400B
:100A70000246002092680A4200D0012070470246D8
:100A80000020D2680A4200D00120704741617047BF
:100A9000016170470AB10161704741617047FEE72B
:100AA0000029818B02D041F4806101E021F4806152
:100AB00081837047F0B505460C4602200021AA8BC1
:100AC00085B001264FF240031A40AA832884AF8BD9
:100AD000A268022A27D0A08800B10226684600F04A
:100AE00015F9E1880098B1F5007F2DD07101B0FBB8
:100AF000F1F000BF00EB8000A1684000B0FBF1F016
:100B0000401D80B20A21B0FBF1F000F00101401A53
:100B10004FF6FF72C0F34F0002EA0121821EFE2A47
:100B200001D302200021E288084302432A8420885E
:100B30006188A2890843A18811430843384340F4DF
:100B40000060A88305B0F0BD000AD3E72DE9F041AD
:100B50000C46064686B090460121052000F0BEF8FE
:100B600000210420FFF758FF4FF40070ADF810008B
:100B700003258DF812501820244F8DF8130004A976
:100B80003846FFF7F7FE3815ADF810008DF8125013
:100B900048208DF8130004A93846FFF7EBFE012129
:100BA000880300F09BF800200C21ADF80A10ADF886
:100BB0000600174DADF80C00ADF80800ADF80400C4
:100BC00000966946284600F01DFA0121284600F0EB
:100BD000D7F9012240F22551284600F0FAF9012206
:100BE00040F22441284600F0F4F925208DF8140045
:100BF00001208DF817008DF815408DF8168005A896
:100C000000F00AF806B0BDE8F081000000080140DD
:100C100000380140FEE7704770B50F23C4780178B3
:100C20000122F4B1144C2468457804F4E064C4F55E
:100C3000E064240AC4F10406E3408478B5401C4013
:100C40002C4301F1E021230181F80034007800F009
:100C50001F018A404009800000F1E020C0F8002117
:100C600070BD01F01F0082404809800000F1E020C3
:100C7000C0F8802170BD00000CED00E0024908437F
:100C800002490860704700000000FA050CED00E022
:100C900070470000044A0029516901D0014300E077
:100CA000814351617047000000100240044A00294E
:100CB000D16901D0014300E08143D1617047000058
:100CC00000100240044A0029116901D0014300E0EC
:100CD000814311617047000000100240044A00295E
:100CE000916901D0014300E08143916170470000A8
:100CF00000100240044A0029D16801D0014300E0FD
:100D00008143D160704700000010024030B51F4998
:100D10004A6812F00C031E4A03D0042B01D0082BA2
:100D200021D002604A680F231A4C03EA1212A35C16
:100D30000268DA4042604B68072505EA1323E35C4A
:100D400022FA03F383604B6805EAD323E35CDA40BD
:100D5000C2604968032303EA9131231F595CB2FB47
:100D6000F1F1016130BD4A684B6802F470124FF036
:100D7000020413F4803F04EB924202D04B689B03C1
:100D800001D5054B00E0024B5A43CAE70010024070
:100D900000127A004400002000093D00002A8288E9
:100DA00001D00A4300E08A4382807047114910B5A0
:100DB00088420AD1841401212046FFF79BFF204678
:100DC000BDE810400021FFF795BF0B49884202D1D2
:100DD0000121041404E0094988420AD10121C41305
:100DE0002046FFF76FFF2046BDE810400021FFF7C7
:100DF00069BF10BD0030014000380040003C004099
:100E00000246002012890A4200D0012070478181E9
:100E1000704770470CB50021264801910091026887
:100E200042F4803202604FF4A063026802F40032A0
:100E30000092019A521C0192009A12B9019A9A42A8
:100E4000F3D10268920333D5012100911A490A684F
:100E500042F010020A600A6822F003020A600A687F
:100E600042F002020A6041684160416841604168A5
:100E700041F480614160416821F47C114160416826
:100E800041F4E8114160016841F08071016001683E
:100E90008901FCD5416821F003014160416841F0BE
:100EA000020141604168C1F381010229FAD10CBD00
:100EB00000910CBD00100240002002404FF0E021E4
:100EC0000428086903D020F004000861704740F04E
:100ED0000400FAE7704700000F4810B5016841F0C0
:100EE0000101016041680D4A1140416001680C4AEE
:100EF00011400160016821F480210160416821F402
:100F0000FE0141604FF41F018160FFF783FF054937
:100F10004FF00060086010BD001002400000FFF8B4
:100F2000FFFFF6FE08ED00E070B5124D40F22551CE
:100F3000284600F02FF8104C012601280CD120780B
:100F4000802808D2284600F0B3F80C4A2178505483
:100F5000491C217000E0667040F22441284600F0F0
:100F600019F8012804D128880248001D00886670FD
:100F700070BD000000380140010000205400002036
:100F80000029818902D041F4005101E021F400518F
:100F90008181704730B501F01F0201240025C1F3A3
:100FA000421304FA02F2012B0FD0022B0FD0838AD6
:100FB0004FEA11210088134204FA01F400EA040008
:100FC00001D000B10125284630BD8389F0E7038AAE
:100FD000EEE710B5C1F3421301F01F040121A14057
:100FE000012B07D0022B07D01430002A026805D04D
:100FF0000A4304E00C30F8E71030F6E78A43026059
:1010000010BD000030B50446008A85B00D464CF690
:10101000FF710840E98801432182A1894EF6F3104F
:101020000140A8882A8910436A890A431043A08195
:10103000A08A4FF6FF410840A9890143A182684672
:10104000FFF764FE1948844201D1039800E002983A
:10105000A189090400EBC00101EB0010296801D54A
:10106000490000E08900B0FBF1F06422B0FBF2F12E
:1010700009010B096FF018056B4300EB8300A3898E
:101080001D044FF0320306D503EBC000B0FBF2F0B5
:1010900000F0070005E003EB0010B0FBF2F000F0F9
:1010A0000F000843208105B030BD0000003801402A
:1010B0008088C0F308007047FEE730380A2801D264
:1010C0000120704700207047704708B5002000904D
:1010D00000BF401C0090F028FADB08BD002804DAAD
:1010E00010F5004F02DC4FF400407047404270475B
:1010F00070B50D4604464068154951F82010C810D7
:101100006A0700D50844AA0701D500EB6100EA0789
:1011100001D000EBA10021682A0701D5081A00E0E0
:101120000844206000F0B6F8094B206005F00F027B
:10113000403B014653F8222060688018606001D56A
:10114000002002E0582801DD5820606008B270BD20
:10115000743A000870B5054640681D4A2B684FF088
:10116000000452F82020C81A4FEAE20101D50824F1
:101170004042904203DB44F00404801A1144B0EB77
:10118000620F05DB44F00204A0EB620001EB620198
:10119000B0EBA20F03DB44F0010401EBA201200736
:1011A00001D5581A00E05818286000F073F8084A72
:1011B00028602046403A696852F820208918696002
:1011C00001D5002102E0582901DD5821696070BD78
:1011D000743A00082DE9FC4700200090019044F685
:1011E00020612848FFF7FEF9274E284DDFF894903C
:1011F0000024A6F5807849F64047254800F016FE01
:1012000018B14FF0FF30BDE8FC87B8F900000102CB
:101210001CB1EA68891A02EB2121A0EB2120E960C8
:101220000912F16300F036F800B2A8F800001CB112
:101230002969401A01EBA000286100F02BF801B2E7
:10124000A8F80010204600F087FBB8F900106846A7
:10125000FFF780FF01466008E2070FD019F8003061
:1012600043EA011309F80030641CBC42C5D337605F
:101270006868B0FBF7F0F0610020C4E709F80010DF
:10128000F2E70000D4000020F44F00200800002006
:10129000F44E0020B0F5004F02DB47F6FF707047B8
:1012A00002498842FBDA0846704700000080FFFFD1
:1012B0002DE9FC4740F678219048FFF793F98F4CD1
:1012C00001204FF4FA5505216060C4E9025144F64B
:1012D0002061C4E9041000F0E7FA89A0FEF7A6FF38
:1012E00001F014FA04F597664FF4B87858B16FF02E
:1012F0000405656501F0F2F8014642463046FFF705
:101300001DF98BA0E7E0284601F0E0FB4FF47A7767
:1013100039468EA0FEF78AFF384601F0C5FAE06430
:1013200001F0DAF893A000F0E3FA96A0FEF77EFF52
:10133000284601F015FA9C4F58B14FF0FF3565650E
:1013400001F0CCF8014642463846FFF7F7F897A07F
:10135000C1E001F0C3F8014642463846FFF7EEF817
:1013600097A000F0C5FAA946494699A0FEF75EFF8E
:10137000284600F03BFB206501F0B0F801464246EC
:10138000A148FFF7DBF8A1A000F0B2FAA5A0FEF794
:101390004DFF5A480621883001F0B6FA01F0A2F854
:1013A0000146A064A9A0FEF741FF49F6404A514614
:1013B000B3A0FEF73BFFFFF70DFFBF4F58B101F0A1
:1013C0008DF8014642463846FFF7B8F86FF0010540
:1013D000BAA065657FE001F081F8014645464246C6
:1013E0003846FFF7ABF8B94A5168B1FBFAF1E16151
:1013F0009168B1FBFAF02063B549002023180F5C17
:1014000003F8787F0F1807F58047401C97F8187E7F
:101410001F720828F2D3A16901204F1E47F22F53F3
:101420009F4205D20B44B3FBF1F0402800D9402085
:101430001060A063626CCDE90020A648236CE269CD
:10144000FEF7F4FEA4A000F053FAA7A0FEF7EEFE0C
:1014500001F05CF978B16FF00207676501F03EF8C2
:1014600001462A463046FFF769F8A9A000F040FA85
:101470003846BDE8FC8701F031F801462A4630467F
:10148000FFF75CF8A7A000F033FA484601F01EFB16
:1014900001F024F801462A46A748FFF74FF8A7A015
:1014A000FEF7C4FEFA2001F0FFF901F015F8ADA037
:1014B000FEF7BCFE00F08AF9B54E80B101F00CF8E1
:1014C00001F00CF801462A463046FFF737F86FF076
:1014D0000305B0A0656500F00BFA2846C9E700F0E7
:1014E000FBFF00F0FBFF01462A463046FFF726F8D7
:1014F000AEA000F0FDF900206065BAE7F44F0020CF
:101500005B7265636F72642D73746167655D2069DA
:101510006E69742D706C61796261636B2D666F7298
:101520002D746F6E652073746172740D0A00000073
:10153000696E69742D706C61796261636B2D666F81
:10154000722D746F6E65206661696C005B726563F5
:101550006F72642D73746167655D207072652D74A0
:101560006F6E65207374617274206D733D256C75A8
:101570000D0A00007072652D746F6E6520646F6EC9
:10158000650000005B7265636F72642D7374616740
:10159000655D20696E69742D7265636F7264207376
:1015A000746172740D0A0000CC510020696E697478
:1015B0002D7265636F7264206661696C00000000C3
:1015C000696E69742D7265636F7264206F6B0000C1
:1015D0005B7265636F72642D73746167655D206112
:1015E00064632D6461632D6D6F6E69746F72207317
:1015F00074617274206D733D256C75207370656124
:101600006B2D6E6F770D0A008C5700206164632D7F
:101610006461632D6D6F6E69746F7220646F6E65A7
:10162000000000005B7265636F72642D7374616704
:10163000655D20736F66742D6932732070726F62FE
:10164000652073746172740D0A0000005B7265633B
:101650006F72642D73746167655D20736F66742D9E
:101660006932732070726F626520646F6E652073DB
:10167000656C65637465643D256C750D0A0000003A
:101680005B7265636F72642D73746167655D20635F
:101690006170747572652073746172742073616D0A
:1016A000706C65733D256C7520737065616B2D6E74
:1016B0006F770D0A000000003C53002063617074D6
:1016C000757265206661696C0000000008000020EA
:1016D000D400002044450008636170747572652071
:1016E000626F6172640000005B7265636F72642DEB
:1016F00073746167655D20696E69742D706C6179C2
:101700006261636B2073746172740D0A00000000E3
:10171000696E69742D706C61796261636B206661BA
:10172000696C0000696E69742D706C617962616327
:101730006B206F6B000000001C5600205B7265631D
:101740006F72642D73746167655D20706C6179627E
:1017500061636B2D6D61726B65722073746172745D
:101760000D0A00005B7265636F72642D73746167AC
:10177000655D20706C61796261636B2D7265636F6A
:10178000726465642073746172740D0A0000000055
:10179000FC580020706C61796261636B2D72656327
:1017A0006F72646564206661696C0000706C6179B9
:1017B0006261636B2D7265636F7264656420646F30
:1017C0006E65000000487047F44F00202DE9FC5F73
:1017D0000020DFF8C09000900646DFF8BC80DFF8FC
:1017E000BCB0A9F5807A019002E0A71B802F02D936
:1017F0008027002501E0002532E070190BEB500135
:10180000C00709780CD009096846FFF771FCD8F8C1
:1018100000104843B0F5004F05DB47F6FF7406E0C3
:1018200001F00F01F0E71E4CA04200DB04B22AF8E1
:1018300015402046FFF752FC0146D9F82C204846B7
:101840008A4200D2C1621CB1426B521CC9F83420DA
:10185000D8F8082049F6404411446D1CC8F8081017
:10186000BD42CAD3012239460E4800F0B1FF18B17B
:101870004FF0FF30BDE8FC9F3E44A642B5D3D8F8F8
:10188000081049F64040B1FBF0F10020C9F83010D3
:10189000F0E70000F44F002008000020D4000020F2
:1018A0000080FFFFF44E00200F4900200122486015
:1018B0008860C8600A6008610C4947F6FF738A6354
:1018C000DA43C1E91032203941F8780F4860886066
:1018D000C860064960318860C860086148618861F5
:1018E000C86108624862704708000020F44F002079
:1018F00030B58FB0044600F0F1FDD0F86851D0F853
:10190000BC30F0E926120DF1280C8CE82E00D0E94D
:101910001E520DF1180C016FD0F880308CE82E00AB
:10192000D0E91A3550F8941C0DF1080C426E8CE881
:101930002E0050F8982C50F88C1CCDE9001250F86D
:10194000903CD0F8D42021460248FEF76FFC0FB03F
:1019500030BD0000A844000870B505460C46084696
:10196000FFF7BCFB01461948026CA24200DD04648B
:10197000426CA24200DA446482698A4200D28161E8
:10198000134A5342ECB1066A761C06629C4201DAA5
:10199000944202DC826A521C82620C48082D00EBE1
:1019A000450001D2A0F8584049F63842954203D389
:1019B000A0F5A030A0F8F8470648426811444160FD
:1019C00070BD426A521C4262E7E70000F44F0020FB
:1019D0000880FFFF08000020002804DA10F5004FFF
:1019E00002DC4FF400407047404270472DE9F84F49
:1019F000274E04460020B1688DF8000009B94BF667
:101A0000803161434FF47A70B1FBF0F769464420AE
:101A100001F0C0FD4FF0FF38A8BB9DF8000040F07A
:101A20008001442001F0FEFD0546142001F044F938
:101A3000DFF860A04FF4005949465046FFF726F8FA
:101A400000F03EF8D6F86C01022801D0002408E02E
:101A5000204601F031F908E00021084600F0FEFCC4
:101A6000641CBC42F8D300F01BFC9DF8001044201D
:101A700001F0D8FD40EA050449465046FFF708F852
:101A800000F01EF814B14046BDE8F88F0020FBE7D7
:101A90006C7A00200010014000EB800040006421BF
:101AA00090FBF1F1B1F5004F02DB47F6FF70704794
:101AB00002488142FBDB08B2704700000080FFFF54
:101AC00038B56946002001F065FDB44C10B99DF8A9
:101AD000000020636946012001F05CFD10B99DF80B
:101AE000000060636946022001F054FD10B99DF8C2
:101AF0000000A0636946032001F04CFD10B99DF879
:101B00000000E0636946042001F044FD10B99DF82F
:101B1000000020646946052001F03CFD10B99DF8E5
:101B2000000060646946062001F034FD10B99DF89C
:101B30000000A0646946072001F02CFD10B99DF853
:101B40000000E0646946082001F024FD10B99DF80A
:101B5000000020656946092001F01CFD10B99DF8C0
:101B60000000606569460A2001F014FD10B99DF877
:101B70000000A06569460B2001F00CFD10B99DF82E
:101B80000000E06569460C2001F004FD10B99DF8E5
:101B90000000206669460D2001F0FCFC10B99DF89C
:101BA0000000606769460E2001F0F4FC10B99DF852
:101BB0000000A06769460F2001F0ECFC10B99DF809
:101BC0000000E0676946102001F0E4FC18B99DF8B8
:101BD0000000C4F880006946112001F0DBFC18B950
:101BE0009DF80000C4F884006946122001F0D2FC80
:101BF00018B99DF80000C4F888006946132001F068
:101C0000C9FC18B99DF80000C4F88C00694614207E
:101C100001F0C0FC18B99DF80000C4F890006946B6
:101C2000152001F0B7FC18B99DF80000C4F8940025
:101C30006946162001F0AEFC18B99DF80000C4F802
:101C400098006946172001F0A5FC18B99DF800001E
:101C5000C4F89C006946182001F09CFC18B99DF856
:101C60000000C4F8A0006946192001F093FC18B9DF
:101C70009DF80000C4F8A40069461A2001F08AFC0F
:101C800018B99DF80000C4F8A80069461B2001F0AF
:101C900081FC18B99DF80000C4F8AC0069461C200E
:101CA00001F078FC18B99DF80000C4F8B00069464E
:101CB000252001F06FFC18B99DF80000C4F8B400AD
:101CC0006946312001F066FC10B99DF80000A0665D
:101CD0006946322001F05EFC10B99DF80000606694
:101CE0006946332001F056FC10B99DF80000E0660B
:101CF0006946342001F04EFC10B99DF800002067C1
:101D00006946372001F046FC18B99DF80000C4F878
:101D1000B8006946442001F03DFC18B99DF8000068
:101D2000C4F8BC001E48008844F8C00F1C4814309A
:101D3000008860601A4818300088A0601848001FAA
:101D40000088E060174800682061174800686061FB
:101D500016488168A1611349091D0968E1611249AA
:101D6000091D09682162C168616211494968A1625F
:101D70004114FEF784FE0C4DE062083D40212846E8
:101D8000FEF776FE44F8A80C80212846FEF770FE88
:101D900044F8A40C00F05EFF38BD00006C7A00200F
:101DA000083C004008080140080C014000100140B8
:101DB00000100240174810B50088174C44F8C00FB7
:101DC0001448143000886060124818300088A06001
:101DD0001048001F0088E06010480068206110482B
:101DE000006860610F488168A1610C49091D09689C
:101DF000E1610B49091D09682162C16861620A49F4
:101E00004968A1624114FEF73AFEE062BDE8104065
:101E100000F020BF083C00406C7A00200808014018
:101E2000080C014000100140001002407CB5114C2C
:101E300005000AD00120E060694601A8666800F04C
:101E40001BF840B16FF002007CBD6FF00400C4F8D5
:101E50006801C0107CBDBDF90020BDF904103046FA
:101E600000F05AF8BDF8000028806068401C6060EF
:101E700000207CBD6C7A00207FB505460E480C46DC
:101E800003AA02A9406800F081FE0C48DDE90223A4
:101E9000011FCDE900102146284600F013F818B1C3
:101EA0004FF0FF3004B070BD0548D0F81411491C44
:101EB000C0F814110020F5E71C000020907B0020E2
:101EC0006C7A00202DE9F84F8146DDE90AA41E4610
:101ED00017468846012000F063FE4FF0FF35C0B979
:101EE000002000F05DFEA0B9534632463946484610
:101EF000009400F0F7FD60B9012000F051FE40B9F8
:101F00005346324639464046009400F0EBFD002827
:101F100000D02846BDE8F88F2DE9F0410746144669
:101F20000D460846FFF758FD06462046FFF754FDCC
:101F300001461B48D0F8FC20B24201D2C0F8FC6038
:101F4000D0F800218A4201D2C0F8001125B1D0F8A2
:101F50000411491CC0F8041124B1D0F80811491C1F
:101F6000C0F80811082F05D200EB4701A1F828514D
:101F7000A1F838415FF0000100EB4102491CB2F8C2
:101F80004A31A2F84831B2F85A31A2F8583107293B
:101F9000F2D3A0F85651A0F86641BDE8F0810000E8
:101FA0006C7A002070B501F0B5FA10B14FF0FF3037
:101FB00070BD3F21002001F035FB04460A2000F0EF
:101FC0007BFE8021002001F02DFB0443022000F065
:101FD00073FE3021012001F025FB04430021022083
:101FE00001F020FB04431021032001F01BFB0443FC
:101FF0002421162001F016FB04431021042001F0D7
:1020000011FB04430021052001F00CFB04430021D7
:102010000B2001F007FB044300210C2001F002FB20
:1020200004431F21102001F0FDFA04437F211120F9
:1020300001F0F8FA04430F21062001F0F3FA0443FB
:10204000FF21072001F0EEFA04430421082001F0EB
:10205000E9FA04430C21092001F0E4FA04434C217D
:102060000A2001F0DFFA04430821442001F0DAFAE3
:1020700004430021312001F0D5FA0443BF2132206E
:1020800001F0D0FA04430021332001F0CBFA0443DD
:102090000021342001F0C6FA044301210D2001F093
:1020A000C1FA0443782000F007FE02210E2001F05F
:1020B000B9FA04430121122001F0B4FA04431021BB
:1020C000132001F0AFFA04431A21142001F0AAFAF8
:1020D000044306210D2001F0A5FA04431E2000F060
:1020E000EBFD0021252001F09DFA40EA04053F2187
:1020F000012001F097FA40EA0504FFF7E1FC2046D1
:1021000070BD70B501F006FA10B14FF0FF3070BD30
:102110003F21002001F086FA04460A2000F0CCFDA1
:102120008021002001F07EFA0443022000F0C4FD6B
:102130003021012001F076FA04430021022001F051
:1021400071FA04431021032001F06CFA04432021AA
:10215000042001F067FA04430021052001F062FA2F
:1021600004430321062001F05DFA04430021072007
:1021700001F058FA0443FF21082001F053FA044308
:102180000C21092001F04EFA04430C210A2001F031
:1021900049FA044300210B2001F044FA04430021D2
:1021A0000C2001F03FFA044301210D2001F03AFA1E
:1021B0000443782000F080FD02210E2001F032FA65
:1021C000044300210F2001F02DFA40EA040500210C
:1021D000122001F027FA40EA05041021132001F033
:1021E00021FA04431A21142001F01CFA044340216F
:1021F000152001F017FA04432421162001F012FAE9
:102200000443BF21172001F00DFA044300211820D8
:1022100001F008FA04430021192001F003FA0443F5
:1022200000211A2001F0FEF904430A211B2001F0CD
:10223000F9F904436A211C2001F0F4F90443002158
:10224000312001F0EFF90443BF21322001F0EAF917
:1022500004430021332001F0E5F904430021342038
:1022600001F0E0F904430821372001F0DBF90443D1
:102270000821442001F0D6F9044301210D2001F08A
:10228000D1F940EA04051E2000F016FD3F2101208F
:1022900001F0C8F940EA0504FFF712FC204670BDC2
:1022A0002DE9F041002600F0B9F804460C4D0D4F21
:1022B0000BE000BF00F0B2F8A04202D000260446B6
:1022C00002E0761CBE4206D800BFE86918B1D5E925
:1022D00005018142EED8BDE8F04100F0BBBC000032
:1022E0001C00002000127A00084810B5C0690028C0
:1022F0000AD00748FEF7EEFA4FF48051884200D921
:1023000008464042C0F30B0010BD00001C00002036
:102310001C04024070B500F081F80A4C0546A06923
:10232000A8420DD8206A4FF40051401C2062064894
:10233000FEF736F905F58065C5F30B00A561A060D1
:1023400070BD00001C0000206C5A002070B54FF4D6
:1023500000548CB021462048FEF722F901210220CA
:10236000FEF798FC1D4E00213046FEF736FA304647
:10237000FEF73EFA1A48009017480190102002908C
:1023800000020025CDE9030580200590400006905D
:102390008000079008AA202082E831006946304674
:1023A000FEF79BFA0E48012202210C38FEF7F6FCDC
:1023B00001213046FEF711FA0A4C0120E061FFF7D7
:1023C00093FFC4E90305606100F58060A061C0F37C
:1023D0000B00A0600CB070BD6C5A00201C040240C1
:1023E0000C3C00401C00002010B5002202210848CF
:1023F000FEF7D4FC00210748FEF7EFF9064800215C
:10240000C1618160C16001614161816110BD0000F5
:10241000003C00401C0402401C00002010B5FFF7E7
:1024200063FF0649CA68904202D20A69521C0A61D7
:10243000C8600A6900EB0230486110BD1C00002032
:1024400010B5FFF7EBFF04498969814201D80020EC
:1024500010BD081A10BD00001C0000202DE9F04737
:102460001A4C0646DFF86880E0690D4618B102276D
:102470004FF47E6909E0304600F0FCFB284600F08E
:10248000F9FB1CE0FFF746FF00BFFFF7D9FF484507
:10249000F8D2C0F57E60B842F4D3FFF73BFF0D4A97
:1024A000A06822F81060401CC0F30B01A06922F85C
:1024B0001150491CC1F30B01801CA160A061D8F828
:1024C0000010491CC8F80010BDE8F0871C0000206F
:1024D0006C7A00206C5A0020FFF7E2BE004870477B
:1024E0006C7A002001484068704700001C00002002
:1024F0002DE9F84301211D20FEF7F0FB0121CE0359
:102500003046FEF7D3FB01210220FEF7C3FB012179
:102510002648FEF781FA03208DF80200C020ADF8AE
:1025200000001420DFF888808DF8030069464046DB
:10253000FEF720FA01F000F901F0E6F8022000F0C1
:10254000BBFBB4101B4FADF8004010258DF80350B5
:1025500069463846FEF70EFA21463846FEF796FAE7
:102560008020ADF8000018248DF8034069463846F5
:10257000FEF700FAADF800608DF8034069460E489A
:10258000FEF7F8F92820ADF800008DF80340694601
:102590004046FEF7EFF9ADF8005004208DF8030037
:1025A00069464046FEF7E6F9BDE8F88300023000D0
:1025B000000C0140001001400008014042F21C5193
:1025C000884202D84FF4FA50704743F2BC41884227
:1025D00002D842F61130704744F63821884202D8BA
:1025E0004FF47A50704746F67811884202D845F287
:1025F0002260704749F27041884202D84FF4FA4095
:102600007047A0F52740F838B0F5FA6F02D84AF6BF
:10261000444070474BF68030704700007FB5044659
:10262000FFF7E2FE194E3046FEF7C0FB4FF4407054
:10263000ADF800000025ADF804507015ADF80600A7
:10264000ADF802502046FFF7B9FF0290ADF80C50EC
:1026500069463046FEF72EFA01213046FEF720FA91
:102660000B490A4808308C600088C1F8C000074850
:102670001C300088C1F8C400044820300088C1F82C
:10268000C800301D0088C1F8CC007FBD003C004070
:102690006C7A00207FB50546FFF7A6FE194E30463E
:1026A000FEF784FB70150024ADF80000ADF804407F
:1026B000ADF80600ADF802402846FFF77FFF029014
:1026C000ADF80C4069463046FEF7F4F9012130467A
:1026D000FEF7E6F9FFF73AFE0B490A4808308D602D
:1026E0000088C1F8C00007481C300088C1F8C40049
:1026F000044820300088C1F8C800301D0088C1F8A7
:10270000CC007FBD003C00406C7A002010B5FFF784
:10271000EFFE012000F0C6F90A2000F0CDFA4BF6DA
:102720008030FFF7B7FF0A2000F0C6FAFFF73AFC47
:1027300038B1FFF73FFB08494FF0FF30C1F868019F
:1027400010BD142000F0B8FA4FF400510348FEF712
:102750009DF9002010BD00006C7A0020001001409F
:102760002DE9F041040001D14BF68034FFF7C0FEA3
:10277000022000F097F9144D144F4FF400563146E3
:102780003846AC60FEF784F90A2000F095FA20463E
:10279000FFF744FF0A2000F08FFAFFF7B2FC40B1C8
:1027A000FFF708FB6FF00100C5F868014010BDE8B5
:1027B000F081142000F080FA31463846FEF768F9BF
:1027C000FFF77EF90020F2E76C7A0020001001404C
:1027D0002DE9F041304C17460E4605002AD04EB385
:1027E0002E48E7600088C4F8C0002C4814300088E8
:1027F000C4F8C4004FF400512948FEF740F9DFF84F
:10280000A480C4F8EC0040214046FEF731F9A061F5
:1028100080214046FEF72CF9E06100F01BFA012F01
:102820000ED0022F1ED06FF00300C4F868014010D4
:10283000BDE8F0816FF00200C4F868018010F7E78E
:1028400000240CE035F91400FFF726F9074635F9A6
:102850001400FFF721F93946FFF700FE641CB4426B
:10286000F0D314E0002410E005EB840135F92400D6
:10287000B1F90210084400EBD070401000B2FFF72D
:102880000BF90146FFF7EAFD641CB442ECD300F0FB
:10289000E1F90020CCE700006C7A0020083C004001
:1028A00000100140000C01402DE9F04114498968F5
:1028B00009B94BF6803141434FF47A70B1FBF0F720
:1028C00000243026DFF83C8015E000BFB4FBF6F0B2
:1028D00006FB104138F91100FFF7DEF80546B4FB9E
:1028E000F6F006FB104138F91100FFF7D5F829463C
:1028F000FFF7B4FD641CBC42E8D30020BDE8F081C2
:102900006C7A0020D83B00082DE9F34F644895B05D
:102910004FF0000B40681090159808B1062904D2BA
:102920004FF0FF3017B0BDE8F08FC1EBC100C10020
:102930001598FDF757FE0025002606961598C5EB5D
:10294000C50100EBC1040796B2460996149603AA86
:1029500004A9284600F01AF92560049860600398DD
:10296000002704F12C0904F12808A060CDE90089B2
:10297000DDE9033213A912A8FFF7A4FAB8B3402F78
:102980007DD300BFD4E90601471878D0D4F82CC015
:10299000BCF1000F73D0DDE906010B18D4E9040285
:1029A000904200D810467201591CB2FBF1F101EBC4
:1029B0001C113944E160B0F5FA4F01D98808E06094
:1029C0002EB1B3EB860F02D9E0684008E060E06802
:1029D000584501D9834610956D1C062DACD3BBF12B
:1029E000000F02D02E491098486000209AE7FFE7B8
:1029F000BDF94800FEF7F0FF0190BDF94C00FEF76D
:102A0000EBFF0199226901440E4401998A4200D2E8
:102A100021616169814200D26061BDF9481011B144
:102A2000A069401CA061BDF94C0010B1E269521CC4
:102A3000E261149A22B3099AA1EB0A03821A514562
:102A400005D0D4F820C00CF1010CC4F820C0DDF88A
:102A500024C0604505D0D4F824C00CF1010CC4F8A2
:102A600024C0002B00DA5B42002A00DA5242DDF873
:102A70001CC063440793069B1A44069204E00CE0D2
:102A800021866086012214920990A1867F1C8A46C5
:102A9000E086402FFFF46AAF74E7002096E700005D
:102AA0001C00002010B504464FF4B8710648FDF72D
:102AB00099FD05494BF68030C1F86C418860632070
:102AC0008862C86210BD00006C7A0020002805D022
:102AD00003498968814201D0FFF7DCBD70470000DF
:102AE0006C7A00202DE9FF5FDFF89C808346DDF8DB
:102AF00038A0D8F8000099460F46002400F01005D1
:102B0000264604E0029800F071F838B9761CBE42FF
:102B1000F8D30026029800F069F820B14FF0FF309A
:102B200004B0BDE8F09F00BF00BF022000BF401C02
:102B30000828FBD3D8F800004FEA440410F0100036
:102B40000DD044F00104B9F1000F04D0D9F8001001
:102B5000491CC9F8001001211DB1012202E0002129
:102B6000FAE70022914207D0BAF1000F04D0DAF858
:102B70000010491CCAF80010761C0546102EC9D357
:102B8000ABF800400020CBE7080C0140062800D33A
:102B90000220430800F001000B6010607047000045
:102BA00030B50F494FF400420E4B0DE0491E0BD2D9
:102BB0000D48D0F81C11491CC0F81C116FF0080119
:102BC000C0F86811081130BD1C68144000D0012401
:102BD00008B1012500E00025AC42E7D1002030BD5E
:102BE00080841E00080801406C7A0020F0B5174967
:102BF000060044F62063D1F81841154D4FF0FF3020
:102C00006FF0070204F101041E4602D10DE0761EAA
:102C100011D32F683F07FAD501E05B1E0BD32E6856
:102C20003607FAD40FE0761E05D32F683F07FAD493
:102C300006E05B1E04D2C1F81841C1F86821F0BD5E
:102C40002E683607F5D50020F0BD00006C7A002014
:102C5000080C014070B5054D054C286A44F8F00F8A
:102C6000FFF7EEFB6060A868A06070BD1C0000204C
:102C70006C7A002070B5074D044602212846FEF705
:102C8000BFF80028F9D0A1B22846BDE87040FEF791
:102C9000BEB80000003C004008B102A0704702A08E
:102CA000704700004F4B00004641494C00000000B7
:102CB0006FF00400FEF702B970B54FF47A75002387
:102CC0004FF0E02117E02A46904200D8024642F237
:102CD000283454434C618B610C6944F001040C614D
:102CE0000C69E60701D0E403FAD50C6924F001046D
:102CF0000C618B61801A0028E5D170BD30B50546A6
:102D00000C46D1F86801F0318FB00EC9CDE906123A
:102D1000CDE9083004F10C01D4F8EC000EC9CDE97E
:102D20000430CDE90212D4E90101CDE900012946C0
:102D300083482368D4F86C21FDF778FA04F1200069
:102D40000FC88DE80F00D4E9062329467D48FDF71A
:102D50006DFA04F154000DF11C0C0FC88CE80F0043
:102D600004F144000DF10C0C0FC88CE80F0004F1C5
:102D7000380007C88DE80700D4E90C2329467248BB
:102D8000FDF754FAD4E92E23D4E91B010DF1280CE8
:102D90008CE80F00D4E919320DF1180CD4F8980022
:102DA000D4F8B4108CE80F0004F184000DF1080C85
:102DB0000FC88CE80F00D4E91F01CDE90001D4E968
:102DC0001D2329466148FDF731FA04F1A4000DF1F5
:102DD000040C0FC88CE80F00D4F8A000009029461E
:102DE0005B48D4F89C30D4F89420FDF71FFA04F126
:102DF000D8000DF1140C0FC88CE80F0004F1CC01C1
:102E0000D4F8E8000EC90DF1080C01918CE80D0012
:102E1000D4F8C8000090D4E9302329464D48FDF786
:102E200005FA04F58C700DF1140C0FC88CE80F0036
:102E300004F584700DF1040C0FC88CE80F00D4F871
:102E400004010090D4E93F2329464348FDF7EEF9F9
:102E5000B4F930010DF1080CB4F93631B4F934216C
:102E6000B4F932118CE80F00B4F92E11B4F92C0129
:102E7000CDE90001B4F92A31B4F92821294637A057
:102E8000FDF7D4F9B4F940010DF1080CB4F946315D
:102E9000B4F94421B4F942118CE80F00B4F93E11A1
:102EA000B4F93C01CDE90001B4F93A31B4F9382163
:102EB000294635A0FDF7BAF9B4F950010DF1080C17
:102EC000B4F95631B4F95421B4F952118CE80F0019
:102ED000B4F94E11B4F94C01CDE90001B4F94A310D
:102EE000B4F94821294633A0FDF7A0F9B4F96001EF
:102EF0000DF1080CB4F96631B4F96421B4F962112A
:102F00008CE80F00B4F95E11B4F95C01CDE9000161
:102F1000B4F95A31B4F95821294630A0FDF786F9A1
:102F2000D4F86C0121460228284604D00FB0BDE831
:102F3000304000F067B80FB0BDE8304000F01CBA78
:102F400010400008B43F0008243D0008743C00080D
:102F5000B83D0008103E0008084400085B25732DAA
:102F6000727866697273742D6C5D20256420256407
:102F700020256420256420256420256420256420E4
:102F800025640D0A000000005B25732D72786669C8
:102F90007273742D725D20256420256420256420C1
:102FA00025642025642025642025642025640D0ADD
:102FB000000000005B25732D72786C6173742D6CBA
:102FC0005D20256420256420256420256420256457
:102FD0002025642025642025640D0A005B25732DBF
:102FE00072786C6173742D725D20256420256420D5
:102FF000256420256420256420256420256420255F
:10300000640D0A002DE9F34F086987B00C4608B13A
:103010006069E8B300208146B4F8C400C0F303201F
:103020000E2844D00020804694F83400C043800627
:103030003FD0002794F8580000F03F000C283AD009
:103040005FF00006D4F8EC0080B30025206800B1E2
:103050000120FFF721FE00902846FFF71DFE834662
:103060003046FFF719FE82463846FFF715FE064642
:103070004046FFF711FE05464846FFF70DFE0246A3
:10308000D4F8C830A4680098CDE904432B4600E08A
:103090000AE0CDE902B0CDE9006A09480799FDF7D9
:1030A000C5F809B0BDE8F08F0120B4E705E00120C4
:1030B000B9E70127BEE70126C4E70125C6E70000FE
:1030C000B83E000870B58EB0FEF77CFB0446483071
:1030D0000FC8CDE9042004F10C000693039107C842
:1030E0008DE8070094E80E005348FDF79FF804F1BF
:1030F0002001E06B0EC9CDE90330CDE90112E06992
:103100000090D4E910124D48A369FDF78FF8A06B29
:10311000009004F12C014AA00EC9FDF787F8B4F91C
:10312000600001ADB4F96630B4F96420B4F96210FE
:1031300085E80F00B4F95E000090B4F95C30B4F992
:103140005A20B4F958104EA0FDF770F8B4F9700089
:10315000B4F97630B4F97420B4F9721085E80F0030
:10316000B4F96E000090B4F96C30B4F96A20B4F987
:10317000681050A0FDF75AF894F87C0094F87F305E
:1031800094F87E2094F87D1085E80F0094F87B0079
:10319000009094F87A3094F8792094F8781051A03F
:1031A000FDF744F894F8840094F8873094F886206A
:1031B00094F8851085E80F0094F88300009094F847
:1031C000823094F8812094F8801056A0FDF72EF8F4
:1031D0005FF00005C5EBC50004EBC0000DF1240C49
:1031E000B0F9B810B0F9BE60B0F9BC30B0F9BA208F
:1031F0008CE84E0000F1A8010DF1140C4EC98CE8CA
:103200004E0000F198010DF1040C4EC98CE84E00FF
:10321000D0F894100091D0F89010883009B151A3E3
:1032200000E052A3D0E900125248FCF7FFFF6D1CEA
:10323000062DCFD30EB070BDB04000083441000859
:103240005B7265636F72642D706C61796261636B30
:103250005D207065616B3D256C75206D65616E5FED
:103260006162733D256C75206E6F6E7A65726F3D7D
:10327000256C75206761696E3D256C750D0A00002F
:103280005B7265636F72642D73616D706C65732D15
:1032900066697273745D202564202564202564208E
:1032A00025642025642025642025642025640D0ADA
:1032B000000000005B7265636F72642D73616D7056
:1032C0006C65732D6C6173745D202564202564200A
:1032D000256420256420256420256420256420257C
:1032E000640D0A005B7265636F72642D61647063C4
:1032F0006D2D66697273745D20253032582025303B
:10330000325820253032582025303258202530328E
:103310005820253032582025303258202530325858
:103320000D0A00005B7265636F72642D61647063E7
:103330006D2D6C6173745D2025303258202530323C
:103340005820253032582025303258202530325828
:103350002025303258202530325820253032580D63
:103360000A00000066616C6C000000007269736501
:1033700000000000283F00082DE9F34F08698DB0D8
:103380000C4608B16069B0B100200390B4F8C400E5
:10339000C0F303200F2810D00020834694F8340097
:1033A000C04380060BD00020824694F8740010F0D1
:1033B000F00F06D00AE00120E7E70120EDE7012049
:1033C000F2E794F8780010F0700F09D000208146E1
:1033D000D4F89000410605D4C00603D5012002E0D0
:1033E0000120F4E70020804694F8580000F03F00E8
:1033F0000C2817D05FF0000694F84C0040F300153D
:1034000094F8BC006D1C10F0700F0DD05FF0000040
:10341000D4F8FC10202903D8D4F80011202905D9AC
:10342000012704E00126E7E70120F1E70027FFF785
:1034300033FC01902846FFF72FFC00903046FFF741
:103440002BFC02904046FFF727FC80464846FFF7DA
:1034500023FC06465046FFF71FFC05465846FFF77B
:103460001BFC81460398FFF717FC02460FB123A30C
:1034700000E023A3DDE900010DF1100A079321A765
:103480008AE883000298CDE90056CDE902804B46D8
:103490001E480D99FCF7CAFE04F58C7409AF0FCCD9
:1034A00087E80F0014F86C0C54E90612C0F30213FD
:1034B000C0F3C010CDE90503CDE9071214F8900C54
:1034C00001AF00F00F0214F8980C54F8D05C54F8D7
:1034D0008C3C00F00F0187E82E00C0F30011C0F310
:1034E0008013009114F8DC0C0D99C0F30012084809
:1034F000FCF79CFE0FB0BDE8F08F0000594553006B
:103500004E4F000049474E4F52454400704200085C
:10351000144300082DE9F0416320144C0025144E9B
:10352000A0622F46E062681C6062302000F022F842
:10353000A06298B1322000F01DF8E06280B1142042
:10354000FFF7BAFB6D1C052DEDD300F0C9F8FF2085
:10355000C4E904704FF0FF30BDE8F081302000E096
:1035600032203070C4E904070020F5E76C7A0020AF
:103570001C00002010B5044600F092F800F0FAF8A4
:10358000204600F00BF9044600F0FFF800F0A8F820
:10359000204610BD10B5044600F008F8002801D000
:1035A00001494C6110BD00006C7A00202DE9F0410A
:1035B0000E46074600F0DEF8194D287800F0EEF8C8
:1035C0000446384600F0EAF8044300F0D3F82878BF
:1035D00040F0010000F0E2F8204307001AD1002477
:1035E00000F0AAF800256006040E00F08DF800F047
:1035F000BBF808B144F0010400F092F86D1C082DEE
:10360000F1DB00F099F800F07FF800F089F800F0A5
:1036100093F8347000F0B9F83846BDE8F081000046
:103620001C0000202DE9F047DFF854900C460746B7
:10363000002500BF99F8006000F09CF8304600F0CB
:10364000ADF88046384600F0A9F840EA0806204662
:1036500000F0A4F8064300F098F800F041F866B1D5
:1036600000F01EF80220FFF727FB6D1C032DE1DBA5
:10367000044847613046BDE8F0870020FBE70000C2
:103680001C0000206C7A002004490A881206FCD530
:10369000024AC1B2121D118070470000003801407B
:1036A00070B500F049F800F02FF800F019F8002488
:1036B0000A4D09E000F034F800F026F8286A641C8E
:1036C000401C2862122C03D200F04EF80028F1D0E2
:1036D00000F05BF8BDE8704000F002B86C7A0020A2
:1036E00010B540210648FDF7C3F900B10120054C93
:1036F000A06100F039F800B10120E06110BD0000C8
:10370000000C01406C7A002010B540210348FDF701
:10371000BFF9BDE81040FDF7D8BC0000000C014027
:1037200010B540210348FDF7B1F9BDE81040FDF7A1
:10373000CCBC0000000C014010B580210348FDF70F
:10374000A7F9BDE81040FDF7C0BC0000000C014027
:1037500010B580210348FDF799F9BDE81040FDF749
:10376000B4BC0000000C014080210148FDF780B985
:10377000000C014010B5FFF7DFFFFFF7C5FFFFF7B3
:10378000E7FFBDE81040FFF7CBBF10B5FFF7E0FF44
:10379000FFF7BAFFBDE81040FFF7CEBF70B5054692
:1037A0000024280602D5FFF7C7FF01E0FFF7D0FF8E
:1037B000FFF7AAFFFFF7B4FF6806050E641C082C8C
:1037C000EFDBFFF7B9FFFFF79FFFFFF7CDFF0446E1
:1037D000FFF7A6FF14B14FF0FF3070BD002070BDA1
:1037E0004FF4A060FDF74AFAFFF762FA02220121C6
:1037F0004FF4E130FDF7AAF92FA0FCF717FD37A22F
:1038000039A13CA0FCF712FD42A0FCF70FFD4CA033
:10381000FCF70CFD5A48FCF709FDFDF749FD05468C
:10382000014658A0FCF702FDFDF7CCFF0446681DD9
:1038300030D0681C35D0FFF745FC04F5EC715AA078
:10384000FFF75CFA04F552715AA0FFF757FA04F536
:10385000F3615BA0FFF752FAE81C29D0A81C0FD037
:1038600004F597615AA0FFF749FA04F5C5615CA019
:10387000FFF744FA04F608115DA000BFFFF73EFA17
:1038800029465FA0FCF7D2FC4FF47A742046FFF77C
:1038900013FAFBE76248FCF7C9FC04F5976161A0E5
:1038A000ECE76348FCF7C2FC04F5EC713EA0E5E7E9
:1038B00004F5976146A0E1E70D0A5B617564696FE5
:1038C0002D7265636F72645D20626172656D6574EF
:1038D000616C20626F6F740D0A00000031303A3065
:1038E000363A3133000000004A756C20203920320E
:1038F000303236005B617564696F2D7265636F727B
:10390000645D206275696C642025732025730D0A3F
:10391000000000005B617564696F2D7265636F72F2
:10392000645D20555341525431205041392F50414C
:1039300031302031313532303020384E310D0A00EF
:103940005B617564696F2D7265636F72645D20667B
:10395000773D7265636F72642D6D6F6E69746F72FF
:1039600038732D6C70662D766F6C31302D69326333
:103970002D6D703377726974652D7632340D0A00BF
:10398000984100085B617564696F2D7265636F72A1
:10399000645D207265636F72645F726573756C74C9
:1039A0003D25640D0A0000007265636F72642D6925
:1039B0006E6974007265636F72642D646F6E65006A
:1039C0006D6F6E69746F722D646F6E65000000001C
:1039D000706C61796261636B2D696E6974000000BF
:1039E000706C61796261636B2D726561647900004E
:1039F0007265636F72642D6C6F6F706261636B00D0
:103A00005B617564696F2D7265636F72645D2064BC
:103A10006F6E65207265636F72643D25640D0A00E8
:103A2000DC410008696E69742D6661696C000000F4
:103A30002C420008FFFFFFFFFFFFFFFFFFFFFFFF1C
:103A4000FFFFFFFF0200000004000000060000006E
:103A500008000000FFFFFFFFFFFFFFFFFFFFFFFF6A
:103A6000FFFFFFFF0200000004000000060000004E
:103A70000800000007000000080000000900000026
:103A80000A0000000B0000000C0000000D00000008
:103A90000E000000100000001100000013000000E4
:103AA0001500000017000000190000001C000000B5
:103AB0001F00000022000000250000002900000077
:103AC0002D00000032000000370000003C00000024
:103AD00042000000490000005000000058000000B3
:103AE000610000006B000000760000008200000012
:103AF0008F0000009D000000AD000000BE0000002F
:103B0000D1000000E6000000FD00000017010000E9
:103B10003301000051010000730100009801000012
:103B2000C1010000EE01000020020000560200006A
:103B300092020000D40200001C0300006C0300008D
:103B4000C3030000240400008E04000002050000EE
:103B50008305000010060000AB06000056070000B9
:103B600012080000E0080000C3090000BD0A0000C0
:103B7000D00B0000FF0C00004C0E0000BA0F00003C
:103B80004C11000007130000EE140000061700009F
:103B900054190000DC1B0000A51E0000B621000027
:103BA00015250000CA280000DF2C00005B31000052
:103BB0004B360000B93B0000B24100004448000011
:103BC0007E4F0000715700002F600000CE6900009A
:103BD00062740000FF7F000000001E06210CF0113F
:103BE00070178C1C252126259828042B462D642E21
:103BF000E02E642E462D042B9828262525218C1C8A
:103C00007017F011210C1E060000E2F9DFF310EE30
:103C100090E874E3DBDEDADA68D7FCD4BAD29CD160
:103C200020D19CD1BAD2FCD468D7DADADBDE74E3D7
:103C300090E810EEDFF3E2F93031323334353637C5
:103C400038394142434445464030580030313233E0
:103C500034353637383961626364656640307800E0
:103C60000400000800000000000000020001000045
:103C7000100000005B25732D636F6465632D625D2A
:103C8000207230443D2530326C58207230453D253D
:103C900030326C58207230463D2530326C582072DC
:103CA00031303D2530326C58207231313D25303273
:103CB0006C58207231323D2530326C5820723133CD
:103CC0003D2530326C58207231343D2530326C58ED
:103CD000207231363D2530326C58207232353D2508
:103CE00030326C58207233313D2530326C5820729E
:103CF00033323D2530326C58207233333D2530321B
:103D00006C58207233343D2530326C582072333772
:103D10003D2530326C58207234343D2530326C5899
:103D20000D0A00005B25732D636F6465632D615D73
:103D3000207230303D2530326C58207230313D25B4
:103D400030326C58207230323D2530326C5820723F
:103D500030333D2530326C58207230343D253032BE
:103D60006C58207230353D2530326C582072303618
:103D70003D2530326C58207230373D2530326C583A
:103D8000207230383D2530326C58207230393D2554
:103D900030326C58207230413D2530326C582072E0
:103DA00030423D2530326C58207230433D25303250
:103DB0006C580D0A000000005B25732D636F64656D
:103DC000632D635D207231353D2530326C58207291
:103DD00031373D2530326C58207231383D25303234
:103DE0006C58207231393D2530326C582072314187
:103DF0003D2530326C58207231423D2530326C58AE
:103E0000207231433D2530326C580D0A000000000D
:103E10005B25732D6D63755D207370695F73723DF3
:103E200030782530346C5820693273636667723D90
:103E300030782530346C582069327370723D307898
:103E40002530346C58207370695F6372323D30786E
:103E50002530346C58207263635F636667723D304F
:103E6000782530386C58206770696F5F69647220FC
:103E7000413D30782530346C5820423D3078253033
:103E8000346C5820433D30782530346C58206770AE
:103E9000696F5F6F647220413D30782530346C5813
:103EA00020423D30782530346C5820433D30782511
:103EB00030346C580D0A00005B25732D6368656310
:103EC0006B5D206932633D2573206D63755F6D61A5
:103ED000737465725F74783D257320636F646563E6
:103EE0005F636C6B733D2573206461635F73647003
:103EF0003D257320616D705F656E61626C65643D28
:103F000025732074785F7365656E3D257320737229
:103F10003D256C752069327370723D3078253034E0
:103F20006C580D0A000000005B7265636F72642DAF
:103F3000736F66742D76256C755D20736B69703DAB
:103F4000256C7520656467653D25732073636F720A
:103F5000653D256C75206C706B3D256C752072700D
:103F60006B3D256C75206C6E7A3D256C7520726EEC
:103F70007A3D256C75206C6368673D256C752072F1
:103F80006368673D256C7520686967683D256C75B9
:103F90002065646765733D256C752066697273746E
:103FA0003D25642F2564206C6173743D25642F25A5
:103FB000640D0A005B25732D6932635D2073636CA9
:103FC0005F69646C653D256C75207364615F69642D
:103FD0006C653D256C75207265636F7665725F70E8
:103FE000756C7365733D256C7520617474656D70B7
:103FF00074733D256C752070726F626533303D259A
:10400000642070726F626533323D25640D0A0000D2
:104010005B25735D206D6F64653D25642074785F5A
:104020006672616D65733D256C752072785F66728E
:10403000616D65733D256C752073723D256C75202F
:1040400063683D256C7520636F6465635F616464BC
:10405000723D30782530326C58206661696C5F7231
:1040600065673D30782530326C5820616D705F7027
:104070006331333D256C7520646D615F756E6465D9
:10408000723D256C7520646D615F757365643D25B7
:104090006C7520646D615F773D256C75206C617374
:1040A000745F6572726F723D25640D0A0000000036
:1040B0005B7265636F72645D2073616D706C6573B4
:1040C0005F7065725F6368616E6E656C3D256C75CF
:1040D0002063683D256C752073723D256C752064E6
:1040E00075726174696F6E5F733D256C75206164D4
:1040F00070636D5F62797465733D256C75206368CC
:10410000756E6B3D256C7520746F6E653D25642062
:104110006D6F6E69746F723D25642076617269619E
:104120006E743D256C7520726573756C743D2564E5
:104130000D0A00005B7265636F72642D63617074B9
:104140007572655D206D696E3D2564206D61783DF9
:104150002564207065616B3D256C75206D65616E11
:104160005F6162733D256C75206E6F6E7A65726F4C
:104170003D256C75207A65726F3D256C7520636CEA
:1041800069707065643D256C752064635F65737448
:104190003D25640D0A0000005B617564696F2D7236
:1041A00065636F72645D207072652D746F6E65203B
:1041B00031733B206C697665206D6F6E69746F7228
:1041C0002038733B207265636F72642035733B2027
:1041D000706C61796261636B0D0A00005B617564EC
:1041E000696F2D7265636F72645D20696E697420FA
:1041F0006661696C6564206265666F7265207265D0
:10420000636F72643B20636865636B20455338338A
:104210003131204932432F706F7765722F636F6E93
:104220006E656374696F6E0D0A0000005B617564F2
:10423000696F2D7265636F72645D207265636F7262
:104240006420696E6974206661696C65643B2063F3
:104250006865636B20455338333131204144432F27
:104260006D69632F4932532073657475700D0A00B0
:104270005B25732D636865636B5D206932633D2543
:1042800073206D63755F6D61737465725F72783DE5
:10429000257320636F6465635F636C6B733D257387
:1042A000206164635F706F7765723D2573206D696F
:1042B000635F706174683D2573206164635F73643C
:1042C000703D2573206173646F75745F70696E3D16
:1042D0002573206164636461745F73656C3D25734D
:1042E000207370695F6F76723D257320636170740F
:1042F0007572653D5042345F534F46545F4649588E
:10430000454420617564696F5F7365656E3D257313
:104310000D0A00005B25732D636865636B2D646572
:104320007461696C5D207230375F7472695F6164BB
:10433000636461743D256C75207231345F646D690E
:10434000633D256C75207231345F6C696E73656CEA
:104350003D256C75207231345F6761696E3D307840
:10436000256C58207231365F7363616C653D30781F
:10437000256C58207231375F616463766F6C3D3015
:10438000782530326C58207230413D3078253032FB
:104390006C58207234345F616463326461633D251C
:1043A0006C75207234345F6164636461745F73653B
:1043B0006C3D256C752072785F6F76723D256C754B
:1043C00020736F66745F6672616D65733D256C75F1
:1043D0002062636C6B5F746F3D256C75206C72633B
:1043E0006B5F746F3D256C752070696E5F686967DF
:1043F000683D256C752070696E5F65646765733D07
:10440000256C750D0A0000005B25732D72787261B2
:10441000775D206C6566745F7065616B3D256C75BA
:104420002072696768745F7065616B3D256C7520EB
:104430006C6566745F6E7A3D256C7520726967687D
:10444000745F6E7A3D256C752074696D656F757447
:10445000733D256C75206F76657272756E733D25A0
:104460006C7520736F66745F6672616D65733D2550
:104470006C752062636C6B5F746F3D256C75206C8E
:1044800072636B5F746F3D256C752070696E5F6839
:104490006967683D256C752070696E5F6564676546
:1044A000733D256C750D0A005B7265636F72642D38
:1044B00073746167655D202573206D6F64653D25AC
:1044C000642073723D256C752063683D256C7520F2
:1044D00074783D256C752072783D256C75206C7064
:1044E0006B3D256C752072706B3D256C75206C6E74
:1044F0007A3D256C7520726E7A3D256C7520736F40
:1045000066743D256C7520746F3D256C75206F7643
:104510003D256C75207231363D30782530326C582F
:10452000207231373D30782530326C582072343467
:104530003D30782530326C58206572723D25640D0F
:104540000A0000005B7265636F72642D73746167AB
:10455000655D206361707475726520646F6E65209F
:104560007065616B3D256C75206D65616E3D256CD8
:1045700075206D696E3D2564206D61783D25642050
:104580006761696E3D256C750D0A0000AC45000839
:1045900000000020540000006C01000800460008E4
:1045A00054000020EC9D000088010008010000007C
:1045B00000000000010000000000000000000000FA
:1045C00000000000000000003000000002000000B9
:1045D00000000000000000000000000000000000DB
:1045E00000000000000000000000000002040608B7
:1045F0000000000001020304010203040607080989
:0400000508000131BD
:00000001FF
