:020000040800F2
:10000000989D0020E9010008170C00089F0A0008CD
:10001000150C0008D9070008B910000800000000FE
:10002000000000000000000000000000130E0008A7
:100030001509000800000000910C0008D50E00080A
:10004000030200080302000803020008030200087C
:10005000030200080302000803020008190900084F
:10006000030200080302000803020008030200085C
:10007000030200080302000803020008030200084C
:10008000030200080302000803020008030200083C
:10009000030200080302000803020008030200082C
:1000A000030200080302000803020008030200081C
:1000B000030200080302000803020008030200080C
:1000C00003020008030200080302000803020008FC
:1000D00003020008290F00080302000803020008B9
:1000E00003020008030200080302000803020008DC
:1000F00003020008030200080302000803020008CC
:1001000003020008030200080302000803020008BB
:1001100003020008030200080302000803020008AB
:10012000030200080302000803020008030200089B
:1001300000F002F800F048F80AA090E8000C8244B1
:100140008344AAF10107DA4501D100F03DF8AFF28E
:10015000090EBAE80F0013F0010F18BFFB1A43F0A5
:1001600001031847F442000014430000103A24BF72
:1001700078C878C1FAD8520724BF30C830C144BF0C
:1001800004680C607047000000230024002500264E
:10019000103A28BF78C1FBD8520728BF30C148BFEA
:1001A0000B607047642900F09D80752900F09A80EB
:1001B000782900F0D380732900F0AA8200207047CC
:1001C0001FB51FBD10B510BD00F0D4FA1146FFF7E2
:1001D000F7FF03F099FA00F0F2FA03B4FFF7F2FF29
:1001E00003BC00F071FF0000094880470948004740
:1001F000FEE7FEE7FEE7FEE7FEE7FEE7FEE7FEE7D7
:10020000FEE7FEE704480549054A064B7047000033
:10021000D90E000831010008987B0020989D00202D
:10022000987D0020987D0020704700000FB404499D
:1002300010B503AA029800F06FFA10BC5DF814FB29
:100240000400002070B5044685690068C10601D528
:10025000302600E02026C00707D070BDD4E9012178
:1002600030469047206A401C20626D1EF6D570BD56
:1002700070B5044685690078C00707D170BDD4E920
:10028000012120209047206A401C20626D1EF6D577
:1002900070BD70B50C460546012A05D02878800649
:1002A00000D5EA69002302E0012305E05B1C9342CC
:1002B00002D2E05C0028F9D1A869E618C01AA8614A
:1002C000286A184428622846FFF7BCFF04E0D5E9F5
:1002D000012114F8010B9047B442F8D32846FFF7E8
:1002E000C7FF70BD2DE9F04106460024106875294E
:1002F000314616A510D0AFF30080002802DA404244
:1003000013A507E031688A0701D512A502E0490765
:1003100004D511A5012401E0AFF3008000210A22D9
:1003200006F1240709E0B0FBF2FCB0FBF2F302FB9C
:100330001C00303078541846491C0028F3D123465D
:100340002A463046BDE8F04100F077B900000000D1
:100350002D0000002B0000002000000070B50446B6
:100360000D4621461068AFF300802188090502D5AB
:100370000F4A7A4402E00E4A7A440E32002104F118
:10038000240305E000F00F060009965D5E54491C49
:100390000028F7D120780023000704D5702D02D063
:1003A00009B1022311322046BDE8704000F045B982
:1003B000EA3700002DE9F05F894604464FF0000A55
:1003C000DFF874B1FB44C0F820A02046E1688847FC
:1003D000002874D0252806D0D4E901219047206A4E
:1003E000401C2062F1E700265F462046E16888470E
:1003F0002028054607DB312D05D2781910F8200C8E
:1004000008B10643F1E7B00701D526F00406C4F8A9
:100410001CA00027C4F818A02A2D09D0284600F0F7
:100420004CFE38B304EB8708303DC8F8185019E08B
:1004300059F8041B204604EB87029161E168884764
:10044000012F054618D1E069002820DA26F02006A1
:100450001DE0D8F8180000EB800005EB40003038B4
:10046000C8F818002046E1688847054600F025FED8
:100470000028EED1012F0AD02E2D08D12046E168A8
:1004800088477F1C0546022F46F02006C4DBA06982
:10049000002803DA404246F00106A061F00701D0CF
:1004A00026F010066C2D0BD0682D09D04C2D39D0BC
:1004B0006A2D35D0742D35D07A2D33D016E038E042
:1004C000E1682F4620468847B842054609D16C2F7F
:1004D00026D04FF48060E1680643204688470546F1
:1004E00004E06C2F1AD04FF4807006430DB3A5F1D1
:1004F0004100192802D8203546F400664A462946AC
:10050000204626604E46FFF74DFE80B101280BD0F5
:10051000F61D26F0070000F1080956E74020E4E741
:100520008020D8E70020D6E706F104094DE72846E9
:1005300052E7206ABDE8F09FC037000010B5203AAE
:10054000C0F00B80B1E81850203AA0E81850B1E88C
:100550001850A0E81850BFF4F5AF5FEA027C24BF42
:10056000B1E81850A0E8185044BF18C918C0BDE839
:1005700010405FEA827C24BF51F8043B40F8043B02
:1005800008BF7047D20728BF31F8023B48BF11F8B7
:10059000012B28BF20F8023B48BF00F8012B704711
:1005A0004FF000020429C0F0128010F0030C00F09C
:1005B0001B80CCF1040CBCF1020F18BF00F8012B1A
:1005C000A8BF20F8022BA1EB0C0100F00DB85FEAE8
:1005D000C17C24BF00F8012B00F8012B48BF00F8B4
:1005E000012B70474FF0000200B513469446964623
:1005F000203922BFA0E80C50A0E80C50B1F1200136
:10060000BFF4F7AF090728BFA0E80C5048BF0CC0E3
:100610005DF804EB890028BF40F8042B08BF704741
:1006200048BF20F8022B11F0804F18BF00F8012BB3
:10063000704770477047704770472DE9F0470D4687
:1006400099469246044600F124080168880604D5BC
:10065000E06921F01001216000E00120A84201DDE5
:10066000471B00E00027A1697A1902EB0900081A6C
:10067000A0612078C00602D42046FFF7E3FD0026E3
:1006800008E0D4E901211AF806009047206A401CCE
:10069000761C20624E45F4DB2078C0060AD5204641
:1006A000FFF7D0FD06E0D4E9012130209047206A11
:1006B000401C2062381EA7F10107F4DC07E0D4E9F2
:1006C000012118F805009047206A401C2062281E6E
:1006D000A5F10105F3DC2046FFF7CAFD20780006EE
:1006E00002D50220BDE8F0870120FBE710B5436981
:1006F00013B1AFF3008001E0FFF7CBFD012010BD87
:10070000127800F124010A7000224A700122EDE7FC
:1007100011684FF0FF32E9E7074B70B50D467B4497
:1007200000F011F80446284600F020F810B14FF010
:10073000FF3070BD204670BDF72E000001694A1CD5
:1007400002610878704700B58FB0CDE90131002112
:10075000059105497944CDE9031011466846FFF734
:1007600029FE0FB000BD0000E5FFFFFF007B00F099
:1007700080007047754600F02BF8AE4605006946CC
:10078000534620F00700854618B020B5FFF73AFD24
:10079000BDE820404FF000064FF000074FF0000882
:1007A0004FF0000B21F00701AC46ACE8C009ACE803
:1007B000C009ACE8C009ACE8C0098D46704710B567
:1007C0000446AFF300802046BDE81040FFF705BDAA
:1007D00000487047347B0020FEE70029016802D002
:1007E00041F0010102E04FF6FE72114001607047D6
:1007F00001684FF6FE721140016000210160416006
:100800008160C1603149314A0839904203D148685A
:1008100040F00F0006E02D4A1432904204D148689F
:1008200040F0F00048607047284A2832904203D1D7
:10083000486840F47060F5E7244A3C32904203D1A6
:10084000486840F47040EDE7204A5032904203D1AE
:10085000486840F47020E5E71C4A6432904203D1B6
:10086000486840F47000DDE7184A7832904203D1BE
:10087000486840F07060D5E7154A111F904203D1D7
:10088000086840F00F0006E0114A1432904204D18B
:10089000086840F0F000086070470D4A2832904226
:1008A00003D1086840F47060F5E7094A3C32904291
:1008B00003D1086840F47040EDE7054A5032904299
:1008C000EAD1086840F47020E5E700000800024023
:1008D00008040240406880B2704730B5036847F6AC
:1008E000F07293430C6A8A682243D1E904452C4391
:1008F00022438C692243CC6922434C6A22438C6A8E
:1009000022431A430260CA6842600A6882604968EA
:10091000C16030BD7047000010B5104C0221204668
:1009200000F0A6F8012812D10A2002F09FF9022156
:10093000204600F09DF8012809D10948017859B1F5
:10094000002202704FF48041064800F0A3F8BDE891
:100950001040022000F008B80122F2E70018014020
:1009600000000020001401400149086070470000A9
:1009700014040140F0B5CA78002502F00F03D20636
:1009800001D58A7813430A784FF00F0E12F0FF0F4B
:100990004FF001021CD004680F8802FA05F63740B8
:1009A000B74211D14FEA850C0EFA0CF724EA07077B
:1009B00003FA0CF43C43CF78282F02D0482F02D002
:1009C00002E0466100E006616D1C082DE4D304607E
:1009D0000C88FF2C1ED944685FF0000606F108075A
:1009E00002FA07F50F882F40AF420FD14FEA860C6D
:1009F0000EFA0CF7BC4303FA0CF73C43CF78282FD0
:100A000000D14561CF78482F00D10561761C082EB2
:100A1000E4D34460F0BD0000F0B5144C002801DAC6
:100A2000E36900E06368420D120185B2C0F301572B
:100A30009540C0F30346032F05D0C2020AD5032216
:100A4000B240934307E023F07062636823F0706361
:100A5000636002E0AB4343F0706201B12A430028B7
:100A600001DAE261F0BD6260F0BD0000000001400B
:100A70000246002092680A4200D0012070470246D8
:100A80000020D2680A4200D00120704741617047BF
:100A9000016170470AB10161704741617047FEE72B
:100AA0000029818B02D041F4806101E021F4806152
:100AB00081837047F0B505460C4602200021AA8BC1
:100AC00085B001264FF240031A40AA832884AF8BD9
:100AD000A268022A27D0A08800B10226684600F04A
:100AE00015F9E1880098B1F5007F2DD07101B0FBB8
:100AF000F1F000BF00EB8000A1684000B0FBF1F016
:100B0000401D80B20A21B0FBF1F000F00101401A53
:100B10004FF6FF72C0F34F0002EA0121821EFE2A47
:100B200001D302200021E288084302432A8420885E
:100B30006188A2890843A18811430843384340F4DF
:100B40000060A88305B0F0BD000AD3E72DE9F041AD
:100B50000C46064686B090460121052000F0BEF8FE
:100B600000210420FFF758FF4FF40070ADF810008B
:100B700003258DF812501820244F8DF8130004A976
:100B80003846FFF7F7FE3815ADF810008DF8125013
:100B900048208DF8130004A93846FFF7EBFE012129
:100BA000880300F09BF800200C21ADF80A10ADF886
:100BB0000600174DADF80C00ADF80800ADF80400C4
:100BC00000966946284600F01DFA0121284600F0EB
:100BD000D7F9012240F22551284600F0FAF9012206
:100BE00040F22441284600F0F4F925208DF8140045
:100BF00001208DF817008DF815408DF8168005A896
:100C000000F00AF806B0BDE8F081000000080140DD
:100C100000380140FEE7704770B50F23C4780178B3
:100C20000122F4B1144C2468457804F4E064C4F55E
:100C3000E064240AC4F10406E3408478B5401C4013
:100C40002C4301F1E021230181F80034007800F009
:100C50001F018A404009800000F1E020C0F8002117
:100C600070BD01F01F0082404809800000F1E020C3
:100C7000C0F8802170BD00000CED00E0024908437F
:100C800002490860704700000000FA050CED00E022
:100C900070470000044A0029516901D0014300E077
:100CA000814351617047000000100240044A00294E
:100CB000D16901D0014300E08143D1617047000058
:100CC00000100240044A0029116901D0014300E0EC
:100CD000814311617047000000100240044A00295E
:100CE000916901D0014300E08143916170470000A8
:100CF00000100240044A0029D16801D0014300E0FD
:100D00008143D160704700000010024030B51F4998
:100D10004A6812F00C031E4A03D0042B01D0082BA2
:100D200021D002604A680F231A4C03EA1212A35C16
:100D30000268DA4042604B68072505EA1323E35C4A
:100D400022FA03F383604B6805EAD323E35CDA40BD
:100D5000C2604968032303EA9131231F595CB2FB47
:100D6000F1F1016130BD4A684B6802F470124FF036
:100D7000020413F4803F04EB924202D04B689B03C1
:100D800001D5054B00E0024B5A43CAE70010024070
:100D900000127A004400002000093D00002A8288E9
:100DA00001D00A4300E08A4382807047114910B5A0
:100DB00088420AD1841401212046FFF79BFF204678
:100DC000BDE810400021FFF795BF0B49884202D1D2
:100DD0000121041404E0094988420AD10121C41305
:100DE0002046FFF76FFF2046BDE810400021FFF7C7
:100DF00069BF10BD0030014000380040003C004099
:100E00000246002012890A4200D0012070478181E9
:100E1000704770470CB50021264801910091026887
:100E200042F4803202604FF4A063026802F40032A0
:100E30000092019A521C0192009A12B9019A9A42A8
:100E4000F3D10268920333D5012100911A490A684F
:100E500042F010020A600A6822F003020A600A687F
:100E600042F002020A6041684160416841604168A5
:100E700041F480614160416821F47C114160416826
:100E800041F4E8114160016841F08071016001683E
:100E90008901FCD5416821F003014160416841F0BE
:100EA000020141604168C1F381010229FAD10CBD00
:100EB00000910CBD00100240002002404FF0E021E4
:100EC0000428086903D020F004000861704740F04E
:100ED0000400FAE7704700000F4810B5016841F0C0
:100EE0000101016041680D4A1140416001680C4AEE
:100EF00011400160016821F480210160416821F402
:100F0000FE0141604FF41F018160FFF783FF054937
:100F10004FF00060086010BD001002400000FFF8B4
:100F2000FFFFF6FE08ED00E070B5124D40F22551CE
:100F3000284600F02FF8104C012601280CD120780B
:100F4000802808D2284600F0B3F80C4A2178505483
:100F5000491C217000E0667040F22441284600F0F0
:100F600019F8012804D128880248001D00886670FD
:100F700070BD000000380140010000205400002036
:100F80000029818902D041F4005101E021F400518F
:100F90008181704730B501F01F0201240025C1F3A3
:100FA000421304FA02F2012B0FD0022B0FD0838AD6
:100FB0004FEA11210088134204FA01F400EA040008
:100FC00001D000B10125284630BD8389F0E7038AAE
:100FD000EEE710B5C1F3421301F01F040121A14057
:100FE000012B07D0022B07D01430002A026805D04D
:100FF0000A4304E00C30F8E71030F6E78A43026059
:1010000010BD000030B50446008A85B00D464CF690
:10101000FF710840E98801432182A1894EF6F3104F
:101020000140A8882A8910436A890A431043A08195
:10103000A08A4FF6FF410840A9890143A182684672
:10104000FFF764FE1948844201D1039800E002983A
:10105000A189090400EBC00101EB0010296801D54A
:10106000490000E08900B0FBF1F06422B0FBF2F12E
:1010700009010B096FF018056B4300EB8300A3898E
:101080001D044FF0320306D503EBC000B0FBF2F0B5
:1010900000F0070005E003EB0010B0FBF2F000F0F9
:1010A0000F000843208105B030BD0000003801402A
:1010B0008088C0F308007047FEE730380A2801D264
:1010C0000120704700207047704708B5002000904D
:1010D00000BF401C00902828FADB08BD002804DA75
:1010E00010F5004F02DC4FF400407047404270475B
:1010F00070B50D4604464068154951F82010C810D7
:101100006A0700D50844AA0701D500EB6100EA0789
:1011100001D000EBA10021682A0701D5081A00E0E0
:101120000844206000F0B6F8094B206005F00F027B
:10113000403B014653F8222060688018606001D56A
:10114000002002E0582801DD5820606008B270BD20
:101150009C39000870B5054640681D4A2B684FF061
:10116000000452F82020C81A4FEAE20101D50824F1
:101170004042904203DB44F00404801A1144B0EB77
:10118000620F05DB44F00204A0EB620001EB620198
:10119000B0EBA20F03DB44F0010401EBA201200736
:1011A00001D5581A00E05818286000F073F8084A72
:1011B00028602046403A696852F820208918696002
:1011C00001D5002102E0582901DD5821696070BD78
:1011D0009C3900082DE9FC4700200090019044F65E
:1011E00020612848FFF7FEF9274E284DDFF894903C
:1011F0000024A6F5807849F64047254800F002FE15
:1012000018B14FF0FF30BDE8FC87B8F900000102CB
:101210001CB1EA68891A02EB2121A0EB2120E960C8
:101220000912F16300F036F800B2A8F800001CB112
:101230002969401A01EBA000286100F02BF801B2E7
:10124000A8F80010204600F087FBB8F900106846A7
:10125000FFF780FF01466008E2070FD019F8003061
:1012600043EA011309F80030641CBC42C5D337605F
:101270006868B0FBF7F0F0610020C4E709F80010DF
:10128000F2E70000D4000020F44F00200800002006
:10129000F44E0020B0F5004F02DB47F6FF707047B8
:1012A00002498842FBDA0846704700000080FFFFD1
:1012B0002DE9FC4740F6E8119048FFF793F98F4C71
:1012C00001204FF4FA5505216060C4E9025144F64B
:1012D0002061C4E9041000F0E7FA89A0FEF7A6FF38
:1012E00001F000FA04F591664FF4AC7858B16FF054
:1012F0000405656501F0DEF8014642463046FFF719
:101300001DF98BA0E7E0284601F0BAFB4FF47A778D
:1013100039468EA0FEF78AFF384601F0A3FAE06452
:1013200001F0C6F893A000F0E3FA96A0FEF77EFF66
:10133000284601F001FA9C4F58B14FF0FF35656522
:1013400001F0B8F8014642463846FFF7F7F897A093
:10135000C1E001F0AFF8014642463846FFF7EEF82B
:1013600097A000F0C5FAA946494699A0FEF75EFF8E
:10137000284600F03BFB206501F09CF80146424600
:10138000A148FFF7DBF8A1A000F0B2FAA5A0FEF794
:101390004DFF5A480621883001F094FA01F08EF88A
:1013A0000146A064A9A0FEF741FF49F6404A514614
:1013B000B3A0FEF73BFFFFF70DFFBF4F58B101F0A1
:1013C00079F8014642463846FFF7B8F86FF0010554
:1013D000BAA065657FE001F06DF8014645464246DA
:1013E0003846FFF7ABF8B94A5168B1FBFAF1E16151
:1013F0009168B1FBFAF02063B549002023180F5C17
:1014000003F8787F0F1807F58047401C97F8187E7F
:101410001F720828F2D3A16901204F1E47F22F53F3
:101420009F4205D20B44B3FBF1F0402800D9402085
:101430001060A063626CCDE90020A648236CE269CD
:10144000FEF7F4FEA4A000F053FAA7A0FEF7EEFE0C
:1014500001F048F978B16FF00207676501F02AF8EA
:1014600001462A463046FFF769F8A9A000F040FA85
:101470003846BDE8FC8701F01DF801462A46304693
:10148000FFF75CF8A7A000F033FA484601F0F8FA3D
:1014900001F010F801462A46A748FFF74FF8A7A029
:1014A000FEF7C4FEFA2001F0DDF901F001F8ADA06D
:1014B000FEF7BCFE00F08AF9B54E80B100F0F8FFEF
:1014C00000F0F8FF01462A463046FFF737F86FF084
:1014D0000305B0A0656500F00BFA2846C9E700F0E7
:1014E000E7FF00F0E7FF01462A463046FFF726F8FF
:1014F000AEA000F0FDF900206065BAE7F44F0020CF
:101500005B7265636F72642D73746167655D2069DA
:101510006E69742D706C61796261636B2D666F7298
:101520002D746F6E652073746172740D0A00000073
:10153000696E69742D706C61796261636B2D666F81
:10154000722D746F6E65206661696C005B726563F5
:101550006F72642D73746167655D207072652D74A0
:101560006F6E65207374617274206D733D256C75A8
:101570000D0A00007072652D746F6E6520646F6EC9
:10158000650000005B7265636F72642D7374616740
:10159000655D20696E69742D7265636F7264207376
:1015A000746172740D0A0000CC510020696E697478
:1015B0002D7265636F7264206661696C00000000C3
:1015C000696E69742D7265636F7264206F6B0000C1
:1015D0005B7265636F72642D73746167655D206112
:1015E00064632D6461632D6D6F6E69746F72207317
:1015F00074617274206D733D256C75207370656124
:101600006B2D6E6F770D0A002C5700206164632DDF
:101610006461632D6D6F6E69746F7220646F6E65A7
:10162000000000005B7265636F72642D7374616704
:10163000655D20736F66742D6932732070726F62FE
:10164000652073746172740D0A0000005B7265633B
:101650006F72642D73746167655D20736F66742D9E
:101660006932732070726F626520646F6E652073DB
:10167000656C65637465643D256C750D0A0000003A
:101680005B7265636F72642D73746167655D20635F
:101690006170747572652073746172742073616D0A
:1016A000706C65733D256C7520737065616B2D6E74
:1016B0006F770D0A000000002453002063617074EE
:1016C000757265206661696C0000000008000020EA
:1016D000D4000020104400086361707475726520A6
:1016E000626F6172640000005B7265636F72642DEB
:1016F00073746167655D20696E69742D706C6179C2
:101700006261636B2073746172740D0A00000000E3
:10171000696E69742D706C61796261636B206661BA
:10172000696C0000696E69742D706C617962616327
:101730006B206F6B00000000D45500205B72656366
:101740006F72642D73746167655D20706C6179627E
:1017500061636B2D6D61726B65722073746172745D
:101760000D0A00005B7265636F72642D73746167AC
:10177000655D20706C61796261636B2D7265636F6A
:10178000726465642073746172740D0A0000000055
:1017900084580020706C61796261636B2D7265639F
:1017A0006F72646564206661696C0000706C6179B9
:1017B0006261636B2D7265636F7264656420646F30
:1017C0006E65000000487047F44F00202DE9FC5F73
:1017D0000020DFF8C09000900646DFF8BC80DFF8FC
:1017E000BCB0A9F5807A019002E0A71B802F02D936
:1017F0008027002501E0002532E070190BEB500135
:10180000C00709780CD009096846FFF771FCD8F8C1
:1018100000104843B0F5004F05DB47F6FF7406E0C3
:1018200001F00F01F0E71E4CA04200DB04B22AF8E1
:1018300015402046FFF752FC0146D9F82C204846B7
:101840008A4200D2C1621CB1426B521CC9F83420DA
:10185000D8F8082049F6404411446D1CC8F8081017
:10186000BD42CAD3012239460E4800F09DFF18B18F
:101870004FF0FF30BDE8FC9F3E44A642B5D3D8F8F8
:10188000081049F64040B1FBF0F10020C9F83010D3
:10189000F0E70000F44F002008000020D4000020F2
:1018A0000080FFFFF44E00200F4900200122486015
:1018B0008860C8600A6008610C4947F6FF738A6354
:1018C000DA43C1E91032203941F8780F4860886066
:1018D000C860064960318860C860086148618861F5
:1018E000C86108624862704708000020F44F002079
:1018F00030B58FB0044600F0DDFDD0F85051D0F87F
:10190000A430F0E920120DF1280C8CE82E00D0E96B
:101910001E520DF1180C016FD0F880308CE82E00AB
:10192000D0E91A3550F87C1C0DF1080C426E8CE899
:101930002E0050F8802C50F8741CCDE9001250F89D
:10194000783CD0F8D42021460248FEF76FFC0FB057
:1019500030BD00007443000870B505460C460846CB
:10196000FFF7BCFB01461948026CA24200DD04648B
:10197000426CA24200DA446482698A4200D28161E8
:10198000134A5342ECB1066A761C06629C4201DAA5
:10199000944202DC826A521C82620C48082D00EBE1
:1019A000450001D2A0F8584049F63842954203D389
:1019B000A0F5A030A0F8F8470648426811444160FD
:1019C00070BD426A521C4262E7E70000F44F0020FB
:1019D0000880FFFF08000020002804DA10F5004FFF
:1019E00002DC4FF400407047404270472DE9F84F49
:1019F000274E04460020B1688DF8000009B94BF667
:101A0000803161434FF47A70B1FBF0F769464420AE
:101A100001F074FD4FF0FF38A8BB9DF8000040F0C6
:101A20008001442001F0B2FD0546142001F01EF9AA
:101A3000DFF860A04FF4005949465046FFF726F8FA
:101A400000F03EF8D6F85401022801D0002408E046
:101A5000204601F00BF908E00021084600F0EAFCFE
:101A6000641CBC42F8D300F007FC9DF80010442031
:101A700001F08CFD40EA050449465046FFF708F89E
:101A800000F01EF814B14046BDE8F88F0020FBE7D7
:101A9000DC7900200010014000EB80004000642150
:101AA00090FBF1F1B1F5004F02DB47F6FF70704794
:101AB00002488142FBDB08B2704700000080FFFF54
:101AC00038B56946002001F019FDAA4C10B99DF8FF
:101AD0000000A0616946012001F010FD10B99DF8D9
:101AE0000000E0616946022001F008FD10B99DF890
:101AF000000020626946032001F000FD10B99DF846
:101B0000000060626946042001F0F8FC10B99DF8FD
:101B10000000A0626946052001F0F0FC10B99DF8B4
:101B20000000E0626946062001F0E8FC10B99DF86B
:101B3000000020636946072001F0E0FC10B99DF821
:101B4000000060636946082001F0D8FC10B99DF8D8
:101B50000000A0636946092001F0D0FC10B99DF88F
:101B60000000E06369460A2001F0C8FC10B99DF846
:101B70000000206469460B2001F0C0FC10B99DF8FC
:101B80000000606469460C2001F0B8FC10B99DF8B3
:101B90000000A06469460D2001F0B0FC10B99DF86A
:101BA0000000E06569460E2001F0A8FC10B99DF820
:101BB0000000206669460F2001F0A0FC10B99DF8D6
:101BC000000060666946102001F098FC10B99DF88D
:101BD0000000A0666946112001F090FC10B99DF844
:101BE0000000E0666946122001F088FC10B99DF8FB
:101BF000000020676946132001F080FC10B99DF8B1
:101C0000000060676946142001F078FC10B99DF867
:101C10000000A0676946152001F070FC10B99DF81E
:101C20000000E0676946162001F068FC18B99DF8CD
:101C30000000C4F880006946172001F05FFC18B965
:101C40009DF80000C4F884006946182001F056FC95
:101C500018B99DF80000C4F888006946192001F001
:101C60004DFC18B99DF80000C4F88C0069461A2094
:101C700001F044FC18B99DF80000C4F890006946D2
:101C80001B2001F03BFC18B99DF80000C4F894003B
:101C900069461C2001F032FC18B99DF80000C4F818
:101CA00098006946252001F029FC18B99DF800002C
:101CB000C4F89C006946312001F020FC10B99DF861
:101CC000000020656946322001F018FC10B99DF82B
:101CD0000000E0646946332001F010FC10B99DF863
:101CE000000060656946342001F008FC10B99DF8D9
:101CF0000000A0656946372001F000FC18B99DF886
:101D00000000C4F8A0006946442001F0F7FB18B9B0
:101D10009DF80000C4F8A4001748008844F8A80FF4
:101D20001548143000886060134818300088A0609F
:101D30001148001F0088E0601048006820611048CA
:101D4000006860610F488168A1610C49091D09683C
:101D5000E1610B49091D09682162C16861620A4994
:101D60004968A1624114FEF78AFEE06200F04CFF70
:101D700038BD0000DC790020083C00400808014024
:101D8000080C01400010014000100240174810B537
:101D90000088174C44F8A80F14481430008860607D
:101DA000124818300088A0601048001F0088E060CA
:101DB0001048006820611048006860610F48816821
:101DC000A1610C49091D0968E1610B49091D0968F8
:101DD0002162C16861620A494968A1624114FEF743
:101DE0004EFEE062BDE8104000F00EBF083C00402F
:101DF000DC79002008080140080C01400010014077
:101E0000001002407CB5114C05000AD00120E060B2
:101E1000694601A8666800F01BF840B16FF0020047
:101E20007CBD6FF00400C4F85001C0107CBDBDF94A
:101E30000020BDF90410304600F05AF8BDF800004B
:101E400028806068401C606000207CBDDC79002038
:101E50007FB505460E480C4603AA02A9406800F06B
:101E60006FFE0C48DDE90223011FCDE90010214679
:101E7000284600F013F818B14FF0FF3004B070BDE1
:101E8000054850F8FC1F491C01600020F6E70000DF
:101E90001C000020E87A0020DC7900202DE9F84FB2
:101EA0008146DDE90AA41E4617468846012000F057
:101EB00051FE4FF0FF35C0B9002000F04BFEA0B935
:101EC0005346324639464846009400F0E5FD60B975
:101ED000012000F03FFE40B95346324639464046A5
:101EE000009400F0D9FD002800D02846BDE8F88F06
:101EF0002DE9F041074614460D460846FFF76CFDF4
:101F000006462046FFF768FD01461B48D0F8E4204E
:101F1000B24201D2C0F8E460D0F8E8208A4201D28F
:101F2000C0F8E81025B1D0F8EC10491CC0F8EC104E
:101F300024B1D0F8F010491CC0F8F010082F05D2D9
:101F400000EB4701A1F81051A1F820415FF000011A
:101F500000EB4102491CB2F83231A2F83031B2F83C
:101F60004231A2F840310729F2D3A0F83E51A0F83F
:101F70004E41BDE8F0810000DC79002070B501F031
:101F800093FA10B14FF0FF3070BD3F21002001F0F7
:101F9000FDFA04460A2000F069FE8021002001F0CD
:101FA000F5FA0443022000F061FE3021012001F027
:101FB000EDFA04430021022001F0E8FA0443102165
:101FC000032001F0E3FA04432421162001F0DEFA95
:101FD00004431021042001F0D9FA04430021052014
:101FE00001F0D4FA044300210B2001F0CFFA04439E
:101FF00000210C2001F0CAFA04431F21102001F037
:10200000C5FA04437F21112001F0C0FA04430F21D7
:10201000062001F0BBFA0443FF21072001F0B6FAC5
:1020200004430421082001F0B1FA04430C210920E3
:1020300001F0ACFA04434C210A2001F0A7FA044352
:102040000821442001F0A2FA04430021312001F0CC
:102050009DFA0443BF21322001F098FA0443002185
:10206000332001F093FA04430021342001F08EFA6A
:10207000044301210D2001F089FA0443782000F087
:10208000F5FD02210E2001F081FA04430121122006
:1020900001F07CFA04431021132001F077FA044385
:1020A0001A21142001F072FA044306210D2001F0D8
:1020B0006DFA04431E2000F0D9FD0021252001F017
:1020C00065FA40EA04053F21012001F05FFA40EA89
:1020D0000504FFF7F5FC204670BD70B501F0E4F98A
:1020E00010B14FF0FF3070BD3F21002001F04EFADB
:1020F00004460A2000F0BAFD8021002001F046FAD3
:102100000443022000F0B2FD3021012001F03EFA2C
:1021100004430021022001F039FA04431021032076
:1021200001F034FA04432021042001F02FFA044383
:102130000021052001F02AFA04430321062001F0C2
:1021400025FA04430021072001F020FA0443FF216F
:10215000082001F01BFA04430C21092001F016FAB3
:1021600004430C210A2001F011FA044300210B2042
:1021700001F00CFA044300210C2001F007FA04439B
:1021800001210D2001F002FA0443782000F06EFDD9
:1021900002210E2001F0FAF9044300210F2001F082
:1021A000F5F940EA04050021122001F0EFF940EAB8
:1021B00005041021132001F0E9F904431A21142029
:1021C00001F0E4F904434021152001F0DFF9044354
:1021D0002421162001F0DAF90443BF21172001F071
:1021E000D5F904430021182001F0D0F9044300215F
:1021F000192001F0CBF9044300211A2001F0C6F99F
:1022000004430A211B2001F0C1F904436A211C2068
:1022100001F0BCF904430021312001F0B7F9044377
:10222000BF21322001F0B2F904430021332001F034
:10223000ADF904430021342001F0A8F9044308213A
:10224000372001F0A3F904430821442001F09EF94E
:10225000044301210D2001F099F940EA04051E20F4
:1022600000F004FD3F21012001F090F940EA05044F
:10227000FFF726FC204670BD2DE9F041002600F056
:10228000B9F804460C4D0D4F0BE000BF00F0B2F85A
:10229000A04202D00026044602E0761CBE4206D8C8
:1022A00000BFE86918B1D5E905018142EED8BDE863
:1022B000F04100F0A9BC00001C00002000127A00D0
:1022C000084810B5C06900280AD00748FEF702FB8D
:1022D0004FF48051884200D908464042C0F30B00B9
:1022E00010BD00001C0000201C04024070B500F06E
:1022F00081F80A4C0546A069A8420DD8206A4FF41F
:102300000051401C20620648FEF74AF905F5806539
:10231000C5F30B00A561A06070BD00001C0000208B
:10232000DC59002070B54FF400548CB02146204891
:10233000FEF736F901210220FEF7ACFC1D4E00210C
:102340003046FEF74AFA3046FEF752FA1A48009035
:10235000174801901020029000020025CDE90305E6
:1023600080200590400006908000079008AA202059
:1023700082E8310069463046FEF7AFFA0E48012286
:1023800002210C38FEF70AFD01213046FEF725FA3E
:102390000A4C0120E061FFF793FFC4E90305606187
:1023A00000F58060A061C0F30B00A0600CB070BDB0
:1023B000DC5900201C0402400C3C00401C000020A2
:1023C00010B5002202210848FEF7E8FC002107486A
:1023D000FEF703FA06480021C1618160C160016116
:1023E0004161816110BD0000003C00401C040240BE
:1023F0001C00002010B5FFF763FF0649CA68904231
:1024000002D20A69521C0A61C8600A6900EB0230F4
:10241000486110BD1C00002010B5FFF7EBFF044918
:102420008969814201D8002010BD081A10BD000042
:102430001C0000202DE9F0471A4C0646DFF86880A2
:10244000E0690D4618B102274FF47E6909E0304675
:1024500000F0EAFB284600F0E7FB1CE0FFF746FF30
:1024600000BFFFF7D9FF4845F8D2C0F57E60B842FB
:10247000F4D3FFF73BFF0D4AA06822F81060401C20
:10248000C0F30B01A06922F81150491CC1F30B01E4
:10249000801CA160A061D8F80010491CC8F8001089
:1024A000BDE8F0871C000020DC790020DC5900200A
:1024B000FFF7E2BE00487047DC7900200148406821
:1024C000704700001C0000202DE9F84301211D2069
:1024D000FEF704FC0121CE033046FEF7E7FB0121A5
:1024E0000220FEF7D7FB01212648FEF795FA0320CC
:1024F0008DF80200C020ADF800001420DFF88880BD
:102500008DF8030069464046FEF734FA01F0A8F85A
:1025100001F08EF8022000F0A9FBB4101B4FADF8BB
:10252000004010258DF8035069463846FEF722FA20
:1025300021463846FEF7AAFA8020ADF8000018249C
:102540008DF8034069463846FEF714FAADF800608E
:102550008DF8034069460E48FEF70CFA2820ADF8C6
:1025600000008DF8034069464046FEF703FAADF8D7
:10257000005004208DF8030069464046FEF7FAF942
:10258000BDE8F88300023000000C0140001001405B
:102590000008014042F21C51884202D84FF4FA5020
:1025A000704743F2BC41884202D842F6113070476E
:1025B00044F63821884202D84FF47A50704746F6E4
:1025C0007811884202D845F22260704749F2704182
:1025D000884202D84FF4FA407047A0F52740F838F7
:1025E000B0F5FA6F02D84AF6444070474BF6803097
:1025F000704700007FB50446FFF7E2FE194E3046F3
:10260000FEF7D4FB4FF44070ADF800000025ADF8A4
:1026100004507015ADF80600ADF802502046FFF7E3
:10262000B9FF0290ADF80C5069463046FEF742FA09
:1026300001213046FEF734FA0B490A4808308C6015
:102640000088C1F8A80007481C300088C1F8AC0019
:10265000044820300088C1F8B000301D0088C1F85F
:10266000B4007FBD003C0040DC7900207FB505460A
:10267000FFF7A6FE194E3046FEF798FB70150024B2
:10268000ADF80000ADF80440ADF80600ADF802402A
:102690002846FFF77FFF0290ADF80C4069463046B0
:1026A000FEF708FA01213046FEF7FAF9FFF73AFE85
:1026B0000B490A4808308D600088C1F8A800074817
:1026C0001C300088C1F8AC00044820300088C1F8F4
:1026D000B000301D0088C1F8B4007FBD003C004050
:1026E000DC79002010B5FFF7EFFE012000F0B8F90B
:1026F0000A2000F0BBFA4BF68030FFF7B7FF0A2044
:1027000000F0B4FAFFF73AFC38B1FFF73FFB084995
:102710004FF0FF30C1F8500110BD142000F0A6FAB0
:102720004FF400510348FEF7B1F9002010BD00003E
:10273000DC790020001001402DE9F041040001D1B6
:102740004BF68034FFF7C0FE022000F089F9144DEB
:10275000144F4FF4005631463846AC60FEF798F9F6
:102760000A2000F083FA2046FFF744FF0A2000F019
:102770007DFAFFF7B2FC40B1FFF708FB6FF00100F4
:10278000C5F850014010BDE8F081142000F06EFA49
:1027900031463846FEF77CF9FFF792F90020F2E760
:1027A000DC790020001001402DE9F0412A4C174649
:1027B0000E4605001ED0EEB12848E7600088C4F838
:1027C000A800264814300088C4F8AC004FF400512B
:1027D0002348FEF754F9C4F8D40000F015FA012F8D
:1027E0000ED0022F1ED06FF00300C4F8500140102D
:1027F000BDE8F0816FF00200C4F850018010F7E7E7
:1028000000240CE035F91400FFF746F9074635F9C6
:102810001400FFF741F93946FFF70CFE641CB4427F
:10282000F0D314E0002410E005EB840135F9240016
:10283000B1F90210084400EBD070401000B2FFF76D
:102840002BF90146FFF7F6FD641CB442ECD300F00F
:10285000DBF90020CCE70000DC790020083C0040D8
:10286000001001402DE9F0411449896809B94BF67F
:10287000803141434FF47A70B1FBF0F700243026E9
:10288000DFF83C8015E000BFB4FBF6F006FB10411A
:1028900038F91100FFF700F90546B4FBF6F006FB26
:1028A000104138F91100FFF7F7F82946FFF7C2FD8C
:1028B000641CBC42E8D30020BDE8F081DC79002034
:1028C000003B00082DE9F34F644895B04FF0000B32
:1028D00040681090159808B1062904D24FF0FF30D7
:1028E00017B0BDE8F08FC1EBC100C1001598FDF72E
:1028F00079FE0025002606961598C5EBC50100EB6C
:10290000C1040796B2460996149603AA04A928465C
:1029100000F016F92560049860600398002704F120
:102920002C0904F12808A060CDE90089DDE9033213
:1029300013A912A8FFF7B2FAB8B3402F7DD300BF96
:10294000D4E90601471878D0D4F82CC0BCF1000FA8
:1029500073D0DDE906010B18D4E90402904200D8D7
:1029600010467201591CB2FBF1F101EB1C11394404
:10297000E160B0F5FA4F01D98808E0602EB1B3EB01
:10298000860F02D9E0684008E060E068584501D948
:10299000834610956D1C062DACD3BBF1000F02D001
:1029A0002E491098486000209AE7FFE7BDF94800DB
:1029B000FFF712F80190BDF94C00FFF70DF80199EF
:1029C000226901440E4401998A4200D22161616961
:1029D000814200D26061BDF9481011B1A069401C6C
:1029E000A061BDF94C0010B1E269521CE261149A79
:1029F00022B3099AA1EB0A03821A514505D0D4F8F3
:102A000020C00CF1010CC4F820C0DDF824C06045E2
:102A100005D0D4F824C00CF1010CC4F824C0002B5C
:102A200000DA5B42002A00DA5242DDF81CC063443F
:102A30000793069B1A44069204E00CE02186608608
:102A4000012214920990A1867F1C8A46E086402FBD
:102A5000FFF46AAF74E7002096E700001C00002036
:102A600010B504464FF4AC710448FDF7BBFD0348B4
:102A70004BF68031C0F85441816010BDDC790020F4
:102A8000002805D003498968814201D0FFF7EEBDD7
:102A900070470000DC7900202DE9FF5FDFF89C80A3
:102AA0008346DDF838A0D8F8000099460F46002488
:102AB00000F01005264604E0029800F071F838B9DD
:102AC000761CBE42F8D30026029800F069F820B1C7
:102AD0004FF0FF3004B0BDE8F09F00BF00BF022000
:102AE00000BF401C0828FBD3D8F800004FEA44047C
:102AF00010F010000DD044F00104B9F1000F04D023
:102B0000D9F80010491CC9F8001001211DB101229B
:102B100002E00021FAE70022914207D0BAF1000F4B
:102B200004D0DAF80010491CCAF80010761C0546DB
:102B3000102EC9D3ABF800400020CBE7080C0140B1
:102B4000062800D30220430800F001000B6010604B
:102B50007047000030B50F494FF400420E4B0DE0B6
:102B6000491E0BD20D48D0F80411491CC0F80411BD
:102B70006FF00801C0F85011081130BD1C681440F6
:102B800000D0012408B1012500E00025AC42E7D1C6
:102B9000002030BD80841E0008080140DC79002040
:102BA000F0B51749060044F62063D1F80041154DF1
:102BB0004FF0FF306FF0070204F101041E4602D10E
:102BC0000DE0761E11D32F683F07FAD501E05B1E9A
:102BD0000BD32E683607FAD40FE0761E05D32F6884
:102BE0003F07FAD406E05B1E04D2C1F80041C1F8E9
:102BF0005021F0BD2E683607F5D50020F0BD00004D
:102C0000DC790020080C014070B5054D054C286AA0
:102C100044F8D80FFFF700FC6060A868A06070BDA2
:102C20001C000020DC79002070B5074D044602210D
:102C30002846FEF7E5F80028F9D0A1B22846BDE8FD
:102C40007040FEF7E4B80000003C004008B102A06C
:102C5000704702A0704700004F4B00004641494CAE
:102C6000000000006FF00400FEF728B970B54FF4C3
:102C70007A7500234FF0E02117E02A46904200D8F1
:102C8000024642F2283454434C618B610C6944F093
:102C900001040C610C69E60701D0E403FAD50C6964
:102CA00024F001040C618B61801A0028E5D170BD0D
:102CB00030B505460C46D1F85001D8318FB00EC959
:102CC000CDE90612CDE9083004F10C01D4F8D400A6
:102CD0000EC9CDE90430CDE90212D4E90101CDE9F4
:102CE000000129467D482368D4F85421FDF79EFA57
:102CF00004F13C000DF11C0C0FC88CE80F0004F12E
:102D00002C000DF10C0C0FC88CE80F0004F1200012
:102D100007C88DE80700D4E9062329467048FDF767
:102D200085FAD4E91501D4E928230DF1280C8CE8A3
:102D30000F00D4E913320DF1180CD4F88000D4F848
:102D40009C108CE80F0004F16C000DF1080C0FC80A
:102D50008CE80F00D4E91901CDE90001D4E917236B
:102D600029466048FDF762FA04F18C000DF1040C6D
:102D70000FC88CE80F00D4F88800009029465A4804
:102D8000D4F88430E26FFDF751FA04F1C0000DF180
:102D9000140C0FC88CE80F0004F1B401D4F8D00073
:102DA0000EC90DF1080C01918CE80D00D4F8B000AB
:102DB0000090D4E92A2329464C48FDF737FA04F558
:102DC00080700DF1140C0FC88CE80F0004F1F000B6
:102DD0000DF1040C0FC88CE80F00D4F8EC00009043
:102DE000D4E9392329464248FDF720FAB4F91801FD
:102DF0000DF1080CB4F91E31B4F91C21B4F91A1103
:102E00008CE80F00B4F91611B4F91401CDE90001F2
:102E1000B4F91231B4F91021294636A0FDF706FAAB
:102E2000B4F928010DF1080CB4F92E31B4F92C21B4
:102E3000B4F92A118CE80F00B4F92611B4F9240171
:102E4000CDE90001B4F92231B4F92021294634A09A
:102E5000FDF7ECF9B4F938010DF1080CB4F93E3185
:102E6000B4F93C21B4F93A118CE80F00B4F93611E9
:102E7000B4F93401CDE90001B4F93231B4F93021AB
:102E8000294632A0FDF7D2F9B4F948010DF1080C3A
:102E9000B4F94E31B4F94C21B4F94A118CE80F0061
:102EA000B4F94611B4F94401CDE90001B4F9423155
:102EB000B4F9402129462FA0FDF7B8F9D4F8540100
:102EC00021460228284604D00FB0BDE8304000F06B
:102ED00065B80FB0BDE8304000F01ABADC3E00081B
:102EE0004C3C00089C3B0008E03C0008383D0008D2
:102EF000D44200085B25732D727866697273742D55
:102F00006C5D20256420256420256420256420250F
:102F1000642025642025642025640D0A000000003B
:102F20005B25732D727866697273742D725D20252E
:102F300064202564202564202564202564202564E0
:102F40002025642025640D0A000000005B25732DF8
:102F500072786C6173742D6C5D202564202564206B
:102F600025642025642025642025642025642025EF
:102F7000640D0A005B25732D72786C6173742D7279
:102F80005D20256420256420256420256420256497
:102F90002025642025642025640D0A002DE9F34FC7
:102FA000086987B00C4608B16069E8B30020814623
:102FB000B4F8AC00C0F303200E2844D000208046B3
:102FC000207FC043800640D05FF0000794F84000A7
:102FD00000F03F000C283AD05FF00006D4F8D4008F
:102FE00080B30025206800B10120FFF72FFE00907C
:102FF0002846FFF72BFE83463046FFF727FE824622
:103000003846FFF723FE06464046FFF71FFE0546FB
:103010004846FFF71BFE0246D4F8B030A46800987B
:10302000CDE904432B4600E00AE0CDE902B0CDE94A
:10303000006A09480799FDF7F9F809B0BDE8F08F73
:103040000120B4E705E00120B9E70127BEE701262A
:10305000C4E70125C6E70000E03D000870B58EB06A
:10306000FEF7B0FB044648300FC8CDE9042004F158
:103070000C000693039107C88DE8070094E80E0042
:103080005348FDF7D3F804F12001E06B0EC9CDE9F8
:103090000330CDE90112E0690090D4E910124D48E7
:1030A000A369FDF7C3F8A06B009004F12C014AA0BE
:1030B0000EC9FDF7BBF8B4F9600001ADB4F9663094
:1030C000B4F96420B4F9621085E80F00B4F95E0029
:1030D0000090B4F95C30B4F95A20B4F958104EA0FD
:1030E000FDF7A4F8B4F97000B4F97630B4F974209F
:1030F000B4F9721085E80F00B4F96E000090B4F9CD
:103100006C30B4F96A20B4F9681050A0FDF78EF85D
:1031100094F87C0094F87F3094F87E2094F87D1029
:1031200085E80F0094F87B00009094F87A3094F8CA
:10313000792094F8781051A0FDF778F894F884007D
:1031400094F8873094F8862094F8851085E80F006D
:1031500094F88300009094F8823094F8812094F8D9
:10316000801056A0FDF762F85FF00005C5EBC500C2
:1031700004EBC0000DF1240CB0F9B810B0F9BE603A
:10318000B0F9BC30B0F9BA208CE84E0000F1A801CB
:103190000DF1140C4EC98CE84E0000F198010DF1B0
:1031A000040C4EC98CE84E00D0F894100091D0F871
:1031B0009010883009B151A300E052A3D0E9001269
:1031C0005248FDF733F86D1C062DCFD30EB070BDFD
:1031D0007C3F0008004000085B7265636F72642DDD
:1031E000706C61796261636B5D207065616B3D2518
:1031F0006C75206D65616E5F6162733D256C752035
:103200006E6F6E7A65726F3D256C75206761696EB1
:103210003D256C750D0A00005B7265636F72642D4D
:1032200073616D706C65732D66697273745D2025B2
:1032300064202564202564202564202564202564DD
:103240002025642025640D0A000000005B72656380
:103250006F72642D73616D706C65732D6C61737426
:103260005D202564202564202564202564202564B4
:103270002025642025642025640D0A005B726563A7
:103280006F72642D616470636D2D66697273745D15
:103290002025303258202530325820253032582011
:1032A00025303258202530325820253032582025FC
:1032B00030325820253032580D0A00005B726563A9
:1032C0006F72642D616470636D2D6C6173745D2029
:1032D00025303258202530325820253032582025CC
:1032E00030325820253032582025303258202530B1
:1032F000325820253032580D0A00000066616C6C8F
:10330000000000007269736500000000503E000874
:103310002DE9F34F08698DB00C4608B16069A8B17A
:1033200000200390B4F8AC00C0F303200F280FD0A6
:1033300000208346207FC04380060BD000208246B9
:1033400094F85C0010F0F00F06D00AE00120E8E7E6
:103350000120EEE70120F2E794F8600010F0700F12
:1033600008D000208146A06F410605D4C00603D5D1
:10337000012002E00120F5E70020804694F840009B
:1033800000F03F000C2817D05FF0000694F83400DE
:1033900040F3001594F8A4006D1C10F0700F0DD0D0
:1033A0005FF00000D4F8E410202903D8D4F8E81026
:1033B000202905D9012704E00126E7E70120F1E7EC
:1033C0000027FFF743FC01902846FFF73FFC0090E1
:1033D0003046FFF73BFC02904046FFF737FC804643
:1033E0004846FFF733FC06465046FFF72FFC0546DC
:1033F0005846FFF72BFC81460398FFF727FC02464F
:103400000FB123A300E023A3DDE900010DF1100AB1
:10341000079321A78AE883000298CDE90056CDE9F9
:1034200002804B461E480D99FCF700FF04F580749E
:1034300009AF0FCC87E80F0014F86C0C54E90612A2
:10344000C0F30213C0F3C010CDE90503CDE90712A4
:1034500014F8900C01AF00F00F0214F8980C54F817
:10346000D05C54F88C3C00F00F0187E82E00C0F3CC
:103470000011C0F38013009114F8DC0C0D99C0F317
:1034800000120848FCF7D2FE0FB0BDE8F08F000034
:10349000594553004E4F000049474E4F5245440096
:1034A0003C410008E041000870B5302000F01AF8F7
:1034B0000A4C0B4D50B1322000F014F840B10020FE
:1034C0002861FF2068614FF0FF3070BD302000E0C0
:1034D000322020702861002070BD00001C000020F8
:1034E000DC79002010B5044600F0E3F82046802285
:1034F000BDE81040002100F077B8000010B5044688
:1035000000F008F8002801D001494C6110BD00000E
:10351000DC7900202DE9F0410E46074600F0BEF8A8
:10352000194D287800F0CEF80446384600F0CAF865
:10353000044300F0B3F8287840F0010000F0C2F82E
:10354000204307001AD1002400F08AF80025600605
:10355000040E00F06DF800F09BF808B144F001048F
:1035600000F072F86D1C082DF1DB00F079F800F026
:103570005FF800F069F800F073F8347000F099F823
:103580003846BDE8F08100001C0000202DE9F8431A
:1035900006460020124F88468DF800000446424639
:1035A0003146387800F020F805000BD00220FFF7F4
:1035B0005DFB69463046FFF7ADFF30B99DF800105E
:1035C000414502D10020BDE8F8830220FFF74EFB01
:1035D000641C032CE3DB034846612846F3E7000044
:1035E0001C000020DC79002070B515460C4606460C
:1035F00000F054F8304600F065F80646204600F02A
:1036000061F840EA0604284600F05CF840EA040548
:1036100000F04FF8284670BD04490A881206FCD510
:10362000024AC1B2121D11807047000000380140EB
:1036300010B540210348FDF72BFABDE81040FDF717
:1036400044BD0000000C014010B540210348FDF7C7
:103650001DFABDE81040FDF738BD0000000C014028
:1036600010B580210348FDF713FABDE81040FDF7BF
:103670002CBD0000000C014010B580210348FDF76F
:1036800005FABDE81040FDF720BD0000000C014028
:1036900080210148FDF7ECB9000C014010B5FFF79F
:1036A000DFFFFFF7C5FFFFF7E7FFBDE81040FFF7BB
:1036B000CBBF10B5FFF7E0FFFFF7BAFFBDE8104042
:1036C000FFF7CEBF70B505460024280602D5FFF7E8
:1036D000C7FF01E0FFF7D0FFFFF7AAFFFFF7B4FF36
:1036E0006806050E641C082CEFDBFFF7B9FFFFF737
:1036F0009FFFFFF7CDFF0446FFF7A6FF14B14FF081
:10370000FF3070BD002070BD4FF4A060FDF7B6FA29
:10371000FFF7A8FA022201214FF4E130FDF716FA73
:103720002FA0FCF783FD37A239A13CA0FCF77EFD5A
:1037300042A0FCF77BFD4CA0FCF778FD5A48FCF753
:1037400075FDFDF7B5FD0546014658A0FCF76EFD79
:10375000FEF738F80446681D30D0681C35D0FFF7F6
:103760007DFC04F5EC715AA0FFF7A2FA04F54C7148
:103770005AA0FFF79DFA04F5E7615BA0FFF798FAFE
:10378000E81C29D0A81C0FD004F591615AA0FFF7BE
:103790008FFA04F5BC615CA0FFF78AFA04F50961B1
:1037A0005DA000BFFFF784FA29465FA0FCF73EFD4D
:1037B0004FF47A742046FFF759FAFBE76248FCF7AA
:1037C00035FD04F5916161A0ECE76348FCF72EFD3F
:1037D00004F5EC713EA0E5E704F5916146A0E1E750
:1037E0000D0A5B617564696F2D7265636F72645D4C
:1037F00020626172656D6574616C20626F6F740D1B
:103800000A00000031383A31323A34380000000002
:103810004A756C2020382032303236005B61756486
:10382000696F2D7265636F72645D206275696C6487
:103830002025732025730D0A000000005B6175646C
:10384000696F2D7265636F72645D205553415254E8
:1038500031205041392F5041313020313135323013
:103860003020384E310D0A005B617564696F2D722E
:1038700065636F72645D2066773D7265636F726425
:103880002D6D6F6E69746F7238732D6C70662D7646
:103890006F6C31302D636C65616E6661696C2D767D
:1038A00032320D0A00000000644000085B6175645C
:1038B000696F2D7265636F72645D207265636F72EC
:1038C000645F726573756C743D25640D0A000000B9
:1038D0007265636F72642D696E6974007265636FDF
:1038E00072642D646F6E65006D6F6E69746F722DFA
:1038F000646F6E6500000000706C61796261636BDB
:103900002D696E6974000000706C61796261636B8F
:103910002D726561647900007265636F72642D6C4D
:103920006F6F706261636B005B617564696F2D72AC
:1039300065636F72645D20646F6E65207265636F8E
:1039400072643D25640D0A00A8400008696E697420
:103950002D6661696C000000F8400008FFFFFFFF62
:10396000FFFFFFFFFFFFFFFFFFFFFFFF0200000061
:10397000040000000600000008000000FFFFFFFF39
:10398000FFFFFFFFFFFFFFFFFFFFFFFF0200000041
:10399000040000000600000008000000070000000E
:1039A00008000000090000000A0000000B000000F1
:1039B0000C0000000D0000000E00000010000000D0
:1039C00011000000130000001500000017000000A7
:1039D000190000001C0000001F0000002200000071
:1039E00025000000290000002D000000320000002A
:1039F000370000003C0000004200000049000000C9
:103A00005000000058000000610000006B00000042
:103A100076000000820000008F0000009D00000082
:103A2000AD000000BE000000D1000000E600000074
:103A3000FD000000170100003301000051010000EB
:103A40007301000098010000C1010000EE010000B8
:103A5000200200005602000092020000D402000082
:103A60001C0300006C030000C303000024040000DA
:103A70008E0400000205000083050000100600000F
:103A8000AB0600005607000012080000E008000026
:103A9000C3090000BD0A0000D00B0000FF0C0000AD
:103AA0004C0E0000BA0F00004C110000071300007C
:103AB000EE1400000617000054190000DC1B000083
:103AC000A51E0000B621000015250000CA28000030
:103AD000DF2C00005B3100004B360000B93B0000DA
:103AE000B2410000444800007E4F000071570000C2
:103AF0002F600000CE69000062740000FF7F0000AC
:103B000000001E06210CF01170178C1C25212625A3
:103B10009828042B462D642EE02E642E462D042B6F
:103B20009828262525218C1C7017F011210C1E06C3
:103B30000000E2F9DFF310EE90E874E3DBDEDADA9E
:103B400068D7FCD4BAD29CD120D19CD1BAD2FCD4B3
:103B500068D7DADADBDE74E390E810EEDFF3E2F93F
:103B600030313233343536373839414243444546B3
:103B700040305800303132333435363738396162AD
:103B800063646566403078000400000800000000AF
:103B90000000000200010000100000005B25732DF2
:103BA000636F6465632D625D207230443D25303261
:103BB0006C58207230453D2530326C5820723046AA
:103BC0003D2530326C58207231303D2530326C58F2
:103BD000207231313D2530326C58207231323D2512
:103BE00030326C58207231333D2530326C5820729F
:103BF00031343D2530326C58207231363D2530321B
:103C00006C58207232353D2530326C582072333179
:103C10003D2530326C58207233323D2530326C589D
:103C2000207233333D2530326C58207233343D25B9
:103C300030326C58207233373D2530326C58207248
:103C400034343D2530326C580D0A00005B25732D4D
:103C5000636F6465632D615D207230303D253032C5
:103C60006C58207230313D2530326C582072303221
:103C70003D2530326C58207230333D2530326C583F
:103C8000207230343D2530326C58207230353D255D
:103C900030326C58207230363D2530326C582072EC
:103CA00030373D2530326C58207230383D25303267
:103CB0006C58207230393D2530326C5820723041BA
:103CC0003D2530326C58207230423D2530326C58E0
:103CD000207230433D2530326C580D0A0000000040
:103CE0005B25732D636F6465632D635D20723135D1
:103CF0003D2530326C58207231373D2530326C58BA
:103D0000207231383D2530326C58207231393D25D2
:103D100030326C58207231413D2530326C5820725F
:103D200031423D2530326C58207231433D253032CE
:103D30006C580D0A000000005B25732D6D63755DE6
:103D4000207370695F73723D30782530346C582071
:103D5000693273636667723D30782530346C582061
:103D600069327370723D30782530346C582073702E
:103D7000695F6372323D30782530346C582072634D
:103D8000635F636667723D30782530386C58206712
:103D900070696F5F69647220413D30782530346C02
:103DA0005820423D30782530346C5820433D3078DF
:103DB0002530346C58206770696F5F6F64722041E2
:103DC0003D30782530346C5820423D3078253034F1
:103DD0006C5820433D30782530346C580D0A000073
:103DE0005B25732D636865636B5D206932633D25D8
:103DF00073206D63755F6D61737465725F74783D78
:103E0000257320636F6465635F636C6B733D25731B
:103E1000206461635F7364703D257320616D705F22
:103E2000656E61626C65643D25732074785F7365AF
:103E3000656E3D25732073723D256C752069327364
:103E400070723D30782530346C580D0A0000000047
:103E50005B7265636F72642D736F66742D76256C6B
:103E6000755D20736B69703D256C752065646765B1
:103E70003D25732073636F72653D256C75206C70F2
:103E80006B3D256C752072706B3D256C75206C6EDA
:103E90007A3D256C7520726E7A3D256C75206C63B9
:103EA00068673D256C7520726368673D256C7520D9
:103EB000686967683D256C752065646765733D2595
:103EC0006C752066697273743D25642F2564206CBF
:103ED0006173743D25642F25640D0A005B25735DB5
:103EE000206D6F64653D25642074785F6672616D36
:103EF00065733D256C752072785F6672616D6573C0
:103F00003D256C752073723D256C752063683D25D9
:103F10006C7520636F6465635F616464723D3078C3
:103F20002530326C58206661696C5F7265673D3080
:103F3000782530326C5820616D705F706331333D8D
:103F4000256C7520646D615F756E6465723D256CCE
:103F50007520646D615F757365643D256C752064C3
:103F60006D615F773D256C75206C6173745F657260
:103F7000726F723D25640D0A000000005B7265637C
:103F80006F72645D2073616D706C65735F706572D4
:103F90005F6368616E6E656C3D256C752063683D7E
:103FA000256C752073723D256C7520647572617483
:103FB000696F6E5F733D256C7520616470636D5F22
:103FC00062797465733D256C75206368756E6B3D11
:103FD000256C7520746F6E653D2564206D6F6E696C
:103FE000746F723D25642076617269616E743D253F
:103FF0006C7520726573756C743D25640D0A000044
:104000005B7265636F72642D636170747572655D58
:10401000206D696E3D2564206D61783D25642070BA
:1040200065616B3D256C75206D65616E5F616273C6
:104030003D256C75206E6F6E7A65726F3D256C75CF
:10404000207A65726F3D256C7520636C69707065B0
:10405000643D256C752064635F6573743D25640D54
:104060000A0000005B617564696F2D7265636F7291
:10407000645D207072652D746F6E652031733B2016
:104080006C697665206D6F6E69746F722038733B52
:10409000207265636F72642035733B20706C6179A8
:1040A0006261636B0D0A00005B617564696F2D725C
:1040B00065636F72645D20696E6974206661696C06
:1040C0006564206265666F7265207265636F7264F5
:1040D0003B20636865636B20455338333131204999
:1040E00032432F706F7765722F636F6E6E656374E6
:1040F000696F6E0D0A0000005B617564696F2D7257
:1041000065636F72645D207265636F726420696EAF
:104110006974206661696C65643B20636865636BE4
:1041200020455338333131204144432F6D69632F8B
:104130004932532073657475700D0A005B25732D29
:10414000636865636B5D206932633D2573206D6331
:10415000755F6D61737465725F72783D257320635E
:104160006F6465635F636C6B733D2573206164638B
:104170005F706F7765723D2573206D69635F706155
:1041800074683D2573206164635F7364703D2573BB
:10419000206173646F75745F70696E3D2573206173
:1041A00064636461745F73656C3D2573207370692B
:1041B0005F6F76723D257320636170747572653D23
:1041C0005042345F534F46545F464958454420613E
:1041D0007564696F5F7365656E3D25730D0A000038
:1041E0005B25732D636865636B2D64657461696C11
:1041F0005D207230375F7472695F616463646174FB
:104200003D256C75207231345F646D69633D256CAA
:1042100075207231345F6C696E73656C3D256C7509
:10422000207231345F6761696E3D3078256C5820AB
:104230007231365F7363616C653D3078256C582050
:104240007231375F616463766F6C3D307825303250
:104250006C58207230413D30782530326C582072D5
:1042600034345F616463326461633D256C75207230
:1042700034345F6164636461745F73656C3D256CA5
:10428000752072785F6F76723D256C7520736F664E
:10429000745F6672616D65733D256C752062636C39
:1042A0006B5F746F3D256C75206C72636B5F746F10
:1042B0003D256C752070696E5F686967683D256C87
:1042C000752070696E5F65646765733D256C750D5B
:1042D0000A0000005B25732D72787261775D206C97
:1042E0006566745F7065616B3D256C7520726967EA
:1042F00068745F7065616B3D256C75206C656674D4
:104300005F6E7A3D256C752072696768745F6E7A9E
:104310003D256C752074696D656F7574733D256CF2
:1043200075206F76657272756E733D256C7520739E
:104330006F66745F6672616D65733D256C75206292
:10434000636C6B5F746F3D256C75206C72636B5F83
:10435000746F3D256C752070696E5F686967683D94
:10436000256C752070696E5F65646765733D256CAB
:10437000750D0A005B7265636F72642D73746167FB
:10438000655D202573206D6F64653D256420737223
:104390003D256C752063683D256C752074783D253E
:1043A0006C752072783D256C75206C706B3D256CAA
:1043B000752072706B3D256C75206C6E7A3D256C96
:1043C0007520726E7A3D256C7520736F66743D257D
:1043D0006C7520746F3D256C75206F763D256C756E
:1043E000207231363D30782530326C5820723137AA
:1043F0003D30782530326C58207234343D30782589
:1044000030326C58206572723D25640D0A00000040
:104410005B7265636F72642D73746167655D2063A1
:1044200061707475726520646F6E65207065616B74
:104430003D256C75206D65616E3D256C75206D693F
:104440006E3D2564206D61783D2564206761696E4D
:104450003D256C750D0A000078440008000000201E
:10446000540000006C010008CC44000854000020F7
:10447000449D0000880100080100000000000000C9
:10448000010000000000000000000000000000002B
:1044900000000000300000000200000000000000EA
:1044A000000000000000000000000000000000000C
:1044B00000000000000000000204060800000000E8
:0C44C000010203040102030406070809BE
:0400000508000131BD
:00000001FF
