:020000040800F2
:10000000909D0020E90100080F0C00089F0A0008DD
:100010000D0C0008D9070008B1100008000000000E
:100020000000000000000000000000000B0E0008AF
:100030001509000800000000890C0008CD0E00081A
:10004000030200080302000803020008030200087C
:10005000030200080302000803020008190900084F
:10006000030200080302000803020008030200085C
:10007000030200080302000803020008030200084C
:10008000030200080302000803020008030200083C
:10009000030200080302000803020008030200082C
:1000A000030200080302000803020008030200081C
:1000B000030200080302000803020008030200080C
:1000C00003020008030200080302000803020008FC
:1000D00003020008210F00080302000803020008C1
:1000E00003020008030200080302000803020008DC
:1000F00003020008030200080302000803020008CC
:1001000003020008030200080302000803020008BB
:1001100003020008030200080302000803020008AB
:10012000030200080302000803020008030200089B
:1001300000F002F800F048F80AA090E8000C8244B1
:100140008344AAF10107DA4501D100F03DF8AFF28E
:10015000090EBAE80F0013F0010F18BFFB1A43F0A5
:1001600001031847083C0000283C0000103A24BF57
:1001700078C878C1FAD8520724BF30C830C144BF0C
:1001800004680C607047000000230024002500264E
:10019000103A28BF78C1FBD8520728BF30C148BFEA
:1001A0000B607047642900F09D80752900F09A80EB
:1001B000782900F0D380732900F0AA8200207047CC
:1001C0001FB51FBD10B510BD00F0D4FA1146FFF7E2
:1001D000F7FF03F003F800F0F2FA03B4FFF7F2FFC1
:1001E00003BC00F06DFF0000094880470948004744
:1001F000FEE7FEE7FEE7FEE7FEE7FEE7FEE7FEE7D7
:10020000FEE7FEE704480549054A064B7047000033
:10021000D10E000831010008907B0020909D002045
:10022000907D0020907D0020704700000FB40449AD
:1002300010B503AA029800F06FFA10BC5DF814FB29
:100240000400002070B5044685690068C10601D528
:10025000302600E02026C00707D070BDD4E9012178
:1002600030469047206A401C20626D1EF6D570BD56
:1002700070B5044685690078C00707D170BDD4E920
:10028000012120209047206A401C20626D1EF6D577
:1002900070BD70B50C460546012A05D02878800649
:1002A00000D5EA69002302E0012305E05B1C9342CC
:1002B00002D2E05C0028F9D1A869E618C01AA8614A
:1002C000286A184428622846FFF7BCFF04E0D5E9F5
:1002D000012114F8010B9047B442F8D32846FFF7E8
:1002E000C7FF70BD2DE9F04106460024106875294E
:1002F000314616A510D0AFF30080002802DA404244
:1003000013A507E031688A0701D512A502E0490765
:1003100004D511A5012401E0AFF3008000210A22D9
:1003200006F1240709E0B0FBF2FCB0FBF2F302FB9C
:100330001C00303078541846491C0028F3D123465D
:100340002A463046BDE8F04100F077B900000000D1
:100350002D0000002B0000002000000070B50446B6
:100360000D4621461068AFF300802188090502D5AB
:100370000F4A7A4402E00E4A7A440E32002104F118
:10038000240305E000F00F060009965D5E54491C49
:100390000028F7D120780023000704D5702D02D063
:1003A00009B1022311322046BDE8704000F045B982
:1003B0006E3200002DE9F05F894604464FF0000AD6
:1003C000DFF874B1FB44C0F820A02046E1688847FC
:1003D000002874D0252806D0D4E901219047206A4E
:1003E000401C2062F1E700265F462046E16888470E
:1003F0002028054607DB312D05D2781910F8200C8E
:1004000008B10643F1E7B00701D526F00406C4F8A9
:100410001CA00027C4F818A02A2D09D0284600F0F7
:1004200048FE38B304EB8708303DC8F8185019E08F
:1004300059F8041B204604EB87029161E168884764
:10044000012F054618D1E069002820DA26F02006A1
:100450001DE0D8F8180000EB800005EB40003038B4
:10046000C8F818002046E1688847054600F021FEDC
:100470000028EED1012F0AD02E2D08D12046E168A8
:1004800088477F1C0546022F46F02006C4DBA06982
:10049000002803DA404246F00106A061F00701D0CF
:1004A00026F010066C2D0BD0682D09D04C2D39D0BC
:1004B0006A2D35D0742D35D07A2D33D016E038E042
:1004C000E1682F4620468847B842054609D16C2F7F
:1004D00026D04FF48060E1680643204688470546F1
:1004E00004E06C2F1AD04FF4807006430DB3A5F1D1
:1004F0004100192802D8203546F400664A462946AC
:10050000204626604E46FFF74DFE80B101280BD0F5
:10051000F61D26F0070000F1080956E74020E4E741
:100520008020D8E70020D6E706F104094DE72846E9
:1005300052E7206ABDE8F09F4432000010B5203A2F
:10054000C0F00B80B1E81850203AA0E81850B1E88C
:100550001850A0E81850BFF4F5AF5FEA027C24BF42
:10056000B1E81850A0E8185044BF18C918C0BDE839
:1005700010405FEA827C24BF51F8043B40F8043B02
:1005800008BF7047D20728BF31F8023B48BF11F8B7
:10059000012B28BF20F8023B48BF00F8012B704711
:1005A0004FF000020429C0F0128010F0030C00F09C
:1005B0001B80CCF1040CBCF1020F18BF00F8012B1A
:1005C000A8BF20F8022BA1EB0C0100F00DB85FEAE8
:1005D000C17C24BF00F8012B00F8012B48BF00F8B4
:1005E000012B70474FF0000200B513469446964623
:1005F000203922BFA0E80C50A0E80C50B1F1200136
:10060000BFF4F7AF090728BFA0E80C5048BF0CC0E3
:100610005DF804EB890028BF40F8042B08BF704741
:1006200048BF20F8022B11F0804F18BF00F8012BB3
:10063000704770477047704770472DE9F0470D4687
:1006400099469246044600F124080168880604D5BC
:10065000E06921F01001216000E00120A84201DDE5
:10066000471B00E00027A1697A1902EB0900081A6C
:10067000A0612078C00602D42046FFF7E3FD0026E3
:1006800008E0D4E901211AF806009047206A401CCE
:10069000761C20624E45F4DB2078C0060AD5204641
:1006A000FFF7D0FD06E0D4E9012130209047206A11
:1006B000401C2062381EA7F10107F4DC07E0D4E9F2
:1006C000012118F805009047206A401C2062281E6E
:1006D000A5F10105F3DC2046FFF7CAFD20780006EE
:1006E00002D50220BDE8F0870120FBE710B5436981
:1006F00013B1AFF3008001E0FFF7CBFD012010BD87
:10070000127800F124010A7000224A700122EDE7FC
:1007100011684FF0FF32E9E7074B70B50D467B4497
:1007200000F011F80446284600F020F810B14FF010
:10073000FF3070BD204670BDCB29000001694A1C06
:1007400002610878704700B58FB0CDE90131002112
:10075000059105497944CDE9031011466846FFF734
:1007600029FE0FB000BD0000E5FFFFFF007B00F099
:1007700080007047754600F02BF8AE4605006946CC
:10078000534620F00700854618B020B5FFF73AFD24
:10079000BDE820404FF000064FF000074FF0000882
:1007A0004FF0000B21F00701AC46ACE8C009ACE803
:1007B000C009ACE8C009ACE8C0098D46704710B567
:1007C0000446AFF300802046BDE81040FFF705BDAA
:1007D00000487047307B0020FEE70029016802D006
:1007E00041F0010102E04FF6FE72114001607047D6
:1007F00001684FF6FE721140016000210160416006
:100800008160C1603149314A0839904203D148685A
:1008100040F00F0006E02D4A1432904204D148689F
:1008200040F0F00048607047284A2832904203D1D7
:10083000486840F47060F5E7244A3C32904203D1A6
:10084000486840F47040EDE7204A5032904203D1AE
:10085000486840F47020E5E71C4A6432904203D1B6
:10086000486840F47000DDE7184A7832904203D1BE
:10087000486840F07060D5E7154A111F904203D1D7
:10088000086840F00F0006E0114A1432904204D18B
:10089000086840F0F000086070470D4A2832904226
:1008A00003D1086840F47060F5E7094A3C32904291
:1008B00003D1086840F47040EDE7054A5032904299
:1008C000EAD1086840F47020E5E700000800024023
:1008D00008040240406880B2704730B5036847F6AC
:1008E000F07293430C6A8A682243D1E904452C4391
:1008F00022438C692243CC6922434C6A22438C6A8E
:1009000022431A430260CA6842600A6882604968EA
:10091000C16030BD7047000010B5104C0221204668
:1009200000F0A6F8012812D10A2001F015FF0221DB
:10093000204600F09DF8012809D10948017859B1F5
:10094000002202704FF48041064800F0A3F8BDE891
:100950001040022000F008B80122F2E70018014020
:1009600000000020001401400149086070470000A9
:1009700014040140F0B5CA78002502F00F03D20636
:1009800001D58A7813430A784FF00F0E12F0FF0F4B
:100990004FF001021CD004680F8802FA05F63740B8
:1009A000B74211D14FEA850C0EFA0CF724EA07077B
:1009B00003FA0CF43C43CF78282F02D0482F02D002
:1009C00002E0466100E006616D1C082DE4D304607E
:1009D0000C88FF2C1ED944685FF0000606F108075A
:1009E00002FA07F50F882F40AF420FD14FEA860C6D
:1009F0000EFA0CF7BC4303FA0CF73C43CF78282FD0
:100A000000D14561CF78482F00D10561761C082EB2
:100A1000E4D34460F0BD0000F0B5144C002801DAC6
:100A2000E36900E06368420D120185B2C0F301572B
:100A30009540C0F30346032F05D0C2020AD5032216
:100A4000B240934307E023F07062636823F0706361
:100A5000636002E0AB4343F0706201B12A430028B7
:100A600001DAE261F0BD6260F0BD0000000001400B
:100A70000246002092680A4200D0012070470246D8
:100A80000020D2680A4200D00120704741617047BF
:100A9000016170470AB10161704741617047FEE72B
:100AA0000029818B02D041F4806101E021F4806152
:100AB00081837047F0B505460C4602200021AA8BC1
:100AC00085B001264FF240031A40AA832884AF8BD9
:100AD000A268022A27D0A08800B10226684600F04A
:100AE00011F9E1880098B1F5007F2DD07101B0FBBC
:100AF000F1F000BF00EB8000A1684000B0FBF1F016
:100B0000401D80B20A21B0FBF1F000F00101401A53
:100B10004FF6FF72C0F34F0002EA0121821EFE2A47
:100B200001D302200021E288084302432A8420885E
:100B30006188A2890843A18811430843384340F4DF
:100B40000060A88305B0F0BD000AD3E72DE9F041AD
:100B50000C46064686B090460121042000F0BAF803
:100B60004FF40070ADF8100003258DF812501820D6
:100B7000244F8DF8130004A93846FFF7FBFE381503
:100B8000ADF810008DF8125048208DF8130004A91C
:100B90003846FFF7EFFE0121880300F09BF80020A4
:100BA0000C21ADF80A10ADF80600174DADF80C0099
:100BB000ADF80800ADF8040000966946284600F03C
:100BC0001DFA0121284600F0D7F9012240F22551F3
:100BD000284600F0FAF9012240F22441284600F0AC
:100BE000F4F925208DF8140001208DF817008DF8F8
:100BF00015408DF8168005A800F00AF806B0BDE88B
:100C0000F08100000008014000380140FEE7704715
:100C100070B50F23C47801780122F4B1144C246814
:100C2000457804F4E064C4F5E064240AC4F10406E1
:100C3000E3408478B5401C402C4301F1E0212301BE
:100C400081F80034007800F01F018A4040098000DC
:100C500000F1E020C0F8002170BD01F01F008240CB
:100C60004809800000F1E020C0F8802170BD00003C
:100C70000CED00E00249084302490860704700009B
:100C80000000FA050CED00E070470000044A00295E
:100C9000516901D0014300E0814351617047000078
:100CA00000100240044A0029D16901D0014300E04C
:100CB0008143D1617047000000100240044A0029BE
:100CC000116901D0014300E08143116170470000C8
:100CD00000100240044A0029916901D0014300E05C
:100CE000814391617047000000100240044A0029CE
:100CF000D16801D0014300E08143D160704700001A
:100D00000010024030B51F494A6812F00C031E4A19
:100D100003D0042B01D0082B21D002604A680F2396
:100D20001A4C03EA1212A35C0268DA4042604B6874
:100D3000072505EA1323E35C22FA03F383604B687B
:100D400005EAD323E35CDA40C2604968032303EA7F
:100D50009131231F595CB2FBF1F1016130BD4A684A
:100D60004B6802F470124FF0020413F4803F04EB5E
:100D7000924202D04B689B0301D5054B00E0024B29
:100D80005A43CAE70010024000127A0040000020D7
:100D900000093D00002A828801D00A4300E08A430E
:100DA00082807047114910B588420AD1841401210C
:100DB0002046FFF79BFF2046BDE810400021FFF7CB
:100DC00095BF0B49884202D10121041404E009496E
:100DD00088420AD10121C4132046FFF76FFF204645
:100DE000BDE810400021FFF769BF10BD0030014091
:100DF00000380040003C00400246002012890A42B0
:100E000000D0012070478181704770470CB50021E8
:100E1000264801910091026842F4803202604FF44A
:100E2000A063026802F400320092019A521C0192FF
:100E3000009A12B9019A9A42F3D10268920333D50B
:100E4000012100911A490A6842F010020A600A68FA
:100E500022F003020A600A6842F002020A60416856
:100E6000416041684160416841F48061416041688E
:100E700021F47C114160416841F4E811416001684E
:100E800041F08071016001688901FCD5416821F061
:100E900003014160416841F0020141604168C1F3D2
:100EA00081010229FAD10CBD00910CBD0010024055
:100EB000002002404FF0E0210428086903D020F010
:100EC00004000861704740F00400FAE77047000032
:100ED0000F4810B5016841F00101016041680D4AF9
:100EE0001140416001680C4A11400160016821F421
:100EF00080210160416821F4FE0141604FF41F012F
:100F00008160FFF783FF05494FF00060086010BD66
:100F1000001002400000FFF8FFFFF6FE08ED00E0C1
:100F200070B5124D40F22551284600F02FF8104CB4
:100F3000012601280CD12078802808D2284600F00C
:100F4000B3F80C4A21785054491C217000E06670B7
:100F500040F22441284600F019F8012804D12888DD
:100F60000248001D0088667070BD00000038014016
:100F700001000020500000200029818902D041F4A6
:100F8000005101E021F400518181704730B501F03A
:100F90001F0201240025C1F3421304FA02F2012BBF
:100FA0000FD0022B0FD0838A4FEA11210088134201
:100FB00004FA01F400EA040001D000B1012528463A
:100FC00030BD8389F0E7038AEEE710B5C1F3421321
:100FD00001F01F040121A140012B07D0022B07D0F3
:100FE0001430002A026805D00A4304E00C30F8E708
:100FF0001030F6E78A43026010BD000030B50446A9
:10100000008A85B00D464CF6FF710840E98801431F
:101010002182A1894EF6F3100140A8882A89104345
:101020006A890A431043A081A08A4FF6FF41084015
:10103000A9890143A1826846FFF764FE19488442EA
:1010400001D1039800E00298A189090400EBC001D6
:1010500001EB0010296801D5490000E08900B0FBD0
:10106000F1F06422B0FBF2F109010B096FF01805F1
:101070006B4300EB8300A3891D044FF0320306D5B8
:1010800003EBC000B0FBF2F000F0070005E003EB5B
:101090000010B0FBF2F000F00F000843208105B013
:1010A00030BD0000003801408088C0F30800704760
:1010B000FEE730380A2801D201207047002070472F
:1010C000704708B50020009000BF401C0090282801
:1010D000FADB08BD002804DA10F5004F02DC4FF4FB
:1010E000004070474042704770B50D460446406866
:1010F000154951F82010C8106A0700D50844AA07FE
:1011000001D500EB6100EA0701D000EBA1002168E6
:101110002A0701D5081A00E00844206000F0AAF868
:10112000094B206005F00F02403B014653F8222096
:1011300060688018606001D5002002E0582801DD59
:101140005820606008B270BD2034000870B50546B4
:1011500040681D4A2B684FF0000452F82020C81A3E
:101160004FEAE20101D508244042904203DB44F0FB
:101170000404801A1144B0EB620F05DB44F0020452
:10118000A0EB620001EB6201B0EBA20F03DB44F0C5
:10119000010401EBA201200701D5581A00E05818FC
:1011A000286000F067F8084A28602046403A6968DD
:1011B00052F820208918696001D5002102E05829E1
:1011C00001DD5821696070BD203400082DE9FC471D
:1011D00000200090019044F620612348FFF702FAB6
:1011E000DFF88880224DDFF88090002408F58076B3
:1011F00049F640471D4800F0B3FB18B14FF0FF30EF
:10120000BDE8FC87B8F9000001021CB1EA68891A40
:1012100002EB2121A0EB2120E9600912F16300F02B
:1012200029F801B2A8F80010204600F08DF9B8F9AD
:1012300000106846FFF78AFF01466008E2070FD0FA
:1012400019F8003043EA011309F80030641CBC426D
:10125000D0D337606868B0FBF7F0F0610020CFE7CB
:1012600009F80010F2E70000D0000020F04E002046
:1012700008000020B0F5004F02DB47F6FF70704712
:1012800002498842FBDA0846704700000080FFFFF1
:101290002DE9F04140F6E8115748FFF7A3F9564C05
:1012A00001204FF4FA5605216060C4E9026144F65A
:1012B0002061C4E9041000F023F9304600F0EEFF8D
:1012C00010B14FF0FF3087E000F0A8FE01464FF468
:1012D000AC752A464948FFF731F94748062188305E
:1012E00001F0A0F800F09EFEA064FFF76FFF444FEE
:1012F00048B100F093FE01462A463846FFF71EF932
:101300006FF0010068E000F089FE01462A46384689
:10131000FFF714F93B4A49F640405168B1FBF0F140
:10132000E1619168B1FBF0F0206337490020231898
:101330000F5C03F8787F0F1807F58047401C97F87B
:10134000187E1F720828F2D3A16901204F1E45F6AE
:10135000BF539F4205D2C818B0FBF1F0402800D916
:1013600040201060A06340F6B83000F037F92065E7
:1013700000F054FE01462A462448FFF7DFF800F04B
:1013800065FF10B16FF0020026E000F047FE014655
:101390002A461F48FFF7D2F8304601F0E9F84FF42B
:1013A0007A7001F00FF8E06400F036FE00F036FECF
:1013B00001462A461748FFF7C1F800F033F8164EE9
:1013C00068B100F029FE00F029FE01462A463046A9
:1013D000FFF7B4F86FF003006065BDE8F08100F03E
:1013E0001BFE00F01BFE01462A463046FFF7A6F81A
:1013F00000206065F1E70000F04F0020C851002098
:101400002053002008000020D00000202857002092
:1014100078540020D05500208058002000487047A4
:10142000F04F00202DE9FC5F0020DFF8C090009015
:101430000646DFF8BC80DFF8BCB0A9F5807A0190E1
:1014400002E0A71B802F02D98027002501E000259C
:1014500032E070190BEB5001C00709780CD0090974
:101460006846FFF741FED8F800104843B0F5004F3A
:1014700005DB47F6FF7406E001F00F01F0E71E4CB4
:10148000A04200DB04B22AF815402046FFF722FEF6
:101490000146D9F82C2048468A4200D2C1621CB1CC
:1014A000426B521CC9F83420D8F8082049F6404451
:1014B00011446D1CC8F80810BD42CAD30122394638
:1014C0000E4800F021FF18B14FF0FF30BDE8FC9F3F
:1014D0003E44A642B5D3D8F8081049F64040B1FBC7
:1014E000F0F10020C9F83010F0E70000F04F0020C4
:1014F00008000020D00000200080FFFFF04E0020F8
:101500000F4900200122486088600A60C8600D49C8
:1015100047F6FF738A63DA43C1E91032203941F894
:10152000780F48608860C860064960318860C8608C
:10153000086148618861C8610862486270470000BC
:1015400008000020F04F002070B505460C46084604
:10155000FFF7C0FD01461948026CA24200DD046499
:10156000426CA24200DA446482698A4200D28161FC
:10157000134A5342ECB1066A761C06629C4201DAB9
:10158000944202DC826A521C82620C48082D00EBF5
:10159000450001D2A0F8584049F63842954203D39D
:1015A000A0F5A030A0F8F847064842681144416011
:1015B00070BD426A521C4262E7E70000F04F002013
:1015C0000880FFFF08000020002804DA10F5004F13
:1015D00002DC4FF400407047404270472DE9F84369
:1015E000214E04460020B1688DF8000009B94BF681
:1015F000803161434FF47A70B1FBF0F769464420C3
:1016000001F0E6FC4FF0FF3858BB9DF8000040F0B9
:101610008001442001F024FD0546142001F09CF8CF
:101620004FF400511148FFF731FA00F033F8D6F8C3
:101630005401022801D0002408E0204601F08CF873
:1016400008E00021084600F0A9FC641CBC42F8D365
:1016500000F0C6FB9DF80010442001F001FD284376
:1016600000D04046BDE8F883D87900200010014042
:1016700032214843642190FBF1F1B1F5004F02DBC8
:1016800047F6FF70704702488142FBDB08B27047A3
:101690000080FFFF38B56946002001F099FCAA4C94
:1016A00010B99DF80000A0616946012001F090FC8E
:1016B00010B99DF80000E0616946022001F088FC45
:1016C00010B99DF8000020626946032001F080FCFB
:1016D00010B99DF8000060626946042001F078FCB2
:1016E00010B99DF80000A0626946052001F070FC69
:1016F00010B99DF80000E0626946062001F068FC20
:1017000010B99DF8000020636946072001F060FCD5
:1017100010B99DF8000060636946082001F058FC8C
:1017200010B99DF80000A0636946092001F050FC43
:1017300010B99DF80000E06369460A2001F048FCFA
:1017400010B99DF80000206469460B2001F040FCB0
:1017500010B99DF80000606469460C2001F038FC67
:1017600010B99DF80000A06469460D2001F030FC1E
:1017700010B99DF80000E06569460E2001F028FCD4
:1017800010B99DF80000206669460F2001F020FC8A
:1017900010B99DF8000060666946102001F018FC41
:1017A00010B99DF80000A0666946112001F010FCF8
:1017B00010B99DF80000E0666946122001F008FCAF
:1017C00010B99DF8000020676946132001F000FC65
:1017D00010B99DF8000060676946142001F0F8FB1D
:1017E00010B99DF80000A0676946152001F0F0FBD4
:1017F00010B99DF80000E0676946162001F0E8FB8B
:1018000018B99DF80000C4F880006946172001F05F
:10181000DFFB18B99DF80000C4F884006946182061
:1018200001F0D6FB18B99DF80000C4F8880069469D
:10183000192001F0CDFB18B99DF80000C4F88C0008
:1018400069461A2001F0C4FB18B99DF80000C4F8DD
:10185000900069461B2001F0BBFB18B99DF8000001
:10186000C4F8940069461C2001F0B2FB18B99DF839
:101870000000C4F898006946252001F0A9FB18B9BA
:101880009DF80000C4F89C006946312001F0A0FBDF
:1018900010B99DF8000020656946322001F098FBE0
:1018A00010B99DF80000E0646946332001F090FB18
:1018B00010B99DF8000060656946342001F088FB8E
:1018C00010B99DF80000A0656946372001F080FB43
:1018D00018B99DF80000C4F8A0006946442001F042
:1018E00077FB18B99DF80000C4F8A40017480088D9
:1018F00044F8A80F15481430008860601348183069
:101900000088A0601148001F0088E060104800684F
:1019100020611048006860610F488168A1610C492E
:10192000091D0968E1610B49091D09682162C16847
:1019300061620A494968A1624114FFF7A0F8E062B8
:1019400000F0D8FE38BD0000D8790020083C0040E7
:1019500008080140080C014000100140001002403E
:101960002DE9F041254C86B005004FF0FF311CD029
:101970000120E060224802AF03AE05AA04A9D4F812
:101980000480406800F04EFE04F58670011FCDE92A
:101990000010DDE904233146384600F033F850B139
:1019A0006FF0020006B0BDE8F0816FF00400C4F8EB
:1019B00050010846F6E7D4F8FC00401CC4F8FC00CF
:1019C000BDF90C20BDF90810404600F045F8BDF9FE
:1019D0000C00FFF7F9FD0646BDF90800FFF7F4FD1E
:1019E000864202D9BDF80C0001E0BDF8080028804D
:1019F0006068401C60600020D4E70000D8790020B7
:101A0000180000202DE9F84F8146DDE90AA41E46A2
:101A100017468846012000F047FE4FF0FF35C0B959
:101A2000002000F041FEA0B95346324639464846F0
:101A3000009400F0A9FD60B9012000F035FE40B926
:101A40005346324639464046009400F09DFD00283A
:101A500000D02846BDE8F88F2DE9F041074614462E
:101A60000D460846FFF7B0FD06462046FFF7ACFDE1
:101A700001461B48D0F8E420B24201D2C0F8E4602D
:101A8000D0F8E8208A4201D2C0F8E81025B1D0F899
:101A9000EC10491CC0F8EC1024B1D0F8F010491C2F
:101AA000C0F8F010082F05D200EB4701A1F8105143
:101AB000A1F820415FF0000100EB4102491CB2F89F
:101AC0003231A2F83031B2F84231A2F84031072960
:101AD000F2D3A0F83E51A0F84E41BDE8F0810000DD
:101AE000D879002070B501F049FA10B14FF0FF30FD
:101AF00070BD3F21002001F0B3FA04460A2000F037
:101B00002BFE8021002001F0ABFA0443022000F0FC
:101B100023FE3021012001F0A3FA0443002102201A
:101B200001F09EFA04431021032001F099FA0443C6
:101B30002421162001F094FA04431021042001F01E
:101B40008FFA04430021052001F08AFA04430021A2
:101B50000B2001F085FA044300210C2001F080FAEB
:101B600004431F21102001F07BFA04437F21112040
:101B700001F076FA04430F21062001F071FA0443C4
:101B8000FF21072001F06CFA04430421082001F032
:101B900067FA04430C21092001F062FA04434C2146
:101BA0000A2001F05DFA04430821442001F058FAAC
:101BB00004430021312001F053FA0443BF213220B5
:101BC00001F04EFA04430021332001F049FA0443A6
:101BD0000021342001F044FA044301210D2001F0DA
:101BE0003FFA0443782000F0B7FD02210E2001F0F7
:101BF00037FA04430121122001F032FA0443102184
:101C0000132001F02DFA04431A21142001F028FAC0
:101C1000044306210D2001F023FA04431E2000F0A6
:101C20009BFD0021252001F01BFA40EA04053F211D
:101C3000012001F015FA40EA0504FFF72BFD2046CC
:101C400070BD70B501F09AF910B14FF0FF3070BD62
:101C50003F21002001F004FA04460A2000F07CFD38
:101C60008021002001F0FCF90443022000F074FD03
:101C70003021012001F0F4F904430021022001F099
:101C8000EFF904431021032001F0EAF90443202175
:101C9000042001F0E5F904430021052001F0E0F9FA
:101CA00004430321062001F0DBF90443002107204F
:101CB00001F0D6F90443FF21082001F0D1F90443D3
:101CC0000C21092001F0CCF904430C210A2001F079
:101CD000C7F9044300210B2001F0C2F9044300219D
:101CE0000C2001F0BDF9044301210D2001F0B8F9E9
:101CF0000443782000F030FD02210E2001F0B0F9FD
:101D0000044300210F2001F0ABF940EA0405002153
:101D1000122001F0A5F940EA05041021132001F07A
:101D20009FF904431A21142001F09AF90443402139
:101D3000152001F095F904432721162001F090F9B0
:101D40000443C821172001F08BF904430021182017
:101D500001F086F904430021192001F081F90443C0
:101D600000211A2001F07CF904430A211B2001F014
:101D700077F904436A211C2001F072F90443002121
:101D8000312001F06DF90443BF21322001F068F9E0
:101D900004430021332001F063F90443002134207F
:101DA00001F05EF904430821372001F059F904439A
:101DB0000021442001F054F9044301210D2001F0D9
:101DC0004FF940EA04051E2000F0C6FC3F21012027
:101DD00001F046F940EA0504FFF75CFC204670BDBF
:101DE0002DE9F041002600F0B9F804460C4D0D4FE6
:101DF0000BE000BF00F0B2F8A04202D0002604467B
:101E000002E0761CBE4206D800BFE86918B1D5E9E9
:101E100005018142EED8BDE8F04100F06BBC000046
:101E20001800002000127A00084810B5C069002888
:101E30000AD00748FEF74EFD4FF48051884200D982
:101E400008464042C0F30B0010BD000018000020FF
:101E50001C04024070B500F081F80A4C0546A069E8
:101E6000A8420DD8206A4FF40051401C2062064859
:101E7000FEF796FB05F58065C5F30B00A561A06034
:101E800070BD000018000020D859002070B54FF434
:101E900000548CB021462048FEF782FB012102202D
:101EA000FEF7F4FE1D4E00213046FEF796FC30464C
:101EB000FEF79EFC1A4800901748019010200290EF
:101EC00000020025CDE90305802005904000069022
:101ED0008000079008AA202082E831006946304639
:101EE000FEF7FBFC0E48012202210C38FEF752FFE0
:101EF00001213046FEF771FC0A4C0120E061FFF73A
:101F000093FFC4E90305606100F58060A061C0F340
:101F10000B00A0600CB070BDD85900201C0402401A
:101F20000C3C00401800002010B500220221084897
:101F3000FEF730FF00210748FEF74FFC064800215E
:101F4000C1618160C16001614161816110BD0000BA
:101F5000003C00401C0402401800002010B5FFF7B0
:101F600063FF0649CA68904202D20A69521C0A619C
:101F7000C8600A6900EB0230486110BD18000020FB
:101F800010B5FFF7EBFF04498969814201D80020B1
:101F900010BD081A10BD0000180000202DE9F04700
:101FA0001A4C0646DFF86880E0690D4618B1022732
:101FB0004FF47E6909E0304600F0ACFB284600F0A3
:101FC000A9FB1CE0FFF746FF00BFFFF7D9FF48451C
:101FD000F8D2C0F57E60B842F4D3FFF73BFF0D4A5C
:101FE000A06822F81060401CC0F30B01A06922F821
:101FF0001150491CC1F30B01801CA160A061D8F8ED
:102000000010491CC8F80010BDE8F0871800002037
:10201000D8790020D8590020FFF7E2BE0048704769
:10202000D87900200148406870470000180000205F
:102030002DE9F84301211D20FEF74CFE0121CE03BE
:102040003046FEF72FFE01210220FEF71FFE012180
:102050002648FEF7E1FC03208DF80200C020ADF811
:1020600000001420DFF888808DF8030069464046A0
:10207000FEF780FC01F05EF801F044F8022000F069
:102080006BFBB4101B4FADF8004010258DF80350CA
:1020900069463846FEF76EFC21463846FEF7F6FCE8
:1020A0008020ADF8000018248DF8034069463846BA
:1020B000FEF760FCADF800608DF8034069460E48FD
:1020C000FEF758FC2820ADF800008DF80340694663
:1020D0004046FEF74FFCADF8005004208DF8030099
:1020E00069464046FEF746FCBDE8F8830002300032
:1020F000000C0140001001400008014042F21C5158
:10210000884202D84FF4FA50704743F2BC418842EB
:1021100002D842F61130704744F63821884202D87E
:102120004FF47A50704746F67811884202D845F24B
:102130002260704749F27041884202D84FF4FA4059
:102140007047A0F52740F838B0F5FA6F02D84AF684
:10215000444070474BF68030704700007FB504461E
:10216000FFF7E2FE194E3046FEF71CFE4FF44070BA
:10217000ADF800000025ADF804507015ADF806006C
:10218000ADF802502046FFF7B9FF0290ADF80C50B1
:1021900069463046FEF78EFC01213046FEF780FC92
:1021A0000B490A4808308C600088C1F8A80007482D
:1021B0001C300088C1F8AC00044820300088C1F809
:1021C000B000301D0088C1F8B4007FBD003C004065
:1021D000D87900207FB50546FFF7A6FE194E304698
:1021E000FEF7E0FD70150024ADF80000ADF80440E6
:1021F000ADF80600ADF802402846FFF77FFF0290D9
:10220000ADF80C4069463046FEF754FC01213046DB
:10221000FEF746FCFFF73AFE0B490A4808308D608E
:102220000088C1F8A80007481C300088C1F8AC003D
:10223000044820300088C1F8B000301D0088C1F883
:10224000B4007FBD003C0040D879002010B5FFF7F6
:10225000EFFE012000F07CF90A2000F07DFA4BF639
:102260008030FFF7B7FF0A2000F076FAFFF73AFC5C
:1022700028B108494FF0FF30C1F8500110BD1420BB
:1022800000F06AFA4FF400510348FEF7FFFB00200C
:1022900010BD0000D8790020001001402DE9F04168
:1022A000040001D14BF68034FFF7C2FE022000F09B
:1022B0004FF9134D134F4FF4005631463846AC607A
:1022C000FEF7E6FB0A2000F047FA2046FFF746FF3C
:1022D0000A2000F041FAFFF7B4FC30B16FF00100C2
:1022E000C5F850014010BDE8F081142000F034FA28
:1022F00031463846FEF7CCFBFFF7CCF90020F2E779
:10230000D8790020001001402DE9F0412A4C1746F1
:102310000E4605001ED0EEB12848E7600088C4F8DC
:10232000A800264814300088C4F8AC004FF40051CF
:102330002348FEF7A4FBC4F8D40000F0DBF9012F1A
:102340000ED0022F1ED06FF00300C4F850014010D1
:10235000BDE8F0816FF00200C4F850018010F7E78B
:1023600000240CE035F91400FFF782F9074635F92F
:102370001400FFF77DF93946FFF710FE641CB442E4
:10238000F0D314E0002410E005EB840135F92400BB
:10239000B1F90210084400EBD070401000B2FFF712
:1023A00067F90146FFF7FAFD641CB442ECD300F074
:1023B000A1F90020CCE70000D8790020083C0040BB
:1023C000001001402DE9F0411449896809B94BF624
:1023D000803141434FF47A70B1FBF0F7002430268E
:1023E000DFF83C8015E000BFB4FBF6F006FB1041BF
:1023F00038F91100FFF73CF90546B4FBF6F006FB8F
:10240000104138F91100FFF733F92946FFF7C6FDEF
:10241000641CBC42E8D30020BDE8F081D8790020DC
:10242000843500082DE9F34F484889B0406805908D
:1024300000200490099808B1062904D24FF0FF301B
:102440000BB0BDE8F08FC1EBC100C1000998FEF7E9
:10245000C9F800250998C5EBC5014FF0000900EB4C
:10246000C104CA46CB4603AA02A9284600F0DAF8FE
:102470002560029860600398002604F12C0704F19F
:102480002808A060CDE90087DDE9022307A906A896
:10249000FFF7B8FAB0BBBDF91800FFF795F8009048
:1024A000BDF91C00FFF790F8226900998A4200D21A
:1024B00021616169814200D26061BDF9181011B1DA
:1024C000A069401CA061BDF91C0010B1E269521C5A
:1024D000E261BBF1000F0AD0494502D0226A521CCA
:1024E0002262504507D0626A521C626203E0218674
:1024F00060864FF0010BA186761C89468246E086F5
:10250000402EBFD3A169E06A4218D4E908100B1825
:1025100003EB4307C7EBC313E76907EBC3031A4495
:10252000E26001B918B1402E01D3104601E000204D
:10253000E0600499884201D9CDE904056D1C062D9F
:1025400088D3024905984860002079E718000020E8
:1025500010B504464FF4AC710448FEF743F8034845
:102560004BF68031C0F85441816010BDD87900200D
:10257000002805D003498968814201D0FFF72ABEAF
:1025800070470000D87900202DE9FF5FDFF89080C8
:102590008346DDF838A0D8F8000099460F4600249D
:1025A00000F01005264604E0029800F044F840B917
:1025B000761CBE42F8D300264746029800F03BF84E
:1025C00020B14FF0FF3004B0BDE8F09F38684FEA0B
:1025D000440410F010000DD044F00104B9F1000FD4
:1025E00004D0D9F80020521CC9F8002001211DB1E7
:1025F000012202E00021FAE70022914207D0BAF15D
:10260000000F04D0DAF80010491CCAF80010761C3C
:102610000546102ED1D3ABF800400020D3E70000D0
:10262000080C0140062800D30220430800F00100F6
:102630000B601060704710B54FF0FF3420B10120DF
:1026400000F00EF820B906E0002000F009F808B10B
:10265000204610BD0120BDE8104000F001B8000088
:1026600030B544F6206108220D4B0DE0491E0BD217
:102670000C48D0F80011491CC0F800116FF0070198
:10268000C0F85011C81030BD1C68144000D001249F
:1026900008B1012500E00025AC42E7D1002030BDA3
:1026A000080C0140D879002030B50F494FF40042A2
:1026B0000E4B0DE0491E0BD20D48D0F80411491CF9
:1026C000C0F804116FF00801C0F85011081130BDB6
:1026D0001C68144000D0012408B1012500E0002549
:1026E000AC42E7D1002030BD80841E0008080140C4
:1026F000D879002070B5054D054C286A44F8D80FEC
:10270000FFF73EFC6060A868A06070BD1800002064
:10271000D879002070B5074D044602212846FEF7FF
:102720006BFB0028F9D0A1B22846BDE87040FEF747
:102730006ABB0000003C004008B102A0704702A044
:10274000704700004F4B00004641494C000000001C
:102750006FF00400FEF7AEBB42F2283148434FF061
:10276000E021486100228A61086940F001000861A7
:102770000869C30701D0C003FAD508690A618A61F4
:102780007047000030B505460C46D1F85001D831ED
:102790008FB00EC9CDE90612CDE9083004F10C0165
:1027A000D4F8D4000EC9CDE90430CDE90212D4E941
:1027B0000101CDE9000129467D482368D4F8542160
:1027C000FDF734FD04F13C000DF11C0C0FC88CE842
:1027D0000F0004F12C000DF10C0C0FC88CE80F0059
:1027E00004F1200007C88DE80700D4E90623294634
:1027F0007048FDF71BFDD4E91501D4E928230DF13C
:10280000280C8CE80F00D4E913320DF1180CD4F821
:102810008000D4F89C108CE80F0004F16C000DF1DE
:10282000080C0FC88CE80F00D4E91901CDE90001AC
:10283000D4E9172329466048FDF7F8FC04F18C0021
:102840000DF1040C0FC88CE80F00D4F8880000903C
:1028500029465A48D4F88430E26FFDF7E7FC04F1CA
:10286000C0000DF1140C0FC88CE80F0004F1B40186
:10287000D4F8D0000EC90DF1080C01918CE80D00C0
:10288000D4F8B0000090D4E92A2329464C48FDF73B
:10289000CDFC04F580700DF1140C0FC88CE80F000E
:1028A00004F1F0000DF1040C0FC88CE80F00D4F80F
:1028B000EC000090D4E9392329464248FDF7B6FCE4
:1028C000B4F918010DF1080CB4F91E31B4F91C214A
:1028D000B4F91A118CE80F00B4F91611B4F9140107
:1028E000CDE90001B4F91231B4F91021294636A01E
:1028F000FDF79CFCB4F928010DF1080CB4F92E3158
:10290000B4F92C21B4F92A118CE80F00B4F926117E
:10291000B4F92401CDE90001B4F92231B4F9202140
:10292000294634A0FDF782FCB4F938010DF1080CFA
:10293000B4F93E31B4F93C21B4F93A118CE80F00F6
:10294000B4F93611B4F93401CDE90001B4F93231EA
:10295000B4F93021294632A0FDF768FCB4F94801EA
:102960000DF1080CB4F94E31B4F94C21B4F94A1107
:102970008CE80F00B4F94611B4F94401CDE9000127
:10298000B4F94231B4F9402129462FA0FDF74EFC9D
:10299000D4F8540121460228284604D00FB0BDE8DF
:1029A000304000F065B80FB0BDE8304000F01ABA12
:1029B00060390008D0360008203600086437000867
:1029C000BC370008CC3C00085B25732D7278666923
:1029D0007273742D6C5D202564202564202564208D
:1029E00025642025642025642025642025640D0AA3
:1029F000000000005B25732D727866697273742D78
:102A0000725D20256420256420256420256420250E
:102A1000642025642025642025640D0A0000000040
:102A20005B25732D72786C6173742D6C5D20256449
:102A30002025642025642025642025642025642029
:102A400025642025640D0A005B25732D72786C6166
:102A500073742D725D202564202564202564202553
:102A6000642025642025642025642025640D0A0047
:102A70002DE9F34F086987B00C4608B16069E8B3E7
:102A800000208146B4F8AC00C0F303200E2844D0E7
:102A900000208046207FC043800640D05FF00007C2
:102AA00094F8400000F03F000C283AD05FF0000698
:102AB000D4F8D40080B30025206800B10120FFF7CE
:102AC0003BFE00902846FFF737FE83463046FFF76F
:102AD00033FE82463846FFF72FFE06464046FFF794
:102AE0002BFE05464846FFF727FE0246D4F8B030D5
:102AF000A4680098CDE904432B4600E00AE0CDE944
:102B000002B0CDE9006A09480799FDF78FFB09B0CB
:102B1000BDE8F08F0120B4E705E00120B9E7012707
:102B2000BEE70126C4E70125C6E7000064380008B7
:102B300070B58EB0FEF772FC044648300FC8CDE980
:102B4000042004F10C000693039107C88DE80700E8
:102B500094E80E005348FDF769FB04F12001E06B97
:102B60000EC9CDE90330CDE90112E0690090D4E946
:102B700010124D48A369FDF759FBA06B009004F1BA
:102B80002C014AA00EC9FDF751FBB4F9600001AD5C
:102B9000B4F96630B4F96420B4F9621085E80F0026
:102BA000B4F95E000090B4F95C30B4F95A20B4F97D
:102BB00058104EA0FDF73AFBB4F97000B4F9763026
:102BC000B4F97420B4F9721085E80F00B4F96E00FE
:102BD0000090B4F96C30B4F96A20B4F9681050A0D0
:102BE000FDF724FB94F87C0094F87F3094F87E2065
:102BF00094F87D1085E80F0094F87B00009094F81D
:102C00007A3094F8792094F8781051A0FDF70EFBF3
:102C100094F8840094F8873094F8862094F885100E
:102C200085E80F0094F88300009094F8823094F8BF
:102C3000812094F8801056A0FDF7F8FA5FF00005A7
:102C4000C5EBC50004EBC0000DF1240CB0F9B810C1
:102C5000B0F9BE60B0F9BC30B0F9BA208CE84E00D3
:102C600000F1A8010DF1140C4EC98CE84E0000F1E2
:102C700098010DF1040C4EC98CE84E00D0F8941068
:102C80000091D0F89010883009B151A300E052A310
:102C9000D0E900125248FDF7C9FA6D1C062DCFD3BA
:102CA0000EB070BD003A0008843A00085B7265639C
:102CB0006F72642D706C61796261636B5D20706509
:102CC000616B3D256C75206D65616E5F6162733D62
:102CD000256C75206E6F6E7A65726F3D256C752060
:102CE0006761696E3D256C750D0A00005B72656356
:102CF0006F72642D73616D706C65732D666972738C
:102D0000745D202564202564202564202564202509
:102D1000642025642025642025640D0A000000003D
:102D20005B7265636F72642D73616D706C65732D7A
:102D30006C6173745D202564202564202564202542
:102D4000642025642025642025642025640D0A0064
:102D50005B7265636F72642D616470636D2D66696B
:102D60007273745D2025303258202530325820256A
:102D70003032582025303258202530325820253026
:102D80003258202530325820253032580D0A0000A4
:102D90005B7265636F72642D616470636D2D6C612D
:102DA00073745D202530325820253032582025306C
:102DB00032582025303258202530325820253032E4
:102DC00058202530325820253032580D0A00000096
:102DD00066616C6C000000007269736500000000A1
:102DE000D43800082DE9F34F08698DB00C4608B1BE
:102DF0006069A8B100200390B4F8AC00C0F30320D0
:102E00000F280FD000208346207FC04380060BD0C0
:102E10000020824694F85C0010F0F00F06D00AE023
:102E20000120E8E70120EEE70120F2E794F86000D6
:102E300010F0700F08D000208146A06F410605D425
:102E4000C00603D5012002E00120F5E700208046FE
:102E500094F8400000F03F000C2817D05FF0000607
:102E600094F8340040F3001594F8A4006D1C10F0A1
:102E7000700F0DD05FF00000D4F8E410202903D8C3
:102E8000D4F8E810202905D9012704E00126E7E756
:102E90000120F1E70027FFF74FFC01902846FFF7DC
:102EA0004BFC00903046FFF747FC02904046FFF78E
:102EB00043FC80464846FFF73FFC06465046FFF776
:102EC0003BFC05465846FFF737FC81460398FFF761
:102ED00033FC02460FB123A300E023A3DDE9000188
:102EE0000DF1100A079321A78AE883000298CDE923
:102EF0000056CDE902804B461E480D99FDF796F924
:102F000004F5807409AF0FCC87E80F0014F86C0C3F
:102F100054E90612C0F30213C0F3C010CDE9050353
:102F2000CDE9071214F8900C01AF00F00F0214F86D
:102F3000980C54F8D05C54F88C3C00F00F0187E8F2
:102F40002E00C0F30011C0F38013009114F8DC0CC4
:102F50000D99C0F300120848FDF768F90FB0BDE8FD
:102F6000F08F0000594553004E4F000049474E4F27
:102F700052454400383B0008D83B000870B530206B
:102F800000F01AF80A4C0B4D50B1322000F014F842
:102F900040B100202861FF2068614FF0FF3070BD14
:102FA000302000E0322020702861002070BD000039
:102FB00018000020D879002010B5044600F0E3F88E
:102FC00020468022BDE81040002100F077B80000C4
:102FD00010B5044600F008F8002801D001494C6102
:102FE00010BD0000D87900202DE9F0410E460746BB
:102FF00000F0BEF8194D287800F0CEF804463846A7
:1030000000F0CAF8044300F0B3F8287840F001005B
:1030100000F0C2F8204307001AD1002400F08AF81B
:1030200000256006040E00F06DF800F09BF808B172
:1030300044F0010400F072F86D1C082DF1DB00F083
:1030400079F800F05FF800F069F800F073F8347078
:1030500000F099F83846BDE8F08100001800002023
:103060002DE9F84306460020124F88468DF80000EF
:10307000044642463146387800F020F805000BD06F
:103080000220FFF769FB69463046FFF7ADFF30B914
:103090009DF80010414502D10020BDE8F8830220D0
:1030A000FFF75AFB641C032CE3DB03484661284608
:1030B000F3E7000018000020D879002070B515460D
:1030C0000C46064600F054F8304600F065F8064617
:1030D000204600F061F840EA0604284600F05CF85B
:1030E00040EA040500F04FF8284670BD04490A88FC
:1030F0005206FCD5024AC1B2121D11807047000071
:103100000038014010B540210348FDF7C1FCBDE87F
:103110001040FDF7D6BF0000000C014010B5402163
:103120000348FDF7B3FCBDE81040FDF7CABF00003F
:10313000000C014010B580210348FDF7A9FCBDE853
:103140001040FDF7BEBF0000000C014010B580210B
:103150000348FDF79BFCBDE81040FDF7B2BF00003F
:10316000000C014080210148FDF782BC000C0140A9
:1031700010B5FFF7DFFFFFF7C5FFFFF7E7FFBDE87B
:103180001040FFF7CBBF10B5FFF7E0FFFFF7BAFF26
:10319000BDE81040FFF7CEBF70B5054600242806F5
:1031A00002D5FFF7C7FF01E0FFF7D0FFFFF7AAFF47
:1031B000FFF7B4FF6806050E641C082CEFDBFFF771
:1031C000B9FFFFF79FFFFFF7CDFF0446FFF7A6FF0C
:1031D00014B14FF0FF3070BD002070BD4FF4A060FF
:1031E000FDF748FDFFF7B4FA022201214FF4E13068
:1031F000FDF7ACFC22A0FDF719F82AA22CA12FA004
:10320000FDF714F835A0FDF711F83FA0FDF70EF813
:103210004B48FDF70BF8FEF73BF80546014649A081
:10322000FDF704F8FFF784FCFEF7F8F8044600F514
:10323000EC714DA0FFF7A6FA04F54C714DA0FFF715
:10324000A1FA04F5E7614EA0FFF79CFA04F591613D
:103250004FA0FFF797FA04F5BC6151A0FFF792FA6F
:1032600004F5096152A0FFF78DFA294654A0FCF736
:10327000DDFF4FF47A742046FFF76EFAFBE700009B
:103280000D0A5B617564696F2D7265636F72645DB1
:1032900020626172656D6574616C20626F6F740D80
:1032A0000A00000031343A34353A31300000000071
:1032B0004A756C2020382032303236005B617564EC
:1032C000696F2D7265636F72645D206275696C64ED
:1032D0002025732025730D0A000000005B617564D2
:1032E000696F2D7265636F72645D2055534152544E
:1032F00031205041392F5041313020313135323079
:103300003020384E310D0A005B617564696F2D7293
:1033100065636F72645D2066773D7265636F72648A
:103320002D35732D6573707265737369662D7265C3
:10333000662D6D6F6E69746F722D7631320D0A00D5
:10334000E83A00085B617564696F2D7265636F729E
:10335000645D207265636F72645F726573756C740F
:103360003D25640D0A0000007265636F72642D696B
:103370006E6974007265636F72642D646F6E6500B0
:103380006D6F6E69746F722D646F6E650000000062
:10339000706C61796261636B2D696E697400000005
:1033A000706C61796261636B2D7265616479000094
:1033B0007265636F72642D6C6F6F706261636B0016
:1033C0005B617564696F2D7265636F72645D206403
:1033D0006F6E65207265636F72643D25640D0A002F
:1033E000FFFFFFFFFFFFFFFFFFFFFFFFFFFFFFFFED
:1033F00002000000040000000600000008000000B9
:10340000FFFFFFFFFFFFFFFFFFFFFFFFFFFFFFFFCC
:103410000200000004000000060000000800000098
:103420000700000008000000090000000A0000007A
:103430000B0000000C0000000D0000000E0000005A
:103440001000000011000000130000001500000033
:1034500017000000190000001C0000001F00000001
:103460002200000025000000290000002D000000BF
:1034700032000000370000003C0000004200000065
:1034800049000000500000005800000061000000EA
:103490006B00000076000000820000008F0000003A
:1034A0009D000000AD000000BE000000D100000043
:1034B000E6000000FD0000001701000033010000DD
:1034C000510100007301000098010000C1010000DB
:1034D000EE010000200200005602000092020000EF
:1034E000D40200001C0300006C030000C3030000B2
:1034F000240400008E040000020500008305000083
:1035000010060000AB06000056070000120800007D
:10351000E0080000C3090000BD0A0000D00B000055
:10352000FF0C00004C0E0000BA0F00004C11000010
:1035300007130000EE1400000617000054190000E5
:10354000DC1B0000A51E0000B621000015250000B0
:10355000CA280000DF2C00005B3100004B36000061
:10356000B93B0000B2410000444800007E4F00001B
:10357000715700002F600000CE69000062740000E7
:10358000FF7F000000001E06210CF01170178C1C3C
:10359000252126259828042B462D642EE02E642E06
:1035A000462D042B9828262525218C1C7017F011F8
:1035B000210C1E060000E2F9DFF310EE90E874E340
:1035C000DBDEDADA68D7FCD4BAD29CD120D19CD128
:1035D000BAD2FCD468D7DADADBDE74E390E810EE16
:1035E000DFF3E2F93031323334353637383941429E
:1035F0004344454640305800303132333435363755
:103600003839616263646566403078000400000800
:103610000000000000000002000100001000000097
:103620005B25732D636F6465632D625D207230448A
:103630003D2530326C58207230453D2530326C5873
:10364000207230463D2530326C58207231303D2595
:1036500030326C58207231313D2530326C58207236
:1036600031323D2530326C58207231333D253032B5
:103670006C58207231343D2530326C58207231360E
:103680003D2530326C58207232353D2530326C5831
:10369000207233313D2530326C58207233323D2553
:1036A00030326C58207233333D2530326C582072E2
:1036B00033343D2530326C58207233373D2530325B
:1036C0006C58207234343D2530326C580D0A00009D
:1036D0005B25732D636F6465632D615D20723030EF
:1036E0003D2530326C58207230313D2530326C58D7
:1036F000207230323D2530326C58207230333D25F7
:1037000030326C58207230343D2530326C58207283
:1037100030353D2530326C58207230363D25303200
:103720006C58207230373D2530326C58207230385A
:103730003D2530326C58207230393D2530326C587E
:10374000207230413D2530326C58207230423D2588
:1037500030326C58207230433D2530326C580D0A9F
:10376000000000005B25732D636F6465632D635D4E
:10377000207231353D2530326C58207231373D256D
:1037800030326C58207231383D2530326C582072FE
:1037900031393D2530326C58207231413D2530326F
:1037A0006C58207231423D2530326C5820723143C2
:1037B0003D2530326C580D0A000000005B25732D4A
:1037C0006D63755D207370695F73723D307825306D
:1037D000346C5820693273636667723D30782530E7
:1037E000346C582069327370723D30782530346CF7
:1037F00058207370695F6372323D30782530346CC5
:1038000058207263635F636667723D307825303895
:103810006C58206770696F5F69647220413D307831
:103820002530346C5820423D30782530346C582097
:10383000433D30782530346C58206770696F5F6F76
:10384000647220413D30782530346C5820423D3040
:10385000782530346C5820433D30782530346C580E
:103860000D0A00005B25732D636865636B5D20693D
:1038700032633D2573206D63755F6D61737465728E
:103880005F74783D257320636F6465635F636C6B61
:10389000733D2573206461635F7364703D257320FD
:1038A000616D705F656E61626C65643D2573207447
:1038B000785F7365656E3D25732073723D256C7569
:1038C0002069327370723D30782530346C580D0A9F
:1038D000000000005B7265636F72642D736F667425
:1038E0002D76256C755D20736B69703D256C752098
:1038F000656467653D25732073636F72653D256C54
:1039000075206C706B3D256C752072706B3D256C5D
:1039100075206C6E7A3D256C7520726E7A3D256C33
:1039200075206C6368673D256C7520726368673D20
:10393000256C7520686967683D256C75206564672E
:1039400065733D256C752066697273743D25642F1F
:103950002564206C6173743D25642F25640D0A0075
:103960005B25735D206D6F64653D25642074785F11
:103970006672616D65733D256C752072785F667245
:10398000616D65733D256C752073723D256C7520E6
:1039900063683D256C7520636F6465635F61646473
:1039A000723D30782530326C58206661696C5F72E8
:1039B00065673D30782530326C5820616D705F70DE
:1039C0006331333D256C7520646D615F756E646590
:1039D000723D256C7520646D615F757365643D256E
:1039E0006C7520646D615F773D256C75206C61732B
:1039F000745F6572726F723D25640D0A00000000ED
:103A00005B7265636F72645D2073616D706C65736A
:103A10005F7065725F6368616E6E656C3D256C7585
:103A20002063683D256C752073723D256C7520649C
:103A300075726174696F6E5F733D256C752061648A
:103A400070636D5F62797465733D256C7520636882
:103A5000756E6B3D256C7520746F6E653D25642019
:103A60006D6F6E69746F723D256420766172696155
:103A70006E743D256C7520726573756C743D25649C
:103A80000D0A00005B7265636F72642D6361707470
:103A90007572655D206D696E3D2564206D61783DB0
:103AA0002564207065616B3D256C75206D65616EC8
:103AB0005F6162733D256C75206E6F6E7A65726F03
:103AC0003D256C75207A65726F3D256C7520636CA1
:103AD00069707065643D256C752064635F657374FF
:103AE0003D25640D0A0000005B617564696F2D72ED
:103AF00065636F72645D207265636F7264207374B6
:103B00006172742035733B207468656E20337320B6
:103B10006164632D646163206D6F6E69746F722CD4
:103B200020317320746F6E652C20706C6179626136
:103B3000636B0D0A000000005B25732D63686563ED
:103B40006B5D206932633D2573206D63755F6D6128
:103B5000737465725F72783D257320636F6465636B
:103B60005F636C6B733D2573206164635F706F7777
:103B700065723D2573206D69635F706174683D25D2
:103B800073206164635F7364703D257320617364A7
:103B90006F75745F70696E3D257320616463646145
:103BA000745F73656C3D2573207370695F6F767207
:103BB0003D257320636170747572653D5042345FBA
:103BC000534F465420617564696F5F7365656E3D40
:103BD00025730D0A000000005B25732D6368656383
:103BE0006B2D64657461696C5D207230375F74722F
:103BF000695F6164636461743D256C752072313462
:103C00005F646D69633D256C75207231345F6C694A
:103C10006E73656C3D256C75207231345F67616928
:103C20006E3D3078256C58207231365F7363616C5D
:103C3000653D3078256C58207231375F616463765A
:103C40006F6C3D30782530326C58207230413D30F9
:103C5000782530326C58207234345F61646332648A
:103C600061633D256C75207234345F616463646107
:103C7000745F73656C3D256C752072785F6F76722A
:103C80003D256C7520736F66745F6672616D657338
:103C90003D256C752062636C6B5F746F3D256C75A0
:103CA000206C72636B5F746F3D256C752070696E5C
:103CB0005F686967683D256C752070696E5F656433
:103CC0006765733D256C750D0A0000005B25732D3B
:103CD00072787261775D206C6566745F7065616B88
:103CE0003D256C752072696768745F7065616B3D16
:103CF000256C75206C6566745F6E7A3D256C752049
:103D000072696768745F6E7A3D256C752074696DA1
:103D1000656F7574733D256C75206F76657272756D
:103D20006E733D256C7520736F66745F6672616D8E
:103D300065733D256C752062636C6B5F746F3D2508
:103D40006C75206C72636B5F746F3D256C752070B1
:103D5000696E5F686967683D256C752070696E5F84
:103D600065646765733D256C750D0A008C3D000820
:103D700000000020500000006C010008DC3D00083D
:103D800050000020409D0000880100080100000054
:103D90000000000001000000000000000000000022
:103DA00000000000300000000200000000000000E1
:103DB0000000000000000000000000000000000003
:103DC00000000000000000000204060800000000DF
:0C3DD000010203040102030406070809B5
:0400000508000131BD
:00000001FF
