:020000040800F2
:10000000E89E0020E9010008170C00089F0A00087C
:10001000150C0008D9070008B910000800000000FE
:10002000000000000000000000000000130E0008A7
:100030001509000800000000910C0008D50E00080A
:10004000030200080302000803020008030200087C
:10005000030200080302000803020008190900084F
:10006000030200080302000803020008030200085C
:10007000030200080302000803020008030200084C
:10008000030200080302000803020008030200083C
:10009000030200080302000803020008030200082C
:1000A000030200080302000803020008030200081C
:1000B000030200080302000803020008030200080C
:1000C00003020008030200080302000803020008FC
:1000D00003020008290F00080302000803020008B9
:1000E00003020008030200080302000803020008DC
:1000F00003020008030200080302000803020008CC
:1001000003020008030200080302000803020008BB
:1001100003020008030200080302000803020008AB
:10012000030200080302000803020008030200089B
:1001300000F002F800F048F80AA090E8000C8244B1
:100140008344AAF10107DA4501D100F03DF8AFF28E
:10015000090EBAE80F0013F0010F18BFFB1A43F0A5
:10016000010318474045000060450000103A24BFD5
:1001700078C878C1FAD8520724BF30C830C144BF0C
:1001800004680C607047000000230024002500264E
:10019000103A28BF78C1FBD8520728BF30C148BFEA
:1001A0000B607047642900F09D80752900F09A80EB
:1001B000782900F0D380732900F0AA8200207047CC
:1001C0001FB51FBD10B510BD00F0D4FA1146FFF7E2
:1001D000F7FF03F081FB00F0F2FA03B4FFF7F2FF40
:1001E00003BC00F071FF0000094880470948004740
:1001F000FEE7FEE7FEE7FEE7FEE7FEE7FEE7FEE7D7
:10020000FEE7FEE704480549054A064B7047000033
:10021000D90E000831010008E87C0020E89E00208B
:10022000E87E0020E87E0020704700000FB40449FB
:1002300010B503AA029800F06FFA10BC5DF814FB29
:100240000400002070B5044685690068C10601D528
:10025000302600E02026C00707D070BDD4E9012178
:1002600030469047206A401C20626D1EF6D570BD56
:1002700070B5044685690078C00707D170BDD4E920
:10028000012120209047206A401C20626D1EF6D577
:1002900070BD70B50C460546012A05D02878800649
:1002A00000D5EA69002302E0012305E05B1C9342CC
:1002B00002D2E05C0028F9D1A869E618C01AA8614A
:1002C000286A184428622846FFF7BCFF04E0D5E9F5
:1002D000012114F8010B9047B442F8D32846FFF7E8
:1002E000C7FF70BD2DE9F04106460024106875294E
:1002F000314616A510D0AFF30080002802DA404244
:1003000013A507E031688A0701D512A502E0490765
:1003100004D511A5012401E0AFF3008000210A22D9
:1003200006F1240709E0B0FBF2FCB0FBF2F302FB9C
:100330001C00303078541846491C0028F3D123465D
:100340002A463046BDE8F04100F077B900000000D1
:100350002D0000002B0000002000000070B50446B6
:100360000D4621461068AFF300802188090502D5AB
:100370000F4A7A4402E00E4A7A440E32002104F118
:10038000240305E000F00F060009965D5E54491C49
:100390000028F7D120780023000704D5702D02D063
:1003A00009B1022311322046BDE8704000F045B982
:1003B000B63900002DE9F05F894604464FF0000A87
:1003C000DFF874B1FB44C0F820A02046E1688847FC
:1003D000002874D0252806D0D4E901219047206A4E
:1003E000401C2062F1E700265F462046E16888470E
:1003F0002028054607DB312D05D2781910F8200C8E
:1004000008B10643F1E7B00701D526F00406C4F8A9
:100410001CA00027C4F818A02A2D09D0284600F0F7
:100420004CFE38B304EB8708303DC8F8185019E08B
:1004300059F8041B204604EB87029161E168884764
:10044000012F054618D1E069002820DA26F02006A1
:100450001DE0D8F8180000EB800005EB40003038B4
:10046000C8F818002046E1688847054600F025FED8
:100470000028EED1012F0AD02E2D08D12046E168A8
:1004800088477F1C0546022F46F02006C4DBA06982
:10049000002803DA404246F00106A061F00701D0CF
:1004A00026F010066C2D0BD0682D09D04C2D39D0BC
:1004B0006A2D35D0742D35D07A2D33D016E038E042
:1004C000E1682F4620468847B842054609D16C2F7F
:1004D00026D04FF48060E1680643204688470546F1
:1004E00004E06C2F1AD04FF4807006430DB3A5F1D1
:1004F0004100192802D8203546F400664A462946AC
:10050000204626604E46FFF74DFE80B101280BD0F5
:10051000F61D26F0070000F1080956E74020E4E741
:100520008020D8E70020D6E706F104094DE72846E9
:1005300052E7206ABDE8F09F8C39000010B5203AE0
:10054000C0F00B80B1E81850203AA0E81850B1E88C
:100550001850A0E81850BFF4F5AF5FEA027C24BF42
:10056000B1E81850A0E8185044BF18C918C0BDE839
:1005700010405FEA827C24BF51F8043B40F8043B02
:1005800008BF7047D20728BF31F8023B48BF11F8B7
:10059000012B28BF20F8023B48BF00F8012B704711
:1005A0004FF000020429C0F0128010F0030C00F09C
:1005B0001B80CCF1040CBCF1020F18BF00F8012B1A
:1005C000A8BF20F8022BA1EB0C0100F00DB85FEAE8
:1005D000C17C24BF00F8012B00F8012B48BF00F8B4
:1005E000012B70474FF0000200B513469446964623
:1005F000203922BFA0E80C50A0E80C50B1F1200136
:10060000BFF4F7AF090728BFA0E80C5048BF0CC0E3
:100610005DF804EB890028BF40F8042B08BF704741
:1006200048BF20F8022B11F0804F18BF00F8012BB3
:10063000704770477047704770472DE9F0470D4687
:1006400099469246044600F124080168880604D5BC
:10065000E06921F01001216000E00120A84201DDE5
:10066000471B00E00027A1697A1902EB0900081A6C
:10067000A0612078C00602D42046FFF7E3FD0026E3
:1006800008E0D4E901211AF806009047206A401CCE
:10069000761C20624E45F4DB2078C0060AD5204641
:1006A000FFF7D0FD06E0D4E9012130209047206A11
:1006B000401C2062381EA7F10107F4DC07E0D4E9F2
:1006C000012118F805009047206A401C2062281E6E
:1006D000A5F10105F3DC2046FFF7CAFD20780006EE
:1006E00002D50220BDE8F0870120FBE710B5436981
:1006F00013B1AFF3008001E0FFF7CBFD012010BD87
:10070000127800F124010A7000224A700122EDE7FC
:1007100011684FF0FF32E9E7074B70B50D467B4497
:1007200000F011F80446284600F020F810B14FF010
:10073000FF3070BD204670BD8330000001694A1C47
:1007400002610878704700B58FB0CDE90131002112
:10075000059105497944CDE9031011466846FFF734
:1007600029FE0FB000BD0000E5FFFFFF007B00F099
:1007700080007047754600F02BF8AE4605006946CC
:10078000534620F00700854618B020B5FFF73AFD24
:10079000BDE820404FF000064FF000074FF0000882
:1007A0004FF0000B21F00701AC46ACE8C009ACE803
:1007B000C009ACE8C009ACE8C0098D46704710B567
:1007C0000446AFF300802046BDE81040FFF705BDAA
:1007D00000487047847C0020FEE70029016802D0B1
:1007E00041F0010102E04FF6FE72114001607047D6
:1007F00001684FF6FE721140016000210160416006
:100800008160C1603149314A0839904203D148685A
:1008100040F00F0006E02D4A1432904204D148689F
:1008200040F0F00048607047284A2832904203D1D7
:10083000486840F47060F5E7244A3C32904203D1A6
:10084000486840F47040EDE7204A5032904203D1AE
:10085000486840F47020E5E71C4A6432904203D1B6
:10086000486840F47000DDE7184A7832904203D1BE
:10087000486840F07060D5E7154A111F904203D1D7
:10088000086840F00F0006E0114A1432904204D18B
:10089000086840F0F000086070470D4A2832904226
:1008A00003D1086840F47060F5E7094A3C32904291
:1008B00003D1086840F47040EDE7054A5032904299
:1008C000EAD1086840F47020E5E700000800024023
:1008D00008040240406880B2704730B5036847F6AC
:1008E000F07293430C6A8A682243D1E904452C4391
:1008F00022438C692243CC6922434C6A22438C6A8E
:1009000022431A430260CA6842600A6882604968EA
:10091000C16030BD7047000010B5104C0221204668
:1009200000F0A6F8012812D10A2002F02DFA0221C7
:10093000204600F09DF8012809D10948017859B1F5
:10094000002202704FF48041064800F0A3F8BDE891
:100950001040022000F008B80122F2E70018014020
:1009600000000020001401400149086070470000A9
:1009700014040140F0B5CA78002502F00F03D20636
:1009800001D58A7813430A784FF00F0E12F0FF0F4B
:100990004FF001021CD004680F8802FA05F63740B8
:1009A000B74211D14FEA850C0EFA0CF724EA07077B
:1009B00003FA0CF43C43CF78282F02D0482F02D002
:1009C00002E0466100E006616D1C082DE4D304607E
:1009D0000C88FF2C1ED944685FF0000606F108075A
:1009E00002FA07F50F882F40AF420FD14FEA860C6D
:1009F0000EFA0CF7BC4303FA0CF73C43CF78282FD0
:100A000000D14561CF78482F00D10561761C082EB2
:100A1000E4D34460F0BD0000F0B5144C002801DAC6
:100A2000E36900E06368420D120185B2C0F301572B
:100A30009540C0F30346032F05D0C2020AD5032216
:100A4000B240934307E023F07062636823F0706361
:100A5000636002E0AB4343F0706201B12A430028B7
:100A600001DAE261F0BD6260F0BD0000000001400B
:100A70000246002092680A4200D0012070470246D8
:100A80000020D2680A4200D00120704741617047BF
:100A9000016170470AB10161704741617047FEE72B
:100AA0000029818B02D041F4806101E021F4806152
:100AB00081837047F0B505460C4602200021AA8BC1
:100AC00085B001264FF240031A40AA832884AF8BD9
:100AD000A268022A27D0A08800B10226684600F04A
:100AE00015F9E1880098B1F5007F2DD07101B0FBB8
:100AF000F1F000BF00EB8000A1684000B0FBF1F016
:100B0000401D80B20A21B0FBF1F000F00101401A53
:100B10004FF6FF72C0F34F0002EA0121821EFE2A47
:100B200001D302200021E288084302432A8420885E
:100B30006188A2890843A18811430843384340F4DF
:100B40000060A88305B0F0BD000AD3E72DE9F041AD
:100B50000C46064686B090460121052000F0BEF8FE
:100B600000210420FFF758FF4FF40070ADF810008B
:100B700003258DF812501820244F8DF8130004A976
:100B80003846FFF7F7FE3815ADF810008DF8125013
:100B900048208DF8130004A93846FFF7EBFE012129
:100BA000880300F09BF800200C21ADF80A10ADF886
:100BB0000600174DADF80C00ADF80800ADF80400C4
:100BC00000966946284600F01DFA0121284600F0EB
:100BD000D7F9012240F22551284600F0FAF9012206
:100BE00040F22441284600F0F4F925208DF8140045
:100BF00001208DF817008DF815408DF8168005A896
:100C000000F00AF806B0BDE8F081000000080140DD
:100C100000380140FEE7704770B50F23C4780178B3
:100C20000122F4B1144C2468457804F4E064C4F55E
:100C3000E064240AC4F10406E3408478B5401C4013
:100C40002C4301F1E021230181F80034007800F009
:100C50001F018A404009800000F1E020C0F8002117
:100C600070BD01F01F0082404809800000F1E020C3
:100C7000C0F8802170BD00000CED00E0024908437F
:100C800002490860704700000000FA050CED00E022
:100C900070470000044A0029516901D0014300E077
:100CA000814351617047000000100240044A00294E
:100CB000D16901D0014300E08143D1617047000058
:100CC00000100240044A0029116901D0014300E0EC
:100CD000814311617047000000100240044A00295E
:100CE000916901D0014300E08143916170470000A8
:100CF00000100240044A0029D16801D0014300E0FD
:100D00008143D160704700000010024030B51F4998
:100D10004A6812F00C031E4A03D0042B01D0082BA2
:100D200021D002604A680F231A4C03EA1212A35C16
:100D30000268DA4042604B68072505EA1323E35C4A
:100D400022FA03F383604B6805EAD323E35CDA40BD
:100D5000C2604968032303EA9131231F595CB2FB47
:100D6000F1F1016130BD4A684B6802F470124FF036
:100D7000020413F4803F04EB924202D04B689B03C1
:100D800001D5054B00E0024B5A43CAE70010024070
:100D900000127A004400002000093D00002A8288E9
:100DA00001D00A4300E08A4382807047114910B5A0
:100DB00088420AD1841401212046FFF79BFF204678
:100DC000BDE810400021FFF795BF0B49884202D1D2
:100DD0000121041404E0094988420AD10121C41305
:100DE0002046FFF76FFF2046BDE810400021FFF7C7
:100DF00069BF10BD0030014000380040003C004099
:100E00000246002012890A4200D0012070478181E9
:100E1000704770470CB50021264801910091026887
:100E200042F4803202604FF4A063026802F40032A0
:100E30000092019A521C0192009A12B9019A9A42A8
:100E4000F3D10268920333D5012100911A490A684F
:100E500042F010020A600A6822F003020A600A687F
:100E600042F002020A6041684160416841604168A5
:100E700041F480614160416821F47C114160416826
:100E800041F4E8114160016841F08071016001683E
:100E90008901FCD5416821F003014160416841F0BE
:100EA000020141604168C1F381010229FAD10CBD00
:100EB00000910CBD00100240002002404FF0E021E4
:100EC0000428086903D020F004000861704740F04E
:100ED0000400FAE7704700000F4810B5016841F0C0
:100EE0000101016041680D4A1140416001680C4AEE
:100EF00011400160016821F480210160416821F402
:100F0000FE0141604FF41F018160FFF783FF054937
:100F10004FF00060086010BD001002400000FFF8B4
:100F2000FFFFF6FE08ED00E070B5124D40F22551CE
:100F3000284600F02FF8104C012601280CD120780B
:100F4000802808D2284600F0B3F80C4A2178505483
:100F5000491C217000E0667040F22441284600F0F0
:100F600019F8012804D128880248001D00886670FD
:100F700070BD000000380140010000205400002036
:100F80000029818902D041F4005101E021F400518F
:100F90008181704730B501F01F0201240025C1F3A3
:100FA000421304FA02F2012B0FD0022B0FD0838AD6
:100FB0004FEA11210088134204FA01F400EA040008
:100FC00001D000B10125284630BD8389F0E7038AAE
:100FD000EEE710B5C1F3421301F01F040121A14057
:100FE000012B07D0022B07D01430002A026805D04D
:100FF0000A4304E00C30F8E71030F6E78A43026059
:1010000010BD000030B50446008A85B00D464CF690
:10101000FF710840E98801432182A1894EF6F3104F
:101020000140A8882A8910436A890A431043A08195
:10103000A08A4FF6FF410840A9890143A182684672
:10104000FFF764FE1948844201D1039800E002983A
:10105000A189090400EBC00101EB0010296801D54A
:10106000490000E08900B0FBF1F06422B0FBF2F12E
:1010700009010B096FF018056B4300EB8300A3898E
:101080001D044FF0320306D503EBC000B0FBF2F0B5
:1010900000F0070005E003EB0010B0FBF2F000F0F9
:1010A0000F000843208105B030BD0000003801402A
:1010B0008088C0F308007047FEE730380A2801D264
:1010C0000120704700207047704708B5002000904D
:1010D00000BF401C00902828FADB08BD002804DA75
:1010E00010F5004F02DC4FF400407047404270475B
:1010F00070B50D4604464068154951F82010C810D7
:101100006A0700D50844AA0701D500EB6100EA0789
:1011100001D000EBA10021682A0701D5081A00E0E0
:101120000844206000F0B6F8094B206005F00F027B
:10113000403B014653F8222060688018606001D56A
:10114000002002E0582801DD5820606008B270BD20
:10115000683B000870B5054640681D4A2B684FF093
:10116000000452F82020C81A4FEAE20101D50824F1
:101170004042904203DB44F00404801A1144B0EB77
:10118000620F05DB44F00204A0EB620001EB620198
:10119000B0EBA20F03DB44F0010401EBA201200736
:1011A00001D5581A00E05818286000F073F8084A72
:1011B00028602046403A696852F820208918696002
:1011C00001D5002102E0582901DD5821696070BD78
:1011D000683B00082DE9FC4700200090019044F690
:1011E00020612848FFF7FEF9274E284DDFF894903C
:1011F0000024A6F5807849F64047254800F01CFEFB
:1012000018B14FF0FF30BDE8FC87B8F900000102CB
:101210001CB1EA68891A02EB2121A0EB2120E960C8
:101220000912F16300F036F800B2A8F800001CB112
:101230002969401A01EBA000286100F02BF801B2E7
:10124000A8F80010204600F087FBB8F900106846A7
:10125000FFF780FF01466008E2070FD019F8003061
:1012600043EA011309F80030641CBC42C5D337605F
:101270006868B0FBF7F0F0610020C4E709F80010DF
:10128000F2E70000D4000020F44F00200800002006
:10129000F44E0020B0F5004F02DB47F6FF707047B8
:1012A00002498842FBDA0846704700000080FFFFD1
:1012B0002DE9FC4740F608319048FFF793F98F4C31
:1012C00001204FF4FA5505216060C4E9025144F64B
:1012D0002061C4E9041000F0E7FA89A0FEF7A6FF38
:1012E00001F046FA04F59D664FF4C47858B16FF0EA
:1012F0000405656501F022F9014642463046FFF7D4
:101300001DF98BA0E7E0284601F046FC4FF47A7700
:1013100039468EA0FEF78AFF384601F0F7FAE064FE
:1013200001F00AF993A000F0E3FA96A0FEF77EFF21
:10133000284601F047FA9C4F58B14FF0FF356565DC
:1013400001F0FCF8014642463846FFF7F7F897A04F
:10135000C1E001F0F3F8014642463846FFF7EEF8E7
:1013600097A000F0C5FAA946494699A0FEF75EFF8E
:10137000284600F03BFB206501F0E0F801464246BC
:10138000A148FFF7DBF8A1A000F0B2FAA5A0FEF794
:101390004DFF5A480621883001F0E8FA01F0D2F8F2
:1013A0000146A064A9A0FEF741FF49F6404A514614
:1013B000B3A0FEF73BFFFFF70DFFBF4F58B101F0A1
:1013C000BDF8014642463846FFF7B8F86FF0010510
:1013D000BAA065657FE001F0B1F801464546424696
:1013E0003846FFF7ABF8B94A5168B1FBFAF1E16151
:1013F0009168B1FBFAF02063B549002023180F5C17
:1014000003F8787F0F1807F58047401C97F8187E7F
:101410001F720828F2D3A16901204F1E47F22F53F3
:101420009F4205D20B44B3FBF1F0402800D9402085
:101430001060A063626CCDE90020A648236CE269CD
:10144000FEF7F4FEA4A000F053FAA7A0FEF7EEFE0C
:1014500001F08EF978B16FF00207676501F06EF860
:1014600001462A463046FFF769F8A9A000F040FA85
:101470003846BDE8FC8701F061F801462A4630464F
:10148000FFF75CF8A7A000F033FA484601F084FBB0
:1014900001F054F801462A46A748FFF74FF8A7A0E5
:1014A000FEF7C4FEFA2001F031FA01F045F8ADA0D4
:1014B000FEF7BCFE00F08AF9B54E80B101F03CF8B1
:1014C00001F03CF801462A463046FFF737F86FF046
:1014D0000305B0A0656500F00BFA2846C9E701F0E6
:1014E0002BF801F02BF801462A463046FFF726F884
:1014F000AEA000F0FDF900206065BAE7F44F0020CF
:101500005B7265636F72642D73746167655D2069DA
:101510006E69742D706C61796261636B2D666F7298
:101520002D746F6E652073746172740D0A00000073
:10153000696E69742D706C61796261636B2D666F81
:10154000722D746F6E65206661696C005B726563F5
:101550006F72642D73746167655D207072652D74A0
:101560006F6E65207374617274206D733D256C75A8
:101570000D0A00007072652D746F6E6520646F6EC9
:10158000650000005B7265636F72642D7374616740
:10159000655D20696E69742D7265636F7264207376
:1015A000746172740D0A0000CC510020696E697478
:1015B0002D7265636F7264206661696C00000000C3
:1015C000696E69742D7265636F7264206F6B0000C1
:1015D0005B7265636F72642D73746167655D206112
:1015E00064632D6461632D6D6F6E69746F72207317
:1015F00074617274206D733D256C75207370656124
:101600006B2D6E6F770D0A00EC5700206164632D1F
:101610006461632D6D6F6E69746F7220646F6E65A7
:10162000000000005B7265636F72642D7374616704
:10163000655D20736F66742D6932732070726F62FE
:10164000652073746172740D0A0000005B7265633B
:101650006F72642D73746167655D20736F66742D9E
:101660006932732070726F626520646F6E652073DB
:10167000656C65637465643D256C750D0A0000003A
:101680005B7265636F72642D73746167655D20635F
:101690006170747572652073746172742073616D0A
:1016A000706C65733D256C7520737065616B2D6E74
:1016B0006F770D0A000000005453002063617074BE
:1016C000757265206661696C0000000008000020EA
:1016D000D40000205C460008636170747572652058
:1016E000626F6172640000005B7265636F72642DEB
:1016F00073746167655D20696E69742D706C6179C2
:101700006261636B2073746172740D0A00000000E3
:10171000696E69742D706C61796261636B206661BA
:10172000696C0000696E69742D706C617962616327
:101730006B206F6B00000000645600205B726563D5
:101740006F72642D73746167655D20706C6179627E
:1017500061636B2D6D61726B65722073746172745D
:101760000D0A00005B7265636F72642D73746167AC
:10177000655D20706C61796261636B2D7265636F6A
:10178000726465642073746172740D0A0000000055
:1017900074590020706C61796261636B2D726563AE
:1017A0006F72646564206661696C0000706C6179B9
:1017B0006261636B2D7265636F7264656420646F30
:1017C0006E65000000487047F44F00202DE9FC5F73
:1017D0000020DFF8C09000900646DFF8BC80DFF8FC
:1017E000BCB0A9F5807A019002E0A71B802F02D936
:1017F0008027002501E0002532E070190BEB500135
:10180000C00709780CD009096846FFF771FCD8F8C1
:1018100000104843B0F5004F05DB47F6FF7406E0C3
:1018200001F00F01F0E71E4CA04200DB04B22AF8E1
:1018300015402046FFF752FC0146D9F82C204846B7
:101840008A4200D2C1621CB1426B521CC9F83420DA
:10185000D8F8082049F6404411446D1CC8F8081017
:10186000BD42CAD3012239460E4800F0E3FF18B149
:101870004FF0FF30BDE8FC9F3E44A642B5D3D8F8F8
:10188000081049F64040B1FBF0F10020C9F83010D3
:10189000F0E70000F44F002008000020D4000020F2
:1018A0000080FFFFF44E00200F4900200122486015
:1018B0008860C8600A6008610C4947F6FF738A6354
:1018C000DA43C1E91032203941F8780F4860886066
:1018D000C860064960318860C860086148618861F5
:1018E000C86108624862704708000020F44F002079
:1018F00030B58FB0044600F021FED0F88051D0F80A
:10190000D430F0E92C120DF1280C8CE82E00D0E92F
:101910001E520DF1180C016FD0F880308CE82E00AB
:10192000D0E91A3550F8AC1C0DF1080C426E8CE869
:101930002E0050F8B02C50F8A41CCDE9001250F83D
:10194000A83CD0F8D42021460248FEF76FFC0FB027
:1019500030BD0000C045000870B505460C4608467D
:10196000FFF7BCFB01461948026CA24200DD04648B
:10197000426CA24200DA446482698A4200D28161E8
:10198000134A5342ECB1066A761C06629C4201DAA5
:10199000944202DC826A521C82620C48082D00EBE1
:1019A000450001D2A0F8584049F63842954203D389
:1019B000A0F5A030A0F8F8470648426811444160FD
:1019C00070BD426A521C4262E7E70000F44F0020FB
:1019D0000880FFFF08000020002804DA10F5004FFF
:1019E00002DC4FF400407047404270472DE9F84F49
:1019F000274E04460020B1688DF8000009B94BF667
:101A0000803161434FF47A70B1FBF0F769464420AE
:101A100001F056FE4FF0FF38A8BB9DF8000040F0E3
:101A20008001442001F09CFE0546142001F0ACF931
:101A3000DFF860A04FF4005949465046FFF726F8FA
:101A400000F03EF8D6F88401022801D0002408E016
:101A5000204601F099F908E00021084600F02EFD2B
:101A6000641CBC42F8D300F04BFC9DF800104420ED
:101A700001F076FE40EA050449465046FFF708F8B3
:101A800000F01EF814B14046BDE8F88F0020FBE7D7
:101A9000FC7A00200010014000EB8000400064212F
:101AA00090FBF1F1B1F5004F02DB47F6FF70704794
:101AB00002488142FBDB08B2704700000080FFFF54
:101AC00038B56946002001F0FBFDB74C10B99DF810
:101AD0000000A0646946012001F0F2FD10B99DF8F4
:101AE0000000E0646946022001F0EAFD10B99DF8AB
:101AF000000020656946032001F0E2FD10B99DF861
:101B0000000060656946042001F0DAFD10B99DF817
:101B10000000A0656946052001F0D2FD10B99DF8CE
:101B20000000E0656946062001F0CAFD10B99DF885
:101B3000000020666946072001F0C2FD10B99DF83B
:101B4000000060666946082001F0BAFD10B99DF8F2
:101B50000000A0666946092001F0B2FD10B99DF8A9
:101B60000000E06669460A2001F0AAFD10B99DF860
:101B70000000206769460B2001F0A2FD10B99DF816
:101B80000000606769460C2001F09AFD10B99DF8CD
:101B90000000A06769460D2001F092FD18B99DF87C
:101BA0000000C4F88C0069460E2001F089FD18B9C8
:101BB0009DF80000C4F8900069460F2001F080FDF8
:101BC00018B99DF80000C4F894006946102001F08F
:101BD00077FD18B99DF80000C4F8980069461120F7
:101BE00001F06EFD18B99DF80000C4F89C0069462C
:101BF000122001F065FD18B99DF80000C4F8A0009E
:101C00006946132001F05CFD18B99DF80000C4F886
:101C1000A4006946142001F053FD18B99DF8000096
:101C2000C4F8A8006946152001F04AFD18B99DF8CE
:101C30000000C4F8AC006946162001F041FD18B957
:101C40009DF80000C4F8B0006946172001F038FD87
:101C500018B99DF80000C4F8B4006946182001F0D6
:101C60002FFD18B99DF80000C4F8B8006946192086
:101C700001F026FD18B99DF80000C4F8BC006946C3
:101C80001A2001F01DFD18B99DF80000C4F8C0002D
:101C900069461B2001F014FD18B99DF80000C4F836
:101CA000C40069461C2001F00BFD18B99DF8000026
:101CB000C4F8C8006946252001F002FD18B99DF856
:101CC0000000C4F8CC006946312001F0F9FC18B9D5
:101CD0009DF80000C4F880006946322001F0F0FC55
:101CE00010B99DF80000E0676946332001F0E8FC78
:101CF00018B99DF80000C4F884006946342001F04A
:101D0000DFFC18B99DF80000C4F888006946372048
:101D100001F0D6FC18B99DF80000C4F8D00069465F
:101D2000442001F0CDFC18B99DF80000C4F8D4009F
:101D30001E48008844F8D80F1C48143000886060A2
:101D40001A4818300088A0601848001F0088E0601A
:101D5000174800682061174800686061164881686C
:101D6000A1611349091D0968E1611249091D09684A
:101D70002162C168616211494968A1624114FEF79C
:101D80007EFE0C4DE062083D40212846FEF770FEC5
:101D900044F8C00C80212846FEF76AFE44F8BC0CCB
:101DA00000F0BEFF38BD0000FC7A0020083C004077
:101DB00008080140080C01400010014000100240DA
:101DC000174810B50088174C44F8D80F1448143041
:101DD00000886060124818300088A0601048001F1A
:101DE0000088E06010480068206110480068606169
:101DF0000F488168A1610C49091D0968E1610B491F
:101E0000091D09682162C16861620A494968A162C5
:101E10004114FEF734FEE062BDE8104000F080BFE0
:101E2000083C0040FC7A002008080140080C0140F2
:101E300000100140001002407CB5114C05000AD092
:101E40000120E060694601A8666800F01BF840B117
:101E50006FF002007CBD6FF00400C4F88001C01078
:101E60007CBDBDF90020BDF90410304600F05AF8E1
:101E7000BDF8000028806068401C606000207CBDC8
:101E8000FC7A00207FB505460E480C4603AA02A93D
:101E9000406800F0E1FE0C48DDE90223011FCDE9B6
:101EA00000102146284600F013F818B14FF0FF301B
:101EB00004B070BD0548D0F82C11491CC0F82C1195
:101EC0000020F5E71C000020387C0020FC7A002070
:101ED0002DE9F84F8146DDE90AA41E4617468846DB
:101EE000012000F0C3FE4FF0FF35C0B9002000F024
:101EF000BDFEA0B95346324639464846009400F02C
:101F000057FE60B9012000F0B1FE40B95346324699
:101F100039464046009400F04BFE002800D0284689
:101F2000BDE8F88F2DE9F041074614460D460846F6
:101F3000FFF752FD06462046FFF74EFD01461B48BF
:101F4000D0F81421B24201D2C0F81461D0F818219F
:101F50008A4201D2C0F8181125B1D0F81C11491CD1
:101F6000C0F81C1124B1D0F82011491CC0F8201170
:101F7000082F05D200EB4701A1F84051A1F85041CC
:101F80005FF0000100EB4102491CB2F86231A2F897
:101F90006031B2F87231A2F870310729F2D3A0F89B
:101FA0006E51A0F87E41BDE8F0810000FC7A00206F
:101FB00070B501F025FB10B14FF0FF3070BD3F212F
:101FC000002001F0CDFB04460A2000F0DDFE802158
:101FD000002001F0C5FB0443052000F0D5FE3021B0
:101FE000012001F0BDFB04430021022001F0B8FBF9
:101FF00004431021032001F0B3FB044324211620E5
:1020000001F0AEFB04431021042001F0A9FB0443BE
:102010000021052001F0A4FB044300210B2001F066
:102020009FFB044300210C2001F09AFB04431F2175
:10203000102001F095FB04437F21112001F090FB5B
:1020400004430F21062001F08BFB0443FF210720EE
:1020500001F086FB04430421082001F081FB0443C6
:102060000C21092001F07CFB04434C210A2001F0E3
:1020700077FB04430821442001F072FB0443002154
:10208000312001F06DFB0443BF21322001F068FBD9
:1020900004430021332001F063FB0443002134207A
:1020A00001F05EFB044301210D2001F059FB0443C4
:1020B000782000F069FE02210E2001F051FB04435C
:1020C0000121122001F04CFB04431021132001F0E8
:1020D00047FB04431A21142001F042FB044306216C
:1020E0000D2001F03DFB04431E2000F04DFE0021B9
:1020F000252001F035FB04433F21012001F030FB96
:1021000040EA0405114C6669FFF7DAFC0020CDB106
:102110002169A1B194F84C10C94389060FD194F8F4
:10212000701001F03F010C2909D194F8A010C907E3
:1021300005D094F88C1001F00F01062902D0284632
:10214000666170BD6061002070BD0000FC7A0020F7
:1021500070B501F055FA10B14FF0FF3070BD3F215E
:10216000002001F0FDFA04460A2000F00DFE802157
:10217000002001F0F5FA0443052000F005FE3021AF
:10218000012001F0EDFA04430021022001F0E8FAF9
:1021900004431021032001F0E3FA0443202104202A
:1021A00001F0DEFA04430021052001F0D9FA0443CE
:1021B0000321062001F0D4FA04430021072001F096
:1021C000CFFA0443FF21082001F0CAFA04430C218E
:1021D000092001F0C5FA04430C210A2001F0C0FADD
:1021E000044300210B2001F0BBFA044300210C2022
:1021F00001F0B6FA044301210D2001F0B1FA0443C5
:10220000782000F0C1FD02210E2001F0A9FA04435C
:1022100000210F2001F0A4FA04430021122001F054
:102220009FFA04431021132001F09AFA04431A2163
:10223000142001F095FA04434021152001F090FA92
:1022400004432421162001F08BFA0443BF211720F8
:1022500001F086FA04430021182001F081FA0443BA
:102260000021192001F07CFA044300211A2001F01A
:1022700077FA04430A211B2001F072FA04436A2111
:102280001C2001F06DFA04430021312001F068FAAE
:102290000443BF21322001F063FA044300213320BC
:1022A00001F05EFA04430021342001F059FA04439E
:1022B0000821372001F054FA04430821442001F09A
:1022C0004FFA044301210D2001F04AFA04431E2075
:1022D00000F05AFD3F21012001F042FA40EA0405D6
:1022E000064C6669FFF7ECFB15B100F00DFC10B170
:1022F0000020606170BD2846666170BDFC7A0020D8
:102300002DE9F041002600F0B9F804460C4D0D4FC0
:102310000BE000BF00F0B2F8A04202D00026044655
:1023200002E0761CBE4206D800BFE86918B1D5E9C4
:1023300005018142EED8BDE8F04100F0F1BC00009B
:102340001C00002000127A00084810B5C06900285F
:102350000AD00748FEF7BEFA4FF48051884200D9F0
:1023600008464042C0F30B0010BD00001C000020D6
:102370001C04024070B500F081F80A4C0546A069C3
:10238000A8420DD8206A4FF40051401C2062064834
:10239000FEF706F905F58065C5F30B00A561A060A1
:1023A00070BD00001C000020FC5A002070B54FF4E6
:1023B00000548CB021462048FEF7F2F8012102209B
:1023C000FEF768FC1D4E00213046FEF706FA304647
:1023D000FEF70EFA1A48009017480190102002905C
:1023E00000020025CDE903058020059040000690FD
:1023F0008000079008AA202082E831006946304614
:10240000FEF76BFA0E48012202210C38FEF7C6FCDB
:1024100001213046FEF7E1F90A4C0120E061FFF7A7
:1024200093FFC4E90305606100F58060A061C0F31B
:102430000B00A0600CB070BDFC5A00201C040240D0
:102440000C3C00401C00002010B50022022108486E
:10245000FEF7A4FC00210748FEF7BFF9064800215B
:10246000C1618160C16001614161816110BD000095
:10247000003C00401C0402401C00002010B5FFF787
:1024800063FF0649CA68904202D20A69521C0A6177
:10249000C8600A6900EB0230486110BD1C000020D2
:1024A00010B5FFF7EBFF04498969814201D800208C
:1024B00010BD081A10BD00001C0000202DE9F047D7
:1024C0001A4C0646DFF86880E0690D4618B102270D
:1024D0004FF47E6909E0304600F034FC284600F0F5
:1024E00031FC1CE0FFF746FF00BFFFF7D9FF48456E
:1024F000F8D2C0F57E60B842F4D3FFF73BFF0D4A37
:10250000A06822F81060401CC0F30B01A06922F8FB
:102510001150491CC1F30B01801CA160A061D8F8C7
:102520000010491CC8F80010BDE8F0871C0000200E
:10253000FC7A0020FC5A0020FFF7E2BE00487047FA
:10254000FC7A002001484068704700001C00002011
:102550002DE9F84301211D20FEF7C0FB0121CE0328
:102560003046FEF7A3FB01210220FEF793FB012179
:102570002748FEF751FA03208DF80200C020ADF87D
:1025800000001420DFF88C808DF803006946404677
:10259000FEF7F0F9802001F03DF9402001F03AF912
:1025A000052000F0F1FBB4101B4FADF800401025E2
:1025B0008DF8035069463846FEF7DCF92146384667
:1025C000FEF764FA8020ADF8000018248DF803406F
:1025D00069463846FEF7CEF9ADF800608DF8034045
:1025E00069460E48FEF7C6F92820ADF800008DF8C0
:1025F000034069464046FEF7BDF9ADF8005004209F
:102600008DF8030069464046FEF7B4F9BDE8F8834B
:1026100000023000000C01400010014000080140A1
:1026200042F21C51884202D84FF4FA50704743F2EC
:10263000BC41884202D842F61130704744F6382136
:10264000884202D84FF47A50704746F67811884293
:1026500002D845F22260704749F27041884202D8A0
:102660004FF4FA407047A0F52740F838B0F5FA6FFC
:1026700002D84AF6444070474BF68030704700005D
:102680007FB50446FFF7E0FE194E3046FEF78EFB9D
:102690004FF44070ADF800000025ADF804507015FF
:1026A000ADF80600ADF802502046FFF7B9FF0290E2
:1026B000ADF80C5069463046FEF7FCF90121304672
:1026C000FEF7EEF90B490A4808308C600088C1F823
:1026D000D80007481C300088C1F8DC0004482030CE
:1026E0000088C1F8E000301D0088C1F8E4007FBD1B
:1026F000003C0040FC7A00207FB50546FFF7A4FEB1
:10270000194E3046FEF752FB70150024ADF800005C
:10271000ADF80440ADF80600ADF802402846FFF7DA
:102720007FFF0290ADF80C4069463046FEF7C2F9D3
:1027300001213046FEF7B4F9FFF738FE0B490A488D
:1027400008308D600088C1F8D80007481C30008828
:10275000C1F8DC00044820300088C1F8E000301DDA
:102760000088C1F8E4007FBD003C0040FC7A0020F6
:1027700010B5FFF7EDFE012000F0F4F90A2000F09B
:1027800003FB4BF68030FFF7B7FF0A2000F0FCFA9E
:10279000FFF70EFC38B1FFF713FB08494FF0FF308D
:1027A000C1F8800110BD142000F0EEFA4FF4005182
:1027B0000348FEF76BF9002010BD0000FC7A0020F2
:1027C000001001402DE9F041040001D14BF68034A6
:1027D000FFF7BEFE022000F0C5F9144D144F4FF470
:1027E000005631463846AC60FEF752F90A2000F038
:1027F000CBFA2046FFF744FF0A2000F0C5FAFFF7A6
:10280000A7FC40B1FFF7DCFA6FF00100C5F88001CA
:102810004010BDE8F081142000F0B6FA3146384689
:10282000FEF736F9FFF74CF90020F2E7FC7A0020BA
:10283000001001402DE9F041304C17460E460500CE
:102840002AD04EB32E48E7600088C4F8D8002C4840
:1028500014300088C4F8DC004FF400512948FEF71A
:102860000EF9DFF8A480C4F8040140214046FEF7C9
:10287000FFF8A06180214046FEF7FAF8E06100F021
:102880004FFA012F0ED0022F1ED06FF00300C4F8B4
:1028900080014010BDE8F0816FF00200C4F88001B3
:1028A0008010F7E700240CE035F91400FFF7F4F886
:1028B000074635F91400FFF7EFF83946FFF7FEFD3C
:1028C000641CB442F0D314E0002410E005EB840152
:1028D00035F92400B1F90210084400EBD070401023
:1028E00000B2FFF7D9F80146FFF7E8FD641CB442D7
:1028F000ECD300F015FA0020CCE70000FC7A0020B1
:10290000083C004000100140000C01402DE9F0415E
:102910001449896809B94BF6803141434FF47A7004
:10292000B1FBF0F700243026DFF83C8015E000BF53
:10293000B4FBF6F006FB104138F91100FFF7ACF8D4
:102940000546B4FBF6F006FB104138F91100FFF71D
:10295000A3F82946FFF7B2FD641CBC42E8D300206F
:10296000BDE8F081FC7A0020CC3C00082DE9F34F53
:10297000644895B04FF0000B40681090159808B16E
:10298000062904D24FF0FF3017B0BDE8F08FC1EB3D
:10299000C100C1001598FDF725FE0025002606960A
:1029A0001598C5EBC50100EBC1040796B246099620
:1029B000149603AA04A9284600F04EF9256004984D
:1029C00060600398002704F12C0904F12808A06036
:1029D000CDE90089DDE9033213A912A8FFF778FADF
:1029E000B8B3402F7DD300BFD4E90601471878D093
:1029F000D4F82CC0BCF1000F73D0DDE906010B1830
:102A0000D4E90402904200D810467201591CB2FB6E
:102A1000F1F101EB1C113944E160B0F5FA4F01D935
:102A20008808E0602EB1B3EB860F02D9E068400859
:102A3000E060E068584501D9834610956D1C062D6D
:102A4000ACD3BBF1000F02D02E4910984860002093
:102A50009AE7FFE7BDF94800FEF7BEFF0190BDF918
:102A60004C00FEF7B9FF0199226901440E44019917
:102A70008A4200D221616169814200D26061BDF960
:102A8000481011B1A069401CA061BDF94C0010B103
:102A9000E269521CE261149A22B3099AA1EB0A037B
:102AA000821A514505D0D4F820C00CF1010CC4F8AD
:102AB00020C0DDF824C0604505D0D4F824C00CF156
:102AC000010CC4F824C0002B00DA5B42002A00DAB3
:102AD0005242DDF81CC063440793069B1A440692D9
:102AE00004E00CE021866086012214920990A18600
:102AF0007F1C8A46E086402FFFF46AAF74E700200F
:102B000096E700001C0000201548016919B390F8F1
:102B10004C10C94389061ED190F8701001F03F0196
:102B20000C2918D190F88C1011F0F00F13D190F8F7
:102B3000901011F0700F0ED1D0F8A8104A060AD4E8
:102B4000C90608D590F86410C90604D490F8D400DA
:102B500010F0700F01D00020704701207047000076
:102B6000FC7A002010B504464FF4C4710948FDF703
:102B700039FD08494BF68030C1F8844188606320F4
:102B80008862C862086348638863C86308644864ED
:102B900010BD0000FC7A0020002805D00349896898
:102BA000814201D0FFF7A8BD70470000FC7A0020E9
:102BB0002DE9FF5FDFF89C808346DDF838A0D8F868
:102BC000000099460F46002400F01005264604E058
:102BD000029800F071F838B9761CBE42F8D300268E
:102BE000029800F069F820B14FF0FF3004B0BDE862
:102BF000F09F00BF00BF022000BF401C0828FBD38D
:102C0000D8F800004FEA440410F010000DD044F052
:102C10000104B9F1000F04D0D9F80010491CC9F81B
:102C2000001001211DB1012202E00021FAE700227B
:102C3000914207D0BAF1000F04D0DAF80010491C15
:102C4000CAF80010761C0546102EC9D3ABF8004018
:102C50000020CBE7080C0140062800D302204308DF
:102C600000F001000B6010607047000030B50F49A4
:102C70004FF400420E4B0DE0491E0BD20D48D0F828
:102C80003411491CC0F834116FF00801C0F88011EC
:102C9000081130BD1C68144000D0012408B1012582
:102CA00000E00025AC42E7D1002030BD80841E004A
:102CB00008080140FC7A0020F0B51749060044F6E8
:102CC0002063D1F83041154D4FF0FF306FF007020F
:102CD00004F101041E4602D10DE0761E11D32F68C7
:102CE0003F07FAD501E05B1E0BD32E683607FAD4F6
:102CF0000FE0761E05D32F683F07FAD406E05B1E6F
:102D000004D2C1F83041C1F88021F0BD2E683607E9
:102D1000F5D50020F0BD0000FC7A0020080C014031
:102D200070B5064D064C286AC4F8080104F5847491
:102D3000FFF7B6FB6060A868A06070BD1C000020B3
:102D4000FC7A002070B5074D044602212846FEF7A4
:102D500057F80028F9D0A1B22846BDE87040FEF728
:102D600056B80000003C004008B102A0704702A025
:102D7000704700004F4B00004641494C00000000E6
:102D80006FF00400FEF79AB870B54FF47A7500231F
:102D90004FF0E02117E02A46904200D8024642F266
:102DA000283454434C618B610C6944F001040C617C
:102DB0000C69E60701D0E403FAD50C6924F001049C
:102DC0000C618B61801A0028E5D170BD30B50546D5
:102DD0000C46D1F8800101F584718FB00EC9CDE9A0
:102DE0000612CDE9083004F10C01D4F804010EC933
:102DF000CDE90430CDE90212D4E90101CDE90001A9
:102E000029468A482368D4F88421FDF70FFA04F193
:102E100038000DF1180C0FC88CE80F0004F12800E1
:102E20000DF1080C0FC88CE80F00D4E90801CDE9BA
:102E30000001D4E9062329467D48FDF7F7F904F19E
:102E40006C000DF11C0C0FC88CE80F0004F15C0045
:102E50000DF10C0C0FC88CE80F0004F1500007C8EE
:102E60008DE80700D4E9122329467248FDF7DEF900
:102E7000D4E93423D4E921010DF1280C8CE80F00AA
:102E8000D4E91F320DF1180CD4F8B000D4F8CC10EE
:102E90008CE80F0004F19C000DF1080C0FC88CE8C1
:102EA0000F00D4E92501CDE90001D4E92323294607
:102EB0006148FDF7BBF904F1BC000DF1040C0FC82B
:102EC0008CE80F00D4F8B800009029465B48D4F88D
:102ED000B430D4F8AC20FDF7A9F904F1F0000DF1FD
:102EE000140C0FC88CE80F00D4E93A230DF1040C40
:102EF000D4F8E400D4F800118CE80F00D4F8E00016
:102F00000090D4E9362329464D48FDF78FF904F5A2
:102F100098700DF1140C0FC88CE80F0004F5907038
:102F20000DF1040C0FC88CE80F00D4F81C010090C0
:102F3000D4E9452329464348FDF778F9B4F9480117
:102F40000DF1080CB4F94E31B4F94C21B4F94A1121
:102F50008CE80F00B4F94611B4F94401CDE9000141
:102F6000B4F94231B4F94021294637A0FDF75EF9A2
:102F7000B4F958010DF1080CB4F95E31B4F95C21D3
:102F8000B4F95A118CE80F00B4F95611B4F9540190
:102F9000CDE90001B4F95231B4F95021294635A0E8
:102FA000FDF744F9B4F968010DF1080CB4F96E317C
:102FB000B4F96C21B4F96A118CE80F00B4F9661108
:102FC000B4F96401CDE90001B4F96231B4F96021CA
:102FD000294633A0FDF72AF9B4F978010DF1080C60
:102FE000B4F97E31B4F97C21B4F97A118CE80F0080
:102FF000B4F97611B4F97401CDE90001B4F9723174
:10300000B4F97021294630A0FDF710F9D4F88401F5
:1030100021460228284604D00FB0BDE8304000F019
:1030200067B80FB0BDE8304000F01CBA2841000876
:103030001C400008183E0008683D0008AC3E00082F
:10304000043F0008204500085B25732D72786669EF
:103050007273742D6C5D2025642025642025642006
:1030600025642025642025642025642025640D0A1C
:10307000000000005B25732D727866697273742DF1
:10308000725D202564202564202564202564202588
:10309000642025642025642025640D0A00000000BA
:1030A0005B25732D72786C6173742D6C5D202564C3
:1030B00020256420256420256420256420256420A3
:1030C00025642025640D0A005B25732D72786C61E0
:1030D00073742D725D2025642025642025642025CD
:1030E000642025642025642025642025640D0A00C1
:1030F0002DE9F34F086987B00C4608B16069E8B361
:1031000000208146B4F8DC00C0F303200E2844D030
:103110000020804694F84C00C04380063FD0002732
:1031200094F8700000F03F000C283AD05FF00006E1
:10313000D4F8040180B30025206800B10120FFF716
:1031400013FE00902846FFF70FFE83463046FFF738
:103150000BFE82463846FFF707FE06464046FFF75D
:1031600003FE05464846FFF7FFFD0246D4F8E0306F
:10317000A4680098CDE904432B4600E00AE0CDE9BD
:1031800002B0CDE9006A09480799FDF74FF809B088
:10319000BDE8F08F0120B4E705E00120B9E7012781
:1031A000BEE70126C4E70125C6E70000AC3F0008E2
:1031B00070B58EB0FEF706FB044648300FC8CDE967
:1031C000042004F10C000693039107C88DE8070062
:1031D00094E80E005348FDF729F804F12001E06B54
:1031E0000EC9CDE90330CDE90112E0690090D4E9C0
:1031F00010124D48A369FDF719F8A06B009004F177
:103200002C014AA00EC9FDF711F8B4F9600001AD18
:10321000B4F96630B4F96420B4F9621085E80F009F
:10322000B4F95E000090B4F95C30B4F95A20B4F9F6
:1032300058104EA0FCF7FAFFB4F97000B4F97630DC
:10324000B4F97420B4F9721085E80F00B4F96E0077
:103250000090B4F96C30B4F96A20B4F9681050A049
:10326000FCF7E4FF94F87C0094F87F3094F87E201B
:1032700094F87D1085E80F0094F87B00009094F896
:103280007A3094F8792094F8781051A0FCF7CEFFAA
:1032900094F8840094F8873094F8862094F8851088
:1032A00085E80F0094F88300009094F8823094F839
:1032B000812094F8801056A0FCF7B8FF5FF000055D
:1032C000C5EBC50004EBC0000DF1240CB0F9B8103B
:1032D000B0F9BE60B0F9BC30B0F9BA208CE84E004D
:1032E00000F1A8010DF1140C4EC98CE84E0000F15C
:1032F00098010DF1040C4EC98CE84E00D0F89410E2
:103300000091D0F89010883009B151A300E052A389
:10331000D0E900125248FCF789FF6D1C062DCFD36F
:103320000EB070BDC84100084C4200085B72656376
:103330006F72642D706C61796261636B5D20706582
:10334000616B3D256C75206D65616E5F6162733DDB
:10335000256C75206E6F6E7A65726F3D256C7520D9
:103360006761696E3D256C750D0A00005B726563CF
:103370006F72642D73616D706C65732D6669727305
:10338000745D202564202564202564202564202583
:10339000642025642025642025640D0A00000000B7
:1033A0005B7265636F72642D73616D706C65732DF4
:1033B0006C6173745D2025642025642025642025BC
:1033C000642025642025642025642025640D0A00DE
:1033D0005B7265636F72642D616470636D2D6669E5
:1033E0007273745D202530325820253032582025E4
:1033F00030325820253032582025303258202530A0
:103400003258202530325820253032580D0A00001D
:103410005B7265636F72642D616470636D2D6C61A6
:1034200073745D20253032582025303258202530E5
:10343000325820253032582025303258202530325D
:1034400058202530325820253032580D0A0000000F
:1034500066616C6C0000000072697365000000001A
:103460009C4000082DE9F34F08698DB00C4608B167
:103470006069B0B100200390B4F8DC00C0F3032011
:103480000F2810D00020834694F84C00C0438006DB
:103490000BD00020824694F88C0010F0F00F06D07C
:1034A0000AE00120E7E70120EDE70120F2E794F8C8
:1034B000900010F0700F09D000208146D4F8A800C9
:1034C000410605D4C00603D5012002E00120F4E73F
:1034D0000020804694F8700000F03F000C2817D0C0
:1034E0005FF0000694F8640040F3001594F8D400EF
:1034F0006D1C10F0700F0DD05FF00000D4F81411A7
:10350000202903D8D4F81811202905D9012704E06F
:103510000126E7E70120F1E70027FFF725FC0190EE
:103520002846FFF721FC00903046FFF71DFC029073
:103530004046FFF719FC80464846FFF715FC064653
:103540005046FFF711FC05465846FFF70DFC814633
:103550000398FFF709FC02460FB123A300E023A361
:10356000DDE900010DF1100A079321A78AE8830025
:103570000298CDE90056CDE902804B461E480D99D0
:10358000FCF754FE04F5987409AF0FCC87E80F00E0
:1035900014F86C0C54E90612C0F30213C0F3C01007
:1035A000CDE90503CDE9071214F8900C01AF00F046
:1035B0000F0214F8980C54F8D05C54F88C3C00F0CE
:1035C0000F0187E82E00C0F30011C0F380130091B3
:1035D00014F8DC0C0D99C0F300120848FCF726FE25
:1035E0000FB0BDE8F08F0000594553004E4F00006A
:1035F00049474E4F52454400884300082C44000878
:103600002DE9F0416320174C0025174EA062E062BF
:1036100020636063A063E06320642F466064681CDD
:103620006062302000F022F8A06298B1322000F0F1
:103630001DF8E06280B11420FFF7A6FB6D1C052D7C
:10364000EDD300F0BBF8FF20C4E904704FF0FF3069
:10365000BDE8F081302000E032203070C4E904077A
:103660000020F5E7FC7A00201C0000202DE9F04145
:10367000074600F0FCF800F0A1F800F0E9F8384641
:1036800000F001F90446002000F0FDF80646802015
:1036900000F0F9F8054600F0EAF800F08FF8074866
:1036A000302F07D04564C0E90F46344344EA050093
:1036B000BDE8F0818563C0E90C46F6E7FC7A00209E
:1036C00010B5044600F008F8002801D001494C610B
:1036D00010BD0000FC7A00202DE9F0410E4607469F
:1036E00000F0B6F81D4D287800F0CDF804463846B5
:1036F00000F0C9F8044300F0ABF8287840F001006E
:1037000000F0C1F82043070021D10024802000F000
:1037100081F800256006040E402000F07BF800F0E0
:1037200091F808B144F00104402000F05BF86D1CF2
:10373000082DEFDB802000F06DF8402000F06AF8E3
:10374000402000F04FF8802000F064F8347000F062
:103750008EF800F033F83846BDE8F0811C000020F8
:1037600070B504460D480D46067800F071F83046F5
:1037700000F089F80646204600F085F80643284602
:1037800000F081F840EA060500F071F800F016F844
:10379000280001D002494C6170BD00001C000020CF
:1037A000FC7A002004490A881206FCD5024AC1B2FC
:1037B000121D1180704700000038014010B54021F3
:1037C0000648FDF755F900B10120054CA06100F055
:1037D00039F800B10120E06110BD0000000C01408B
:1037E000FC7A002038B50A4D044601462846FDF70C
:1037F0004DF903208DF80200ADF8004014208DF83B
:10380000030069462846FDF7B5F8FDF75EFC38BDB4
:10381000000C014038B50A4D044601462846FDF724
:1038200037F903208DF80200ADF8004048208DF8EC
:10383000030069462846FDF79DF8FDF746FC38BDB4
:10384000000C014080210148FDF712B9000C014035
:1038500010B58020FFF7DEFF4020FFF7DBFF802060
:10386000FFF7C0FFBDE810404020FFF7BBBF10B519
:103870008020FFF7B7FF4020FFF7CCFFBDE81040E6
:103880008020FFF7C7BF70B50546002428064FF01B
:10389000800002D5FFF7BEFF01E0FFF7A3FF402045
:1038A000FFF7B8FF4020FFF79DFF6806050E641C78
:1038B000082CEBDB8020FFF7ADFF4020FFF7AAFFCD
:1038C000FFF7C0FF04464020FFF78CFF14B14FF014
:1038D000FF3070BD002070BD4FF4A060FDF7CEF941
:1038E000FFF74EFA022201214FF4E130FDF72EF9E5
:1038F0002FA0FCF79BFC37A239A13CA0FCF796FC5B
:1039000042A0FCF793FC4CA0FCF790FC5948FCF754
:103910008DFCFDF7CDFC0546014657A0FCF786FC63
:10392000FDF750FF0446681D30D0681C35D0FFF706
:103930003FFC04F5EC7159A0FFF748FA04F5587103
:1039400059A0FFF743FA04F5FF615AA0FFF73EFACA
:10395000E81C29D0A81C0FD004F59D6159A0FFF7E1
:1039600035FA04F5CE615BA0FFF730FA04F5186173
:103970005CA000BFFFF72AFA29465EA0FCF756FCC0
:103980004FF47A742046FFF7FFF9FBE76148FCF734
:103990004DFC04F59D6160A0ECE76248FCF746FC35
:1039A00004F5EC713DA0E5E704F59D6145A0E1E774
:1039B0000D0A5B617564696F2D7265636F72645D7A
:1039C00020626172656D6574616C20626F6F740D49
:1039D0000A00000031303A33353A33360000000037
:1039E0004A756C2020392032303236005B617564B4
:1039F000696F2D7265636F72645D206275696C64B6
:103A00002025732025730D0A000000005B6175649A
:103A1000696F2D7265636F72645D20555341525416
:103A200031205041392F5041313020313135323041
:103A30003020384E310D0A005B617564696F2D725C
:103A400065636F72645D2066773D7265636F726453
:103A50002D6D6F6E69746F7238732D6C70662D7674
:103A60006F6C31302D6932632D61636B2D76323985
:103A70000D0A0000B04200085B617564696F2D7229
:103A800065636F72645D207265636F72645F7265F7
:103A900073756C743D25640D0A0000007265636FD8
:103AA00072642D696E6974007265636F72642D644F
:103AB0006F6E65006D6F6E69746F722D646F6E65E9
:103AC00000000000706C61796261636B2D696E6942
:103AD00074000000706C61796261636B2D726561C6
:103AE000647900007265636F72642D6C6F6F706231
:103AF00061636B005B617564696F2D7265636F72E2
:103B0000645D20646F6E65207265636F72643D252D
:103B1000640D0A00F4420008696E69742D666169DB
:103B20006C00000044430008FFFFFFFFFFFFFFFFA2
:103B3000FFFFFFFFFFFFFFFF020000000400000087
:103B40000600000008000000FFFFFFFFFFFFFFFF6F
:103B5000FFFFFFFFFFFFFFFF020000000400000067
:103B60000600000008000000070000000800000038
:103B7000090000000A0000000B0000000C0000001B
:103B80000D0000000E0000001000000011000000F9
:103B900013000000150000001700000019000000CD
:103BA0001C0000001F000000220000002500000093
:103BB000290000002D000000320000003700000046
:103BC0003C000000420000004900000050000000DE
:103BD00058000000610000006B000000760000004B
:103BE000820000008F0000009D000000AD0000007A
:103BF000BE000000D1000000E6000000FD00000053
:103C000017010000330100005101000073010000A2
:103C100098010000C1010000EE0100002002000038
:103C20005602000092020000D40200001C030000B3
:103C30006C030000C3030000240400008E04000095
:103C4000020500008305000010060000AB0600001E
:103C50005607000012080000E0080000C309000039
:103C6000BD0A0000D00B0000FF0C00004C0E00004D
:103C7000BA0F00004C11000007130000EE14000002
:103C80000617000054190000DC1B0000A51E0000F0
:103C9000B621000015250000CA280000DF2C000016
:103CA0005B3100004B360000B93B0000B241000020
:103CB000444800007E4F0000715700002F60000054
:103CC000CE69000062740000FF7F000000001E0645
:103CD000210CF01170178C1C252126259828042B07
:103CE000462D642EE02E642E462D042B9828262582
:103CF00025218C1C7017F011210C1E060000E2F922
:103D0000DFF310EE90E874E3DBDEDADA68D7FCD498
:103D1000BAD29CD120D19CD1BAD2FCD468D7DADAFD
:103D2000DBDE74E390E810EEDFF3E2F9303132339A
:103D300034353637383941424344454640305800DF
:103D40003031323334353637383961626364656611
:103D5000403078000400000800000000000000026D
:103D600000010000100000005B25732D636F646587
:103D7000632D625D207230443D2530326C582072D4
:103D800030453D2530326C58207230463D2530326A
:103D90006C58207231303D2530326C5820723131F0
:103DA0003D2530326C58207231323D2530326C580E
:103DB000207231333D2530326C58207231343D252C
:103DC00030326C58207231363D2530326C582072BA
:103DD00032353D2530326C58207233313D2530323A
:103DE0006C58207233323D2530326C582072333398
:103DF0003D2530326C58207233343D2530326C58BA
:103E0000207233373D2530326C58207234343D25D2
:103E100030326C580D0A00005B25732D636F6465AA
:103E2000632D615D207230303D2530326C58207238
:103E300030313D2530326C58207230323D253032E1
:103E40006C58207230333D2530326C58207230343B
:103E50003D2530326C58207230353D2530326C585B
:103E6000207230363D2530326C58207230373D2577
:103E700030326C58207230383D2530326C58207208
:103E800030393D2530326C58207230413D2530327A
:103E90006C58207230423D2530326C5820723043CD
:103EA0003D2530326C580D0A000000005B25732D53
:103EB000636F6465632D635D207231353D2530325B
:103EC0006C58207231373D2530326C5820723138B1
:103ED0003D2530326C58207231393D2530326C58D6
:103EE000207231413D2530326C58207231423D25DF
:103EF00030326C58207231433D2530326C580D0AF7
:103F0000000000005B25732D6D63755D2073706983
:103F10005F73723D30782530346C5820693273639A
:103F20006667723D30782530346C58206932737082
:103F3000723D30782530346C58207370695F63723D
:103F4000323D30782530346C58207263635F63668D
:103F500067723D30782530386C58206770696F5F24
:103F600069647220413D30782530346C5820423DE0
:103F700030782530346C5820433D30782530346C0F
:103F800058206770696F5F6F647220413D307825FB
:103F900030346C5820423D30782530346C58204302
:103FA0003D30782530346C580D0A00005B25732DA8
:103FB000636865636B5D206932633D2573206D63C3
:103FC000755F6D61737465725F74783D25732063EE
:103FD0006F6465635F636C6B733D2573206461631D
:103FE0005F7364703D257320616D705F656E616203
:103FF0006C65643D25732074785F7365656E3D253F
:10400000732073723D256C752069327370723D3078
:10401000782530346C580D0A000000005B25732DA4
:104020006932635D2073636C5F69646C653D256C08
:1040300075207364615F69646C653D256C752072E1
:1040400065636F7665725F70756C7365733D256C23
:104050007520617474656D7074733D256C75207086
:10406000726F626533303D25642070726F62653314
:10407000323D2564207033305F61636B3D25642FD2
:1040800025642F2564207033325F61636B3D2564A6
:104090002F25642F25640D0A000000005B72656304
:1040A0006F72642D736F66742D76256C755D207349
:1040B0006B69703D256C7520656467653D257320CF
:1040C00073636F72653D256C75206C706B3D256C5C
:1040D000752072706B3D256C75206C6E7A3D256C79
:1040E0007520726E7A3D256C75206C6368673D257E
:1040F0006C7520726368673D256C75206869676818
:104100003D256C752065646765733D256C7520667B
:10411000697273743D25642F2564206C6173743D4E
:1041200025642F25640D0A005B25735D206D6F6487
:10413000653D25642074785F6672616D65733D2509
:104140006C752072785F6672616D65733D256C7564
:104150002073723D256C752063683D256C75206366
:104160006F6465635F616464723D30782530326CE2
:1041700058206661696C5F7265673D307825303222
:104180006C5820616D705F706331333D256C752014
:10419000646D615F756E6465723D256C7520646D3C
:1041A000615F757365643D256C7520646D615F7733
:1041B0003D256C75206C6173745F6572726F723D22
:1041C00025640D0A000000005B7265636F72645D18
:1041D0002073616D706C65735F7065725F63686199
:1041E0006E6E656C3D256C752063683D256C752091
:1041F00073723D256C75206475726174696F6E5FB2
:10420000733D256C7520616470636D5F62797465C0
:10421000733D256C75206368756E6B3D256C75204C
:10422000746F6E653D2564206D6F6E69746F723DAD
:1042300025642076617269616E743D256C7520720B
:104240006573756C743D25640D0A00005B726563CF
:104250006F72642D636170747572655D206D696E37
:104260003D2564206D61783D2564207065616B3D5E
:10427000256C75206D65616E5F6162733D256C759F
:10428000206E6F6E7A65726F3D256C75207A65724F
:104290006F3D256C7520636C69707065643D256C9D
:1042A000752064635F6573743D25640D0A0000002A
:1042B0005B617564696F2D7265636F72645D2070F8
:1042C00072652D746F6E652031733B206C69766565
:1042D000206D6F6E69746F722038733B2072656356
:1042E0006F72642035733B20706C61796261636B1F
:1042F0000D0A00005B617564696F2D7265636F72F2
:10430000645D20696E6974206661696C6564206211
:1043100065666F7265207265636F72643B206368C7
:1043200065636B20455338333131204932432F7058
:104330006F7765722F636F6E6E656374696F6E0D54
:104340000A0000005B617564696F2D7265636F72AE
:10435000645D207265636F726420696E69742066A3
:1043600061696C65643B20636865636B2045533805
:10437000333131204144432F6D69632F493253203B
:1043800073657475700D0A005B25732D6368656332
:104390006B5D206932633D2573206D63755F6D61D0
:1043A000737465725F72783D257320636F64656313
:1043B0005F636C6B733D2573206164635F706F771F
:1043C00065723D2573206D69635F706174683D257A
:1043D00073206164635F7364703D2573206173644F
:1043E0006F75745F70696E3D2573206164636461ED
:1043F000745F73656C3D2573207370695F6F7672AF
:104400003D257320636170747572653D5042345F61
:10441000534F46545F464958454420617564696F5F
:104420005F7365656E3D25730D0A00005B25732D76
:10443000636865636B2D64657461696C5D207230BF
:10444000375F7472695F6164636461743D256C7584
:10445000207231345F646D69633D256C7520723163
:10446000345F6C696E73656C3D256C7520723134F8
:104470005F6761696E3D3078256C58207231365F18
:104480007363616C653D3078256C58207231375FFD
:10449000616463766F6C3D30782530326C582072E1
:1044A00030413D30782530326C58207234345F61B1
:1044B0006463326461633D256C75207234345F61DE
:1044C00064636461745F73656C3D256C75207278FC
:1044D0005F6F76723D256C7520736F66745F6672D0
:1044E000616D65733D256C752062636C6B5F746FE5
:1044F0003D256C75206C72636B5F746F3D256C7528
:104500002070696E5F686967683D256C7520706909
:104510006E5F65646765733D256C750D0A0000006C
:104520005B25732D72787261775D206C6566745FB0
:104530007065616B3D256C752072696768745F708A
:1045400065616B3D256C75206C6566745F6E7A3DA8
:10455000256C752072696768745F6E7A3D256C758D
:104560002074696D656F7574733D256C75206F7669
:10457000657272756E733D256C7520736F66745F1E
:104580006672616D65733D256C752062636C6B5F4F
:10459000746F3D256C75206C72636B5F746F3D2585
:1045A0006C752070696E5F686967683D256C752061
:1045B00070696E5F65646765733D256C750D0A00F3
:1045C0005B7265636F72642D73746167655D20252E
:1045D00073206D6F64653D25642073723D256C7595
:1045E0002063683D256C752074783D256C752072BC
:1045F000783D256C75206C706B3D256C7520727054
:104600006B3D256C75206C6E7A3D256C7520726E45
:104610007A3D256C7520736F66743D256C7520742A
:104620006F3D256C75206F763D256C752072313697
:104630003D30782530326C58207231373D30782546
:1046400030326C58207234343D30782530326C581A
:10465000206572723D25640D0A0000005B7265637F
:104660006F72642D73746167655D2063617074752A
:10467000726520646F6E65207065616B3D256C7599
:10468000206D65616E3D256C75206D696E3D2564FC
:10469000206D61783D2564206761696E3D256C75EC
:1046A0000D0A0000C446000800000020540000006D
:1046B0006C0100081847000854000020949E000078
:1046C0008801000801000000000000000100000057
:1046D00000000000000000000000000000000000DA
:1046E0003000000002000000000000000000000098
:1046F00000000000000000000000000000000000BA
:10470000000000000204060800000000010203048B
:08471000010203040607080979
:0400000508000131BD
:00000001FF
