:020000040800F2
:10000000D8EF0020E9010008170C00089F0A00083B
:10001000150C0008D9070008B910000800000000FE
:10002000000000000000000000000000130E0008A7
:100030001509000800000000910C0008D50E00080A
:10004000030200080302000803020008030200087C
:10005000030200080302000803020008190900084F
:10006000030200080302000803020008030200085C
:10007000030200080302000803020008030200084C
:10008000030200080302000803020008030200083C
:10009000030200080302000803020008030200082C
:1000A000030200080302000803020008030200081C
:1000B000030200080302000803020008030200080C
:1000C00003020008030200080302000803020008FC
:1000D00003020008290F00080302000803020008B9
:1000E00003020008030200080302000803020008DC
:1000F00003020008030200080302000803020008CC
:1001000003020008030200080302000803020008BB
:1001100003020008030200080302000803020008AB
:10012000030200080302000803020008030200089B
:1001300000F002F800F048F80AA090E8000C8244B1
:100140008344AAF10107DA4501D100F03DF8AFF28E
:10015000090EBAE80F0013F0010F18BFFB1A43F0A5
:10016000010318471449000034490000103A24BF25
:1001700078C878C1FAD8520724BF30C830C144BF0C
:1001800004680C607047000000230024002500264E
:10019000103A28BF78C1FBD8520728BF30C148BFEA
:1001A0000B607047642900F09D80752900F09A80EB
:1001B000782900F0D380732900F0AA8200207047CC
:1001C0001FB51FBD10B510BD00F0D4FA1146FFF7E2
:1001D000F7FF03F009FD00F0F2FA03B4FFF7F2FFB6
:1001E00003BC00F071FF0000094880470948004740
:1001F000FEE7FEE7FEE7FEE7FEE7FEE7FEE7FEE7D7
:10020000FEE7FEE704480549054A064B7047000033
:10021000D90E000831010008D8CD0020D8EF002009
:10022000D8CF0020D8CF0020704700000FB4044979
:1002300010B503AA029800F06FFA10BC5DF814FB29
:100240000400002070B5044685690068C10601D528
:10025000302600E02026C00707D070BDD4E9012178
:1002600030469047206A401C20626D1EF6D570BD56
:1002700070B5044685690078C00707D170BDD4E920
:10028000012120209047206A401C20626D1EF6D577
:1002900070BD70B50C460546012A05D02878800649
:1002A00000D5EA69002302E0012305E05B1C9342CC
:1002B00002D2E05C0028F9D1A869E618C01AA8614A
:1002C000286A184428622846FFF7BCFF04E0D5E9F5
:1002D000012114F8010B9047B442F8D32846FFF7E8
:1002E000C7FF70BD2DE9F04106460024106875294E
:1002F000314616A510D0AFF30080002802DA404244
:1003000013A507E031688A0701D512A502E0490765
:1003100004D511A5012401E0AFF3008000210A22D9
:1003200006F1240709E0B0FBF2FCB0FBF2F302FB9C
:100330001C00303078541846491C0028F3D123465D
:100340002A463046BDE8F04100F077B900000000D1
:100350002D0000002B0000002000000070B50446B6
:100360000D4621461068AFF300802188090502D5AB
:100370000F4A7A4402E00E4A7A440E32002104F118
:10038000240305E000F00F060009965D5E54491C49
:100390000028F7D120780023000704D5702D02D063
:1003A00009B1022311322046BDE8704000F045B982
:1003B000BE3C00002DE9F05F894604464FF0000A7C
:1003C000DFF874B1FB44C0F820A02046E1688847FC
:1003D000002874D0252806D0D4E901219047206A4E
:1003E000401C2062F1E700265F462046E16888470E
:1003F0002028054607DB312D05D2781910F8200C8E
:1004000008B10643F1E7B00701D526F00406C4F8A9
:100410001CA00027C4F818A02A2D09D0284600F0F7
:100420004CFE38B304EB8708303DC8F8185019E08B
:1004300059F8041B204604EB87029161E168884764
:10044000012F054618D1E069002820DA26F02006A1
:100450001DE0D8F8180000EB800005EB40003038B4
:10046000C8F818002046E1688847054600F025FED8
:100470000028EED1012F0AD02E2D08D12046E168A8
:1004800088477F1C0546022F46F02006C4DBA06982
:10049000002803DA404246F00106A061F00701D0CF
:1004A00026F010066C2D0BD0682D09D04C2D39D0BC
:1004B0006A2D35D0742D35D07A2D33D016E038E042
:1004C000E1682F4620468847B842054609D16C2F7F
:1004D00026D04FF48060E1680643204688470546F1
:1004E00004E06C2F1AD04FF4807006430DB3A5F1D1
:1004F0004100192802D8203546F400664A462946AC
:10050000204626604E46FFF74DFE80B101280BD0F5
:10051000F61D26F0070000F1080956E74020E4E741
:100520008020D8E70020D6E706F104094DE72846E9
:1005300052E7206ABDE8F09F943C000010B5203AD5
:10054000C0F00B80B1E81850203AA0E81850B1E88C
:100550001850A0E81850BFF4F5AF5FEA027C24BF42
:10056000B1E81850A0E8185044BF18C918C0BDE839
:1005700010405FEA827C24BF51F8043B40F8043B02
:1005800008BF7047D20728BF31F8023B48BF11F8B7
:10059000012B28BF20F8023B48BF00F8012B704711
:1005A0004FF000020429C0F0128010F0030C00F09C
:1005B0001B80CCF1040CBCF1020F18BF00F8012B1A
:1005C000A8BF20F8022BA1EB0C0100F00DB85FEAE8
:1005D000C17C24BF00F8012B00F8012B48BF00F8B4
:1005E000012B70474FF0000200B513469446964623
:1005F000203922BFA0E80C50A0E80C50B1F1200136
:10060000BFF4F7AF090728BFA0E80C5048BF0CC0E3
:100610005DF804EB890028BF40F8042B08BF704741
:1006200048BF20F8022B11F0804F18BF00F8012BB3
:10063000704770477047704770472DE9F0470D4687
:1006400099469246044600F124080168880604D5BC
:10065000E06921F01001216000E00120A84201DDE5
:10066000471B00E00027A1697A1902EB0900081A6C
:10067000A0612078C00602D42046FFF7E3FD0026E3
:1006800008E0D4E901211AF806009047206A401CCE
:10069000761C20624E45F4DB2078C0060AD5204641
:1006A000FFF7D0FD06E0D4E9012130209047206A11
:1006B000401C2062381EA7F10107F4DC07E0D4E9F2
:1006C000012118F805009047206A401C2062281E6E
:1006D000A5F10105F3DC2046FFF7CAFD20780006EE
:1006E00002D50220BDE8F0870120FBE710B5436981
:1006F00013B1AFF3008001E0FFF7CBFD012010BD87
:10070000127800F124010A7000224A700122EDE7FC
:1007100011684FF0FF32E9E7074B70B50D467B4497
:1007200000F011F80446284600F020F810B14FF010
:10073000FF3070BD204670BD9333000001694A1C34
:1007400002610878704700B58FB0CDE90131002112
:10075000059105497944CDE9031011466846FFF734
:1007600029FE0FB000BD0000E5FFFFFF007B00F099
:1007700080007047754600F02BF8AE4605006946CC
:10078000534620F00700854618B020B5FFF73AFD24
:10079000BDE820404FF000064FF000074FF0000882
:1007A0004FF0000B21F00701AC46ACE8C009ACE803
:1007B000C009ACE8C009ACE8C0098D46704710B567
:1007C0000446AFF300802046BDE81040FFF705BDAA
:1007D0000048704774CD0020FEE70029016802D070
:1007E00041F0010102E04FF6FE72114001607047D6
:1007F00001684FF6FE721140016000210160416006
:100800008160C1603149314A0839904203D148685A
:1008100040F00F0006E02D4A1432904204D148689F
:1008200040F0F00048607047284A2832904203D1D7
:10083000486840F47060F5E7244A3C32904203D1A6
:10084000486840F47040EDE7204A5032904203D1AE
:10085000486840F47020E5E71C4A6432904203D1B6
:10086000486840F47000DDE7184A7832904203D1BE
:10087000486840F07060D5E7154A111F904203D1D7
:10088000086840F00F0006E0114A1432904204D18B
:10089000086840F0F000086070470D4A2832904226
:1008A00003D1086840F47060F5E7094A3C32904291
:1008B00003D1086840F47040EDE7054A5032904299
:1008C000EAD1086840F47020E5E700000800024023
:1008D00008040240406880B2704730B5036847F6AC
:1008E000F07293430C6A8A682243D1E904452C4391
:1008F00022438C692243CC6922434C6A22438C6A8E
:1009000022431A430260CA6842600A6882604968EA
:10091000C16030BD7047000010B5104C0221204668
:1009200000F0A6F8012812D10A2002F095FB02215E
:10093000204600F09DF8012809D10948017859B1F5
:10094000002202704FF48041064800F0A3F8BDE891
:100950001040022000F008B80122F2E70018014020
:1009600000000020001401400149086070470000A9
:1009700014040140F0B5CA78002502F00F03D20636
:1009800001D58A7813430A784FF00F0E12F0FF0F4B
:100990004FF001021CD004680F8802FA05F63740B8
:1009A000B74211D14FEA850C0EFA0CF724EA07077B
:1009B00003FA0CF43C43CF78282F02D0482F02D002
:1009C00002E0466100E006616D1C082DE4D304607E
:1009D0000C88FF2C1ED944685FF0000606F108075A
:1009E00002FA07F50F882F40AF420FD14FEA860C6D
:1009F0000EFA0CF7BC4303FA0CF73C43CF78282FD0
:100A000000D14561CF78482F00D10561761C082EB2
:100A1000E4D34460F0BD0000F0B5144C002801DAC6
:100A2000E36900E06368420D120185B2C0F301572B
:100A30009540C0F30346032F05D0C2020AD5032216
:100A4000B240934307E023F07062636823F0706361
:100A5000636002E0AB4343F0706201B12A430028B7
:100A600001DAE261F0BD6260F0BD0000000001400B
:100A70000246002092680A4200D0012070470246D8
:100A80000020D2680A4200D00120704741617047BF
:100A9000016170470AB10161704741617047FEE72B
:100AA0000029818B02D041F4806101E021F4806152
:100AB00081837047F0B505460C4602200021AA8BC1
:100AC00085B001264FF240031A40AA832884AF8BD9
:100AD000A268022A27D0A08800B10226684600F04A
:100AE00015F9E1880098B1F5007F2DD07101B0FBB8
:100AF000F1F000BF00EB8000A1684000B0FBF1F016
:100B0000401D80B20A21B0FBF1F000F00101401A53
:100B10004FF6FF72C0F34F0002EA0121821EFE2A47
:100B200001D302200021E288084302432A8420885E
:100B30006188A2890843A18811430843384340F4DF
:100B40000060A88305B0F0BD000AD3E72DE9F041AD
:100B50000C46064686B090460121052000F0BEF8FE
:100B600000210420FFF758FF4FF40070ADF810008B
:100B700003258DF812501820244F8DF8130004A976
:100B80003846FFF7F7FE3815ADF810008DF8125013
:100B900048208DF8130004A93846FFF7EBFE012129
:100BA000880300F09BF800200C21ADF80A10ADF886
:100BB0000600174DADF80C00ADF80800ADF80400C4
:100BC00000966946284600F01DFA0121284600F0EB
:100BD000D7F9012240F22551284600F0FAF9012206
:100BE00040F22441284600F0F4F925208DF8140045
:100BF00001208DF817008DF815408DF8168005A896
:100C000000F00AF806B0BDE8F081000000080140DD
:100C100000380140FEE7704770B50F23C4780178B3
:100C20000122F4B1144C2468457804F4E064C4F55E
:100C3000E064240AC4F10406E3408478B5401C4013
:100C40002C4301F1E021230181F80034007800F009
:100C50001F018A404009800000F1E020C0F8002117
:100C600070BD01F01F0082404809800000F1E020C3
:100C7000C0F8802170BD00000CED00E0024908437F
:100C800002490860704700000000FA050CED00E022
:100C900070470000044A0029516901D0014300E077
:100CA000814351617047000000100240044A00294E
:100CB000D16901D0014300E08143D1617047000058
:100CC00000100240044A0029116901D0014300E0EC
:100CD000814311617047000000100240044A00295E
:100CE000916901D0014300E08143916170470000A8
:100CF00000100240044A0029D16801D0014300E0FD
:100D00008143D160704700000010024030B51F4998
:100D10004A6812F00C031E4A03D0042B01D0082BA2
:100D200021D002604A680F231A4C03EA1212A35C16
:100D30000268DA4042604B68072505EA1323E35C4A
:100D400022FA03F383604B6805EAD323E35CDA40BD
:100D5000C2604968032303EA9131231F595CB2FB47
:100D6000F1F1016130BD4A684B6802F470124FF036
:100D7000020413F4803F04EB924202D04B689B03C1
:100D800001D5054B00E0024B5A43CAE70010024070
:100D900000127A004400002000093D00002A8288E9
:100DA00001D00A4300E08A4382807047114910B5A0
:100DB00088420AD1841401212046FFF79BFF204678
:100DC000BDE810400021FFF795BF0B49884202D1D2
:100DD0000121041404E0094988420AD10121C41305
:100DE0002046FFF76FFF2046BDE810400021FFF7C7
:100DF00069BF10BD0030014000380040003C004099
:100E00000246002012890A4200D0012070478181E9
:100E1000704770470CB50021264801910091026887
:100E200042F4803202604FF4A063026802F40032A0
:100E30000092019A521C0192009A12B9019A9A42A8
:100E4000F3D10268920333D5012100911A490A684F
:100E500042F010020A600A6822F003020A600A687F
:100E600042F002020A6041684160416841604168A5
:100E700041F480614160416821F47C114160416826
:100E800041F4E8114160016841F08071016001683E
:100E90008901FCD5416821F003014160416841F0BE
:100EA000020141604168C1F381010229FAD10CBD00
:100EB00000910CBD00100240002002404FF0E021E4
:100EC0000428086903D020F004000861704740F04E
:100ED0000400FAE7704700000F4810B5016841F0C0
:100EE0000101016041680D4A1140416001680C4AEE
:100EF00011400160016821F480210160416821F402
:100F0000FE0141604FF41F018160FFF783FF054937
:100F10004FF00060086010BD001002400000FFF8B4
:100F2000FFFFF6FE08ED00E070B5124D40F22551CE
:100F3000284600F02FF8104C012601280CD120780B
:100F4000802808D2284600F0B3F80C4A2178505483
:100F5000491C217000E0667040F22441284600F0F0
:100F600019F8012804D128880248001D00886670FD
:100F700070BD000000380140010000205400002036
:100F80000029818902D041F4005101E021F400518F
:100F90008181704730B501F01F0201240025C1F3A3
:100FA000421304FA02F2012B0FD0022B0FD0838AD6
:100FB0004FEA11210088134204FA01F400EA040008
:100FC00001D000B10125284630BD8389F0E7038AAE
:100FD000EEE710B5C1F3421301F01F040121A14057
:100FE000012B07D0022B07D01430002A026805D04D
:100FF0000A4304E00C30F8E71030F6E78A43026059
:1010000010BD000030B50446008A85B00D464CF690
:10101000FF710840E98801432182A1894EF6F3104F
:101020000140A8882A8910436A890A431043A08195
:10103000A08A4FF6FF410840A9890143A182684672
:10104000FFF764FE1948844201D1039800E002983A
:10105000A189090400EBC00101EB0010296801D54A
:10106000490000E08900B0FBF1F06422B0FBF2F12E
:1010700009010B096FF018056B4300EB8300A3898E
:101080001D044FF0320306D503EBC000B0FBF2F0B5
:1010900000F0070005E003EB0010B0FBF2F000F0F9
:1010A0000F000843208105B030BD0000003801402A
:1010B0008088C0F308007047FEE730380A2801D264
:1010C0000120704700207047704708B5002000904D
:1010D00000BF401C0090DC28FADB08BD002804DAC1
:1010E00010F5004F02DC4FF400407047404270475B
:1010F00070B50D4604464068154951F82010C810D7
:101100006A0700D50844AA0701D500EB6100EA0789
:1011100001D000EBA10021682A0701D5081A00E0E0
:101120000844206000F0B6F8094B206005F00F027B
:10113000403B014653F8222060688018606001D56A
:10114000002002E0582801DD5820606008B270BD20
:10115000703E000870B5054640681D4A2B684FF088
:10116000000452F82020C81A4FEAE20101D50824F1
:101170004042904203DB44F00404801A1144B0EB77
:10118000620F05DB44F00204A0EB620001EB620198
:10119000B0EBA20F03DB44F0010401EBA201200736
:1011A00001D5581A00E05818286000F073F8084A72
:1011B00028602046403A696852F820208918696002
:1011C00001D5002102E0582901DD5821696070BD78
:1011D000703E00082DE9FC4700200090019049F680
:1011E00040412748FFF7FEF9264E274DDFF8909043
:1011F000264F0024A6F58078254800F02DFE18B172
:101200004FF0FF30BDE8FC87B8F9000001021CB1C7
:10121000EA68891A02EB2121A0EB2120E96009127A
:10122000F16300F037F800B2A8F800001CB129699A
:10123000401A01EBA000286100F02CF801B2A8F8D8
:101240000010204600F098FBB8F900106846FFF740
:1012500081FF01466008E2070FD019F8003043EA29
:10126000011309F80030641CBC42C5D337606868BC
:10127000B0FBF7F0F0610020C4E709F80010F2E7D6
:10128000D4000020149E00200800002080380100B7
:10129000149D0020B0F5004F02DB47F6FF70704749
:1012A00002498842FBDA0846704700000080FFFFD1
:1012B0002DE9FC4740F6A8519848FFF793F9974C61
:1012C00001204FF47A5605216060C4E9026149F6B5
:1012D0004041C4E9041000F0F9FA91A0FEF7A6FF1E
:1012E00001F0B0FA04F5D9674FF4DC7558B16FF02E
:1012F0000406666501F060F901462A463846FFF7A4
:101300001DF993A0C2E0B146484601F09FFD4FF49D
:101310007A78414695A0FEF789FF404601F06CFBC4
:10132000E06401F047F99BA000F0F2FA9DA0FEF7FF
:101330007DFF304601F0B4FAA34E78B14FF0FF378D
:10134000676501F039F901462A463046FFF7F6F89D
:101350009EA000F0DDFA3846BDE8FC874FF48058C7
:10136000404601F09BFC01F027F901462A46304631
:10137000FFF7E4F89AA000F0CBFA4FF4FA563146A2
:101380009BA0FEF753FF304600F040FB206540462F
:1013900001F084FC01F010F901462A46A248FFF74B
:1013A000CDF8A2A000F0B4FA404601F077FCA5A069
:1013B000FEF73CFF59480C21883001F04DFB01F04D
:1013C000FFF80146A064A9A0FEF730FFDFF8D08245
:1013D000B4A04146FEF72AFFFFF7FCFEBF4E58B10E
:1013E00001F0EAF801462A463046FFF7A7F86FF009
:1013F0000105BBA065657DE001F0DEF801462A46E7
:101400003046FFF79BF8BA4A5168B1FBF8F1E16149
:101410009168B1FBF8F02063B649002023180E5CF8
:1014200003F8786F0E1806F51046401C96F8386CD5
:101430001E720828F2D3A16901204E1E47F22F53D5
:101440009E4205D20B44B3FBF1F0402800D9402066
:101450001060A063626CCDE90020A748236CE269AC
:10146000FEF7E4FEA5A000F053FAA8A0FEF7DEFE0A
:1014700001F0E8F970B16FF00206666501F09CF8C2
:1014800001462A463846FFF759F8AAA000F040FA6C
:10149000304661E701F090F801462A463846FFF7EA
:1014A0004DF8A9A000F034FA484601F0CFFC01F055
:1014B00083F801462A46A948FFF740F8A8A0FEF79E
:1014C000B5FEFA2001F098FA01F074F8AEA0FEF72C
:1014D000ADFE00F08DF9B74E80B101F06BF801F070
:1014E0006BF801462A463046FFF728F86FF00305EF
:1014F000B1A0656500F00CFA28462DE701F05AF816
:1015000001F05AF801462A463046FFF717F8B0A016
:1015100000F0FEF9002060651EE70000149E002028
:101520005B7265636F72642D73746167655D2069BA
:101530006E69742D706C61796261636B2D666F7278
:101540002D746F6E652073746172740D0A00000053
:10155000696E69742D706C61796261636B2D666F61
:10156000722D746F6E65206661696C005B726563D5
:101570006F72642D73746167655D207072652D7480
:101580006F6E65207374617274206D733D256C7588
:101590000D0A00007072652D746F6E6520646F6EA9
:1015A000650000005B7265636F72642D7374616720
:1015B000655D20696E69742D7265636F7264207356
:1015C000746172740D0A00006CA10020696E697468
:1015D0002D7265636F7264206661696C00000000A3
:1015E000696E69742D7265636F7264206F6B0000A1
:1015F0005B7265636F72642D73746167655D2061F2
:1016000064632D6461632D6D6F6E69746F722073F6
:1016100074617274206D733D256C75207370656103
:101620006B2D6E6F770D0A004CA800206164632D4E
:101630006461632D6D6F6E69746F7220646F6E6587
:10164000000000005B7265636F72642D73746167E4
:10165000655D20736F66742D6932732070726F62DE
:10166000652073746172740D0A0000005B7265631B
:101670006F72642D73746167655D20736F66742D7E
:101680006932732070726F626520646F6E652073BB
:10169000656C65637465643D256C750D0A0000001A
:1016A000803801005B7265636F72642D73746167CB
:1016B000655D206361707475726520737461727406
:1016C0002073616D706C65733D256C75207370655A
:1016D000616B2D6E6F770D0A0000000024A30020BF
:1016E00063617074757265206661696C000000004A
:1016F00008000020D4000020304A000863617074A4
:1017000075726520626F6172640000005B726563D0
:101710006F72642D73746167655D20696E69742DE5
:10172000706C61796261636B2073746172740D0A0D
:1017300000000000696E69742D706C6179626163EC
:101740006B206661696C0000696E69742D706C6154
:10175000796261636B206F6B0000000094A600202B
:101760005B7265636F72642D73746167655D207071
:101770006C61796261636B2D6D61726B6572207350
:10178000746172740D0A00005B7265636F72642D80
:1017900073746167655D20706C61796261636B2D44
:1017A0007265636F726465642073746172740D0A8C
:1017B0000000000004AA0020706C61796261636B14
:1017C0002D7265636F72646564206661696C0000E8
:1017D000706C61796261636B2D7265636F726465B1
:1017E0006420646F6E65000000487047149E0020FE
:1017F0002DE9FC5F0020DFF8BC9000900646DFF882
:10180000B880DFF8B8B0A9F5807A019002E0A71B94
:10181000802F02D98027002501E0002531E07019D2
:101820000BEB5001C00709780CD009096846FFF797
:101830005FFCD8F800104843B0F5004F05DB47F6D1
:10184000FF7406E001F00F01F0E71D4CA04200DB41
:1018500004B22AF815402046FFF740FC0146D9F8AB
:101860002C2048468A4200D2C1621CB1426B521CF5
:10187000C9F83420D8F80820124C11446D1CC8F85F
:101880000810BD42CBD3012239460F4801F048F879
:1018900018B14FF0FF30BDE8FC9F3E44A642B6D3DE
:1018A0000848D8F80810B1FBF0F10020C9F8301052
:1018B000F1E70000149E002008000020D400002062
:1018C0000080FFFF80380100149D00200E49002099
:1018D000012248608860C8600A6008610B4947F6C9
:1018E000FF738A63DA43C1E9103240318861C8610D
:1018F000086248628862C862086348638863C86394
:10190000086448647047000008000020149E00200E
:1019100030B58FB0044600F04FFED0E92C120DF127
:10192000280CD0F8B051D0F8D4308CE82E00D0E993
:101930004C230DF1180CD0F82011D0F828518CE868
:101940002E00D0E946350DF1080C4168D0F814217D
:101950008CE82E0050F8AC2B50F8A01CCDE90012FA
:1019600050F8A43CD0F8082121460248FEF75EFC5E
:101970000FB030BD9449000870B505460C460846C6
:10198000FFF7ACFB01461848026CA24200DD04647C
:10199000426CA24200DA446482698A4200D28161C8
:1019A000124A5342E4B1066A761C06629C4201DA8E
:1019B000944202DC826A521C82620B48082D00EBC2
:1019C000450001D2A0F85840094A954203D3A0F53A
:1019D0002030A0F8784F074842681144416070BD3C
:1019E000426A521C4262E8E7149E00200880FFFF12
:1019F0007838010008000020002804DA10F5004FB4
:101A000002DC4FF400407047404270472DE9F84F28
:101A1000274E04460020B1688DF8000009B94BF646
:101A2000803161434FF47A70B1FBF0F7694644208E
:101A300001F0CEFF4FF0FF38A8BB9DF8000040F04A
:101A40008001442002F014F80546142001F004FB44
:101A5000DFF860A04FF4005949465046FFF716F8EA
:101A600000F03EF8D6F8B401022801D0002408E0C6
:101A7000204601F0F1FA08E00021084600F05CFD84
:101A8000641CBC42F8D300F079FC9DF8001044209F
:101A900001F0EEFF40EA050449465046FEF7F8FF24
:101AA00000F01EF814B14046BDE8F88F0020FBE7B7
:101AB000BCCB00200010014000EB800040006421FE
:101AC00090FBF1F1B1F5004F02DB47F6FF70704774
:101AD00002488142FBDB08B2704700000080FFFF34
:101AE00038B56946002001F073FFB74C10B99DF876
:101AF0000000A0646946012001F06AFF10B99DF85A
:101B00000000E0646946022001F062FF10B99DF810
:101B1000000020656946032001F05AFF10B99DF8C6
:101B2000000060656946042001F052FF10B99DF87D
:101B30000000A0656946052001F04AFF10B99DF834
:101B40000000E0656946062001F042FF10B99DF8EB
:101B5000000020666946072001F03AFF10B99DF8A1
:101B6000000060666946082001F032FF10B99DF858
:101B70000000A0666946092001F02AFF10B99DF80F
:101B80000000E06669460A2001F022FF10B99DF8C6
:101B90000000206769460B2001F01AFF10B99DF87C
:101BA0000000606769460C2001F012FF10B99DF833
:101BB0000000A06769460D2001F00AFF18B99DF8E2
:101BC0000000C4F88C0069460E2001F001FF18B92E
:101BD0009DF80000C4F8900069460F2001F0F8FE5F
:101BE00018B99DF80000C4F894006946102001F06F
:101BF000EFFE18B99DF80000C4F89800694611205E
:101C000001F0E6FE18B99DF80000C4F89C00694692
:101C1000122001F0DDFE18B99DF80000C4F8A00004
:101C20006946132001F0D4FE18B99DF80000C4F8ED
:101C3000A4006946142001F0CBFE18B99DF80000FD
:101C4000C4F8A8006946152001F0C2FE18B99DF835
:101C50000000C4F8AC006946162001F0B9FE18B9BE
:101C60009DF80000C4F8B0006946172001F0B0FEEE
:101C700018B99DF80000C4F8B4006946182001F0B6
:101C8000A7FE18B99DF80000C4F8B80069461920ED
:101C900001F09EFE18B99DF80000C4F8BC0069462A
:101CA0001A2001F095FE18B99DF80000C4F8C00094
:101CB00069461B2001F08CFE18B99DF80000C4F89D
:101CC000C40069461C2001F083FE18B99DF800008D
:101CD000C4F8C8006946252001F07AFE18B99DF8BD
:101CE0000000C4F8CC006946312001F071FE18B93B
:101CF0009DF80000C4F880006946322001F068FEBB
:101D000010B99DF80000E0676946332001F060FEDD
:101D100018B99DF80000C4F884006946342001F029
:101D200057FE18B99DF80000C4F8880069463720AE
:101D300001F04EFE18B99DF80000C4F8D0006946C5
:101D4000442001F045FE18B99DF80000C4F8D40005
:101D50001E48008844F8D80F1C4814300088606082
:101D60001A4818300088A0601848001F0088E060FA
:101D7000174800682061174800686061164881684C
:101D8000A1611349091D0968E1611249091D09682A
:101D90002162C168616211494968A1624114FEF77C
:101DA0006EFE0C4DE062083D40212846FEF760FEC5
:101DB00044F8C00C80212846FEF75AFE44F8BC0CBB
:101DC00001F016F938BD0000BCCB0020083C0040F3
:101DD00008080140080C01400010014000100240BA
:101DE000174810B50088174C44F8D80F1448143021
:101DF00000886060124818300088A0601048001FFA
:101E00000088E06010480068206110480068606148
:101E10000F488168A1610C49091D0968E1610B49FE
:101E2000091D09682162C16861620A494968A162A5
:101E30004114FEF724FEE062BDE8104001F0D8B87E
:101E4000083C0040BCCB002008080140080C0140C1
:101E500000100140001002407CB5184C05000AD06B
:101E60000120E06001A96846666800F029F840B1E9
:101E70006FF002007CBD6FF00400C4F8B001C01028
:101E80007CBDBDF90420BDF90010304600F07CF89F
:101E9000BDF90400FFF7B0FD0646BDF90000FFF7ED
:101EA000ABFD864202D9BDF8040001E0BDF8000098
:101EB00028806068401C606000207CBDBCCB002096
:101EC00070B58AB00D46064607A904A8CDE9000101
:101ED000134808AB05AA06A9406801F011F8114C97
:101EE0000898C4F82C01079A04F5A070011F049B00
:101EF000CDE90032CDE90210BDF814302946304654
:101F0000069A00F011F818B14FF0FF300AB070BD1A
:101F1000D4F83001401CC4F830010020F6E700007E
:101F20001C000020BCCB00202DE9FE4F8346DDE9DC
:101F30000E54984691468A4601200D9E00F0FEFF01
:101F40004FF0FF37E0B9002000F0F8FFC0B900966D
:101F5000CDE901544246494658460C9B00F082FFA9
:101F600070B9012000F0EAFF50B90096CDE90154A4
:101F70004246494650460C9B00F074FF002800D0B2
:101F80003846BDE8FE8F00002DE9F04107461446B3
:101F90000D460846FFF730FD06462046FFF72CFDAC
:101FA00001461B48D0F81421B24201D2C0F8146196
:101FB000D0F818218A4201D2C0F8181125B1D0F802
:101FC0001C11491CC0F81C1124B1D0F82011491C67
:101FD000C0F82011082F05D200EB4701A1F870517D
:101FE000A1F880415FF0000100EB4102491CB2F80A
:101FF0009231A2F89031B2F8A231A2F8A0310729AB
:10200000F2D3A0F89E51A0F8AE41BDE8F0810000E7
:10201000BCCB002070B501F07BFC10B14FF0FF305D
:1020200070BDFA210D2001F023FD04460821442053
:1020300001F01EFD04430821442001F019FD044372
:102040008021002001F014FD0443052001F004F874
:102050008021002001F00CFD04433021012001F01B
:1020600007FD04430021022001F002FD044310217A
:10207000032001F0FDFC04432421162001F0F8FCAC
:1020800004431021042001F0F3FC04430021052047
:1020900001F0EEFC044300210B2001F0E9FC0443B5
:1020A00000210C2001F0E4FC04431F21102001F06A
:1020B000DFFC04437F21112001F0DAFC04430F21EF
:1020C000062001F0D5FC0443FF21072001F0D0FCDD
:1020D00004430421082001F0CBFC04430C21092017
:1020E00001F0C6FC04430C210A2001F0C1FC0443AA
:1020F0000821442001F0BCFC04430021312001F000
:10210000B7FC0443BF21322001F0B2FC044300219C
:10211000332001F0ADFC04430021342001F0A8FC81
:10212000044301210D2001F0A3FC0443782000F0BA
:1021300093FF02210E2001F09BFC04430121122099
:1021400001F096FC04431021132001F091FC04439C
:102150001A21142001F08CFC044306210D2001F00B
:1021600087FC04431E2000F077FF0021252001F0AA
:102170007FFC3F21012001F07BFC40EA04050C4C70
:102180006669FFF7ADFC00207DB1216951B194F87B
:102190004C10C943890605D194F86C1001F03F0139
:1021A0000C2902D02846666170BD6061002070BDB8
:1021B000BCCB002070B501F0ABFB10B14FF0FF308D
:1021C00070BDFA210D2001F053FC04460821442083
:1021D00001F04EFC04430821442001F049FC044373
:1021E0008021002001F044FC0443052000F034FF6E
:1021F0008021002001F03CFC04433021012001F04B
:1022000037FC04430021022001F032FC044310217A
:10221000032001F02DFC04432021042001F028FCC0
:1022200004430021052001F023FC04430321062080
:1022300001F01EFC04430021072001F019FC0443B7
:10224000FF21082001F014FC04430C21092001F0B7
:102250000FFC04430C210A2001F00AFC0443002176
:102260000B2001F005FC044300210C2001F000FCD0
:10227000044301210D2001F0FBFB0443782000F012
:10228000EBFE02210E2001F0F3FB044300210F209E
:1022900001F0EEFB04430021122001F0E9FB0443AE
:1022A0001021132001F0E4FB04431A21142001F053
:1022B000DFFB04434021152001F0DAFB0443242115
:1022C000162001F0D5FB0443BF21172001F0D0FBFD
:1022D00004430021182001F0CBFB04430021192006
:1022E00001F0C6FB044300211A2001F0C1FB0443A6
:1022F0000A211B2001F0BCFB04436A211C2001F0D1
:10230000B7FB04430021312001F0B2FB0443BF219D
:10231000322001F0ADFB04430021332001F0A8FB83
:1023200004430021342001F0A3FB0443082137209B
:1023300001F09EFB04430021442001F099FB04437B
:1023400001210D2001F094FB04431E2000F084FEC7
:102350003F21012001F08CFB40EA0405064C666930
:10236000FFF7BEFB15B100F04DFC10B1002060611D
:1023700070BD2846666170BDBCCB00202DE9F041E0
:10238000002600F0B9F804460C4D0D4F0BE000BFDD
:1023900000F0B2F8A04202D00026044602E0761C0B
:1023A000BE4206D800BFE86918B1D5E905018142EF
:1023B000EED8BDE8F04100F01BBE00001C0000207C
:1023C00000127A00084810B5C06900280AD00748F2
:1023D000FEF780FA4FF48051884200D90846404207
:1023E000C0F30B0010BD00001C0000201C040240C4
:1023F00070B500F081F80A4C0546A069A8420DD8D6
:10240000206A4FF40051401C20620648FEF7C8F8CD
:1024100005F58065C5F30B00A561A06070BD0000E7
:102420001C000020BCAB002070B54FF400548CB0F1
:1024300021462048FEF7B4F801210220FEF72AFCCD
:102440001D4E00213046FEF7C8F93046FEF7D0F9A0
:102450001A480090174801901020029000020025B1
:10246000CDE903058020059040000690800007908C
:1024700008AA202082E8310069463046FEF72DFA8E
:102480000E48012202210C38FEF788FC012130465B
:10249000FEF7A3F90A4C0120E061FFF793FFC4E9BE
:1024A0000305606100F58060A061C0F30B00A060CF
:1024B0000CB070BDBCAB00201C0402400C3C0040C2
:1024C0001C00002010B5002202210848FEF766FC1F
:1024D00000210748FEF781F906480021C1618160AB
:1024E000C16001614161816110BD0000003C00409C
:1024F0001C0402401C00002010B5FFF763FF0649D2
:10250000CA68904202D20A69521C0A61C8600A690C
:1025100000EB0230486110BD1C00002010B5FFF731
:10252000EBFF04498969814201D8002010BD081AD7
:1025300010BD00001C0000202DE9F0471A4C064693
:10254000DFF86880E0690D4618B102274FF47E6914
:1025500009E0304600F05EFD284600F05BFD1CE01F
:10256000FFF746FF00BFFFF7D9FF4845F8D2C0F597
:102570007E60B842F4D3FFF73BFF0D4AA06822F813
:102580001060401CC0F30B01A06922F81150491CD7
:10259000C1F30B01801CA160A061D8F80010491C98
:1025A000C8F80010BDE8F0871C000020BCCB00205C
:1025B000BCAB0020FFF7E2BE00487047BCCB002058
:1025C00001484068704700001C0000202DE9F843D6
:1025D00001211D20FEF782FB0121CE033046FEF7CC
:1025E00065FB01210220FEF755FB01212748FEF77C
:1025F00013FA03208DF80200C020ADF8000014206B
:10260000DFF88C808DF8030069464046FEF7B2F98A
:10261000802001F087FA402001F084FA052000F0C4
:102620001BFDB4101B4FADF8004010258DF8035072
:1026300069463846FEF79EF921463846FEF726FAE7
:102640008020ADF8000018248DF803406946384614
:10265000FEF790F9ADF800608DF8034069460E482A
:10266000FEF788F92820ADF800008DF80340694690
:102670004046FEF77FF9ADF8005004208DF80300C6
:1026800069464046FEF776F9BDE8F883000230005F
:10269000000C0140001001400008014008B5032073
:1026A0008DF802003020ADF8000004208DF8030002
:1026B00069460248FEF75EF908BD0000000C0140C3
:1026C00042F21C51884202D84FF4FA50704743F24C
:1026D000BC41884202D842F61130704744F6382196
:1026E000884202D84FF47A50704746F678118842F3
:1026F00002D845F22260704749F27041884202D800
:102700004FF4FA407047A0F52740F838B0F5FA6F5B
:1027100002D84AF6444070474BF6803070470000BC
:102720007FB50446FFF7CEFE194E3046FEF73EFB5E
:102730004FF44070ADF800000025ADF8045070155E
:10274000ADF80600ADF802502046FFF7B9FF029041
:10275000ADF80C5069463046FEF7ACF90121304621
:10276000FEF79EF90B490A4808308C600088C1F8D2
:10277000D80007481C300088C1F8DC00044820302D
:102780000088C1F8E000301D0088C1F8E4007FBD7A
:10279000003C0040BCCB00207FB50546FFF792FE11
:1027A000194E3046FEF702FB70150024ADF800000C
:1027B000ADF80440ADF80600ADF802402846FFF73A
:1027C0007FFF0290ADF80C4069463046FEF772F983
:1027D00001213046FEF764F9FFF726FE0B490A484F
:1027E00008308D600088C1F8D80007481C30008888
:1027F000C1F8DC00044820300088C1F8E000301D3A
:102800000088C1F8E4007FBD003C0040BCCB002044
:1028100010B5FFF757FE0A4C002202212046FEF7B2
:10282000BDFA002201212046FEF7B8FA0021204619
:10283000FEF736F92046BDE81040FEF7B7BA0000B3
:10284000003C004010B5FFF7C1FE012000F00CFA7B
:10285000FFF7DEFF0A2000F0FFFBFFF7DBFB38B1DC
:10286000FFF7BEFA0C494FF0FF30C1F8B00110BDC0
:102870000A2000F0F1FB4BF68030FFF78DFF1420AB
:1028800000F0EAFB4FF400510448FEF7FFF8FFF7B1
:10289000A7FA002010BD0000BCCB002000100140B2
:1028A0002DE9F041040001D14BF68034FFF78EFE94
:1028B000022000F0D9F9184D184F4FF40056314658
:1028C0003846AC60FEF7E4F8FFF7A2FFFFF7E6FE3C
:1028D0000A2000F0C1FBFFF76DFC40B1FFF780FA62
:1028E0006FF00100C5F8B0014010BDE8F0810A208A
:1028F00000F0B2FB2046FFF713FFFFF7CFFE1420D6
:1029000000F0AAFB31463846FEF7C2F8FFF780FF19
:10291000FFF7E6F80020E8E7BCCB002000100140FC
:102920002DE9F041304C17460E4605002AD04EB333
:102930002E48E7600088C4F8D8002C48143000887E
:10294000C4F8DC004FF400512948FEF798F8DFF88E
:10295000A480C4F8040140214046FEF789F8A06134
:1029600080214046FEF784F8E06100F041FB012F32
:102970000ED0022F1ED06FF00300C4F8B00140103B
:10298000BDE8F0816FF00200C4F8B0018010F7E7F5
:1029900000240CE035F91400FFF78EF8074635F9EE
:1029A0001400FFF789F83946FFF7C6FD641CB442EE
:1029B000F0D314E0002410E005EB840135F9240085
:1029C000B1F90210084400EBD070401000B2FFF7DC
:1029D00073F80146FFF7B0FD641CB442ECD300F07D
:1029E00007FB0020CCE70000BCCB0020083C0040E7
:1029F00000100140000C01402DE9F04114498968A4
:102A000009B94BF6803141434FF47A70B1FBF0F7CE
:102A100000243026DFF83C8015E000BFB4FBF6F060
:102A200006FB104138F91100FFF746F80546B4FBE4
:102A3000F6F006FB104138F91100FFF73DF8294682
:102A4000FFF77AFD641CBC42E8D30020BDE8F081AA
:102A5000BCCB0020D43F00082DE9F34F684899B063
:102A60004FF0000B40681390199808B10C2904D25C
:102A70004FF0FF301BB0BDE8F08FC1EB01108100BB
:102A80001998FDF7AFFD002500260F9614961999A9
:102A9000C5EB051001EB80040B9605A908A8CDE94C
:102AA00000010C96B14606AB10AA11A9284600F009
:102AB00027FA2560069860600898A06005980027AE
:102AC00004F1300A04F12C08E060089A059B8DE8B7
:102AD0000C05BDF8403017A916A8119AFFF724FA83
:102AE000A8B3402F7BD300BFD4E90701411876D0AB
:102AF000276B002F73D0DDE90B021044D4E90532B7
:102B0000934200D91A46431C4FEA461CBCFBF3F320
:102B100003EB171319442161B2F5FA4F01D9890863
:102B2000216126B1B0EB860F01D9480820612069E8
:102B3000584501D9834613956D1C0C2DA4D3BBF1C8
:102B4000000F02D02E4913984860002092E7FFE75B
:102B5000BDF95800FEF750FF0390BDF95C00FEF789
:102B60004BFF0399626901440E4403998A4200D2E3
:102B70006161A169814200D2A061BDF9581011B113
:102B8000E069401CE061BDF95C0010B1226A521C92
:102B90002262149A22B30F9AA1EB0903821A4945C3
:102BA00005D0D4F824C00CF1010CC4F824C0DDF821
:102BB0003CC0604505D0D4F828C00CF1010CC4F825
:102BC00028C0002B00DA5B42002A00DA5242DDF80E
:102BD00030C063440C930B9B1A440B9204E00CE04E
:102BE000A186E086012214920F9021877F1C8946DE
:102BF0006087402FFFF469AF76E7002096E700007A
:102C00001C0000201748016939B390F84C10C943E3
:102C1000890622D190F8701001F03F010C291CD1D7
:102C200090F88C1011F0F00F17D190F8901011F06F
:102C3000700F12D1D0F8A8104A060ED4C9060CD5D0
:102C400090F86410C90608D4D0F8D40010F0700FC2
:102C500005D0C0F30210052801D0002070470120E4
:102C600070470000BCCB002010B504464FF4DC7167
:102C70000948FDF7B7FC08494BF68030C1F8B4416C
:102C8000886063208862C862086348638863C86399
:102C90000864486410BD0000BCCB00202DE9F05F43
:102CA00008B94FF4805065490022C1E95102C1F8CA
:102CB0004C21C1F85021C1F85421C1F85821C1F864
:102CC0005C21C1F86021C1F86421C1F86821C1F814
:102CD0006C215B4A926802F0800C5A4A136803F038
:102CE0000809594B1B6803F4004A1368126803F083
:102CF000100B02F0200E002799E0514A9268514CC7
:102D000012F08002236803F008064F4B1B6803F49F
:102D100000452368246803F0100304F0200405D064
:102D2000D1F8488108F10108C1F848812EB1D1F8E5
:102D3000508108F10108C1F850812DB1D1F85881B6
:102D400008F10108C1F858812BB1D1F8608108F170
:102D50000108C1F860812CB1D1F8688108F101083F
:102D6000C1F8688112B14FF0010801E04FF000088E
:102D7000BCF1000F01D04FF0010CE04505D0D1F8B7
:102D80004CC10CF1010CC1F84CC116B14FF0010857
:102D900001E04FF000085FEA090C01D04FF0010C90
:102DA000E04505D0D1F854C10CF1010CC1F854C173
:102DB00015B14FF0010801E04FF000085FEA0A0C7E
:102DC00001D04FF0010CE04505D0D1F85CC10CF109
:102DD000010CC1F85CC113B14FF0010801E04FF0E4
:102DE00000085FEA0B0C01D04FF0010CE04505D064
:102DF000D1F864C10CF1010CC1F864C114B14FF0F9
:102E0000010801E04FF000085FEA0E0C01D04FF01E
:102E1000010CE04505D0D1F86CC10CF1010CC1F8F2
:102E20006CC19446B146AA469B46A6467F1C874283
:102E3000FFF463AFBDE8F05FFEF7D2BFBCCB00206C
:102E400000100140080C014008080140002805D08E
:102E500003498968814201D0FFF79EBC704700009A
:102E6000BCCB00202DE9FF5F9946DDE90FAB8C68F4
:102E70001746884600253C402E4604E00E9800F098
:102E800083F838B9761C4E45F8D300260E9800F02A
:102E90007BF820B14FF0FF3004B0BDE8F09F00BFD9
:102EA00000BF022000BF401C0828FBD3D8F8080050
:102EB0004FEA450538400DD045F00105BAF1000F45
:102EC00004D0DAF80010491CCAF8001001211CB126
:102ED000012202E00021FAE70022914207D0BBF173
:102EE000000F04D0DBF80010491CCBF80010761C52
:102EF0000446102ECAD3009805800020CCE70000BD
:102F000070B50D4CDDE904650C2801D3002008E004
:102F1000062806D30C60202111800521801F19602E
:102F200004E00C601021118004211960410800F0B8
:102F300001003160286070BD000C014030B50F49C0
:102F40004FF400420E4B0DE0491E0BD20D48D0F855
:102F50003811491CC0F838116FF00801C0F8B011E1
:102F6000081130BD1C68144000D0012408B10125AF
:102F700000E00025AC42E7D1002030BD80841E0077
:102F800008080140BCCB0020F0B51749060044F604
:102F90002063D1F83441154D4FF0FF306FF0070238
:102FA00004F101041E4602D10DE0761E11D32F68F4
:102FB0003F07FAD501E05B1E0BD32E683607FAD423
:102FC0000FE0761E05D32F683F07FAD406E05B1E9C
:102FD00004D2C1F83441C1F8B021F0BD2E683607E3
:102FE000F5D50020F0BD0000BCCB0020080C01404E
:102FF00070B5064D064C286AC4F8080104F58474BF
:10300000FFF78CFA6060A868A06070BD1C0000200B
:10301000BCCB002070B5074D044602212846FDF7C1
:10302000EFFE0028F9D0A1B22846BDE87040FDF7B8
:10303000EEBE0000003C004008B102A0704702A0B4
:10304000704700004F4B00004641494C0000000013
:103050006FF00400FDF732BF70B54FF47A750023AE
:103060004FF0E02117E02A46904200D8024642F293
:10307000283454434C618B610C6944F001040C61A9
:103080000C69E60701D0E403FAD50C6924F00104C9
:103090000C618B61801A0028E5D170BD30B5054602
:1030A0000C46D1F8B00101F584718FB00EC9CDE99D
:1030B0000830CDE90612D4E904120DF1080CE068DD
:1030C000D4F804318CE80F00D4E90101CDE9000106
:1030D000294696482368D4F8B421FDF7A7F804F1EF
:1030E00038000DF1180C0FC88CE80F0004F128000F
:1030F0000DF1080C0FC88CE80F00D4E90801CDE9E8
:103100000001D4E9062329468948FDF78FF804F128
:103110006C000DF11C0C0FC88CE80F0004F15C0072
:103120000DF10C0C0FC88CE80F0004F1500007C81B
:103130008DE80700D4E9122329467E48FDF776F88A
:10314000D4E92101D4E934230DF1280C8CE80F00D7
:10315000D4E91F320DF1180CD4F8B000D4F8CC101B
:103160008CE80F0004F19C000DF1080C0FC88CE8EE
:103170000F00D4E92501CDE90001D4E92323294634
:103180006D48FDF753F804F1BC000DF1040C0FC8B5
:103190008CE80F00D4F8B800009029466748D4F8AE
:1031A000B430D4F8AC20FDF741F804F1F0000DF193
:1031B000140C0FC88CE80F00D4E93A230DF1040C6D
:1031C000D4F8E400D4F800118CE80F00D4F8E00043
:1031D0000090D4E9362329465948FDF727F804F52D
:1031E0009A700DF1180C0FC88CE80F0004F592705E
:1031F0000DF1080C0FC88CE80F00D4E94701CDE9A8
:103200000001D4E9452329464E48FDF70FF804F59F
:10321000B0700DF1140C0FC88CE80F0004F5A87005
:103220000DF1040C0FC88CE80F00D4F84C0100908D
:10323000D4E9512329464448FCF7F8FFB4F9780152
:103240000DF1080CB4F97E31B4F97C21B4F97A118E
:103250008CE80F00B4F97611B4F97401CDE90001DE
:10326000B4F97231B4F97021294638A0FCF7DEFFB9
:10327000B4F988010DF1080CB4F98E31B4F98C2140
:10328000B4F98A118CE80F00B4F98611B4F98401FD
:10329000CDE90001B4F98231B4F98021294636A084
:1032A000FCF7C4FFB4F998010DF1080CB4F99E3194
:1032B000B4F99C21B4F99A118CE80F00B4F9961175
:1032C000B4F99401CDE90001B4F99231B4F9902137
:1032D000294634A0FCF7AAFFB4F9A8010DF1080CA7
:1032E000B4F9AE31B4F9AC21B4F9AA118CE80F00ED
:1032F000B4F9A611B4F9A401CDE90001B4F9A231E1
:10330000B4F9A021294631A0FCF790FFD4F8B4010C
:1033100021460228284604D00FB0BDE8304000F016
:1033200069B80FB0BDE8304000F01EBA3C44000858
:10333000244300082041000870400008B441000800
:103340000C420008E44800085C4700085B25732D28
:10335000727866697273742D6C5D20256420256413
:1033600020256420256420256420256420256420F0
:1033700025640D0A000000005B25732D72786669D4
:103380007273742D725D20256420256420256420CD
:1033900025642025642025642025642025640D0AE9
:1033A000000000005B25732D72786C6173742D6CC6
:1033B0005D20256420256420256420256420256463
:1033C0002025642025642025640D0A005B25732DCB
:1033D00072786C6173742D725D20256420256420E1
:1033E000256420256420256420256420256420256B
:1033F000640D0A002DE9F34F086987B00C4608B147
:103400006069E8B300208146B4F8DC00C0F3032013
:103410000E2844D00020804694F84C00C04380061B
:103420003FD0002794F86C0000F03F000C283AD001
:103430005FF00006D4F8040180B30025206800B1D5
:103440000120FFF7F9FD00902846FFF7F5FD8346C0
:103450003046FFF7F1FD82463846FFF7EDFD0646A0
:103460004046FFF7E9FD05464846FFF7E5FD024601
:10347000D4F8E030A4680098CDE904432B4600E07E
:103480000AE0CDE902B0CDE9006A09480799FCF7E6
:10349000CDFE09B0BDE8F08F0120B4E705E00120C2
:1034A000B9E70127BEE70126C4E70125C6E700000A
:1034B000B442000870B58EB0FEF796F90446483065
:1034C0000FC8CDE9042004F10C000693039107C84E
:1034D0008DE8070094E80E005348FCF7A7FE04F1BE
:1034E0002001E06B0EC9CDE90330CDE90112E0699E
:1034F0000090D4E910124D48A369FCF797FEA06B29
:10350000009004F12C014AA00EC9FCF78FFEB4F91B
:10351000600001ADB4F96630B4F96420B4F962100A
:1035200085E80F00B4F95E000090B4F95C30B4F99E
:103530005A20B4F958104EA0FCF778FEB4F9700088
:10354000B4F97630B4F97420B4F9721085E80F003C
:10355000B4F96E000090B4F96C30B4F96A20B4F993
:10356000681050A0FCF762FE94F87C0094F87F305D
:1035700094F87E2094F87D1085E80F0094F87B0085
:10358000009094F87A3094F8792094F8781051A04B
:10359000FCF74CFE94F8840094F8873094F8862069
:1035A00094F8851085E80F0094F88300009094F853
:1035B000823094F8812094F8801056A0FCF736FEF3
:1035C0005FF00005C5EB051004EB80000DF1280C41
:1035D000B0F9BC10B0F9C260B0F9C030B0F9BE208B
:1035E0008CE84E0000F1AC010DF1180C4EC98CE8CE
:1035F0004E0000F19C010DF1080C4EC98CE84E0004
:10360000D0E9252188300AB152A200E053A2CDE9C9
:10361000002190E80E005348FCF708FE6D1C0C2DAD
:10362000D0D30EB070BD0000DC4400086045000837
:103630005B7265636F72642D706C61796261636B3C
:103640005D207065616B3D256C75206D65616E5FF9
:103650006162733D256C75206E6F6E7A65726F3D89
:10366000256C75206761696E3D256C750D0A00003B
:103670005B7265636F72642D73616D706C65732D21
:1036800066697273745D202564202564202564209A
:1036900025642025642025642025642025640D0AE6
:1036A000000000005B7265636F72642D73616D7062
:1036B0006C65732D6C6173745D2025642025642016
:1036C0002564202564202564202564202564202588
:1036D000640D0A005B7265636F72642D61647063D0
:1036E0006D2D66697273745D202530325820253047
:1036F000325820253032582025303258202530329B
:103700005820253032582025303258202530325864
:103710000D0A00005B7265636F72642D61647063F3
:103720006D2D6C6173745D20253032582025303248
:103730005820253032582025303258202530325834
:103740002025303258202530325820253032580D6F
:103750000A00000066616C6C00000000726973650D
:1037600000000000A44300082DE9F34F08698FB062
:103770000C4608B16069B0B100200390B4F8DC00D9
:10378000C0F303200F2810D00020834694F84C008B
:10379000C04380060BD00020824694F88C0010F0C5
:1037A000F00F06D00AE00120E7E70120EDE7012055
:1037B000F2E794F8900010F0700F09D000208146D5
:1037C000D4F8A800410605D4C00603D5012002E0C4
:1037D0000120F4E70020804694F8700000F03F00DC
:1037E0000C281BD05FF0000694F8640040F300152D
:1037F000D4F8D4006D1C10F0700F11D0C0F302107B
:1038000005280DD05FF00000D4F81411202903D84A
:10381000D4F81811202905D9012704E00126E3E78F
:103820000120F1E70027FFF707FC02902846FFF789
:1038300003FC01903046FFF7FFFB00904046FFF786
:10384000FBFB80464846FFF7F7FB06465046FFF76E
:10385000F3FB05465846FFF7EFFB81460398FFF759
:10386000EBFB02460FB124A300E024A3D4F82C0103
:103870000299CDE9070322A7CDE90517DDE900018B
:10388000CDE903018DE860014B461F48C4340F9910
:10389000FCF7CCFC04F170000AAF0FC887E80F00FA
:1038A00004F16401207C0EC9C0F3021507AF069530
:1038B00087E80E00C0F3C01154F8540D94F840305E
:1038C000626C03F00F03CDE90232CDE9040194F8F4
:1038D000380000F00F02C0F30011CDE90012C0F370
:1038E000801314F80C0C0F99C0F300120748FCF772
:1038F0009DFC11B0BDE8F08F594553004E4F0000BC
:1039000049474E4F52454400B8460008E04700087A
:103910002DE9F0416320174C0025174EA062E062AC
:1039200020636063A063E06320642F466064681CCA
:103930006062302000F022F8A06298B1322000F0DE
:103940001DF8E06280B11420FFF786FB6D1C052D89
:10395000EDD300F0BBF8FF20C4E904704FF0FF3056
:10396000BDE8F081302000E032203070C4E9040767
:103970000020F5E7BCCB00201C0000202DE9F04121
:10398000074600F0FCF800F0A1F800F0E9F838462E
:1039900000F001F90446002000F0FDF80646802002
:1039A00000F0F9F8054600F0EAF800F08FF8074853
:1039B000302F07D04564C0E90F46344344EA050080
:1039C000BDE8F0818563C0E90C46F6E7BCCB00207A
:1039D00010B5044600F008F8002801D001494C61F8
:1039E00010BD0000BCCB00202DE9F0410E4607467B
:1039F00000F0B6F81D4D287800F0CDF804463846A2
:103A000000F0C9F8044300F0ABF8287840F001005A
:103A100000F0C1F82043070021D10024802000F0ED
:103A200081F800256006040E402000F07BF800F0CD
:103A300091F808B144F00104402000F05BF86D1CDF
:103A4000082DEFDB802000F06DF8402000F06AF8D0
:103A5000402000F04FF8802000F064F8347000F04F
:103A60008EF800F033F83846BDE8F0811C000020E5
:103A700070B504460D480D46067800F071F83046E2
:103A800000F089F80646204600F085F806432846EF
:103A900000F081F840EA060500F071F800F016F831
:103AA000280001D002494C6170BD00001C000020BC
:103AB000BCCB002004490A881206FCD5024AC1B2D8
:103AC000121D1180704700000038014010B54021E0
:103AD0000648FCF7CDFF00B10120054CA06100F0C5
:103AE00039F800B10120E06110BD0000000C014078
:103AF000BCCB002038B50A4D044601462846FCF7E9
:103B0000C5FF03208DF80200ADF8004014208DF8A9
:103B1000030069462846FCF72DFFFDF7D6FA38BDAD
:103B2000000C014038B50A4D044601462846FCF712
:103B3000AFFF03208DF80200ADF8004048208DF85B
:103B4000030069462846FCF715FFFDF7BEFA38BDAD
:103B5000000C014080210148FCF78ABF000C0140A5
:103B600010B58020FFF7DEFF4020FFF7DBFF80204D
:103B7000FFF7C0FFBDE810404020FFF7BBBF10B506
:103B80008020FFF7B7FF4020FFF7CCFFBDE81040D3
:103B90008020FFF7C7BF70B50546002428064FF008
:103BA000800002D5FFF7BEFF01E0FFF7A3FF402032
:103BB000FFF7B8FF4020FFF79DFF6806050E641C65
:103BC000082CEBDB8020FFF7ADFF4020FFF7AAFFBA
:103BD000FFF7C0FF04464020FFF78CFF14B14FF001
:103BE000FF3070BD002070BD4FF4A060FDF746F8B7
:103BF000FFF72EFA022201214FF4E130FCF7A6FF75
:103C00002FA0FCF713FB37A239A13CA0FCF70EFB59
:103C100042A0FCF70BFB4CA0FCF708FB5748FCF755
:103C200005FBFDF745FB0546014655A0FCF7FEFAEE
:103C3000FDF7DAFD0446681D30D0681C35D0FFF76B
:103C400039FC04F5567157A0FFF728FA04F5A26174
:103C500057A0FFF723FA04F6382158A0FFF71EFA01
:103C6000E81C29D0A81C0FD004F5D96157A0FFF794
:103C700015FA04F5086159A0FFF710FA04F53F6141
:103C80005AA000BFFFF70AFA29465CA0FCF7CEFA5B
:103C90004FF47A742046FFF7DFF9FBE75F48FCF743
:103CA000C5FA04F5D9615EA0ECE76048FCF7BEFAFE
:103CB00004F556713BA0E5E704F5D96143A0E1E7BF
:103CC0000D0A5B617564696F2D7265636F72645D67
:103CD00020626172656D6574616C20626F6F740D36
:103CE0000A00000031343A35323A31380000000021
:103CF0004A756C2020392032303236005B617564A1
:103D0000696F2D7265636F72645D206275696C64A2
:103D10002025732025730D0A000000005B61756487
:103D2000696F2D7265636F72645D20555341525403
:103D300031205041392F504131302031313532302E
:103D40003020384E310D0A005B617564696F2D7249
:103D500065636F72645D2066773D7265636F726440
:103D60002D77656163742D31366B2D73746F702DF3
:103D70006932732D7633350D0A000000C445000802
:103D80005B617564696F2D7265636F72645D20722B
:103D900065636F72645F726573756C743D25640D45
:103DA0000A0000007265636F72642D696E697400A9
:103DB0007265636F72642D646F6E65006D6F6E69FE
:103DC000746F722D646F6E6500000000706C617915
:103DD0006261636B2D696E6974000000706C6179BB
:103DE0006261636B2D726561647900007265636F57
:103DF00072642D6C6F6F706261636B005B617564E0
:103E0000696F2D7265636F72645D20646F6E6520EB
:103E10007265636F72643D25640D0A0024460008D4
:103E2000696E69742D6661696C0000007446000853
:103E3000FFFFFFFFFFFFFFFFFFFFFFFFFFFFFFFF92
:103E4000020000000400000006000000080000005E
:103E5000FFFFFFFFFFFFFFFFFFFFFFFFFFFFFFFF72
:103E6000020000000400000006000000080000003E
:103E70000700000008000000090000000A00000020
:103E80000B0000000C0000000D0000000E00000000
:103E900010000000110000001300000015000000D9
:103EA00017000000190000001C0000001F000000A7
:103EB0002200000025000000290000002D00000065
:103EC00032000000370000003C000000420000000B
:103ED0004900000050000000580000006100000090
:103EE0006B00000076000000820000008F000000E0
:103EF0009D000000AD000000BE000000D1000000E9
:103F0000E6000000FD000000170100003301000082
:103F1000510100007301000098010000C101000080
:103F2000EE01000020020000560200009202000094
:103F3000D40200001C0300006C030000C303000057
:103F4000240400008E040000020500008305000028
:103F500010060000AB060000560700001208000023
:103F6000E0080000C3090000BD0A0000D00B0000FB
:103F7000FF0C00004C0E0000BA0F00004C110000B6
:103F800007130000EE14000006170000541900008B
:103F9000DC1B0000A51E0000B62100001525000056
:103FA000CA280000DF2C00005B3100004B36000007
:103FB000B93B0000B2410000444800007E4F0000C1
:103FC000715700002F600000CE690000627400008D
:103FD000FF7F000000001E06210CF01170178C1CE2
:103FE000252126259828042B462D642EE02E642EAC
:103FF000462D042B9828262525218C1C7017F0119E
:10400000210C1E060000E2F9DFF310EE90E874E3E5
:10401000DBDEDADA68D7FCD4BAD29CD120D19CD1CD
:10402000BAD2FCD468D7DADADBDE74E390E810EEBB
:10403000DFF3E2F930313233343536373839414243
:1040400043444546403058003031323334353637FA
:1040500038396162636465664030780004000008A6
:10406000000000000000000200010000100000003D
:104070005B25732D636F6465632D625D2072304430
:104080003D2530326C58207230453D2530326C5819
:10409000207230463D2530326C58207231303D253B
:1040A00030326C58207231313D2530326C582072DC
:1040B00031323D2530326C58207231333D2530325B
:1040C0006C58207231343D2530326C5820723136B4
:1040D0003D2530326C58207232353D2530326C58D7
:1040E000207233313D2530326C58207233323D25F9
:1040F00030326C58207233333D2530326C58207288
:1041000033343D2530326C58207233373D25303200
:104110006C58207234343D2530326C580D0A000042
:104120005B25732D636F6465632D615D2072303094
:104130003D2530326C58207230313D2530326C587C
:10414000207230323D2530326C58207230333D259C
:1041500030326C58207230343D2530326C58207229
:1041600030353D2530326C58207230363D253032A6
:104170006C58207230373D2530326C582072303800
:104180003D2530326C58207230393D2530326C5824
:10419000207230413D2530326C58207230423D252E
:1041A00030326C58207230433D2530326C580D0A45
:1041B000000000005B25732D636F6465632D635DF4
:1041C000207231353D2530326C58207231373D2513
:1041D00030326C58207231383D2530326C582072A4
:1041E00031393D2530326C58207231413D25303215
:1041F0006C58207231423D2530326C582072314368
:104200003D2530326C580D0A000000005B25732DEF
:104210006D63755D207370695F73723D3078253012
:10422000346C5820693273636667723D307825308C
:10423000346C582069327370723D30782530346C9C
:1042400058207370695F6372323D30782530346C6A
:1042500058207263635F636667723D30782530383B
:104260006C58206770696F5F69647220413D3078D7
:104270002530346C5820423D30782530346C58203D
:10428000433D30782530346C58206770696F5F6F1C
:10429000647220413D30782530346C5820423D30E6
:1042A000782530346C5820433D30782530346C58B4
:1042B0000D0A00005B25732D636865636B5D2069E3
:1042C00032633D2573206D63755F6D617374657234
:1042D0005F74783D257320636F6465635F636C6B07
:1042E000733D2573206461635F7364703D257320A3
:1042F000616D705F656E61626C65643D25732074ED
:10430000785F7365656E3D25732073723D256C750E
:104310002069327370723D30782530346C580D0A44
:10432000000000005B25732D6932635D2073636CB0
:104330005F69646C653D256C75207364615F6964B9
:104340006C653D256C75207265636F7665725F7074
:10435000756C7365733D256C7520617474656D7043
:1043600074733D256C752070726F626533303D2526
:10437000642070726F626533323D25642070333083
:104380005F61636B3D25642F25642F2564207033A6
:10439000325F61636B3D25642F25642F25640D0A10
:1043A000000000005B7265636F72642D736F66744A
:1043B0002D76256C755D2070696E3D5042256C75BB
:1043C00020736B69703D256C7520656467653D25BC
:1043D000732073636F72653D256C75206C706B3D47
:1043E000256C752072706B3D256C75206C6E7A3D66
:1043F000256C7520726E7A3D256C75206C6368673C
:104400003D256C7520726368673D256C7520686971
:1044100067683D256C752065646765733D256C751F
:104420002066697273743D25642F2564206C617366
:10443000743D25642F25640D0A0000005B25735D23
:10444000206D6F64653D25642074785F6672616DD0
:1044500065733D256C752072785F6672616D65735A
:104460003D256C752073723D256C752063683D2574
:104470006C7520636F6465635F616464723D30785E
:104480002530326C58206661696C5F7265673D301B
:10449000782530326C5820616D705F706331333D28
:1044A000256C7520646D615F756E6465723D256C69
:1044B0007520646D615F757365643D256C7520645E
:1044C0006D615F773D256C75206C6173745F6572FB
:1044D000726F723D25640D0A000000005B72656317
:1044E0006F72645D2073616D706C65735F7065726F
:1044F0005F6368616E6E656C3D256C752063683D19
:10450000256C752073723D256C752064757261741D
:10451000696F6E5F733D256C7520616470636D5FBC
:1045200062797465733D256C75206368756E6B3DAB
:10453000256C7520746F6E653D2564206D6F6E6906
:10454000746F723D25642076617269616E743D25D9
:104550006C7520726573756C743D25640D0A0000DE
:104560005B7265636F72642D636170747572655DF3
:10457000206D696E3D2564206D61783D2564207055
:1045800065616B3D256C75206D65616E5F61627361
:104590003D256C75206E6F6E7A65726F3D256C756A
:1045A000207A65726F3D256C7520636C697070654B
:1045B000643D256C752064635F6573743D25640DEF
:1045C0000A0000005B617564696F2D7265636F722C
:1045D000645D207072652D746F6E652031733B20B1
:1045E0006C697665206D6F6E69746F722038733BED
:1045F000207265636F7264203573206174203136D8
:104600006B3B2073746F7020493253206265666F74
:104610007265206D6F6465207377697463680D0A35
:10462000000000005B617564696F2D7265636F72D5
:10463000645D20696E6974206661696C65642062DE
:1046400065666F7265207265636F72643B20636894
:1046500065636B20455338333131204932432F7025
:104660006F7765722F636F6E6E656374696F6E0D21
:104670000A0000005B617564696F2D7265636F727B
:10468000645D207265636F726420696E6974206670
:1046900061696C65643B20636865636B20455338D2
:1046A000333131204144432F6D69632F4932532008
:1046B00073657475700D0A005B25732D63686563FF
:1046C0006B5D206932633D2573206D63755F6D619D
:1046D000737465725F72783D257320636F646563E0
:1046E0005F636C6B733D2573206164635F706F77EC
:1046F00065723D2573206D69635F706174683D2547
:1047000073206164635F7364703D2573206173641B
:104710006F75745F70696E3D2573206164636461B9
:10472000745F73656C3D2573207370695F6F76727B
:104730003D257320636170747572653D5042256C30
:10474000755F534F46545F4155544F2061756469FE
:104750006F5F7365656E3D25730D0A005B25732DD4
:1047600070696E735D2073616D706C65733D256C4F
:1047700075206D636C6B5F683D256C75206D636C97
:104780006B5F653D256C752062636C6B5F683D25D2
:104790006C752062636C6B5F653D256C75206C7277
:1047A000636B5F683D256C75206C72636B5F653D64
:1047B000256C75207062345F683D256C75207062D1
:1047C000345F653D256C75207062355F683D256CF2
:1047D00075207062355F653D256C750D0A0000001F
:1047E0005B25732D636865636B2D64657461696C0B
:1047F0005D207230375F7472695F616463646174F5
:104800003D256C75207231345F646D69633D256CA4
:1048100075207231345F6C696E73656C3D256C7503
:10482000207231345F6761696E3D3078256C5820A5
:104830007231365F7363616C653D3078256C58204A
:104840007231375F616463766F6C3D30782530324A
:104850006C58207230413D30782530326C582072CF
:1048600034345F616463326461633D256C7520722A
:1048700034345F6164636461745F73656C3D256C9F
:10488000752072785F6F76723D256C7520736F6648
:10489000745F70696E3D5042256C7520736F66744D
:1048A0005F6672616D65733D256C752062636C6B2C
:1048B0005F746F3D256C75206C72636B5F746F3D28
:1048C000256C752070696E5F686967683D256C7539
:1048D0002070696E5F65646765733D256C750D0AB0
:1048E000000000005B25732D72787261775D206C8B
:1048F0006566745F7065616B3D256C7520726967D4
:1049000068745F7065616B3D256C75206C656674BD
:104910005F6E7A3D256C752072696768745F6E7A88
:104920003D256C752074696D656F7574733D256CDC
:1049300075206F76657272756E733D256C75207388
:104940006F66745F70696E3D5042256C7520736FA1
:1049500066745F6672616D65733D256C7520626378
:104960006C6B5F746F3D256C75206C72636B5F744C
:104970006F3D256C752070696E5F686967683D25BD
:104980006C752070696E5F65646765733D256C7535
:104990000D0A00005B7265636F72642D737461674A
:1049A000655D202573206D6F64653D2564207372FD
:1049B0003D256C752063683D256C752074783D2518
:1049C0006C752072783D256C75206C706B3D256C84
:1049D000752072706B3D256C75206C6E7A3D256C70
:1049E0007520726E7A3D256C7520736F66743D2557
:1049F0006C7520746F3D256C75206F763D256C7548
:104A0000207231363D30782530326C582072313783
:104A10003D30782530326C58207234343D30782562
:104A200030326C58206572723D25640D0A0000001A
:104A30005B7265636F72642D73746167655D20637B
:104A400061707475726520646F6E65207065616B4E
:104A50003D256C75206D65616E3D256C75206D6919
:104A60006E3D2564206D61783D2564206761696E27
:104A70003D256C750D0A0000984A000800000020D2
:104A8000540000006C010008EC4A000854000020AB
:104A900084EF000088010008010000000000000011
:104AA0000100000000000000000000000000000005
:104AB00000000000300000000000000000000000C6
:104AC00000000000000000000000000000000000E6
:104AD00000000000000000000204060800000000C2
:0C4AE00001020304010203040607080998
:0400000508000131BD
:00000001FF
