:020000040800F2
:10000000D8960020E90100080F0C00089F0A00089C
:100010000D0C0008D9070008B1100008000000000E
:100020000000000000000000000000000B0E0008AF
:100030001509000800000000890C0008CD0E00081A
:10004000030200080302000803020008030200087C
:10005000030200080302000803020008190900084F
:10006000030200080302000803020008030200085C
:10007000030200080302000803020008030200084C
:10008000030200080302000803020008030200083C
:10009000030200080302000803020008030200082C
:1000A000030200080302000803020008030200081C
:1000B000030200080302000803020008030200080C
:1000C00003020008030200080302000803020008FC
:1000D00003020008210F00080302000803020008C1
:1000E00003020008030200080302000803020008DC
:1000F00003020008030200080302000803020008CC
:1001000003020008030200080302000803020008BB
:1001100003020008030200080302000803020008AB
:10012000030200080302000803020008030200089B
:1001300000F002F800F048F80AA090E8000C8244B1
:100140008344AAF10107DA4501D100F03DF8AFF28E
:10015000090EBAE80F0013F0010F18BFFB1A43F0A5
:1001600001031847B8350000D8350000103A24BF05
:1001700078C878C1FAD8520724BF30C830C144BF0C
:1001800004680C607047000000230024002500264E
:10019000103A28BF78C1FBD8520728BF30C148BFEA
:1001A0000B607047642900F09D80752900F09A80EB
:1001B000782900F0D380732900F0AA8200207047CC
:1001C0001FB51FBD10B510BD00F0D4FA1146FFF7E2
:1001D000F7FF02F09DFD00F0F2FA03B4FFF7F2FF23
:1001E00003BC00F06DFF0000094880470948004744
:1001F000FEE7FEE7FEE7FEE7FEE7FEE7FEE7FEE7D7
:10020000FEE7FEE704480549054A064B7047000033
:10021000D10E000831010008D8740020D8960020C3
:10022000D8760020D8760020704700000FB404492B
:1002300010B503AA029800F06FFA10BC5DF814FB29
:100240000400002070B5044685690068C10601D528
:10025000302600E02026C00707D070BDD4E9012178
:1002600030469047206A401C20626D1EF6D570BD56
:1002700070B5044685690078C00707D170BDD4E920
:10028000012120209047206A401C20626D1EF6D577
:1002900070BD70B50C460546012A05D02878800649
:1002A00000D5EA69002302E0012305E05B1C9342CC
:1002B00002D2E05C0028F9D1A869E618C01AA8614A
:1002C000286A184428622846FFF7BCFF04E0D5E9F5
:1002D000012114F8010B9047B442F8D32846FFF7E8
:1002E000C7FF70BD2DE9F04106460024106875294E
:1002F000314616A510D0AFF30080002802DA404244
:1003000013A507E031688A0701D512A502E0490765
:1003100004D511A5012401E0AFF3008000210A22D9
:1003200006F1240709E0B0FBF2FCB0FBF2F302FB9C
:100330001C00303078541846491C0028F3D123465D
:100340002A463046BDE8F04100F077B900000000D1
:100350002D0000002B0000002000000070B50446B6
:100360000D4621461068AFF300802188090502D5AB
:100370000F4A7A4402E00E4A7A440E32002104F118
:10038000240305E000F00F060009965D5E54491C49
:100390000028F7D120780023000704D5702D02D063
:1003A00009B1022311322046BDE8704000F045B982
:1003B0004E2D00002DE9F05F894604464FF0000AFB
:1003C000DFF874B1FB44C0F820A02046E1688847FC
:1003D000002874D0252806D0D4E901219047206A4E
:1003E000401C2062F1E700265F462046E16888470E
:1003F0002028054607DB312D05D2781910F8200C8E
:1004000008B10643F1E7B00701D526F00406C4F8A9
:100410001CA00027C4F818A02A2D09D0284600F0F7
:1004200048FE38B304EB8708303DC8F8185019E08F
:1004300059F8041B204604EB87029161E168884764
:10044000012F054618D1E069002820DA26F02006A1
:100450001DE0D8F8180000EB800005EB40003038B4
:10046000C8F818002046E1688847054600F021FEDC
:100470000028EED1012F0AD02E2D08D12046E168A8
:1004800088477F1C0546022F46F02006C4DBA06982
:10049000002803DA404246F00106A061F00701D0CF
:1004A00026F010066C2D0BD0682D09D04C2D39D0BC
:1004B0006A2D35D0742D35D07A2D33D016E038E042
:1004C000E1682F4620468847B842054609D16C2F7F
:1004D00026D04FF48060E1680643204688470546F1
:1004E00004E06C2F1AD04FF4807006430DB3A5F1D1
:1004F0004100192802D8203546F400664A462946AC
:10050000204626604E46FFF74DFE80B101280BD0F5
:10051000F61D26F0070000F1080956E74020E4E741
:100520008020D8E70020D6E706F104094DE72846E9
:1005300052E7206ABDE8F09F242D000010B5203A54
:10054000C0F00B80B1E81850203AA0E81850B1E88C
:100550001850A0E81850BFF4F5AF5FEA027C24BF42
:10056000B1E81850A0E8185044BF18C918C0BDE839
:1005700010405FEA827C24BF51F8043B40F8043B02
:1005800008BF7047D20728BF31F8023B48BF11F8B7
:10059000012B28BF20F8023B48BF00F8012B704711
:1005A0004FF000020429C0F0128010F0030C00F09C
:1005B0001B80CCF1040CBCF1020F18BF00F8012B1A
:1005C000A8BF20F8022BA1EB0C0100F00DB85FEAE8
:1005D000C17C24BF00F8012B00F8012B48BF00F8B4
:1005E000012B70474FF0000200B513469446964623
:1005F000203922BFA0E80C50A0E80C50B1F1200136
:10060000BFF4F7AF090728BFA0E80C5048BF0CC0E3
:100610005DF804EB890028BF40F8042B08BF704741
:1006200048BF20F8022B11F0804F18BF00F8012BB3
:10063000704770477047704770472DE9F0470D4687
:1006400099469246044600F124080168880604D5BC
:10065000E06921F01001216000E00120A84201DDE5
:10066000471B00E00027A1697A1902EB0900081A6C
:10067000A0612078C00602D42046FFF7E3FD0026E3
:1006800008E0D4E901211AF806009047206A401CCE
:10069000761C20624E45F4DB2078C0060AD5204641
:1006A000FFF7D0FD06E0D4E9012130209047206A11
:1006B000401C2062381EA7F10107F4DC07E0D4E9F2
:1006C000012118F805009047206A401C2062281E6E
:1006D000A5F10105F3DC2046FFF7CAFD20780006EE
:1006E00002D50220BDE8F0870120FBE710B5436981
:1006F00013B1AFF3008001E0FFF7CBFD012010BD87
:10070000127800F124010A7000224A700122EDE7FC
:1007100011684FF0FF32E9E7074B70B50D467B4497
:1007200000F011F80446284600F020F810B14FF010
:10073000FF3070BD204670BDFF24000001694A1CD7
:1007400002610878704700B58FB0CDE90131002112
:10075000059105497944CDE9031011466846FFF734
:1007600029FE0FB000BD0000E5FFFFFF007B00F099
:1007700080007047754600F02BF8AE4605006946CC
:10078000534620F00700854618B020B5FFF73AFD24
:10079000BDE820404FF000064FF000074FF0000882
:1007A0004FF0000B21F00701AC46ACE8C009ACE803
:1007B000C009ACE8C009ACE8C0098D46704710B567
:1007C0000446AFF300802046BDE81040FFF705BDAA
:1007D0000048704774740020FEE70029016802D0C9
:1007E00041F0010102E04FF6FE72114001607047D6
:1007F00001684FF6FE721140016000210160416006
:100800008160C1603149314A0839904203D148685A
:1008100040F00F0006E02D4A1432904204D148689F
:1008200040F0F00048607047284A2832904203D1D7
:10083000486840F47060F5E7244A3C32904203D1A6
:10084000486840F47040EDE7204A5032904203D1AE
:10085000486840F47020E5E71C4A6432904203D1B6
:10086000486840F47000DDE7184A7832904203D1BE
:10087000486840F07060D5E7154A111F904203D1D7
:10088000086840F00F0006E0114A1432904204D18B
:10089000086840F0F000086070470D4A2832904226
:1008A00003D1086840F47060F5E7094A3C32904291
:1008B00003D1086840F47040EDE7054A5032904299
:1008C000EAD1086840F47020E5E700000800024023
:1008D00008040240406880B2704730B5036847F6AC
:1008E000F07293430C6A8A682243D1E904452C4391
:1008F00022438C692243CC6922434C6A22438C6A8E
:1009000022431A430260CA6842600A6882604968EA
:10091000C16030BD7047000010B5104C0221204668
:1009200000F0A6F8012812D10A2001F04FFD0221A3
:10093000204600F09DF8012809D10948017859B1F5
:10094000002202704FF48041064800F0A3F8BDE891
:100950001040022000F008B80122F2E70018014020
:1009600000000020001401400149086070470000A9
:1009700014040140F0B5CA78002502F00F03D20636
:1009800001D58A7813430A784FF00F0E12F0FF0F4B
:100990004FF001021CD004680F8802FA05F63740B8
:1009A000B74211D14FEA850C0EFA0CF724EA07077B
:1009B00003FA0CF43C43CF78282F02D0482F02D002
:1009C00002E0466100E006616D1C082DE4D304607E
:1009D0000C88FF2C1ED944685FF0000606F108075A
:1009E00002FA07F50F882F40AF420FD14FEA860C6D
:1009F0000EFA0CF7BC4303FA0CF73C43CF78282FD0
:100A000000D14561CF78482F00D10561761C082EB2
:100A1000E4D34460F0BD0000F0B5144C002801DAC6
:100A2000E36900E06368420D120185B2C0F301572B
:100A30009540C0F30346032F05D0C2020AD5032216
:100A4000B240934307E023F07062636823F0706361
:100A5000636002E0AB4343F0706201B12A430028B7
:100A600001DAE261F0BD6260F0BD0000000001400B
:100A70000246002092680A4200D0012070470246D8
:100A80000020D2680A4200D00120704741617047BF
:100A9000016170470AB10161704741617047FEE72B
:100AA0000029818B02D041F4806101E021F4806152
:100AB00081837047F0B505460C4602200021AA8BC1
:100AC00085B001264FF240031A40AA832884AF8BD9
:100AD000A268022A27D0A08800B10226684600F04A
:100AE00011F9E1880098B1F5007F2DD07101B0FBBC
:100AF000F1F000BF00EB8000A1684000B0FBF1F016
:100B0000401D80B20A21B0FBF1F000F00101401A53
:100B10004FF6FF72C0F34F0002EA0121821EFE2A47
:100B200001D302200021E288084302432A8420885E
:100B30006188A2890843A18811430843384340F4DF
:100B40000060A88305B0F0BD000AD3E72DE9F041AD
:100B50000C46064686B090460121042000F0BAF803
:100B60004FF40070ADF8100003258DF812501820D6
:100B7000244F8DF8130004A93846FFF7FBFE381503
:100B8000ADF810008DF8125048208DF8130004A91C
:100B90003846FFF7EFFE0121880300F09BF80020A4
:100BA0000C21ADF80A10ADF80600174DADF80C0099
:100BB000ADF80800ADF8040000966946284600F03C
:100BC0001DFA0121284600F0D7F9012240F22551F3
:100BD000284600F0FAF9012240F22441284600F0AC
:100BE000F4F925208DF8140001208DF817008DF8F8
:100BF00015408DF8168005A800F00AF806B0BDE88B
:100C0000F08100000008014000380140FEE7704715
:100C100070B50F23C47801780122F4B1144C246814
:100C2000457804F4E064C4F5E064240AC4F10406E1
:100C3000E3408478B5401C402C4301F1E0212301BE
:100C400081F80034007800F01F018A4040098000DC
:100C500000F1E020C0F8002170BD01F01F008240CB
:100C60004809800000F1E020C0F8802170BD00003C
:100C70000CED00E00249084302490860704700009B
:100C80000000FA050CED00E070470000044A00295E
:100C9000516901D0014300E0814351617047000078
:100CA00000100240044A0029D16901D0014300E04C
:100CB0008143D1617047000000100240044A0029BE
:100CC000116901D0014300E08143116170470000C8
:100CD00000100240044A0029916901D0014300E05C
:100CE000814391617047000000100240044A0029CE
:100CF000D16801D0014300E08143D160704700001A
:100D00000010024030B51F494A6812F00C031E4A19
:100D100003D0042B01D0082B21D002604A680F2396
:100D20001A4C03EA1212A35C0268DA4042604B6874
:100D3000072505EA1323E35C22FA03F383604B687B
:100D400005EAD323E35CDA40C2604968032303EA7F
:100D50009131231F595CB2FBF1F1016130BD4A684A
:100D60004B6802F470124FF0020413F4803F04EB5E
:100D7000924202D04B689B0301D5054B00E0024B29
:100D80005A43CAE70010024000127A003C000020DB
:100D900000093D00002A828801D00A4300E08A430E
:100DA00082807047114910B588420AD1841401210C
:100DB0002046FFF79BFF2046BDE810400021FFF7CB
:100DC00095BF0B49884202D10121041404E009496E
:100DD00088420AD10121C4132046FFF76FFF204645
:100DE000BDE810400021FFF769BF10BD0030014091
:100DF00000380040003C00400246002012890A42B0
:100E000000D0012070478181704770470CB50021E8
:100E1000264801910091026842F4803202604FF44A
:100E2000A063026802F400320092019A521C0192FF
:100E3000009A12B9019A9A42F3D10268920333D50B
:100E4000012100911A490A6842F010020A600A68FA
:100E500022F003020A600A6842F002020A60416856
:100E6000416041684160416841F48061416041688E
:100E700021F47C114160416841F4E811416001684E
:100E800041F08071016001688901FCD5416821F061
:100E900003014160416841F0020141604168C1F3D2
:100EA00081010229FAD10CBD00910CBD0010024055
:100EB000002002404FF0E0210428086903D020F010
:100EC00004000861704740F00400FAE77047000032
:100ED0000F4810B5016841F00101016041680D4AF9
:100EE0001140416001680C4A11400160016821F421
:100EF00080210160416821F4FE0141604FF41F012F
:100F00008160FFF783FF05494FF00060086010BD66
:100F1000001002400000FFF8FFFFF6FE08ED00E0C1
:100F200070B5124D40F22551284600F02FF8104CB4
:100F3000012601280CD12078802808D2284600F00C
:100F4000B3F80C4A21785054491C217000E06670B7
:100F500040F22441284600F019F8012804D12888DD
:100F60000248001D0088667070BD00000038014016
:100F7000010000204C0000200029818902D041F4AA
:100F8000005101E021F400518181704730B501F03A
:100F90001F0201240025C1F3421304FA02F2012BBF
:100FA0000FD0022B0FD0838A4FEA11210088134201
:100FB00004FA01F400EA040001D000B1012528463A
:100FC00030BD8389F0E7038AEEE710B5C1F3421321
:100FD00001F01F040121A140012B07D0022B07D0F3
:100FE0001430002A026805D00A4304E00C30F8E708
:100FF0001030F6E78A43026010BD000030B50446A9
:10100000008A85B00D464CF6FF710840E98801431F
:101010002182A1894EF6F3100140A8882A89104345
:101020006A890A431043A081A08A4FF6FF41084015
:10103000A9890143A1826846FFF764FE19488442EA
:1010400001D1039800E00298A189090400EBC001D6
:1010500001EB0010296801D5490000E08900B0FBD0
:10106000F1F06422B0FBF2F109010B096FF01805F1
:101070006B4300EB8300A3891D044FF0320306D5B8
:1010800003EBC000B0FBF2F000F0070005E003EB5B
:101090000010B0FBF2F000F00F000843208105B013
:1010A00030BD0000003801408088C0F30800704760
:1010B000FEE730380A2801D201207047002070472F
:1010C000704708B50020009000BF401C0090282801
:1010D000FADB08BD002804DA10F5004F02DC4FF4FB
:1010E000004070474042704770B50D460446406866
:1010F000154951F82010C8106A0700D50844AA07FE
:1011000001D500EB6100EA0701D000EBA1002168E6
:101110002A0701D5081A00E00844206000F0AAF868
:10112000094B206005F00F02403B014653F8222096
:1011300060688018606001D5002002E0582801DD59
:101140005820606008B270BD002F000870B50546D9
:1011500040681D4A2B684FF0000452F82020C81A3E
:101160004FEAE20101D508244042904203DB44F0FB
:101170000404801A1144B0EB620F05DB44F0020452
:10118000A0EB620001EB6201B0EBA20F03DB44F0C5
:10119000010401EBA201200701D5581A00E05818FC
:1011A000286000F067F8084A28602046403A6968DD
:1011B00052F820208918696001D5002102E05829E1
:1011C00001DD5821696070BD002F00082DE9FC4742
:1011D00000200090019044F620612348FFF702FAB6
:1011E000DFF88880224DDFF88090002408F58076B3
:1011F00049F640471D4800F02BFB18B14FF0FF3077
:10120000BDE8FC87B8F9000001021CB1EA68891A40
:1012100002EB2121A0EB2120E9600912F16300F02B
:1012200029F801B2A8F80010204600F04FF9B8F9EB
:1012300000106846FFF78AFF01466008E2070FD0FA
:1012400019F8003043EA011309F80030641CBC426D
:10125000D0D337606868B0FBF7F0F0610020CFE7CB
:1012600009F80010F2E70000CC000020EC4E00204E
:1012700008000020B0F5004F02DB47F6FF70704712
:1012800002498842FBDA0846704700000080FFFFF1
:101290002DE9F0414FF44C713E48FFF7A3F93D4C66
:1012A00001204FF4FA5505216060C4E9025144F66B
:1012B0002061C4E9041000F0E7F8284600F0E4FEDD
:1012C00010B14FF0FF305CE000F0B2FD0146314854
:1012D0004FF4AC773A468030FFF730F9FFF776FFEE
:1012E0002D4E48B100F0A4FD01463A463046FFF7C6
:1012F00025F96FF0010044E000F09AFD01463A46FE
:101300003046FFF71BF9254A49F640405168B1FBCA
:10131000F0F1E1619168B1FBF0F020632049002019
:1013200023180E5C03F8706F0E1806F58046401CFB
:1013300096F8186E1E720828F2D3A16901204E1E7D
:1013400045F6BF539E4205D2C818B0FBF1F04028C5
:1013500000D940201060A06300F06EFE10B16FF065
:1013600002000EE04FF4967000F022FFA06400F03F
:1013700051FD284600F056FF00F018F820B16FF03C
:101380000300E064BDE8F08100F044FD0020E0646B
:10139000F8E70000EC4F0020C451002008000020B6
:1013A000CC00002000487047EC4F00202DE9FC5F86
:1013B0000020DFF8C09000900646DFF8BC80DFF820
:1013C000BCB0A9F5807A019002E0A71B802F02D95A
:1013D0008027002501E0002532E070190BEB500159
:1013E000C00709780CD009096846FFF77DFED8F8D8
:1013F00000104843B0F5004F05DB47F6FF7406E0E8
:1014000001F00F01F0E71E4CA04200DB04B22AF805
:1014100015402046FFF75EFE0146D9F82C204846CD
:101420008A4200D2C1621CB1426B521CC9F83420FE
:10143000D8F8082049F6404411446D1CC8F808103B
:10144000BD42CAD3012239460E4800F053FE18B1FE
:101450004FF0FF30BDE8FC9F3E44A642B5D3D8F81C
:10146000081049F64040B1FBF0F10020C9F83010F7
:10147000F0E70000EC4F002008000020CC00002026
:101480000080FFFFEC4E00200E4900200122486042
:1014900088600A60C8600C4947F6FF738A63DA43C4
:1014A000C1E910322039086748678867C86780310A
:1014B000086048608860C860086148618861C861E8
:1014C0007047000008000020EC4F002070B5054672
:1014D0000C460846FFF7FEFD01461948026CA24281
:1014E00000DD0464426CA24200DA446482698A42EC
:1014F00000D28161134A5342ECB1066A761C06623F
:101500009C4201DA944202DC826A521C82620C48DC
:10151000082D00EB450001D2A0F8504049F63842B2
:10152000954203D3A0F5A030A0F8F04706484268E2
:101530001144416070BD426A521C4262E7E70000FC
:10154000EC4F00200880FFFF08000020002804DA8C
:1015500010F5004F02DC4FF40040704740427047E6
:1015600032214843642190FBF1F1B1F5004F02DBD9
:1015700047F6FF70704702488142FBDB08B27047B4
:101580000080FFFF38B56946002001F0BBFAAA4C85
:1015900010B99DF80000A0616946012001F0B2FA7F
:1015A00010B99DF80000E0616946022001F0AAFA36
:1015B00010B99DF8000020626946032001F0A2FAEC
:1015C00010B99DF8000060626946042001F09AFAA3
:1015D00010B99DF80000A0626946052001F092FA5A
:1015E00010B99DF80000E0626946062001F08AFA11
:1015F00010B99DF8000020636946072001F082FAC7
:1016000010B99DF8000060636946082001F07AFA7D
:1016100010B99DF80000A0636946092001F072FA34
:1016200010B99DF80000E06369460A2001F06AFAEB
:1016300010B99DF80000206469460B2001F062FAA1
:1016400010B99DF80000606469460C2001F05AFA58
:1016500010B99DF80000A06469460D2001F052FA0F
:1016600010B99DF80000E06569460E2001F04AFAC5
:1016700010B99DF80000206669460F2001F042FA7B
:1016800010B99DF8000060666946102001F03AFA32
:1016900010B99DF80000A0666946112001F032FAE9
:1016A00010B99DF80000E0666946122001F02AFAA0
:1016B00010B99DF8000020676946132001F022FA56
:1016C00010B99DF8000060676946142001F01AFA0D
:1016D00010B99DF80000A0676946152001F012FAC4
:1016E00010B99DF80000E0676946162001F00AFA7B
:1016F00018B99DF80000C4F880006946172001F071
:1017000001FA18B99DF80000C4F884006946182051
:1017100001F0F8F918B99DF80000C4F8880069468E
:10172000192001F0EFF918B99DF80000C4F88C00F9
:1017300069461A2001F0E6F918B99DF80000C4F8CE
:10174000900069461B2001F0DDF918B99DF80000F2
:10175000C4F8940069461C2001F0D4F918B99DF82A
:101760000000C4F898006946252001F0CBF918B9AB
:101770009DF80000C4F89C006946312001F0C2F9D0
:1017800010B99DF8000020656946322001F0BAF9D1
:1017900010B99DF80000E0646946332001F0B2F909
:1017A00010B99DF8000060656946342001F0AAF97F
:1017B00010B99DF80000A0656946372001F0A2F934
:1017C00018B99DF80000C4F8A0006946442001F053
:1017D00099F918B99DF80000C4F8A40017480088CA
:1017E00044F8A80F1548143000886060134818307A
:1017F0000088A0601148001F0088E0601048006861
:1018000020611048006860610F488168A1610C493F
:10181000091D0968E1610B49091D09682162C16858
:1018200061620A494968A1624114FFF728F9E06240
:1018300000F09AFD38BD00001C730020083C0040F9
:1018400008080140080C014000100140001002404F
:101850002DE9FC41254C05004FF0FF3109D0012056
:10186000E0606F4601AED4F8048000F057FDB8B9CF
:1018700006E06FF00400C4F850010846BDE8FC81A2
:10188000002000F04BFD58B9384600F0D7FC38B9BD
:10189000012000F043FD18B9304600F0CFFC10B134
:1018A0006FF00200EAE7D4F8FC00401CC4F8FC002A
:1018B000BDF90420BDF90010404600F019F8BDF94B
:1018C0000400FFF743FE0646BDF90000FFF73EFEA9
:1018D000864202D9BDF8040001E0BDF8000028806E
:1018E0006068401C60600020C8E700001C73002096
:1018F0002DE9F041074614460D460846FFF726FE3F
:1019000006462046FFF722FE01461B48D0F8E42099
:10191000B24201D2C0F8E460D0F8E8208A4201D295
:10192000C0F8E81025B1D0F8EC10491CC0F8EC1054
:1019300024B1D0F8F010491CC0F8F010082F05D2DF
:1019400000EB4701A1F81051A1F820415FF0000120
:1019500000EB4102491CB2F83231A2F83031B2F842
:101960004231A2F840310729F2D3A0F83E51A0F845
:101970004E41BDE8F08100001C73002070B501F0FD
:1019800097F810B14FF0FF3070BD3F21002001F0FB
:1019900001F904460A2000F019FD8021002001F021
:1019A000F9F80443022000F011FD3021012001F07C
:1019B000F1F804430021022001F0ECF80443102167
:1019C000032001F0E7F804432421162001F0E2F897
:1019D00004431021042001F0DDF804430021052018
:1019E00001F0D8F8044300210B2001F0D3F80443A0
:1019F00000210C2001F0CEF804431F21102001F03B
:101A0000C9F804437F21112001F0C4F804430F21D9
:101A1000062001F0BFF80443FF21072001F0BAF8C7
:101A200004430421082001F0B5F804430C210920E7
:101A300001F0B0F804434C210A2001F0ABF8044354
:101A40000821442001F0A6F804430021312001F0D0
:101A5000A1F80443BF21322001F09CF80443002187
:101A6000332001F097F804430021342001F092F86C
:101A7000044301210D2001F08DF80443782000F08B
:101A8000A5FC02210E2001F085F80443012112205B
:101A900001F080F804431021132001F07BF8044387
:101AA0001A21142001F076F8044306210D2001F0DC
:101AB00071F804431E2000F089FC0021252001F06C
:101AC00069F840EA04053F21012001F063F840EA8B
:101AD0000504FFF757FD204670BD70B500F0E8FF24
:101AE00010B14FF0FF3070BD3F21002001F052F8DF
:101AF00004460A2000F06AFC8021002001F04AF828
:101B00000443022000F062FC3021012001F042F881
:101B100004430021022001F03DF80443102103207A
:101B200001F038F804431021042001F033F8044395
:101B30000021052001F02EF804430021062001F0C9
:101B400029F804430021072001F024F80443202150
:101B5000082001F01FF804433021092001F01AF891
:101B600004430C210A2001F015F8044300210B2046
:101B700001F010F8044300210C2001F00BF804439D
:101B800001210D2001F006F80443782000F01EFC2E
:101B900002210E2000F0FEFF044300210F2000F080
:101BA000F9FF04431A21142000F0F4FF044300213C
:101BB000152000F0EFFF04432721162000F0EAFF74
:101BC0000443EF21172000F0E5FF04430021182013
:101BD00000F0E0FF04430021192000F0DBFF044384
:101BE00000211A2000F0D6FF04430821372000F01E
:101BF000D1FF04430021442000F0CCFF0443062120
:101C00000D2000F0C7FF40EA04051E2000F0DEFBB7
:101C10003F21012000F0BEFF40EA0504FFF7B2FCBF
:101C2000204670BD084810B5806900280AD00748D2
:101C3000FEF750FE4FF48051884200D908464042DA
:101C4000C0F30B0010BD0000180000201C0402406F
:101C500070B500F081F80A4C05466069A8420DD8BD
:101C6000E0694FF40051401CE0610648FEF798FC23
:101C700005F58065C5F30B006561606070BD00000F
:101C8000180000201C53002070B54FF400548CB095
:101C900021462048FEF784FC01210220FEF7F6FFD2
:101CA0001D4E00213046FEF798FD3046FEF7A0FDA0
:101CB0001A48009017480190102002900002002559
:101CC000CDE9030580200590400006908000079034
:101CD00008AA202082E8310069463046FEF7FDFD63
:101CE0000E48012202210C38FFF754F8012130463A
:101CF000FEF773FD0A4C0120A061FFF793FFC4E9D2
:101D00000205206100F580606061C0F30B00606037
:101D10000CB070BD1C5300201C0402400C3C004061
:101D20001800002010B5002202210848FFF732F801
:101D300000210748FEF751FD0648002181614160FE
:101D40008160C1600161416110BD0000003C004044
:101D50001C0402401800002010B5FFF763FF06497D
:101D60008A68904202D2CA68521CCA608860CA68F7
:101D700000EB0230086110BD1800002010B5FFF71D
:101D8000EBFF04494969814201D8002010BD081ABF
:101D900010BD0000180000202DE9F0471A4C06463F
:101DA000DFF86880A0690D4618B102274FF47E69FC
:101DB00009E0304600F0E8FA284600F0E5FA1CE0B9
:101DC000FFF746FF00BFFFF7D9FF4845F8D2C0F53F
:101DD0007E60B842F4D3FFF73BFF0D4A606822F8FB
:101DE0001060401CC0F30B01606922F81150491CBF
:101DF000C1F30B01801C61606061D8F80010491CC0
:101E0000C8F80010BDE8F087180000201C730020FF
:101E10001C53002070B54FF48044251100E000BF32
:101E2000FFF7ACFFA84201D9641EF8D270BD0000D4
:101E3000004870471C7300202DE9F84301211D2044
:101E4000FEF748FF0121CE033046FEF72BFF0121AC
:101E50000220FEF71BFF01212648FEF7DDFD0320CF
:101E60008DF80200C020ADF800001420DFF8888053
:101E70008DF8030069464046FEF77CFD00F0F4FE55
:101E800000F0DAFE022000F0A1FAB4101B4FADF80A
:101E9000004010258DF8035069463846FEF76AFD6C
:101EA00021463846FEF7F2FD8020ADF800001824E8
:101EB0008DF8034069463846FEF75CFDADF80060DA
:101EC0008DF8034069460E48FEF754FD2820ADF812
:101ED00000008DF8034069464046FEF74BFDADF823
:101EE000005004208DF8030069464046FEF742FD8D
:101EF000BDE8F88300023000000C014000100140F2
:101F0000000801407FB50446FFF70CFF2A4D284624
:101F1000FEF748FF4FF44070ADF800000020ADF828
:101F200004006915ADF8061042F21C51ADF802002C
:101F30008C4202D84FF4FA5126E043F2BC4294425C
:101F400002D842F611311FE044F63822944202D8FA
:101F50004FF47A5118E046F67812944202D845F2CE
:101F6000226111E049F27042944202D84FF4FA41E2
:101F70000AE0A4F52741F839B1F5FA6F02D84AF61C
:101F8000444101E04BF680310291ADF80C00694606
:101F90002846FEF78FFD01212846FEF781FD074800
:101FA0000549083184600988C0F8A81002491C312D
:101FB0000988C0F8AC107FBD003C00401C730020B5
:101FC0007FB50446FFF7AEFE194D2846FEF7EAFE40
:101FD00069150020ADF80010ADF80400ADF806104A
:101FE000A4F52741F839ADF80200B1F5FA6F02D82F
:101FF0004AF6444101E04BF680310291ADF80C0005
:1020000069462846FEF756FD01212846FEF748FDA1
:10201000FFF73AFE07480649083184600988C0F88E
:10202000A81003491C310988C0F8AC107FBD00001E
:10203000003C00401C73002010B5FFF7FDFE01209E
:1020400000F0E0F80A2000F0C1F94BF68030FFF70D
:10205000B7FF0A2000F0BAF9FFF790FC28B1084951
:102060004FF0FF30C1F8500110BD142000F0AEF960
:102070004FF400510348FEF709FD002010BD000099
:102080001C730020001001402DE9F041040001D133
:102090004BF68034FFF7D0FE022000F0B3F8134D6A
:1020A000134F4FF4005631463846AC60FEF7F0FC53
:1020B0000A2000F08BF92046FFF724FF0A2000F0E9
:1020C00085F9FFF70AFD30B16FF00100C5F8500146
:1020D0004010BDE8F081142000F078F93146384610
:1020E000FEF7D6FCFFF74EFA0020F2E71C73002043
:1020F000001001402DE9F0412A4C17460E4605001C
:102100001ED0EEB12848E7600088C4F8A800264831
:1021100014300088C4F8AC004FF400512348FEF797
:10212000AEFCC4F8D40000F01FF9012F0ED0022F2E
:102130001ED06FF00300C4F850014010BDE8F081DC
:102140006FF00200C4F850018010F7E700240CE0A3
:1021500035F91400FFF704FA074635F91400FFF7C4
:10216000FFF93946FFF718FE641CB442F0D314E0BF
:10217000002410E005EB840135F92400B1F90210C8
:10218000084400EBD070401000B2FFF7E9F90146B7
:10219000FFF702FE641CB442ECD300F0E5F8002027
:1021A000CCE700001C730020083C004000100140F8
:1021B0002DE9F0414BF6803148434FF47A71B0FB82
:1021C000F1F700243026DFF8388014E0B4FBF6F095
:1021D00006FB104138F91100FFF7C2F90546B4FBC0
:1021E000F6F006FB104138F91100FFF7B9F929465E
:1021F000FFF7D2FD641CBC42E8D30020BDE8F081AB
:102200006430000810B504464FF4AC710448FEF782
:10221000E9F903484BF68031C0F85441816010BDA4
:102220001C730020002805D003498968814201D031
:10223000FFF7C6BE704700001C7300202DE9F04771
:102240001B4F82460024386800F0100500F058F853
:102250004FF0FF3828B90026DFF8589000F050F80A
:1022600010B14046BDE8F08738684FEA440410F0EA
:10227000100008D0D9F8082144F00104521C0121B3
:10228000C9F8082100E000210DB1012200E0002280
:10229000914204D0D9F80C21521CC9F80C21761CAB
:1022A0000546102EDAD3AAF800400020DAE7000035
:1022B000080C01401C73002030B544F62061082250
:1022C0000D4B0DE0491E0BD20C48D0F80011491CF3
:1022D000C0F800116FF00701C0F85011C81030BDF0
:1022E0001C68144000D0012408B1012500E000253D
:1022F000AC42E7D1002030BD080C01401C73002027
:1023000010B50020FFF7D8FF10B14FF0FF3010BD1F
:10231000BDE810400120FFF7CFBF000030B50F49E6
:102320004FF400420E4B0DE0491E0BD20D48D0F881
:102330000411491CC0F804116FF00801C0F85011D5
:10234000081130BD1C68144000D0012408B10125DB
:1023500000E00025AC42E7D1002030BD80841E00A3
:10236000080801401C73002070B5054D054CE86954
:1023700044F8D80FFFF702FD60606868A06070BD88
:10238000180000201C73002070B5074D0446022180
:102390002846FEF731FD0028F9D0A1B22846BDE855
:1023A0007040FEF730BD0000003C004008B102A0C4
:1023B000704702A0704700004F4B00004641494C57
:1023C000000000006FF00400FEF774BD42F22831F7
:1023D00048434FF0E021486100228A61086940F0DB
:1023E000010008610869C30701D0C003FAD5086974
:1023F0000A618A617047000030B505460C46D1F885
:102400005001D8318FB00EC9CDE90612CDE90830A0
:1024100004F10C01D4F8D4000EC9CDE90430CDE9A3
:102420000212D4E90101CDE9000129467948236867
:10243000D4F85421FDF7FAFE04F13C000DF11C0C18
:102440000FC88CE80F0004F12C000DF10C0C0FC824
:102450008CE80F0004F1200007C88DE80700D4E9DC
:10246000062329466C48FDF7E1FED4E91501D4E9BD
:1024700028230DF1280C8CE80F00D4E913320DF15C
:10248000180CD4F88000D4F89C108CE80F0004F1EC
:102490006C000DF1080C0FC88CE80F00D4E919018D
:1024A000CDE90001D4E9172329465C48FDF7BEFEBB
:1024B00004F18C000DF1040C0FC88CE80F00D4F867
:1024C0008800009029465648D4F88430E26FFDF722
:1024D000ADFE04F1C0000DF1140C0FC88CE80F0024
:1024E00004F1B401D4F8D0000EC90DF1080C01912B
:1024F0008CE80D00D4F8B0000090D4E92A232946D6
:102500004848FDF793FE04F580700DF1140C0FC8D8
:102510008CE80F0004F1F0000DF1040C0FC88CE8FA
:102520000F00D4F8EC000090D4E9392329463E4846
:10253000FDF77CFEB4F918010DF1080CB4F91E3159
:10254000B4F91C21B4F91A118CE80F00B4F9161172
:10255000B4F91401CDE90001B4F91231B4F9102134
:10256000294632A0FDF762FEB4F928010DF1080CEE
:10257000B4F92E31B4F92C21B4F92A118CE80F00EA
:10258000B4F92611B4F92401CDE90001B4F92231DE
:10259000B4F92021294630A0FDF748FEB4F93801EE
:1025A0000DF1080CB4F93E31B4F93C21B4F93A11FB
:1025B0008CE80F00B4F93611B4F93401CDE900010B
:1025C000B4F93231B4F9302129462EA0FDF72EFEA0
:1025D000B4F948010DF1080CB4F94E31B4F94C21AD
:1025E000B4F94A118CE80F00B4F94611B4F944016A
:1025F000CDE90001B4F94231B4F9402129462BA0BC
:10260000FDF714FE0FB021462846BDE8304000F02B
:1026100087B9000044330008B031000800310008D9
:10262000443200089C3200087C3600085B25732D7C
:10263000727866697273742D6C5D20256420256440
:10264000202564202564202564202564202564201D
:1026500025640D0A000000005B25732D7278666901
:102660007273742D725D20256420256420256420FA
:1026700025642025642025642025642025640D0A16
:10268000000000005B25732D72786C6173742D6CF3
:102690005D20256420256420256420256420256490
:1026A0002025642025642025640D0A005B25732DF8
:1026B00072786C6173742D725D202564202564200E
:1026C0002564202564202564202564202564202598
:1026D000640D0A0010B586B0FEF764FE04460DF1E5
:1026E000040CD4E91223D4E904018CE80F00E0685B
:1026F000009094E80E003F483034FDF797FDA4F1B8
:102700001001E0680EC9CDE90330CDE9011254F89B
:10271000140C0090D4E9041254F8183C3648FDF724
:1027200085FDA0680090211F34A00EC9FDF77EFD35
:10273000B4F928000DF1040CB4F92E30B4F92C20B2
:10274000B4F92A108CE80F00B4F926000090B4F90F
:102750002430B4F92220B4F9201038A0FDF766FD2A
:10276000B4F938000DF1040CB4F93E30B4F93C2052
:10277000B4F93A108CE80F00B4F936000090B4F9BF
:102780003430B4F93220B4F9301039A0FDF74EFDE1
:1027900094F844000DF1040C94F8473094F8462066
:1027A00094F845108CE80F0094F84300009094F8DA
:1027B000423094F8412094F8401039A0FDF736FDDE
:1027C00094F84C000DF1040C94F84F3094F84E201E
:1027D00094F84D108CE80F0094F84B00009094F89A
:1027E0004A3094F8492094F848103DA0FDF71EFDAA
:1027F00006B010BDE4330008503400085B72656316
:102800006F72642D706C61796261636B5D207065BD
:10281000616B3D256C75206D65616E5F6162733D16
:10282000256C75206E6F6E7A65726F3D256C752014
:102830006761696E3D256C750D0A00005B7265630A
:102840006F72642D73616D706C65732D6669727340
:10285000745D2025642025642025642025642025BE
:10286000642025642025642025640D0A00000000F2
:102870005B7265636F72642D73616D706C65732D2F
:102880006C6173745D2025642025642025642025F7
:10289000642025642025642025642025640D0A0019
:1028A0005B7265636F72642D616470636D2D666920
:1028B0007273745D2025303258202530325820251F
:1028C00030325820253032582025303258202530DB
:1028D0003258202530325820253032580D0A000059
:1028E0005B7265636F72642D616470636D2D6C61E2
:1028F00073745D2025303258202530325820253021
:102900003258202530325820253032582025303298
:1029100058202530325820253032580D0A0000004A
:102920002DE9F34F08698DB00C4608B16069A8B174
:1029300000200390B4F8AC00C0F303200F280FD0A0
:1029400000208346207FC04380060BD000208246B3
:1029500094F85C0010F0F00F06D00AE00120E8E7E0
:102960000120EEE70120F2E794F8600010F0700F0C
:1029700008D000208146A06F410605D4C00603D5CB
:10298000012002E00120F5E70020804694F8400095
:1029900000F03F000C2817D05FF0000694F83400D8
:1029A00040F3001594F8A4006D1C10F0700F0DD0CA
:1029B0005FF00000D4F8E410202903D8D4F8E81020
:1029C000202905D9012704E00126E7E70120F1E7E6
:1029D0000027FFF7EBFC01902846FFF7E7FC00908B
:1029E0003046FFF7E3FC02904046FFF7DFFC8046ED
:1029F0004846FFF7DBFC06465046FFF7D7FC054686
:102A00005846FFF7D3FC81460398FFF7CFFC0246F8
:102A10000FB121A300E021A3DDE900010DF1100AAF
:102A200007931FA78AE883000298CDE90056CDE9F5
:102A300002804B461C480D99FDF7F8FB04F58074A5
:102A400008AF0FCC87E80F0054E9061214F86C0C9D
:102A500054F8D03C05AFC0F30210049387E8070098
:102A600014F8900C54F88C5C00F00F0314F8980CD8
:102A700000F00F02C0F300118DE82E00C0F38013A8
:102A800014F8DC0C0D99C0F300120848FDF7CEFBDA
:102A90000FB0BDE8F08F0000594553004E4F0000C5
:102AA00049474E4F52454400B43400089835000859
:102AB00070B5302000F01AF80A4C0B4D50B132209E
:102AC00000F014F840B100202861FF2068614FF049
:102AD000FF3070BD302000E03220207028610020DF
:102AE00070BD0000180000201C73002010B50446C3
:102AF00000F0E3F820468022BDE81040002100F0FD
:102B000077B8000010B5044600F008F8002801D09E
:102B100001494C6110BD00001C7300202DE9F041FB
:102B20000E46074600F0BEF8194D287800F0CEF8A2
:102B30000446384600F0CAF8044300F0B3F8287899
:102B400040F0010000F0C2F8204307001AD1002431
:102B500000F08AF800256006040E00F06DF800F021
:102B60009BF808B144F0010400F072F86D1C082DC8
:102B7000F1DB00F079F800F05FF800F069F800F0A0
:102B800073F8347000F099F83846BDE8F081000021
:102B9000180000202DE9F84306460020124F884611
:102BA0008DF80000044642463146387800F020F89F
:102BB00005000BD00220FFF709FC69463046FFF7FD
:102BC000ADFF30B99DF80010414502D10020BDE8AD
:102BD000F8830220FFF7FAFB641C032CE3DB0348B5
:102BE00046612846F3E70000180000201C7300200F
:102BF00070B515460C46064600F054F8304600F015
:102C000065F80646204600F061F840EA06042846CA
:102C100000F05CF840EA040500F04FF8284670BD6B
:102C200004490A885206FCD5024AC1B2121D11801D
:102C3000704700000038014010B540210348FDF7FF
:102C400027FFBDE81040FEF73CBA0000000C014031
:102C500010B540210348FDF719FFBDE81040FEF70D
:102C600030BA0000000C014010B580210348FDF788
:102C70000FFFBDE81040FEF724BA0000000C014031
:102C800010B580210348FDF701FFBDE81040FEF7B5
:102C900018BA0000000C014080210148FDF7E8BE91
:102CA000000C014010B5FFF7DFFFFFF7C5FFFFF78E
:102CB000E7FFBDE81040FFF7CBBF10B5FFF7E0FF1F
:102CC000FFF7BAFFBDE81040FFF7CEBF70B505466D
:102CD0000024280602D5FFF7C7FF01E0FFF7D0FF69
:102CE000FFF7AAFFFFF7B4FF6806050E641C082C67
:102CF000EFDBFFF7B9FFFFF79FFFFFF7CDFF0446BC
:102D0000FFF7A6FF14B14FF0FF3070BD002070BD7B
:102D10004FF4A060FDF7AEFFFFF754FB0222012144
:102D20004FF4E130FDF712FF1BA0FDF77FFA23A25D
:102D300025A128A0FDF77AFA2EA0FDF777FA38A092
:102D4000FDF774FA4248FDF771FAFEF7A1FA05465D
:102D5000014640A0FDF76AFAFFF7BCFCFEF722FB34
:102D6000044600F1800144A0FFF746FB04F5EC7136
:102D700044A0FFF741FB46A4FFF75AF8014620465E
:102D8000FFF73AFB294646A0FDF750FA4FF47A7454
:102D90002046FFF71BFBFBE70D0A5B617564696F5B
:102DA0002D7265636F72645D20626172656D65741A
:102DB000616C20626F6F740D0A00000031313A338C
:102DC000323A3337000000004A756C202038203238
:102DD000303236005B617564696F2D7265636F72A6
:102DE000645D206275696C642025732025730D0A6B
:102DF000000000005B617564696F2D7265636F721E
:102E0000645D20555341525431205041392F504177
:102E100031302031313532303020384E310D0A001A
:102E20005B617564696F2D7265636F72645D2066A6
:102E3000773D7265636F72642D35732D7062342D2A
:102E40006463626C6F636B2D76380D0A00000000BE
:102E5000543500085B617564696F2D7265636F722C
:102E6000645D207265636F72645F726573756C7404
:102E70003D25640D0A0000007265636F72642D6960
:102E80006E6974007265636F72642D646F6E6500A5
:102E90007265636F72642D6C6F6F706261636B003B
:102EA0005B617564696F2D7265636F72645D206428
:102EB0006F6E65207265636F72643D25640D0A0054
:102EC000FFFFFFFFFFFFFFFFFFFFFFFFFFFFFFFF12
:102ED00002000000040000000600000008000000DE
:102EE000FFFFFFFFFFFFFFFFFFFFFFFFFFFFFFFFF2
:102EF00002000000040000000600000008000000BE
:102F00000700000008000000090000000A0000009F
:102F10000B0000000C0000000D0000000E0000007F
:102F20001000000011000000130000001500000058
:102F300017000000190000001C0000001F00000026
:102F40002200000025000000290000002D000000E4
:102F500032000000370000003C000000420000008A
:102F6000490000005000000058000000610000000F
:102F70006B00000076000000820000008F0000005F
:102F80009D000000AD000000BE000000D100000068
:102F9000E6000000FD000000170100003301000002
:102FA000510100007301000098010000C101000000
:102FB000EE01000020020000560200009202000014
:102FC000D40200001C0300006C030000C3030000D7
:102FD000240400008E0400000205000083050000A8
:102FE00010060000AB0600005607000012080000A3
:102FF000E0080000C3090000BD0A0000D00B00007B
:10300000FF0C00004C0E0000BA0F00004C11000035
:1030100007130000EE14000006170000541900000A
:10302000DC1B0000A51E0000B621000015250000D5
:10303000CA280000DF2C00005B3100004B36000086
:10304000B93B0000B2410000444800007E4F000040
:10305000715700002F600000CE690000627400000C
:10306000FF7F000000001E06210CF01170178C1C61
:10307000252126259828042B462D642EE02E642E2B
:10308000462D042B9828262525218C1C7017F0111D
:10309000210C1E060000E2F9DFF310EE90E874E365
:1030A000DBDEDADA68D7FCD4BAD29CD120D19CD14D
:1030B000BAD2FCD468D7DADADBDE74E390E810EE3B
:1030C000DFF3E2F9303132333435363738394142C3
:1030D000434445464030580030313233343536377A
:1030E0003839616263646566403078000400000826
:1030F00000000000000000020001000010000000BD
:103100005B25732D636F6465632D625D20723044AF
:103110003D2530326C58207230453D2530326C5898
:10312000207230463D2530326C58207231303D25BA
:1031300030326C58207231313D2530326C5820725B
:1031400031323D2530326C58207231333D253032DA
:103150006C58207231343D2530326C582072313633
:103160003D2530326C58207232353D2530326C5856
:10317000207233313D2530326C58207233323D2578
:1031800030326C58207233333D2530326C58207207
:1031900033343D2530326C58207233373D25303280
:1031A0006C58207234343D2530326C580D0A0000C2
:1031B0005B25732D636F6465632D615D2072303014
:1031C0003D2530326C58207230313D2530326C58FC
:1031D000207230323D2530326C58207230333D251C
:1031E00030326C58207230343D2530326C582072A9
:1031F00030353D2530326C58207230363D25303226
:103200006C58207230373D2530326C58207230387F
:103210003D2530326C58207230393D2530326C58A3
:10322000207230413D2530326C58207230423D25AD
:1032300030326C58207230433D2530326C580D0AC4
:10324000000000005B25732D636F6465632D635D73
:10325000207231353D2530326C58207231373D2592
:1032600030326C58207231383D2530326C58207223
:1032700031393D2530326C58207231413D25303294
:103280006C58207231423D2530326C5820723143E7
:103290003D2530326C580D0A000000005B25732D6F
:1032A0006D63755D207370695F73723D3078253092
:1032B000346C5820693273636667723D307825300C
:1032C000346C582069327370723D30782530346C1C
:1032D00058207370695F6372323D30782530346CEA
:1032E00058207263635F636667723D3078253038BB
:1032F0006C58206770696F5F69647220413D307857
:103300002530346C5820423D30782530346C5820BC
:10331000433D30782530346C58206770696F5F6F9B
:10332000647220413D30782530346C5820423D3065
:10333000782530346C5820433D30782530346C5833
:103340000D0A00005B25735D206D6F64653D25648B
:103350002074785F6672616D65733D256C752072AF
:10336000785F6672616D65733D256C752073723D83
:10337000256C752063683D256C7520636F646563FB
:103380005F616464723D30782530326C582066612C
:10339000696C5F7265673D30782530326C5820610A
:1033A0006D705F706331333D256C7520646D615FB6
:1033B000756E6465723D256C7520646D615F757313
:1033C00065643D256C7520646D615F773D256C7586
:1033D000206C6173745F6572726F723D25640D0AB3
:1033E000000000005B7265636F72645D2073616D45
:1033F000706C65735F7065725F6368616E6E656C3B
:103400003D256C752063683D256C752073723D25E4
:103410006C75206475726174696F6E5F733D256CA5
:103420007520616470636D5F62797465733D256CAE
:1034300075206368756E6B3D256C7520746F6E65C5
:103440003D256420726573756C743D25640D0A001A
:103450005B7265636F72642D636170747572655D14
:10346000206D696E3D2564206D61783D2564207076
:1034700065616B3D256C75206D65616E5F61627382
:103480003D256C75206E6F6E7A65726F3D256C758B
:10349000207A65726F3D256C7520636C697070656C
:1034A000643D256C752064635F6573743D25640D10
:1034B0000A0000005B25732D636865636B5D2069FE
:1034C00032633D2573206D63755F6D617374657242
:1034D0005F72783D257320636F6465635F636C6B17
:1034E000733D2573206164635F706F7765723D255E
:1034F00073206D69635F706174683D25732061643A
:10350000635F7364703D2573206173646F75745FCE
:1035100070696E3D2573206164636461745F7365D7
:103520006C3D2573207370695F6F76723D25732043
:10353000636170747572653D5042345F534F4654F9
:1035400020617564696F5F7365656E3D25730D0A53
:10355000000000005B617564696F2D7265636F72B6
:10356000645D207265636F7264206C6F6F7062615E
:10357000636B2073746172742C20737065616B20AF
:10358000666F722061626F75742035207365636F9A
:103590006E64730D0A0000005B25732D636865631C
:1035A0006B2D64657461696C5D207230375F747275
:1035B000695F6164636461743D256C7520723134A8
:1035C0005F646D69633D256C75207231345F6C6991
:1035D0006E73656C3D256C75207231345F6761696F
:1035E0006E3D3078256C58207231365F7363616CA4
:1035F000653D3078256C58207231375F61646376A1
:103600006F6C3D30782530326C58207230413D303F
:10361000782530326C58207234345F6164636461A1
:10362000745F73656C3D256C752072785F6F767280
:103630003D256C7520736F66745F6672616D65738E
:103640003D256C752062636C6B5F746F3D256C75F6
:10365000206C72636B5F746F3D256C752070696EB2
:103660005F686967683D256C752070696E5F656489
:103670006765733D256C750D0A0000005B25732D91
:1036800072787261775D206C6566745F7065616BDE
:103690003D256C752072696768745F7065616B3D6C
:1036A000256C75206C6566745F6E7A3D256C75209F
:1036B00072696768745F6E7A3D256C752074696DF8
:1036C000656F7574733D256C75206F7665727275C4
:1036D0006E733D256C7520736F66745F6672616DE5
:1036E00065733D256C752062636C6B5F746F3D255F
:1036F0006C75206C72636B5F746F3D256C75207008
:10370000696E5F686967683D256C752070696E5FDA
:1037100065646765733D256C750D0A003C370008CC
:10372000000000204C0000006C01000888370008F1
:103730004C0000208C960000880100080100000069
:103740000000000001000000000000000000000078
:103750000000000030000000000000000000000039
:103760000000000000000000000000000000000059
:10377000000000000204060800000000010203042B
:08378000010203040607080919
:0400000508000131BD
:00000001FF
