:020000040800F2
:1000000090930020E9010008AB0B00083B0A0008B0
:10001000A90B000875070008511000080000000037
:10002000000000000000000000000000AB0D000810
:10003000B108000800000000250C00086D0E000843
:10004000030200080302000803020008030200087C
:10005000030200080302000803020008B5080008B4
:10006000030200080302000803020008030200085C
:10007000030200080302000803020008030200084C
:10008000030200080302000803020008030200083C
:10009000030200080302000803020008030200082C
:1000A000030200080302000803020008030200081C
:1000B000030200080302000803020008030200080C
:1000C00003020008030200080302000803020008FC
:1000D00003020008C10E0008030200080302000822
:1000E00003020008030200080302000803020008DC
:1000F00003020008030200080302000803020008CC
:1001000003020008030200080302000803020008BB
:1001100003020008030200080302000803020008AB
:10012000030200080302000803020008030200089B
:1001300000F002F800F048F80AA090E8000C8244B1
:100140008344AAF10107DA4501D100F03DF8AFF28E
:10015000090EBAE80F0013F0010F18BFFB1A43F0A5
:1001600001031847C82B0000E82B0000103A24BFF9
:1001700078C878C1FAD8520724BF30C830C144BF0C
:1001800004680C607047000000230024002500264E
:10019000103A28BF78C1FBD8520728BF30C148BFEA
:1001A0000B607047642900F09D80752900F09A80EB
:1001B000782900F0D380732900F0788200207047FE
:1001C0001FB51FBD10B510BD00F0A2FA1146FFF714
:1001D000F7FF02F005FA00F0C0FA03B4FFF7F2FFF0
:1001E00003BC00F03DFF0000094880470948004774
:1001F000FEE7FEE7FEE7FEE7FEE7FEE7FEE7FEE7D7
:10020000FEE7FEE704480549054A064B7047000033
:10021000710E0008310100089071002090930020B9
:100220009073002090730020704700000FB40449C1
:1002300010B503AA029800F03DFA10BC5DF814FB5B
:100240000400002070B5044685690068C10601D528
:10025000302600E02026C00707D070BDD4E9012178
:1002600030469047206A401C20626D1EF6D570BD56
:1002700070B5044685690078C00707D170BDD4E920
:10028000012120209047206A401C20626D1EF6D577
:1002900070BD70B50C460546012A05D02878800649
:1002A00000D5EA69002302E0012305E05B1C9342CC
:1002B00002D2E05C0028F9D1A869E618C01AA8614A
:1002C000286A184428622846FFF7BCFF04E0D5E9F5
:1002D000012114F8010B9047B442F8D32846FFF7E8
:1002E000C7FF70BD2DE9F04106460024106875294E
:1002F000314616A510D0AFF30080002802DA404244
:1003000013A507E031688A0701D512A502E0490765
:1003100004D511A5012401E0AFF3008000210A22D9
:1003200006F1240709E0B0FBF2FCB0FBF2F302FB9C
:100330001C00303078541846491C0028F3D123465D
:100340002A463046BDE8F04100F045B90000000003
:100350002D0000002B0000002000000070B50446B6
:100360000D4621461068AFF300802188090502D5AB
:100370000F4A7A4402E00E4A7A440E32002104F118
:10038000240305E000F00F060009965D5E54491C49
:100390000028F7D120780023000704D5702D02D063
:1003A00009B1022311322046BDE8704000F013B9B4
:1003B000E62500002DE9F05F894604464FF0000A6B
:1003C000DFF874B1FB44C0F820A02046E1688847FC
:1003D000002874D0252806D0D4E901219047206A4E
:1003E000401C2062F1E700265F462046E16888470E
:1003F0002028054607DB312D05D2781910F8200C8E
:1004000008B10643F1E7B00701D526F00406C4F8A9
:100410001CA00027C4F818A02A2D09D0284600F0F7
:1004200018FE38B304EB8708303DC8F8185019E0BF
:1004300059F8041B204604EB87029161E168884764
:10044000012F054618D1E069002820DA26F02006A1
:100450001DE0D8F8180000EB800005EB40003038B4
:10046000C8F818002046E1688847054600F0F1FD0D
:100470000028EED1012F0AD02E2D08D12046E168A8
:1004800088477F1C0546022F46F02006C4DBA06982
:10049000002803DA404246F00106A061F00701D0CF
:1004A00026F010066C2D0BD0682D09D04C2D39D0BC
:1004B0006A2D35D0742D35D07A2D33D016E038E042
:1004C000E1682F4620468847B842054609D16C2F7F
:1004D00026D04FF48060E1680643204688470546F1
:1004E00004E06C2F1AD04FF4807006430DB3A5F1D1
:1004F0004100192802D8203546F400664A462946AC
:10050000204626604E46FFF74DFE80B101280BD0F5
:10051000F61D26F0070000F1080956E74020E4E741
:100520008020D8E70020D6E706F104094DE72846E9
:1005300052E7206ABDE8F09FBC2500004FF00002A2
:100540000429C0F0128010F0030C00F01B80CCF1E5
:10055000040CBCF1020F18BF00F8012BA8BF20F853
:10056000022BA1EB0C0100F00DB85FEAC17C24BFA7
:1005700000F8012B00F8012B48BF00F8012B704751
:100580004FF0000200B5134694469646203922BF2C
:10059000A0E80C50A0E80C50B1F12001BFF4F7AF77
:1005A000090728BFA0E80C5048BF0CC05DF804EB59
:1005B000890028BF40F8042B08BF704748BF20F8C7
:1005C000022B11F0804F18BF00F8012B70477047C5
:1005D0007047704770472DE9F0470D46994692469F
:1005E000044600F124080168880604D5E06921F07A
:1005F0001001216000E00120A84201DD471B00E05E
:100600000027A1697A1902EB0900081AA061207875
:10061000C00602D42046FFF715FE002608E0D4E904
:1006200001211AF806009047206A401C761C2062BF
:100630004E45F4DB2078C0060AD52046FFF702FEBF
:1006400006E0D4E9012130209047206A401C206256
:10065000381EA7F10107F4DC07E0D4E9012118F8FE
:1006600005009047206A401C2062281EA5F1010564
:10067000F3DC2046FFF7FCFD2078000602D50220BF
:10068000BDE8F0870120FBE710B5436913B1AFF374
:10069000008001E0FFF7FDFD012010BD127800F1A0
:1006A00024010A7000224A700122EDE711684FF020
:1006B000FF32E9E7074B70B50D467B4400F011F8B7
:1006C0000446284600F020F810B14FF0FF3070BD0E
:1006D000204670BD331E000001694A1C0261087883
:1006E000704700B58FB0CDE9013100210591054972
:1006F0007944CDE9031011466846FFF75BFE0FB061
:1007000000BD0000E5FFFFFF007B00F080007047A8
:10071000754600F02BF8AE4605006946534620F0BA
:100720000700854618B020B5FFF76CFDBDE82040F6
:100730004FF000064FF000074FF000084FF0000B9D
:1007400021F00701AC46ACE8C009ACE8C009ACE850
:10075000C009ACE8C0098D46704710B50446AFF338
:1007600000802046BDE81040FFF737BD00487047C5
:100770002C710020FEE70029016802D041F0010140
:1007800002E04FF6FE7211400160704701684FF6BB
:10079000FE72114001600021016041608160C16012
:1007A0003149314A0839904203D1486840F00F007E
:1007B00006E02D4A1432904204D1486840F0F0001F
:1007C00048607047284A2832904203D1486840F474
:1007D0007060F5E7244A3C32904203D1486840F407
:1007E0007040EDE7204A5032904203D1486840F40F
:1007F0007020E5E71C4A6432904203D1486840F417
:100800007000DDE7184A7832904203D1486840F022
:100810007060D5E7154A111F904203D1086840F077
:100820000F0006E0114A1432904204D1086840F0EB
:10083000F000086070470D4A2832904203D10868E2
:1008400040F47060F5E7094A3C32904203D10868F1
:1008500040F47040EDE7054A50329042EAD1086812
:1008600040F47020E5E70000080002400804024060
:10087000406880B2704730B5036847F6F072934322
:100880000C6A8A682243D1E904452C4322438C69CF
:100890002243CC6922434C6A22438C6A22431A4386
:1008A0000260CA6842600A6882604968C16030BDFF
:1008B0007047000010B5104C0221204600F0A6F849
:1008C000012812D10A2001F0ADFB0221204600F0E0
:1008D0009DF8012809D10948017859B10022027018
:1008E0004FF48041064800F0A3F8BDE81040022014
:1008F00000F008B80122F2E70018014000000020D3
:1009000000140140014908607047000014040140D0
:10091000F0B5CA78002502F00F03D20601D58A7817
:1009200013430A784FF00F0E12F0FF0F4FF0010241
:100930001CD004680F8802FA05F63740B74211D17F
:100940004FEA850C0EFA0CF724EA070703FA0CF4B9
:100950003C43CF78282F02D0482F02D002E04661D6
:1009600000E006616D1C082DE4D304600C88FF2CA8
:100970001ED944685FF0000606F1080702FA07F581
:100980000F882F40AF420FD14FEA860C0EFA0CF7BA
:10099000BC4303FA0CF73C43CF78282F00D14561C4
:1009A000CF78482F00D10561761C082EE4D344602F
:1009B000F0BD0000F0B5144C002801DAE36900E056
:1009C0006368420D120185B2C0F301579540C0F330
:1009D0000346032F05D0C2020AD50322B240934337
:1009E00007E023F07062636823F07063636002E0E5
:1009F000AB4343F0706201B12A43002801DAE2619F
:100A0000F0BD6260F0BD0000000001400246002021
:100A100092680A4200D00120704702460020D26846
:100A20000A4200D001207047416170470161704760
:100A30000AB10161704741617047FEE70029818B6F
:100A400002D041F4806101E021F48061818370472C
:100A5000F0B505460C4602200021AA8B85B0012680
:100A60004FF240031A40AA832884AF8BA268022A5F
:100A700027D0A08800B10226684600F011F9E1886D
:100A80000098B1F5007F2DD07101B0FBF1F000BFEF
:100A900000EB8000A1684000B0FBF1F0401D80B287
:100AA0000A21B0FBF1F000F00101401A4FF6FF728D
:100AB000C0F34F0002EA0121821EFE2A01D3022068
:100AC0000021E288084302432A8420886188A289A1
:100AD0000843A18811430843384340F40060A883C9
:100AE00005B0F0BD000AD3E72DE9F0410C460646FB
:100AF00086B090460121042000F0BAF84FF400704F
:100B0000ADF8100003258DF812501820244F8DF8F1
:100B1000130004A93846FFF7FBFE3815ADF81000A6
:100B20008DF8125048208DF8130004A93846FFF7BD
:100B3000EFFE0121880300F09BF800200C21ADF8A6
:100B40000A10ADF80600174DADF80C00ADF808001E
:100B5000ADF8040000966946284600F01FFA01210E
:100B6000284600F0D9F9012240F22551284600F02C
:100B7000FCF9012240F22441284600F0F6F9252034
:100B80008DF8140001208DF817008DF815408DF8B0
:100B9000168005A800F00AF806B0BDE8F081000054
:100BA0000008014000380140FEE7704770B50F2390
:100BB000C47801780122F4B1144C2468457804F417
:100BC000E064C4F5E064240AC4F10406E3408478D8
:100BD000B5401C402C4301F1E021230181F8003491
:100BE000007800F01F018A404009800000F1E020F9
:100BF000C0F8002170BD01F01F008240480980004C
:100C000000F1E020C0F8802170BD00000CED00E094
:100C10000249084302490860704700000000FA05D5
:100C20000CED00E070470000044A0029516901D032
:100C3000014300E081435161704700000010024011
:100C4000044A0029D16901D0014300E08143D16108
:100C50007047000000100240044A0029116901D0C9
:100C6000014300E081431161704700000010024021
:100C7000044A0029916901D0014300E08143916158
:100C80007047000000100240044A0029D16801D0DA
:100C9000014300E08143D160704700000010024032
:100CA00030B51F494A6812F00C031E4A03D0042BCA
:100CB00001D0082B21D002604A680F231A4C03EAA6
:100CC0001212A35C0268DA4042604B68072505EA0D
:100CD0001323E35C22FA03F383604B6805EAD32312
:100CE000E35CDA40C2604968032303EA9131231FC1
:100CF000595CB2FBF1F1016130BD4A684B6802F406
:100D000070124FF0020413F4803F04EB924202D0C1
:100D10004B689B0301D5054B00E0024B5A43CAE7E1
:100D20000010024000127A003400002000093D004B
:100D3000002A828801D00A4300E08A4382807047FB
:100D4000114910B588420AD1841401212046FFF7C9
:100D50009BFF2046BDE810400021FFF795BF0B49DF
:100D6000884202D10121041404E0094988420AD1D1
:100D70000121C4132046FFF76FFF2046BDE8104055
:100D80000021FFF769BF10BD00300140003800406E
:100D9000003C00400246002012890A4200D0012097
:100DA0007047808970478181704770470CB500217A
:100DB000264801910091026842F4803202604FF4AB
:100DC000A063026802F400320092019A521C019260
:100DD000009A12B9019A9A42F3D10268920333D56C
:100DE000012100911A490A6842F010020A600A685B
:100DF00022F003020A600A6842F002020A604168B7
:100E0000416041684160416841F4806141604168EE
:100E100021F47C114160416841F4E81141600168AE
:100E200041F08071016001688901FCD5416821F0C1
:100E300003014160416841F0020141604168C1F332
:100E400081010229FAD10CBD00910CBD00100240B5
:100E5000002002404FF0E0210428086903D020F070
:100E600004000861704740F00400FAE77047000092
:100E70000F4810B5016841F00101016041680D4A59
:100E80001140416001680C4A11400160016821F481
:100E900080210160416821F4FE0141604FF41F018F
:100EA0008160FFF783FF05494FF00060086010BDC7
:100EB000001002400000FFF8FFFFF6FE08ED00E022
:100EC00070B5124D40F22551284600F02FF8104C15
:100ED000012601280CD12078802808D2284600F06D
:100EE000B3F80C4A21785054491C217000E0667018
:100EF00040F22441284600F019F8012804D128883E
:100F00000248001D0088667070BD00000038014076
:100F100001000020440000200029818902D041F412
:100F2000005101E021F400518181704730B501F09A
:100F30001F0201240025C1F3421304FA02F2012B1F
:100F40000FD0022B0FD0838A4FEA11210088134261
:100F500004FA01F400EA040001D000B1012528469A
:100F600030BD8389F0E7038AEEE710B5C1F3421381
:100F700001F01F040121A140012B07D0022B07D053
:100F80001430002A026805D00A4304E00C30F8E768
:100F90001030F6E78A43026010BD000030B5044609
:100FA000008A85B00D464CF6FF710840E988014380
:100FB0002182A1894EF6F3100140A8882A891043A6
:100FC0006A890A431043A081A08A4FF6FF41084076
:100FD000A9890143A1826846FFF762FE194884424D
:100FE00001D1039800E00298A189090400EBC00137
:100FF00001EB0010296801D5490000E08900B0FB31
:10100000F1F06422B0FBF2F109010B096FF0180551
:101010006B4300EB8300A3891D044FF0320306D518
:1010200003EBC000B0FBF2F000F0070005E003EBBB
:101030000010B0FBF2F000F00F000843208105B073
:1010400030BD0000003801408088C0F308007047C0
:10105000FEE730380A2801D201207047002070478F
:10106000704708B50020009000BF401C0090282861
:10107000FADB08BD002804DA10F5004F02DC4FF45B
:10108000004070474042704770B50D4604464068C6
:10109000154951F82010C8106A0700D50844AA075E
:1010A00001D500EB6100EA0701D000EBA100216847
:1010B0002A0701D5081A00E00844206000F0A8F8CB
:1010C000094B206005F00F02403B014653F82220F7
:1010D00060688018606001D5002002E0582801DDBA
:1010E0005820606008B270BD9827000870B50546AA
:1010F00040681D4A2B684FF0000452F82020C81A9F
:101100004FEAE20101D508244042904203DB44F05B
:101110000404801A1144B0EB620F05DB44F00204B2
:10112000A0EB620001EB6201B0EBA20F03DB44F025
:10113000010401EBA201200701D5581A00E058185C
:10114000286000F065F8084A28602046403A69683F
:1011500052F820208918696001D5002102E0582941
:1011600001DD5821696070BD982700082DE9FC4712
:10117000002000900646019044F620612048FFF7C9
:10118000FFF9DFF87CA049F6404800BFA8EB060550
:10119000802D00D98025012229461A4800F096FAB0
:1011A00018B14FF0FF30BDE8FC87002416E0DFF8EF
:1011B00054903719384639F9141000F00FF939F9FD
:1011C00014106846FFF792FF7908FA0715D01AF84D
:1011D000013043EA00130AF80130641CAC42E6D344
:1011E0002E4440464645D1D30749084A0860126854
:1011F000B2FBF0F0C8610020D5E70AF80100ECE787
:10120000C4000020E44E0020E44F0020080000202D
:10121000B0F5004F02DB47F6FF7070470249884285
:10122000FBDA0846704700000080FFFF2DE9F0411F
:1012300078213648FFF7A4F9344C01204FF4FA57CF
:1012400060600521C4E9027144F6206121618021BA
:101250002F4E61610025356047F6FF717560A1630F
:10126000C943E163A4F12001384641F8685F4D604D
:101270008D60CD600D614D618D61CD6104F16001C6
:101280008D60CD600D614D6100F0BCFD08B1681E40
:1012900033E0FFF76BFF10B16FF001002DE0316814
:1012A00049F64040B1FBF0F1E1617168B1FBF0F04B
:1012B00020631849002022180B5C02F8683F0B18C5
:1012C00003F58043401C93F8183E13720828F2D3AC
:1012D00000F070FD10B16FF002000EE04FF4967058
:1012E00000F024FE206400F053FC384600F068FE55
:1012F00000F016F820B16FF003006064BDE8F081E3
:1013000000F046FC00206564F8E70000E44F002090
:1013100008000020C400002000487047E44F00206F
:101320002DE9FC5F0020DFF8A48000900546DFF87F
:10133000A090DFF8A0B0A8F5807A019002E07E1BB3
:10134000802E02D98026002401E0002422E0281902
:101350000BEB5001C007097828D009096846FFF750
:1013600093FE2AF814000746FFF784FE0146D8F8DA
:101370002C2040468A4200D2C1621FB1426B521CEF
:10138000C8F83420D9F8042049F640471144641CB9
:10139000C9F80410B442DAD3012231460E4800F0F5
:1013A00067FD30B14FF0FF30BDE8FC9F01F00F0149
:1013B000D4E73544BD42C2D3D9F8041049F64040C1
:1013C000B1FBF0F10020C8F83010EDE7E44F002049
:1013D00008000020C4000020E44E002070B505463F
:1013E0000C460846FFF746FE01461948826BA242AA
:1013F00000DD8463C26BA24200DAC46382698A4260
:1014000000D28161134A5342ECB1066A761C06622F
:101410009C4201DA944202DC826A521C82620C48CD
:10142000082D00EB450001D2A0F8484049F63842AB
:10143000954203D3A0F5A030A0F8E847064802681B
:101440001144016070BD426A521C4262E7E700002D
:10145000E44F00200880FFFF0800002032214843AD
:10146000642190FBF1F1B1F5004F02DB47F6FF700C
:10147000704702488142FBDB08B270470080FFFFE3
:1014800038B56946002000F0A5FF8A4C10B99DF8D8
:101490000000A0616946012000F09CFF10B99DF892
:1014A0000000E0616946022000F094FF10B99DF849
:1014B000000020626946032000F08CFF10B99DF8FF
:1014C000000060626946042000F084FF10B99DF8B6
:1014D0000000A0626946052000F07CFF10B99DF86D
:1014E0000000E0626946062000F074FF10B99DF824
:1014F000000020636946072000F06CFF10B99DF8DA
:10150000000060636946082000F064FF10B99DF890
:101510000000A0636946092000F05CFF10B99DF847
:101520000000E06369460A2000F054FF10B99DF8FE
:101530000000206469460B2000F04CFF10B99DF8B4
:101540000000606469460C2000F044FF10B99DF86B
:101550000000A06469460D2000F03CFF10B99DF822
:101560000000E06569460E2000F034FF10B99DF8D8
:101570000000206669460F2000F02CFF10B99DF88E
:10158000000060666946102000F024FF10B99DF845
:101590000000A0666946112000F01CFF10B99DF8FC
:1015A0000000E0666946122000F014FF10B99DF8B3
:1015B000000020676946132000F00CFF10B99DF869
:1015C000000060676946142000F004FF10B99DF820
:1015D0000000A0676946162000F0FCFE10B99DF8D7
:1015E0000000E0676946252000F0F4FE18B99DF878
:1015F0000000C4F880006946312000F0EBFE10B90D
:101600009DF8000020656946322000F0E3FE10B925
:101610009DF80000E0646946332000F0DBFE10B95D
:101620009DF8000060656946342000F0D3FE10B9D3
:101630009DF80000A0656946372000F0CBFE18B980
:101640009DF80000C4F884006946442000F0C2FE02
:1016500018B99DF80000C4F888001748008844F8BD
:101660008C0F1548143000886060134818300088CB
:10167000A0601148001F0088E060104800682061E9
:101680000F48006860610F488168A1610B49091D1E
:101690000968E1610A49091D09682162C16861623E
:1016A00009494968A1624114FFF7B7F9E06200F007
:1016B00093FC38BD5C700020083C004008080140E5
:1016C000080C014000100140001002402DE9F047D5
:1016D00006001A4815460F460BD057B1012D0ED003
:1016E000022D0CD06FF00501C0F8C8108810BDE8BD
:1016F000F0876FF00401C0F8C810C810F7E70024A5
:101700008046C56012E000BF00F03AFC814600F060
:1017100037FC012D0ED006EB840126F8249048807A
:10172000D8F80410491C641CC8F80410BC42EBD360
:101730000020DCE726F81490F2E700005C7000203F
:1017400070B500F01DFE10B14FF0FF3070BD3F21AD
:10175000002000F087FE04460A2000F063FC802190
:10176000002000F07FFE0443022000F05BFC3021EB
:10177000012000F077FE04430021022000F072FEF9
:1017800004431021032000F06DFE044324211620A1
:1017900000F068FE04431021042000F063FE0443BF
:1017A0000021052000F05EFE044300210B2000F024
:1017B00059FE044300210C2000F054FE04431F2175
:1017C000102000F04FFE04437F21112000F04AFE5C
:1017D00004430F21062000F045FE0443FF210720AB
:1017E00000F040FE04430421082000F03BFE0443C7
:1017F0000C21092000F036FE04434C210A2000F0A1
:1018000031FE04430821442000F02CFE0443002153
:10181000312000F027FE0443BF21322000F022FED9
:1018200004430021332000F01DFE04430021342036
:1018300000F018FE044301210D2000F013FE0443C4
:10184000782000F0EFFB02210E2000F00BFE044395
:101850000121122000F006FE04431021132000F0A5
:1018600001FE04431A21142000F0FCFD044306216C
:101870000D2000F0F7FD04431E2000F0D3FB0021F3
:10188000252000F0EFFD40EA04053F21012000F093
:10189000E9FD40EA0504FFF7F3FD204670BD70B591
:1018A00000F06EFD10B14FF0FF3070BD302101200F
:1018B00000F0D8FD04460021022000F0D3FD0443CF
:1018C0001021032000F0CEFD04431021042000F07D
:1018D000C9FD04430021052000F0C4FD044300219C
:1018E000062000F0BFFD04431021072000F0BAFDE0
:1018F00004432021082000F0B5FD044330210920D5
:1019000000F0B0FD044300210A2000F0ABFD0443C9
:1019100000210B2000F0A6FD044300210C2000F064
:10192000A1FD04431821142000F09CFD0443002174
:10193000152000F097FD04432421162000F092FDAD
:1019400004438821172000F08DFD04430221182054
:1019500000F088FD04432021192000F083FD04439A
:1019600020211A2000F07EFD04430821372000F0DA
:1019700079FD04430021442000F074FD04438021DC
:10198000002000F06FFD40EA04053F21012000F037
:1019900069FD40EA0504FFF773FD204670BD0000B5
:1019A000084810B5806900280AD00748FEF760FF94
:1019B0004FF48051884200D908464042C0F30B00E2
:1019C00010BD0000100000201C04024070B500F0A3
:1019D00081F80A4C05466069A8420DD8E0694FF4C9
:1019E0000051401CE0610648FEF7A8FD05F5806542
:1019F000C5F30B006561606070BD00001000002041
:101A00005C50002070B54FF400548CB02146204843
:101A1000FEF794FD01210220FFF706F91D4E00217B
:101A20003046FEF7A8FE3046FEF7B0FE1A4800909A
:101A3000174801901020029000020025CDE903050F
:101A400080200590400006908000079008AA202082
:101A500082E8310069463046FEF70DFF0E4801224C
:101A600002210C38FFF764F901213046FEF783FEAE
:101A70000A4C0120A061FFF793FFC4E90205206131
:101A800000F580606061C0F30B0060600CB070BD59
:101A90005C5000201C0402400C3C00401000002060
:101AA00010B5002202210848FFF742F9002107483B
:101AB000FEF761FE06480021816141608160C160DE
:101AC0000161416110BD0000003C00401C04024067
:101AD0001000002010B5FFF763FF06498A689042A6
:101AE00002D2CA68521CCA608860CA6800EB023021
:101AF000086110BD1000002010B5FFF7EBFF04498E
:101B00004969814201D8002010BD081A10BD0000AB
:101B1000100000202DE9F0471A4C0646DFF86880D7
:101B2000A0690D4618B102274FF47E6909E03046DE
:101B300000F062FA284600F05FFA1CE0FFF746FF6B
:101B400000BFFFF7D9FF4845F8D2C0F57E60B84224
:101B5000F4D3FFF73BFF0D4A606822F81060401C89
:101B6000C0F30B01606922F81150491CC1F30B014D
:101B7000801C61606061D8F80010491CC8F8001032
:101B8000BDE8F087100000205C7000205C50002051
:101B900070B54FF48044251100E000BFFFF7ACFFA3
:101BA000A84201D9641EF8D270BD000000487047F9
:101BB0005C7000202DE9F84301211D20FFF758F843
:101BC0000121CE033046FFF73BF801210220FFF749
:101BD0002BF801212648FEF7EDFE03208DF80200C8
:101BE000C020ADF800001420DFF888808DF80300D5
:101BF00069464046FEF78CFE00F09EFC00F084FC37
:101C0000022000F00FFAB4101B4FADF80040102571
:101C10008DF8035069463846FEF77AFE214638466D
:101C2000FEF702FF8020ADF8000018248DF8034075
:101C300069463846FEF76CFEADF800608DF803404B
:101C400069460E48FEF764FE2820ADF800008DF8C6
:101C5000034069464046FEF75BFEADF800500420A5
:101C60008DF8030069464046FEF752FEBDE8F88352
:101C700000023000000C014000100140000801404B
:101C80007FB50446FFF70CFF2A4D2846FFF758F8AA
:101C90004FF44070ADF800000020ADF80400691565
:101CA000ADF8061042F21C51ADF802008C4202D889
:101CB0004FF4FA5126E043F2BC42944202D842F675
:101CC00011311FE044F63822944202D84FF47A5181
:101CD00018E046F67812944202D845F2226111E0EB
:101CE00049F27042944202D84FF4FA410AE0A4F556
:101CF0002741F839B1F5FA6F02D84AF6444101E0BC
:101D00004BF680310291ADF80C0069462846FEF78B
:101D10009FFE01212846FEF791FE0748054908313C
:101D200084600988C0F88C1002491C310988C0F809
:101D300090107FBD003C00405C7000207FB50446E1
:101D4000FFF7AEFE194D2846FEF7FAFF6915002091
:101D5000ADF80010ADF80400ADF80610A4F5274169
:101D6000F839ADF80200B1F5FA6F02D84AF64441ED
:101D700001E04BF680310291ADF80C00694628462F
:101D8000FEF766FE01212846FEF758FEFFF73AFEF1
:101D900007480649083184600988C0F88C10034957
:101DA0001C310988C0F890107FBD0000003C004045
:101DB0005C70002010B5FFF7FDFE012000F0F0F888
:101DC0000A2000F02FF94BF68030FFF7B7FF0A200A
:101DD00000F028F9FFF7B4FC28B108494FF0FF30B4
:101DE000C1F8C80010BD142000F01CF94FF40051D8
:101DF0000348FEF719FE002010BD00005C700020B3
:101E0000001001402DE9F041040001D14BF680346F
:101E1000FFF7D0FE022000F0C3F8134D134F4FF42C
:101E2000005631463846AC60FEF700FE0A2000F04E
:101E3000F9F82046FFF724FF0A2000F0F3F8FFF737
:101E40002EFD30B16FF00100C5F8C8004010BDE8AC
:101E5000F081142000F0E6F831463846FEF7E6FD42
:101E6000FFF70EFB0020F2E75C700020001001403D
:101E70002DE9F0412A4C17460E4605001ED0EEB162
:101E80002848E7600088C4F88C0026481430008891
:101E9000C4F890004FF400512348FEF7BEFDC4F88B
:101EA000B80000F099F8012F0ED0022F1ED06FF06D
:101EB0000300C4F8C8004010BDE8F0816FF00200D4
:101EC000C4F8C8008010F7E700240CE035F91400CE
:101ED000FFF7C4FA074635F91400FFF7BFFA394691
:101EE000FFF718FE641CB442F0D314E0002410E0A5
:101EF00005EB840135F92400B1F90210084400EB28
:101F0000D070401000B2FFF7A9FA0146FFF702FEB9
:101F1000641CB442ECD300F05FF80020CCE7000072
:101F20005C700020083C0040001001402DE9F041A9
:101F30004BF6803148434FF47A71B0FBF1F700243F
:101F40003026DFF8388014E0B4FBF6F006FB1041D1
:101F500038F91100FFF782FA0546B4FBF6F006FBEC
:101F6000104138F91100FFF779FA2946FFF7D2FD41
:101F7000641CBC42E8D30020BDE8F081FC280008C6
:101F800010B5064C01212046FEF704FF0028F9D0C9
:101F90002046FEF706FF00B210BD0000003C0040E6
:101FA00010B50446D0210548FEF7EAFA03484BF67F
:101FB0008031C0F8CC40816010BD00005C70002012
:101FC000002805D003498968814201D0FFF7B6BED9
:101FD000704700005C70002070B5054D054CE86945
:101FE00044F8BC0FFFF788FD60606868A06070BDB2
:101FF000100000205C70002070B5074D04460221DF
:102000002846FEF7C7FE0028F9D0A1B22846BDE851
:102010007040FEF7C8BE0000003C00406FF00400B6
:10202000FEF718BF42F2283148434FF0E0214861E3
:1020300000228A61086940F0010008610869C3074D
:1020400001D0C003FAD508690A618A6170470000AF
:1020500030B58FB00546FFF7A9FD0446BC300DF141
:10206000180C0FC88CE80F0004F10C01D4F8B8006C
:102070000EC9CDE90430CDE90212D4E90101CDE960
:10208000000129462D482368D4F8CC20FEF7CEF86D
:1020900004F13C000DF11C0C0FC88CE80F0004F19A
:1020A0002C000DF10C0C0FC88CE80F0004F120007F
:1020B00007C88DE80700D4E9062329462048FEF723
:1020C000B5F8D4E92123D4E915010DF1280C8CE8E9
:1020D0000F00D4E91332D4E91F010DF1180C8CE87C
:1020E0000F0004F16C000DF1080C0FC88CE80F0014
:1020F000D4E91901CDE90001D4E917232946114893
:10210000FEF794F804F1A4000DF1140C0FC88CE84C
:102110000F00D4E927230DF1040CD4F89800D4F86B
:10212000B4108CE80F00D4F894000090D4E9232375
:1021300029460548FEF77AF80FB030BD842B000819
:10214000482A000898290008DC2A000810B586B043
:10215000FFF7E2F804460DF1040CD4E91023D4E9AA
:1021600004018CE80F00E068009094E80E003B4802
:102170002834FEF75BF8A4F10C000FC88DE80F00BF
:10218000D4E9041254F8103C3548FEF74FF8211DED
:1021900034A00EC9FEF74AF8B4F928000DF1040C7A
:1021A000B4F92E30B4F92C20B4F92A108CE80F00C1
:1021B000B4F926000090B4F92430B4F92220B4F91F
:1021C000201036A0FEF732F8B4F938000DF1040CF7
:1021D000B4F93E30B4F93C20B4F93A108CE80F0061
:1021E000B4F936000090B4F93430B4F93220B4F9BF
:1021F000301037A0FEF71AF894F844000DF1040CE3
:1022000094F8473094F8462094F845108CE80F0075
:1022100094F84300009094F8423094F8412094F8E8
:10222000401037A0FEF702F894F84C000DF1040CB2
:1022300094F84F3094F84E2094F84D108CE80F002D
:1022400094F84B00009094F84A3094F8492094F8A0
:1022500048103BA0FDF7EAFF06B010BD242C000893
:10226000D42C00085B7265636F72642D706C6179A9
:102270006261636B5D207065616B3D256C75206DDF
:1022800065616E5F6162733D256C75206E6F6E7A5D
:1022900065726F3D256C750D0A0000005B72656309
:1022A0006F72642D73616D706C65732D66697273E6
:1022B000745D202564202564202564202564202564
:1022C000642025642025642025640D0A0000000098
:1022D0005B7265636F72642D73616D706C65732DD5
:1022E0006C6173745D20256420256420256420259D
:1022F000642025642025642025642025640D0A00BF
:102300005B7265636F72642D616470636D2D6669C5
:102310007273745D202530325820253032582025C4
:102320003032582025303258202530325820253080
:102330003258202530325820253032580D0A0000FE
:102340005B7265636F72642D616470636D2D6C6187
:1023500073745D20253032582025303258202530C6
:10236000325820253032582025303258202530323E
:1023700058202530325820253032580D0A000000F0
:1023800070B5302000F01AF80A4C0B4D50B13220D5
:1023900000F014F840B100202861FF2068614FF080
:1023A000FF3070BD302000E0322020702861002016
:1023B00070BD0000100000205C70002010B50446C5
:1023C00000F0E3F820468022BDE81040002100F034
:1023D00077B8000010B5044600F008F8002801D0D6
:1023E00001494C6110BD00005C7000202DE9F041F6
:1023F0000E46074600F0BEF8194D287800F0CEF8DA
:102400000446384600F0CAF8044300F0B3F82878D0
:1024100040F0010000F0C2F8204307001AD1002468
:1024200000F08AF800256006040E00F06DF800F058
:102430009BF808B144F0010400F072F86D1C082DFF
:10244000F1DB00F079F800F05FF800F069F800F0D7
:1024500073F8347000F099F83846BDE8F081000058
:10246000100000202DE9F84306460020124F884650
:102470008DF80000044642463146387800F020F8D6
:1024800005000BD00220FFF7CDFD69463046FFF76F
:10249000ADFF30B99DF80010414502D10020BDE8E4
:1024A000F8830220FFF7BEFD641C032CE3DB034826
:1024B00046612846F3E70000100000205C70002011
:1024C00070B515460C46064600F054F8304600F04C
:1024D00065F80646204600F061F840EA0604284602
:1024E00000F05CF840EA040500F04FF8284670BDA3
:1024F00004490A885206FCD5024AC1B2121D118055
:10250000704700000038014010B540210348FEF735
:102510008DFABDE81040FEF7A4BD0000000C01409C
:1025200010B540210348FEF77FFABDE81040FEF7E2
:1025300098BD0000000C014010B580210348FEF753
:1025400075FABDE81040FEF78CBD0000000C01409C
:1025500010B580210348FEF767FABDE81040FEF78A
:1025600080BD0000000C014080210148FEF74EBAFA
:10257000000C014010B5FFF7DFFFFFF7C5FFFFF7C5
:10258000E7FFBDE81040FFF7CBBF10B5FFF7E0FF56
:10259000FFF7BAFFBDE81040FFF7CEBF70B50546A4
:1025A0000024280602D5FFF7C7FF01E0FFF7D0FFA0
:1025B000FFF7AAFFFFF7B4FF6806050E641C082C9E
:1025C000EFDBFFF7B9FFFFF79FFFFFF7CDFF0446F3
:1025D000FFF7A6FF14B14FF0FF3070BD002070BDB3
:1025E0004FF4A060FEF714FBFFF718FD0222012153
:1025F0004FF4E130FEF778FA13A0FDF717FE1BA2A7
:102600001DA120A0FDF712FE26A0FDF70FFE30A0B1
:10261000FDF70CFE3A48FDF709FEFEF707FE0446FB
:10262000014638A0FDF702FEFFF790FD3EA0FFF740
:102630000FFD214640A0FDF7F9FD4FF47A742046C6
:10264000FFF7F0FCFBE700000D0A5B617564696F42
:102650002D7265636F72645D20626172656D657471
:10266000616C20626F6F740D0A00000031373A33DD
:10267000313A3132000000004A756C202037203298
:10268000303236005B617564696F2D7265636F72FD
:10269000645D206275696C642025732025730D0AC2
:1026A000000000005B617564696F2D7265636F7275
:1026B000645D20555341525431205041392F5041CF
:1026C00031302031313532303020384E310D0A0072
:1026D0005B617564696F2D7265636F72645D2066FE
:1026E000773D7265636F72642D35732D616470631D
:1026F0006D2D64656275672D76320D0A000000004D
:10270000902C00085B617564696F2D7265636F7250
:10271000645D207265636F72645F726573756C745B
:102720003D25640D0A0000007265636F72642D6CB4
:102730006F6F706261636B005B617564696F2D72AE
:1027400065636F72645D20646F6E65207265636F90
:1027500072643D25640D0A00FFFFFFFFFFFFFFFFCE
:10276000FFFFFFFFFFFFFFFF02000000040000006B
:102770000600000008000000FFFFFFFFFFFFFFFF53
:10278000FFFFFFFFFFFFFFFF02000000040000004B
:10279000060000000800000007000000080000001C
:1027A000090000000A0000000B0000000C000000FF
:1027B0000D0000000E0000001000000011000000DD
:1027C00013000000150000001700000019000000B1
:1027D0001C0000001F000000220000002500000077
:1027E000290000002D00000032000000370000002A
:1027F0003C000000420000004900000050000000C2
:1028000058000000610000006B000000760000002E
:10281000820000008F0000009D000000AD0000005D
:10282000BE000000D1000000E6000000FD00000036
:102830001701000033010000510100007301000086
:1028400098010000C1010000EE010000200200001C
:102850005602000092020000D40200001C03000097
:102860006C030000C3030000240400008E04000079
:10287000020500008305000010060000AB06000002
:102880005607000012080000E0080000C30900001D
:10289000BD0A0000D00B0000FF0C00004C0E000031
:1028A000BA0F00004C11000007130000EE140000E6
:1028B0000617000054190000DC1B0000A51E0000D4
:1028C000B621000015250000CA280000DF2C0000FA
:1028D0005B3100004B360000B93B0000B241000004
:1028E000444800007E4F0000715700002F60000038
:1028F000CE69000062740000FF7F000000001E0629
:10290000210CF01170178C1C252126259828042BEA
:10291000462D642EE02E642E462D042B9828262565
:1029200025218C1C7017F011210C1E060000E2F905
:10293000DFF310EE90E874E3DBDEDADA68D7FCD47C
:10294000BAD29CD120D19CD1BAD2FCD468D7DADAE1
:10295000DBDE74E390E810EEDFF3E2F9303132337E
:1029600034353637383941424344454640305800C3
:1029700030313233343536373839616263646566F5
:102980004030780004000008000000000000000251
:1029900000010000100000005B25732D636F64656B
:1029A000632D625D207230443D2530326C582072B8
:1029B00030453D2530326C58207230463D2530324E
:1029C0006C58207231303D2530326C5820723131D4
:1029D0003D2530326C58207231323D2530326C58F2
:1029E000207231333D2530326C58207231343D2510
:1029F00030326C58207231363D2530326C5820729E
:102A000032353D2530326C58207233313D2530321D
:102A10006C58207233323D2530326C58207233337B
:102A20003D2530326C58207233343D2530326C589D
:102A3000207233373D2530326C58207234343D25B6
:102A400030326C580D0A00005B25732D636F64658E
:102A5000632D615D207230303D2530326C5820721C
:102A600030313D2530326C58207230323D253032C5
:102A70006C58207230333D2530326C58207230341F
:102A80003D2530326C58207230353D2530326C583F
:102A9000207230363D2530326C58207230373D255B
:102AA00030326C58207230383D2530326C582072EC
:102AB00030393D2530326C58207230413D2530325E
:102AC0006C58207230423D2530326C5820723043B1
:102AD0003D2530326C580D0A000000005B25732D37
:102AE0006D63755D207370695F73723D307825305A
:102AF000346C5820693273636667723D30782530D4
:102B0000346C582069327370723D30782530346CE3
:102B100058207370695F6372323D30782530346CB1
:102B200058207263635F636667723D307825303882
:102B30006C58206770696F5F69647220413D30781E
:102B40002530346C5820423D30782530346C582084
:102B5000433D30782530346C58206770696F5F6F63
:102B6000647220413D30782530346C5820423D302D
:102B7000782530346C5820433D30782530346C58FB
:102B80000D0A00005B25735D206D6F64653D256453
:102B90002074785F6672616D65733D256C75207277
:102BA000785F6672616D65733D256C752073723D4B
:102BB000256C752063683D256C7520636F646563C3
:102BC0005F616464723D30782530326C58206661F4
:102BD000696C5F7265673D30782530326C582061D2
:102BE0006D705F706331333D256C7520646D615F7E
:102BF000756E6465723D256C7520646D615F7573DB
:102C000065643D256C7520646D615F773D256C754D
:102C1000206C6173745F6572726F723D25640D0A7A
:102C2000000000005B7265636F72645D2073616D0C
:102C3000706C65735F7065725F6368616E6E656C02
:102C40003D256C752063683D256C752073723D25AC
:102C50006C75206475726174696F6E5F733D256C6D
:102C60007520616470636D5F62797465733D256C76
:102C700075206368756E6B3D256C7520746F6E658D
:102C80003D256420726573756C743D25640D0A00E2
:102C90005B617564696F2D7265636F72645D20722C
:102CA00065636F7264206C6F6F706261636B207319
:102CB000746172742C20737065616B20666F722072
:102CC00061626F75742035207365636F6E64730D78
:102CD0000A0000005B7265636F72642D636170743B
:102CE0007572655D206D696E3D2564206D61783D6E
:102CF0002564207065616B3D256C75206D65616E86
:102D00005F6162733D256C75206E6F6E7A65726FC0
:102D10003D256C75207A65726F3D256C7520636C5E
:102D200069707065643D256C750D0A004C2D0008B6
:102D300000000020440000006C010008902D0008F5
:102D4000440000204C9300008801000801000000AE
:102D50000000000000000000000000003000000043
:102D60000000000000000000000000000000000063
:102D7000000000000000000000000000020406083F
:102D80000000000001020304010203040607080911
:0400000508000131BD
:00000001FF
